:100000000C9457000C9476000C9476000C947600B7
:100010000C9476000C9476000C9476000C94760088
:100020000C9476000C9476000C9476000C94760078
:100030000C9476000C9476000C9476000C94760068
:100040000C94182B0C9476000C9476000C9476008B
:100050000C9476000C9476000C9476000C94760048
:100060000C9476000C9476000C9476000C94760038
:100070000C9476000C9476000C9476000C94760028
:100080000C9476000C9476000C947600FF047405B2
:100090003C06A9063E08A70806096A09E509550AAB
:1000A000C00AEE0B3C06D60723076E074F0B112440
:1000B0001FBECFEFD0E1DEBFCDBF14E0A0E0B1E0C6
:1000C000EAE8F7E500E00BBF02C007900D92AC36FE
:1000D000B107D9F725E0ACE6B4E001C01D92A23625
:1000E000B207E1F70E94092B0C94C32B0C9400007B
:1000F000E1E6F0E0908121E030E0082E01C0220F1F
:100100000A94EAF72095292320830895633081F12A
:1001100028F4613059F06230D1F00895653009F467
:1001200049C0B8F1673009F456C008959AB321E088
:1001300030E0082E01C0220F0A94EAF7442321F090
:10014000209529232ABB0895922B9ABB089597B333
:1001500021E030E0082E01C0220F0A94EAF7442380
:1001600021F02095292327BB0895922B97BB089552
:1001700094B321E030E0082E01C0220F0A94EAF780
:10018000442321F02095292324BB0895922B94BB6E
:10019000089591B321E030E0082E01C0220F0A94A7
:1001A000EAF7442321F02095292321BB0895922BBF
:1001B00091BB089592B121E030E0082E01C0220FDA
:1001C0000A94EAF7442321F02095292322B90895BF
:1001D000922B92B908959091640021E030E0082EAE
:1001E00001C0220F0A94EAF7442329F0209529231D
:1001F000209364000895922B9093640008956330D7
:1002000089F030F4613061F06230F1F426B30FC050
:10021000653061F048F06730B9F42091630007C0A1
:1002200029B305C023B303C020B301C021B130E01E
:1002300002C0359527958A95E2F72170332781E032
:100240002827822F8170089580E00895633081F11E
:1002500028F4613059F06230D1F00895653009F426
:1002600049C0B8F1673009F456C008959BB321E046
:1002700030E0082E01C0220F0A94EAF7411104C0B1
:10028000209529232BBB0895922B9BBB089598B3EF
:1002900021E030E0082E01C0220F0A94EAF7411154
:1002A00004C02095292328BB0895922B98BB08955C
:1002B00095B321E030E0082E01C0220F0A94EAF73E
:1002C000411104C02095292325BB0895922B95BB8D
:1002D000089592B321E030E0082E01C0220F0A9465
:1002E000EAF7411104C02095292322BB0895922BDF
:1002F00092BB089593B121E030E0082E01C0220F97
:100300000A94EAF7411104C02095292323B90895DE
:10031000922B93B908959091650021E030E0082E6A
:1003200001C0220F0A94EAF7411105C02095292344
:10033000209365000895922B909365000895209175
:100340007A0490917B04892F822351F081E080937D
:100350007E0480936D0410927A0410927B0413C083
:1003600080916D04882321F010927E0410926D0418
:1003700081E030917204311180E0282320937A04C7
:10038000892380937B0420917C0490917D04892FA4
:10039000822351F081E080937F0480936C0410925B
:1003A0007C0410927D04089580916C04882321F0D0
:1003B00010927F0410926C0481E03091730431112B
:1003C00080E0282320937C04892380937D04089572
:1003D000CF9341E060912001809127010E94260186
:1003E0008DE58A95F1F7000060911B018091220153
:1003F0000E94FF0080937A0460911C018091230188
:100400000E94FF0080937B0460911D018091240174
:100410000E94FF0080937C0460911E018091250161
:100420000E94FF0080937D0440E060912001809154
:1004300027010E9426019DE59A95F1F70000609141
:100440001D01809124010E94FF00C82F60911E01B0
:10045000809125010E94FF008C2360911F01882359
:1004600009F4B7C0809126010E94FF0080938004A8
:1004700060912101809128010E94FF0080937F04F8
:1004800041E060912001809127010E9426018DE5C5
:100490008A95F1F7000060911F01809126010E946A
:1004A000FF008093810460912101809128010E94C6
:1004B000FF008093820440E0609120018091270139
:1004C0000E9426019DE59A95F1F7000041E06091B8
:1004D0002001809127010E9426018DE58A95F1F780
:1004E000000040E060912001809127010E942601D8
:1004F0009DE59A95F1F7000060911B018091220122
:100500000E94FF00C82F60911C01809123010E946E
:10051000FF00C82360911D01809124010E94FF000B
:10052000C82360911E01809125010E94FF008C2349
:1005300009F448C041E060912001809127010E94A8
:1005400026018DE58A95F1F7000060911B018091ED
:1005500022010E94FF008093850460911C0180911C
:1005600023010E94FF008093840460911D0180910B
:1005700024010E94FF008093830460911E018091FA
:1005800025010E94FF0080937E0440E060912001DD
:10059000809127010E9426019DE59A95F1F70000C0
:1005A00041E060912001809127010E9426018DE5A4
:1005B0008A95F1F7000040E06091200180912701C9
:1005C0000E9426018FE097E20197F1F700C000003A
:1005D0000EC0809126010E94FF00809380046091EC
:1005E0002101809128010E94FF008093810441E055
:1005F00060912001809127010E9426019DE59A9536
:10060000F1F70000CF91089598E080E061E070E09C
:10061000282F30E035952795822F41B150E000908A
:10062000230102C0559547950A94E2F740FF806880
:1006300043B19B010090250102C0220F331F0A9491
:10064000E2F72095242323B920EA2A95F1F743B154
:100650009B010090250102C0220F331F0A94E2F78C
:10066000422B43B920EA2A95F1F7915089F6089573
:1006700042B181E090E09C010090230102C0220F72
:10068000331F0A94E2F7322F3095342332B933B155
:10069000322B33B942B19C010090240102C0220FD9
:1006A000331F0A94E2F7422B42B933B1322B33B9EC
:1006B00022B10090250102C0880F991F0A94E2F729
:1006C000282B22B993B1982B93B98FEE90E0019724
:1006D000F1F700C0000023B181E090E00090240118
:1006E00002C0880F991F0A94E2F78095822383B98C
:1006F00090EA9A95F1F70E940403982F91709093D5
:100700008004982F927090938104982F9470909306
:100710007E04982F987090937F04982F90719093F7
:100720007A04982F907290937B04982F90749093F2
:100730007C04807880937D0442B181E090E09C014C
:100740000090240102C0220F331F0A94E2F7322FD7
:100750003095342332B933B1322B33B922B1009002
:10076000250102C0880F991F0A94E2F7982F9095EF
:10077000922392B993B1982B93B90895E2E6F0E0F1
:100780008081877F808380818B7F808383E00E944C
:10079000780082E00C947800029B07C080B183FB54
:1007A000882780F991E08927089581E0089520E065
:1007B00030E02817390749F02F5F3F4F039B07C0F0
:1007C00041E24A95F1F70000F4CF80E0089581E01E
:1007D0000895882331F09AE19A95F1F700C084508A
:1007E000F8CF08959F92AF92BF92CF92DF92EF928F
:1007F000FF920F931F93CF93DF937C010399FECF5A
:10080000029BFECF80910001880F880F0E94E903B0
:100810008091610084608093610080910001880F65
:10082000880F880F0E94E90382E00E94780080917F
:100830000001880F880F0E94E903C0E0D0E0AA24DD
:10084000A394B12CCC24C394D12C99249394039BCE
:1008500008C096010C2E01C0220F0A94EAF7B22AB2
:10086000A92480910001880F880F0E94E9038091DC
:10087000610084608093610080910001880F880F7F
:10088000880F0E94E90382E00E94780080910001B5
:10089000880F880F0E94E9032196C830D105B9F668
:1008A00080B183FB002700F910E08A2D90E0081743
:1008B000190709F043C080910001880F880F0E943A
:1008C000E903809161008460809361008091000160
:1008D000880F880F880F0E94E90382E00E94780049
:1008E00080910001880F880F0E94E90380916100C8
:1008F00088608093610080910001880F880F0E94BA
:10090000E90380916100846080936100809100011F
:10091000880F880F880F0E94E90382E00E94780008
:1009200083E00E947800E3EFF1E03197F1F700C037
:100930000000F701B08280E090E002C08FEF9FEFEF
:10094000DF91CF911F910F91FF90EF90DF90CF90AB
:10095000BF90AF909F900895CF92DF92EF92FF9259
:100960000F931F93CF93DF93C3E4D1E00EE411E024
:100970006E01780141E06991F80181918F010E9437
:10098000860041E0F6016081F70180810E94260126
:10099000F1E0CE34DF0761F7C9E2D1E006E311E010
:1009A000699141E0F80181918F010E948600F1E098
:1009B000C633DF07A9F7DF91CF911F910F91FF9009
:1009C000EF90DF90CF900895CF93DF93EC01DB01A0
:1009D0004131510529F480910301813009F4FFC6AA
:1009E0008881882309F4FBC64150510941315105E2
:1009F00008F0F4C64A5B5F4FFA010C948E2B8C31E1
:100A0000A1F0982F9F7E933291F0843481F08A3246
:100A100071F0982F9B7F9A3151F0913341F096EC11
:100A2000980F81E0933020F402C082E001C080E0A2
:100A30008C9388818E3109F441C08C3209F452C004
:100A40008D3209F44DC08433E9F18B32C9F1833220
:100A500099F18B3199F18C31B9F1853389F18C336E
:100A600089F18434B9F18D3479F18A3279F18132A6
:100A700069F1823269F18A3189F1833349F18B332B
:100A800059F1823439F18B3439F1823339F18133C0
:100A900039F18A3339F1982F9F7E963209F49CC63A
:100AA00093EC980F923008F497C69BEB980F923016
:100AB00008F492C680E090C681E68EC684E58CC6B6
:100AC0008BE58AC68DE588C68EE186C68AE484C633
:100AD00085E582C682E580C68EE47EC68CE47CC64F
:100AE00081E47AC689E478C68D3109F440C0843245
:100AF000E1F18334E1F18631D1F18E31A1F1863219
:100B000091F18532A1F1982F977F963381F12BEBEC
:100B1000280F223060F1282F2D7F2C3241F18533B0
:100B200011F18C3301F1843411F18D3401F18C31E8
:100B3000D1F08B31B1F09332B1F08433A1F0833333
:100B4000B1F08B34A1F08A3191F0823271F08132B0
:100B500071F08A3261F091E0823309F090E0892FE0
:100B600007C085E005C088E003C089E001C081E0DE
:100B70008C938881982F977F953109F465C08432D2
:100B800009F460C0833409F44DC0863109F45AC0B9
:100B90008E3109F455C0863209F446C0853209F415
:100BA0005FC08E3209F442C0863309F441C08D33F0
:100BB00009F458C08E33F1F18634F1F1853409F42B
:100BC0004BC094ED980F9230C8F1853309F442C0C0
:100BD0008C3309F44BC0843409F44AC08D3481F15C
:100BE0008C31F1F18B3171F1833271F18B3271F112
:100BF000843371F1833371F18B3371F18234B1F14C
:100C00008B3461F18A31B1F1823251F1813251F18B
:100C10008A3251F1823351F1813351F18A3351F1EA
:100C200080E0DAC585E5D8C586E2D6C58EE2D4C5B2
:100C300086E3D2C58EE3D0C586E4CEC581E6CCC5B9
:100C40008EE1CAC586E1C8C58EE0C6C582E5C4C5C9
:100C50008DE5C2C584E5C0C58AE4BEC585E4BCC5D2
:100C600085E2BAC58EE4B8C58DE3B6C58BE5B4C5DB
:100C700081E4B2C589E4B0C58534B1F08434B1F003
:100C80008A32A1F0982F9B7F9A3181F0823471F0E3
:100C90008B3461F09FEC980F933040F096EC980FF6
:100CA00081E0923020F402C084E001C080E08C93A7
:100CB00088818534A1F18E3191F18D3209F445C0DE
:100CC0008C3209F440C08B31B1F1853381F18C3322
:100CD00041F1843431F18D3431F18A3231F1813294
:100CE00021F18A3121F1833321F18B3321F18234D7
:100CF00021F18B3421F1823321F18A3321F18133C7
:100D000021F1982F9F7E963209F466C593EC980FD7
:100D1000923008F461C58634D1F080E05DC584E589
:100D20005BC582E559C58EE157C58AE455C58CE49B
:100D300053C58DE551C58EE44FC589E04DC585E5A8
:100D40004BC58BE549C589E447C581E445C586E4C3
:100D500043C594ED980F9230A8F0982F977F953166
:100D600089F0843479F08A3269F0823459F08B3416
:100D700049F09FEC980F923028F096EC980F81E0A4
:100D8000923008F480E08C9388818E33D1F18634E0
:100D9000D1F1853409F449C08E31B9F18C32B9F101
:100DA0008D32B9F18D31B9F18531B9F18332F9F173
:100DB0008B31F9F1853309F440C08C3309F43FC01D
:100DC000843489F18D3459F18A3259F1813249F1F3
:100DD0008A3149F1833379F18B3339F1823439F136
:100DE0008B3439F1823339F1813339F18A3339F176
:100DF000982F9F7E963209F4EFC48D3311F180E075
:100E0000EBC486E4E9C485E4E7C48EE3E5C485E584
:100E1000E3C48EE4E1C487E0DFC488E7DDC48EE18B
:100E2000DBC48AE4D9C48CE4D7C484E5D5C482E5A4
:100E3000D3C48BE5D1C48DE5CFC481E4CDC489E4AE
:100E4000CBC48DE3C9C4843471F08B3461F0982F26
:100E50009F7D9A3141F08A3231F091E0813309F47B
:100E600090E0892F01C080E08C938881843471F1F7
:100E70008B3451F18A3171F18A3251F1813301F1B0
:100E80008A33E1F08C32D1F08D32D1F08D34D1F053
:100E90008B33D1F08234D1F08132D1F08233D1F072
:100EA000982F9F7E963209F497C48E33A9F09BEB5E
:100EB000980F923008F490C480E08EC489E48CC40A
:100EC00081E48AC48EE188C485E586C48CE484C448
:100ED0008AE482C484E580C48EE37EC4843469F0ED
:100EE0008B3459F08A3249F0982F9B7F913329F047
:100EF00096EC980F81E0943008F480E08C93888120
:100F00008633A1F18E33A1F18634A1F18D33A1F1A5
:100F10008534D1F18D3209F441C08C3209F440C0DE
:100F2000853361F18C3361F1843491F18D3421F199
:100F30008B3221F1843321F1833321F18B3321F181
:100F4000823421F18B3411F18A3111F1813211F1A6
:100F50008A3201F1823301F1813301F18A3301F1E7
:100F60008E3101F1863201F180E036C48DE334C464
:100F700086E432C485E430C482E52EC484E52CC402
:100F80008BE52AC486E328C48EE426C485E524C400
:100F90008CE422C48AE420C48EE31EC481E41CC411
:100FA00089E41AC48EE118C486E216C4982F9F7E85
:100FB000933289F09CEB980F923068F0982F9B7FCA
:100FC0009A3149F08A3239F0913329F096EC980F32
:100FD00081E0933008F480E08C938881833291F132
:100FE000833391F18E3191F1853491F1853391F113
:100FF0008C3391F18434D1F18B34B1F18A31D1F158
:101000008A32B1F1813361F18A3341F18C3231F1AD
:101010008D3231F18D3431F18B3331F1823431F154
:10102000813231F1823331F1982F9F7E963209F46B
:10103000D3C393EC980F923008F4CEC38634E1F01A
:1010400080E0CAC386E0C8C38CE0C6C38DE5C4C3D4
:1010500085E0C2C384E5C0C38BE5BEC389E4BCC3DD
:1010600081E4BAC38EE1B8C385E5B6C38CE4B4C3EA
:101070008AE4B2C38EE4B0C386E4AEC394EE980FA4
:10108000933078F0843469F08A3259F08A3149F02B
:10109000982F9D7F913329F096EC980F81E0923044
:1010A00008F480E08C9388818E31C9F18C3209F488
:1010B0004CC08D3209F447C0982F977F953189F144
:1010C0008B3189F18C31D9F18434B9F18D3469F1E6
:1010D0008A3269F1813259F1823269F18A3189F1BA
:1010E000833339F18B3339F1823439F18B3439F16F
:1010F000823339F1813339F18A3339F1982F9F7E68
:10110000963209F469C393EC980F923008F464C3E3
:101110009BEB980F923008F45FC380E05DC38EE0D4
:101120005BC387E059C381E657C38EE155C38AE4A8
:1011300053C385E551C38DE54FC38CE44DC38EE4A5
:101140004BC382E549C381E447C389E445C3833285
:1011500069F0843459F08A3249F08A3139F08133A8
:1011600029F096EC980F81E0933008F480E08C939E
:1011700088818E31A9F18C3209F446C08D3209F490
:1011800041C0833279F18533A9F18C3369F184341C
:1011900099F18D3459F18A3259F1813249F1823213
:1011A00049F18A3169F18B3349F1823429F18B3469
:1011B00029F1823329F1813329F18A3329F1982FDA
:1011C0009F7E963209F408C393EC980F923008F48E
:1011D00003C39BEB980F923008F4FEC280E0FCC280
:1011E00085E4FAC28DE5F8C28BE5F6C28EE1F4C261
:1011F0008AE4F2C284E5F0C28CE4EEC28EE4ECC272
:1012000082E5EAC281E4E8C289E4E6C2843469F096
:101210008A3259F08B3449F0982F9B7F913329F013
:1012200096EC980F81E0943008F480E08C938881EC
:101230008C3209F449C08D3209F444C0863351F12F
:101240008D3391F18E3341F1863441F18534A1F132
:10125000853331F18C3331F1843451F18D3421F106
:101260008A3221F1813211F18A3111F1833311F186
:101270008B3311F1823411F18B3401F1823301F19E
:10128000813301F18A3301F1863201F18E3101F1AE
:1012900080E0A2C28DE3A0C286E49EC285E49CC227
:1012A00084E59AC28BE598C282E596C28AE494C22C
:1012B0008CE492C286E390C28EE48EC285E58CC235
:1012C0008EE38AC281E488C289E486C286E284C24F
:1012D0008EE182C28333D1F08232C1F08534C1F015
:1012E0008434C1F08A32B1F0982F9B7F9A3191F00B
:1012F000823481F08B3471F09FEC980F923050F073
:1013000096EC980F81E0923030F404C080E203C084
:1013100082E001C080E08C9388818333C1F1823206
:10132000C1F18332C1F18534C1F18E31B1F18D3219
:1013300009F447C08C3209F442C08B31C1F18533C6
:10134000A1F18C3361F1843451F18D3451F18A3241
:1013500051F1813241F18A3141F18B3341F18234D3
:1013600041F18B3441F1823341F18A3341F18133D0
:1013700041F1982F9F7E963209F42EC293EC980F7C
:10138000923008F429C28634F1F080E025C281E76A
:1013900023C280E721C28AE31FC284E51DC282E521
:1013A0001BC28EE119C28AE417C28CE415C285E51E
:1013B00013C28EE411C28DE50FC28BE50DC289E424
:1013C0000BC281E409C286E407C2833279F0843417
:1013D00069F08A3259F08B3449F0982F9B7F913312
:1013E00029F096EC980F81E0943008F480E08C931B
:1013F00088818C3209F453C08D3209F44EC0843395
:10140000E1F18B32C1F1833271F18B3161F18633BD
:1014100061F18D33A1F18E3351F1863451F1853371
:1014200051F18C3351F1843471F18D3441F18A32B0
:1014300041F1813231F1823251F18A3121F183332C
:1014400021F18B3321F1823421F18B3411F182337C
:1014500011F1813311F18A3311F1863211F18E319C
:1014600011F180E0B9C18DE5B7C18DE3B5C186E466
:10147000B3C185E4B1C184E5AFC18BE5ADC182E5FF
:10148000ABC18AE4A9C18CE4A7C186E3A5C18EE4FF
:10149000A3C185E5A1C18EE39FC181E49DC189E41B
:1014A0009BC186E299C18EE197C1982F9F7E9D32A4
:1014B00089F0843379F08B3269F08C3159F08232C3
:1014C00049F0823439F0813329F096EC980F81E0AD
:1014D000923008F480E08C9388818E31A9F194EDEC
:1014E000980F923078F1843379F18B3279F18C3125
:1014F00079F18D3399F18534A9F18434C9F18D34B2
:1015000049F18A3249F1813249F1823249F18A3115
:1015100089F1833329F18B3329F1823439F18B340A
:1015200019F1823319F1813319F18A3319F1982FA6
:101530009F7E963209F450C18E33F1F08634F1F07B
:1015400080E04AC181E648C18DE546C182E544C1DB
:101550008CE442C18EE140C18DE33EC18EE43CC1CA
:1015600084E53AC18AE438C185E436C18BE534C1EB
:1015700081E432C189E430C18EE32EC186E42CC1FE
:101580008C33F1F08B31E1F08C31E1F08433D1F028
:101590008531D1F08E31B1F0982F9F7E9D32A1F030
:1015A0009EED980F923080F0823471F0982F9D7FDD
:1015B000913351F096EC980F81E0923030F404C0F2
:1015C00084E003C080E101C080E08C9388818C338B
:1015D00009F459C08B3109F440C0853109F43FC08A
:1015E00094ED980F9230E8F18B3209F444C08332C5
:1015F000D1F18D33F1F1853409F441C08533E9F13E
:10160000843409F442C08D3481F18A3281F181320F
:1016100081F1823281F18A31D1F1833371F18B33DF
:1016200071F1823481F18B3461F1823361F1813364
:1016300061F18A3361F1982F9F7E963209F4CCC014
:101640008E3339F1863439F1843339F1982F9D7F07
:101650009C3109F4C1C080E0BFC086E1BDC08DE50A
:10166000BBC081E6B9C08EE0B7C08EE1B5C08DE3E6
:10167000B3C08EE4B1C082E5AFC084E5ADC08AE4FA
:10168000ABC085E4A9C08BE5A7C081E4A5C089E40F
:10169000A3C08EE3A1C086E49FC084E39DC08C31CB
:1016A00031F1823221F18E3121F1863211F1853111
:1016B00011F1843201F18D32F1F08B31D1F0982F9C
:1016C000977F9332B1F08433A1F08D33A1F08C3346
:1016D00081F0853371F0823471F096EC980F92307E
:1016E00050F091E0813309F490E0892F05C080E447
:1016F00003C088E001C080E08C9388818C3109F4BC
:1017000048C0823209F447C0982F977F953109F479
:1017100048C0843209F44DC094ED980F9230E8F13E
:101720008B31E9F18332E9F18B32E9F18433E9F16C
:10173000853409F446C08D33F1F18D34C1F1843420
:1017400009F445C08334A9F18C3309F442C08533D0
:10175000D1F18A31D1F1813271F18A3271F18B3458
:1017600071F18234B1F18B3361F1833361F18A33EA
:1017700061F1813361F1823361F1982F9F7D9E3158
:1017800059F1982F9F7E963239F1863421F180E00D
:1017900023C08EE721C08CE91FC081E61DC086E111
:1017A0001BC08EE019C082E517C08DE515C08EE123
:1017B00013C085E511C08EE40FC08DE30DC085E434
:1017C0000BC08AE409C084E507C089E405C081E450
:1017D00003C08BE501C086E4888301C01882DF91D5
:1017E000CF9108950F931F93CF93DF9370E0282F2D
:1017F00030E0FB019BE0899FE00DF11D1124EA57C9
:10180000FC4F90819D3009F455C0D0F4943009F418
:1018100040C050F4913009F058C080919C04840F6E
:1018200080939C0481E044C0953061F19C3009F0C4
:101830004CC080919C04840F80939C0483E036C04C
:101840009235B1F050F49C3409F03FC080919B0474
:10185000840F80939B0481E011C0983509F1923781
:10186000A1F580919C04840F80939C0484E020C0A7
:1018700080919B04840F80939B0480E0F4E051E00E
:10188000E7E021C080919C04840F80939C0480E059
:101890000DC080919C04840F80939C0482E006C05C
:1018A00080919C04840F80939C0481E0F0E009C047
:1018B000F3E007C080919C04840F80939C0481E036
:1018C000F7E050E0E5E0A1E005C080E0F0E050E0A6
:1018D000E0E0A0E0B091AA04BB2329F0963681F0A5
:1018E0009637C1F405C0963619F0963749F012C004
:1018F00080919C04840F80939C0480E0F3E007C0F7
:1019000080919C04840F80939C0480E0F7E050E079
:10191000E5E0A1E0B091A904BB2369F09B36C1F0DA
:1019200028F49134A9F1993461F13CC09437B9F0AD
:101930009537F9F037C09B36E1F028F4913479F00F
:10194000993431F02FC0943719F19537D1F02AC06E
:1019500080919B04840F80939B0482E006C0809159
:101960009B04840F80939B0483E0F7E051E0E7E061
:101970001CC080919C04840F80939C0484E0F0E060
:101980000EC080919C04840F80939C0483E006C069
:1019900080919C04840F80939C0482E0F3E050E0EB
:1019A000E5E003C0AA2309F43FC090E01DE0CF2F7B
:1019B000D0E0DC011F9FA00DB11D1124A255BB4F2B
:1019C0000C9108714F3F41F440919C04411116C0A5
:1019D00040919B04411112C0129FD001139FB00D82
:1019E0001124A60FB71FA255BB4F4C911E9FF001AB
:1019F0001124E50FF11DE255FB4F40834DE04C9F54
:101A0000F0014D9FF00D1124E80FF91FE255FB4F37
:101A1000429FD001439FB00D1124A60FB71FA255BE
:101A2000BB4F8C91802B8083DF91CF911F910F91C1
:101A300008950F931F93CF93DF93162FD42FC22FA8
:101A4000882371F180918C04813019F0823079F013
:101A500027C08091030160E0823011F484E101C06D
:101A60008DE10E94350E82E080938C0419C02FE333
:101A700082E49FE0215080409040E1F700C00000E8
:101A80008091030160E0823031F480EF0E94350ED6
:101A900060E084E101C08DE90E94350E10928C0453
:101AA000112371F180918B04813019F0823079F02B
:101AB00027C08091030160E0823011F481E101C010
:101AC00088E30E94350E82E080938B0419C02FE3D7
:101AD00082E49FE0215080409040E1F700C0000088
:101AE0008091030160E0823031F480EF0E94350E76
:101AF00060E081E101C088EB0E94350E10928B04FA
:101B0000DD2371F180918A04813019F0823079F0FF
:101B100027C08091030160E0823011F482E101C0AE
:101B20008AE20E94350E82E080938A0419C02FE376
:101B300082E49FE0215080409040E1F700C0000027
:101B40008091030160E0823031F480EF0E94350E15
:101B500060E082E101C08AEA0E94350E10928A0498
:101B6000CC23F1F180918804813019F08230B9F0F2
:101B700037C08091030160E0823031F480EE0E9432
:101B8000350E60E081E105C080EE0E94350E60E018
:101B900088E30E94350E82E08093880421C02FE301
:101BA00082E49FE0215080409040E1F700C00000B7
:101BB0008091030160E0823051F480EE0E94350E86
:101BC00060E080EF0E94350E60E081E105C080EEAC
:101BD0000E94350E60E088EB0E94350E109288045A
:101BE0000023F1F180918904813019F08230B9F03D
:101BF00037C08091030160E0823031F480EE0E94B2
:101C0000350E60E08FE105C080EE0E94350E60E089
:101C10008BE50E94350E82E08093890421C02FE37A
:101C200082E49FE0215080409040E1F700C0000036
:101C30008091030160E0823051F480EE0E94350E05
:101C400060E080EF0E94350E60E08FE105C080EE1D
:101C50000E94350E60E08BED0E94350E10928904D3
:101C6000DF91CF911F910F910895AF92BF92DF92B4
:101C7000EF920F931F93CF93DF93182FE62E0E94BE
:101C8000CC038111FCCF809161008860809361005A
:101C900080910001880F880F0E94E9038091610004
:101CA00084608093610080910001880F880F880F05
:101CB0000E94E90382E00E94780080910001880F71
:101CC000880F0E94E903C0E0D0E001E0A12EB12C12
:101CD000DD24D39495010C2E02C0359527950A94E6
:101CE000E2F720FF05C083E00E9478000D2505C0C3
:101CF0008091610088608093610080910001880F6D
:101D0000880F0E94E90380916100846080936100E4
:101D100080910001880F880F880F0E94E90382E0FC
:101D20000E94780080910001880F880F0E94E903CB
:101D30002196C830D10571F6002321F083E00E947E
:101D4000780005C080916100886080936100809177
:101D50000001880F880F0E94E90380916100846070
:101D60008093610080910001880F880F880F0E9486
:101D7000E90382E00E94780080910001880F880FBB
:101D80000E94E90383E00E94780080910001880F9F
:101D9000880F0E94E9038091610084608093610054
:101DA00080910001880F880F880F0E94E90382E06C
:101DB0000E94780080910001880F880F0E94E9033B
:101DC00089EF90E00197F1F700C00000EE2009F4E0
:101DD00064C02091030180918C042230B9F58823DE
:101DE00019F0143109F459C080918B04882319F03B
:101DF000113109F452C080918A04882319F01231FC
:101E000009F44BC080918804882319F0113109F43A
:101E100044C080918904882311F01F31F1F1809131
:101E20008704882361F0103F51F001E021E041E098
:101E300061E081E00E94190D109287042EC081E0BC
:101E4000103F09F080E08093870427C0882311F0B9
:101E50001D3919F180918B04882311F0183BE9F0AA
:101E600080918A04882311F01A3AB9F0809188048D
:101E7000882311F0183B89F080918904882311F0A0
:101E80001B3D59F0103E49F0113838F001E021E0D7
:101E900041E061E081E00E94190DDF91CF911F9137
:101EA0000F91EF90DF90BF90AF90089561E00C9498
:101EB000350EEF92FF921F93CF93DF931F92CDB712
:101EC000DEB7182F7B01853421F128F48FEF810FC5
:101ED0008A3018F41EC08934E1F0112361F1EF2833
:101EE00049F04130E1F4E12FF0E0E654FE4F80810B
:101EF000805807C04130E9F4E12FF0E0E654FE4F8E
:101F000080810F90DF91CF911F91FF90EF900C9403
:101F1000560F80EE49830E94560F4981E0CF423030
:101F200051F480EF0E94560FE12FF0E0E25AFE4F8D
:101F3000E7CF4230C9F30F90DF91CF911F91FF900F
:101F4000EF9008951F93CF93DF93D82F162FC42FB0
:101F50001092900410928F0410928D0490910301BE
:101F600041112CC0923029F482E10E94560F82E187
:101F700004C08AE20E94560F8AE280938D04209169
:101F80000301612F70E08D2F90E0223059F42BE097
:101F9000289FF001299FF00D1124E60FF71FEA5743
:101FA000FC4F0AC025E0289FF001299FF00D112465
:101FB000E60FF71FEA5CFC4FC08122C0923071F43B
:101FC0004B3631F08CE8840F823010F0423731F418
:101FD00080EE0E94560F80EE80938D048091030165
:101FE000813071F4CB3431F0CD3421F0C83411F0AC
:101FF000C03531F480EE0E94560F80EE80938D0440
:102000008C2F0E94560FC0938E04DF91CF911F91A9
:1020100008950F931F93CF93DF93D42F10928E04C4
:102020009091030141112BC0C62FD0E0082F10E082
:102030009230A9F480EF0E94560F8BE0809FF00150
:10204000819FF00D1124EC0FFD1FEA57FC4F80819A
:102050000E94560F80EF0E94560F82E137C085E044
:10206000809FF001819FF00D1124EC0FFD1FEA5CB1
:10207000FC4F808180580E94560F8AEA27C0923018
:1020800059F44B3631F08CE8840F823010F042372F
:1020900019F480EE0E94560F80910301813059F4AB
:1020A000DB3431F0DD3421F0D83411F0D03519F4BF
:1020B00080EE0E94560F80910301823029F480EF58
:1020C0000E94560F8D2F02C080E88D0FDF91CF91B7
:1020D0001F910F910C94560FFF920F931F93CF9364
:1020E000DF938091A0049091A104892BB1F460E06A
:1020F00080EF0E94350E60E0809102010E94350E53
:102100001092EF0460E080EF0E94350E60E0809155
:1021100001010E94350E10920A0589E20E94560FB5
:102120002FED83E994E0215080409040E1F700C01A
:10213000000080EF0E94560F89E20E94560F04E6CD
:1021400014E0C0E0D0E0C230D10519F0C430D105B0
:10215000D9F4AFEDB3E924E0A150B0402040E1F75D
:1021600000C0000089E40E94560F8FED93E9A4E0BF
:1021700081509040A040E1F700C0000080EF0E9435
:10218000560F89E40E94560FBFED23E984E0B15059
:1021900020408040E1F700C00000D801ED918D01A2
:1021A000F0E0E65AFB4FF0808F2D0E94560FBFEDF6
:1021B00023E984E0B15020408040E1F700C00000F6
:1021C00080EF0E94560F8F2D0E94560F9FEDA3E9BE
:1021D000B4E09150A040B040E1F700C0000021966B
:1021E000C830D10509F0AFCF81E08093A40480937B
:1021F000A304DF91CF911F910F91FF9008951F933A
:10220000CF93DF938091A0049091A104892BB1F426
:1022100060E080EF0E94350E60E0809102010E9434
:10222000350E1092EF0460E080EF0E94350E60E002
:10223000809101010E94350E10920A056091A00460
:1022400085E090E00E94B62B6091AB0486E090E0C0
:102250000E94B62B80910301823049F081E0809387
:10226000A4048093A304DF91CF911F9108952FE3DD
:102270008DE093E0215080409040E1F700C00000E5
:1022800089E20E94560F2FE38DE093E021508040B9
:102290009040E1F700C0000080EF0E94560F89E2F5
:1022A0000E94560F2FE38DE093E021508040904034
:1022B000E1F700C0000089E40E94560F2FE38DE093
:1022C00093E0215080409040E1F700C0000080EF93
:1022D0000E94560F89E40E94560FC0E5D4E02FE318
:1022E0008DE093E0215080409040E1F700C0000075
:1022F0001991812F0E94560F2FE38DE093E021501A
:1023000080409040E1F700C0000080EF0E94560F2F
:10231000812F0E94560F2FE38DE093E021508040E3
:102320009040E1F700C0000024E0CA35D207B9F6BA
:1023300095CFEF92FF920F931F93CF93DF93EC0112
:102340008091A0049091A104892BB1F460E080EF0A
:102350000E94350E60E0809102010E94350E1092BD
:10236000EF0460E080EF0E94350E60E08091010193
:102370000E94350E10920A052FE78AE196E021505F
:1023800080409040E1F700C0000089E20E94560FB3
:10239000EFE7FAE126E0E150F0402040E1F700C02D
:1023A000000080EF0E94560F89E20E94560F8FE7CF
:1023B0009AE1E6E081509040E040E1F700C0000083
:1023C00089E40E94560FFFE72AE186E0F1502040A1
:1023D0008040E1F700C0000080EF0E94560F89E4C2
:1023E0000E94560F8E010F5F1F4F888190E0980169
:1023F0002C1B3D0B821793074CF19FE7EAE1F6E0B7
:102400009150E040F040E1F700C000007801F80191
:1024100081918F010E94560FFFE72AE186E0F1507B
:1024200020408040E1F700C0000080EF0E94560F7E
:10243000F70180810E94560FFFE72AE186E0F15004
:1024400020408040E1F700C00000CFCFC80FD91F67
:10245000898180930001DF91CF911F910F91FF90AF
:10246000EF900895CF93DF93EC0110929704809141
:1024700062008D7F809362001092AD041092AC04D4
:10248000209711F481E004C0C130D10521F484E02B
:102490008093000115C0C230D10521F484E08093FF
:1024A000000115C0C330D10521F484E08093000100
:1024B0001CC0C430D10521F484E0809300011CC00D
:1024C000C530D10521F484E0809300011CC0C630E2
:1024D000D10521F484E0809300011CC0C730D105F0
:1024E00021F484E0809300011CC0C830D10521F4A0
:1024F00084E0809300011CC0C930D10521F484E040
:10250000809300011CC0CA30D10521F484E080937F
:1025100000011CC0CB30D10521F484E08093000180
:1025200018C0CC30D10521F484E08093000118C09C
:10253000CD30D10521F484E08093000126C0CE3057
:10254000D10521F486E08093000139C0CF30D10558
:1025500019F0C031D10521F484E0809300013EC020
:10256000C131D10591F484E08093000181E0809332
:102570009704109293041092940410929504109270
:10258000960482E08093030129C0C331D105B9F4D8
:1025900084E08093000181E080939704109293047B
:1025A00010929404109295041092960482E0809305
:1025B0000301809162008260809362000FC0C2318B
:1025C000D10561F484E0809300011092970481E0CA
:1025D000809303018DE192E00E949911CE01DF9179
:1025E000CF910895EF92FF920F931F93CF93DF93B4
:1025F000EC01E090A004F090A10410929704809167
:1026000062008D7F809362001092AD041092AC0442
:1026100011E002E0209719F482E992E005C0C13090
:10262000D10529F48DE892E00E94991118C0C230BA
:10263000D10529F488E892E00E94991118C0C330AE
:10264000D10529F483E892E00E94991120C0C4309A
:10265000D10529F480E792E00E94991120C0C5308D
:10266000D10529F48BE692E00E94991120C0C63072
:10267000D10529F484E692E00E94991120C0C73068
:10268000D10529F484E492E00E94991120C0C83059
:10269000D10529F48FE592E00E94991120C0C9303C
:1026A000D10529F489E592E00E94991120C0CA3031
:1026B000D10529F484E592E00E94991120C0CB3025
:1026C000D10529F48BE492E00E9499111EC0CC3010
:1026D000D10529F489E392E00E9499111CC0CD3004
:1026E000D10529F48EE792E00E94991126C0CE30E0
:1026F000D10529F487E792E00E9499112AC0CF30D2
:10270000D10519F48EE292E021C0C031D10519F44F
:1027100083E292E01BC0C131D10579F41093970494
:1027200010929304109294041092950410929604BF
:10273000009303018EE392E009C0C231D10549F450
:1027400010929704109303018DE192E00E94991179
:1027500018C0C331D105A9F41093970410929304C3
:102760001092940410929504109296040093030121
:1027700086E192E00E9499118091620082608093CC
:102780006200C431D1051CF0CE2DDF2D43CF81E096
:102790008093A4048093A30410929F04CE01DF9140
:1027A000CF911F910F91FF90EF90089560E081EE1F
:1027B0000E94350E60E084E10E94350E60E087E7FC
:1027C0000E94350E60E081EE0E94350E60E080EFE1
:1027D0000E94350E60E084E10E94350E60E080EFDB
:1027E0000E94350E60E087E70E94350E2FE78AE1F0
:1027F00096E0215080409040E1F700C0000008952D
:1028000060E080EE0E94350E60E082E10E94350EAD
:1028100060E080EE0E94350E60E08CE70E94350E8D
:102820002FE78AE196E0215080409040E1F700C018
:10283000000060E080EE0E94350E60E080EF0E94B4
:10284000350E60E082E10E94350E60E080EE0E946D
:10285000350E60E080EF0E94350E60E08CE70C944E
:10286000350E1F93CF93DF93182FD62FC42F262F0B
:1028700030E0280F311D240F311D232B61F160E062
:1028800088E30E94350E112349F060E0812F0E94F9
:10289000350E60E080E8810F0E94350EDD2349F09F
:1028A00060E08D2F0E94350E60E080E88D0F0E9461
:1028B000350ECC2349F060E08C2F0E94350E60E08D
:1028C00080E88C0F0E94350E60E088EBDF91CF919D
:1028D0001F910C94350EDF91CF911F9108951F9396
:1028E000CF93DF93182FD62FC42F262F30E0280F39
:1028F000311D240F311D232BC9F160E081E10E94BD
:10290000350E112361F060E0812F0E94350E60E0EA
:1029100080EF0E94350E60E0812F0E94350EDD238E
:1029200061F060E08D2F0E94350E60E080EF0E9424
:10293000350E60E08D2F0E94350ECC2361F060E0F3
:102940008C2F0E94350E60E080EF0E94350E60E013
:102950008C2F0E94350E60E080EF0E94350E60E003
:1029600081E1DF91CF911F910C94350EDF91CF91D2
:102970001F910895CF92DF92EF92FF920F931F93D2
:10298000CF93DF9300D0CDB7DEB76A0119821092E2
:10299000900410928F0410928D0490910301062FE1
:1029A00010E0E82EF12C913059F485E08E9DF00175
:1029B0008F9DF00D1124E00FF11FEA5CFC4F0AC05F
:1029C0008BE08E9DF0018F9DF00D1124E00FF11F23
:1029D000EA57FC4F80818A838091A0049091A104E2
:1029E000892B09F497C0A601BE016F5F7F4FCE010E
:1029F00002960E94E4048A81882309F4A3C021E19D
:102A0000C216D10401F5809103018130E1F425E083
:102A10002E9DC0012F9D900D1124800F911FFC0150
:102A2000EA51FD4F20812A83FC01E254FD4F808151
:102A3000982F9170282F2870F22E807410E0E12CCE
:102A400000E0D12C15C08981982F917081FBDD2485
:102A5000D0F882FBEE24E0F883FBFF24F0F884FB3F
:102A6000002700F985FB112710F986FB882780F9DC
:102A70002A81222309F466C0811164C0992379F068
:102A800080910301823029F482E10E94560F82E195
:102A900004C08AE20E94560F8AE280938D04DD20F2
:102AA00051F080910301823031F484E10E94560F8D
:102AB00084E180938D04EE2051F0809103018230F7
:102AC00031F481E10E94560F81E180938D04FF2053
:102AD00069F060E080EE0E94350E80910301823043
:102AE00011F481E101C088E30E94560F002359F0E0
:102AF00080910301823039F460E080EE0E94350E4F
:102B000084E10E94560F1123B9F060E080EE0E942C
:102B1000350E12C08BE08E9DF0018F9DF00D1124BB
:102B2000E00FF11FEA57FC4F80818A8384E10E9405
:102B3000560F84E180938D048A810E94560F8A810A
:102B400080938E040F900F90DF91CF911F910F9182
:102B5000FF90EF90DF90CF900895CF92DF92EF92A9
:102B6000FF920F931F93CF93DF9300D01F92CDB7A7
:102B7000DEB77A01198210928E04062F10E0C82E5B
:102B8000D12CF8019BE0899FE00DF11D1124EA573B
:102B9000FC4F80818A838091A0049091A104892BAD
:102BA00009F4C9C0BE016F5F7F4FCE0102960E943B
:102BB000E4048A81882309F4CAC081E1E816F1049B
:102BC00009F5809103018130E9F425E02C9DC001D5
:102BD0002D9D900D1124800F911FFC01EA51FD4F96
:102BE00020812A83FC01E254FD4F8081982F91704F
:102BF000D92E082F0870382F307490E0F12C10E097
:102C0000E12C16C08981982F9170D92E81FBEE247A
:102C1000E0F882FBFF24F0F883FB002700F984FB37
:102C2000112710F985FB992790F986FB332730F996
:102C30008A81882309F48BC02091030131114FC090
:102C4000223059F4992321F060E080EE0E94350E85
:102C500080EF0E94560F8A8101C080580E94560F53
:102C6000DD2061F080910301823029F480EF0E9421
:102C7000560F82E101C08AEA0E94560FEE2051F001
:102C800080910301823031F480EF0E94560F84E17D
:102C90000E94560FFF2051F080910301823031F4E1
:102CA00080EF0E94560F81E10E94560F002379F0B9
:102CB00080EE0E94560F80910301823029F480EF4C
:102CC0000E94560F81E101C088EB0E94560F11232C
:102CD000F1F1809103018230D1F580EE30C08E3762
:102CE00029F4223091F494E702E70DC08C3929F4DD
:102CF000223039F09DE40CE40AC090E000E010E0DE
:102D000007C094E703E719E60CC09DE400E51FE463
:102D1000213039F4492F602F812F9B830E94311479
:102D20009B8180910301823091F4492F602F812F84
:102D30000E946F140CC080EF0E94560F8A810E947F
:102D4000560F80EF0E94560F84E10E94560F0F909D
:102D50000F900F90DF91CF911F910F91FF90EF9007
:102D6000DF90CF9008950F93CF93DF93D82FC62F86
:102D700001E021E041E061E081E00E94190D8DE079
:102D8000D89FF0011124EC0FF11DE255FB4F10828A
:102D9000DF91CF910F9108954F925F926F927F9242
:102DA0008F92AF92CF92EF92FF920F931F93CF9398
:102DB000DF93CDB7DEB7F82E662E142F722E8091DA
:102DC000A504882331F021E22A95F1F70000109242
:102DD000A504002371F080910301823011F482E197
:102DE00001C08AE20E94560F8091A5048F5F8093F4
:102DF000A504EE2071F080910301823011F484E18A
:102E000001C08DE10E94560F8091A5048F5F8093D1
:102E1000A504CC2071F080910301823011F481E18E
:102E200001C088E30E94560F8091A5048F5F8093B4
:102E3000A504AA20A1F080910301823029F480EE3C
:102E40000E94560F81E104C080EE0E94560F88E375
:102E50000E94560F8091A5048F5F8093A50488205F
:102E6000A1F080910301823029F480EE0E94560F78
:102E70008FE104C080EE0E94560F8BE50E94560F32
:102E80009091A5049F5F9093A5048091A504882349
:102E900031F081E28A95F1F700001092A5047720C5
:102EA00019F080EE0E94560F812F0E94560F9FE767
:102EB0002AE186E0915020408040E1F700C0000008
:102EC000772019F080EE0E94560F80910301823026
:102ED00019F480EF0E94560F80910301823011F4A3
:102EE000812F02C080E8810F0E94560F712C4F2C59
:102EF000512CF3019DE0F99EE00DF11D1124E255E6
:102F0000FB4F1082002361F080910301823029F48D
:102F100080EF0E94560F82E101C08AEA0E94560F9C
:102F2000EE2061F080910301823029F480EF0E944D
:102F3000560F84E101C08DE90E94560FCC2061F04C
:102F400080910301823029F480EF0E94560F81E1C5
:102F500001C088EB0E94560FAA2091F080910301D6
:102F6000823041F480EE0E94560F80EF0E94560F8F
:102F700081E104C080EE0E94560F88EB0E94560F3C
:102F8000882091F080910301823041F480EE0E940C
:102F9000560F80EF0E94560F81E104C080EE0E9420
:102FA000560F88EB0E94560F21E22A95F1F7000098
:102FB00001E021E041E061E081E00E94190D8DE037
:102FC000849DF001859DF00D1124E60DF71DE2555D
:102FD000FB4F1082DF91CF911F910F91FF90EF90E7
:102FE000CF90AF908F907F906F905F904F900895AB
:102FF000BF92CF92DF92EF92FF920F931F93CF93E6
:10300000DF93B62EC82FD0E0CE01875D9E4F7C01A6
:103010008E010A5C1E4F40E0FC016081F801808156
:103020000E94860040E0F7016081F80180810E94E3
:103030002601F1E2FA95F1F70000CE01875D9E4F7F
:103040006C01FE01EA5CFE4F7F016B2D70E08B018D
:103050000D5B1E4FEB01C25BDE4FF8016081888182
:103060000E94FF008111F9CF41E0F6016081F70174
:103070008081DF91CF911F910F91FF90EF90DF90B2
:10308000CF90BF900C94860080917A0480936E0458
:1030900080917B0480936F0480917C048093700402
:1030A00080917D048093710480917E0480937204EA
:1030B00010927E0480917F048093730410927F04A9
:1030C00080918004809374048091810480937504BE
:1030D000809182048093760410928204809183040C
:1030E0008093770410928304809184048093780401
:1030F0001092840480918504809379041092850451
:103100008FE493EC0197F1F700C0000080918604F2
:10311000882319F00E94380304C00E94E8010E942D
:103120009F0180917A0490916E04891761F061E0AB
:1031300070E0882311F060E070E04091030180911D
:1031400006010E94590F80917B0490916F048917AA
:1031500061F061E070E0882311F060E070E0409180
:103160000301809107010E94590F80917C04909186
:103170007004891761F061E070E0882311F060E06D
:1031800070E040910301809108010E94590F8091E5
:103190007D0490917104891761F061E070E08823EB
:1031A00011F060E070E040910301809109010E94FC
:1031B000590F80917E0490917204891761F061E04B
:1031C00070E0882311F060E070E04091030180918D
:1031D0000A010E94590F80917F049091730489170E
:1031E00061F061E070E0882311F060E070E04091F0
:1031F000030180910B010E94590F809180049091EE
:103200007404891761F061E070E0882311F060E0D8
:1032100070E04091030180910C010E94590F809150
:10322000810490917504891761F061E070E0882352
:1032300011F060E070E04091030180910D010E9467
:10324000590F8091820490917604891761F061E0B2
:1032500070E0882311F060E070E0409103018091FC
:103260000E010E94590F8091830490917704891771
:1032700061F061E070E0882311F060E070E040915F
:10328000030180910F010E94590F80918404909155
:103290007804891761F061E070E0882311F060E044
:1032A00070E040910301809110010E94590F8091BC
:1032B000850490917904891761F061E070E08823BA
:1032C00011F060E070E040910301809111010C94D5
:1032D000590F08951F93CF93DF931092AD0481E0AF
:1032E0009091A804911180E08093A804811110921C
:1032F000A7048091A0049091A104892B91F480EF00
:103300000E94560F809102010E94560F1092EF0406
:1033100080EF0E94560F809101010E94560F10927B
:103320000A0580910301823049F081E08093A40472
:103330008093A304DF91CF911F9108952FE38DE037
:1033400093E0215080409040E1F700C0000089E206
:103350000E94560F2FE38DE093E021508040904073
:10336000E1F700C0000080EF0E94560F89E20E9442
:10337000560F2FE38DE093E0215080409040E1F71D
:1033800000C0000089E40E94560F2FE38DE093E017
:10339000215080409040E1F700C0000080EF0E9483
:1033A000560F89E40E94560F8091A804882371F17A
:1033B000CDE4D4E02FE38DE093E0215080409040B5
:1033C000E1F700C000001991812F0E94560F2FE3F2
:1033D0008DE093E0215080409040E1F700C0000074
:1033E00080EF0E94560F812F0E94560F2FE38DE031
:1033F00093E0215080409040E1F700C0000024E0BD
:10340000C035D207B9F6CCE2D4E02CC0C9E4D4E090
:103410008FE39DE023E0815090402040E1F700C021
:1034200000001991812F0E94560F8FE39DE023E049
:10343000815090402040E1F700C0000080EF0E94E2
:10344000560F812F0E94560F8FE39DE023E081509D
:1034500090402040E1F700C0000084E0CD34D80760
:10346000B9F6D1CF9FE32DE083E09150204080401A
:10347000E1F700C000001991812F0E94560F9FE3D1
:103480002DE083E0915020408040E1F700C0000033
:1034900080EF0E94560F812F0E94560F9FE32DE070
:1034A00083E0915020408040E1F700C0000094E0AC
:1034B000C433D907B9F639CF1F93CF93DF9381E097
:1034C00090918604911180E0809386048091A004FD
:1034D0009091A104892B91F480EF0E94560F809166
:1034E00002010E94560F1092EF0480EF0E94560FC7
:1034F000809101010E94560F10920A0580910301EC
:10350000823009F098C02FE38DE093E02150804095
:103510009040E1F700C0000089E20E94560F2FE3BF
:103520008DE093E0215080409040E1F700C0000022
:1035300080EF0E94560F89E20E94560F2FE38DE024
:1035400093E0215080409040E1F700C0000089E402
:103550000E94560F2FE38DE093E021508040904071
:10356000E1F700C0000080EF0E94560F89E40E943E
:10357000560F80918604882391F1C5E1D4E02FE3B2
:103580008DE093E0215080409040E1F700C00000C2
:103590001991812F0E94560F2FE38DE093E0215067
:1035A00080409040E1F700C0000080EF0E94560F7D
:1035B000812F0E94560F2FE38DE093E02150804031
:1035C0009040E1F700C0000024E0C032D207B9F615
:1035D0006091860489E090E00E94B62B2CC0C0E286
:1035E000D4E08FE39DE023E0815090402040E1F75C
:1035F00000C000001991812F0E94560F8FE39DE0BB
:1036000023E0815090402040E1F700C0000080EFAF
:103610000E94560F812F0E94560F8FE39DE023E0FA
:10362000815090402040E1F700C0000084E0CC329F
:10363000D807B9F6CDCF81E08093A4048093A3048A
:10364000DF91CF911F9108951F93CF93DF9381E076
:103650009091AA04911180E08093AA048091A00423
:103660009091A104892B91F480EF0E94560F8091D4
:1036700002010E94560F1092EF0480EF0E94560F35
:10368000809101010E94560F10920A05809103015A
:10369000823009F0C3C02FE38DE093E021508040D9
:1036A0009040E1F700C0000089E20E94560F2FE32E
:1036B0008DE093E0215080409040E1F700C0000091
:1036C00080EF0E94560F89E20E94560F2FE38DE093
:1036D00093E0215080409040E1F700C0000089E471
:1036E0000E94560F2FE38DE093E0215080409040E0
:1036F000E1F700C0000080EF0E94560F89E40E94AD
:10370000560F8091AA04882371F1CDE4D4E02FE311
:103710008DE093E0215080409040E1F700C0000030
:103720001991812F0E94560F2FE38DE093E02150D5
:1037300080409040E1F700C0000080EF0E94560FEB
:10374000812F0E94560F2FE38DE093E0215080409F
:103750009040E1F700C0000024E0C035D207B9F680
:10376000C0E4D4E02CC0C9E4D4E08FE39DE023E0C2
:10377000815090402040E1F700C000001991812F56
:103780000E94560F8FE39DE023E08150904020403F
:10379000E1F700C0000080EF0E94560F812F0E94C9
:1037A000560F8FE39DE023E0815090402040E1F7E9
:1037B00000C0000084E0CD34D807B9F6D1CF9FE334
:1037C0002DE083E0915020408040E1F700C00000F0
:1037D0001991812F0E94560F9FE32DE083E09150B5
:1037E00020408040E1F700C0000080EF0E94560FAB
:1037F000812F0E94560F9FE32DE083E091502040DF
:103800008040E1F700C0000094E0C934D907B9F660
:103810006091AA0487E090E00E94B62B81E080933B
:10382000A4048093A304DF91CF911F9108951F9367
:10383000CF93DF9381E09091A904911180E0809370
:10384000A9048091A0049091A104892B91F480EFA8
:103850000E94560F809102010E94560F1092EF04B1
:1038600080EF0E94560F809101010E94560F109226
:103870000A0580910301823009F0C3C02FE38DE077
:1038800093E0215080409040E1F700C0000089E2C1
:103890000E94560F2FE38DE093E02150804090402E
:1038A000E1F700C0000080EF0E94560F89E20E94FD
:1038B000560F2FE38DE093E0215080409040E1F7D8
:1038C00000C0000089E40E94560F2FE38DE093E0D2
:1038D000215080409040E1F700C0000080EF0E943E
:1038E000560F89E40E94560F8091A904882371F134
:1038F000CDE4D4E02FE38DE093E021508040904070
:10390000E1F700C000001991812F0E94560F2FE3AC
:103910008DE093E0215080409040E1F700C000002E
:1039200080EF0E94560F812F0E94560F2FE38DE0EB
:1039300093E0215080409040E1F700C0000024E077
:10394000C035D207B9F6C4E3D4E02CC0C9E4D4E052
:103950008FE39DE023E0815090402040E1F700C0DC
:1039600000001991812F0E94560F8FE39DE023E004
:10397000815090402040E1F700C0000080EF0E949D
:10398000560F812F0E94560F8FE39DE023E0815058
:1039900090402040E1F700C0000084E0CD34D8071B
:1039A000B9F6D1CF9FE32DE083E0915020408040D5
:1039B000E1F700C000001991812F0E94560F9FE38C
:1039C0002DE083E0915020408040E1F700C00000EE
:1039D00080EF0E94560F812F0E94560F9FE32DE02B
:1039E00083E0915020408040E1F700C0000094E067
:1039F000C034D907B9F66091A90488E090E00E942C
:103A0000B62B81E08093A4048093A304DF91CF912F
:103A10001F9108958F92AF92CF92EF920F931092D1
:103A20009E04813309F42EC1E0F4823209F411C1FD
:103A300078F48D31B1F1813209F447C0853109F054
:103A40009FC10F91EF90CF90AF908F900C94171C67
:103A50008A3209F4F2C08C32E9F0833209F090C165
:103A600052C0853309F437C130F4833309F470C090
:103A700008F4F6C04FC18C33D9F0843409F4A6C0E1
:103A80008B3309F07DC10F91EF90CF90AF908F9065
:103A90000C945C1A0F91EF90CF90AF908F900C9494
:103AA0006A190F91EF90CF90AF908F900C94241BD8
:103AB00081E080939F042FE382E49FE021508040C7
:103AC0009040E1F700C0000060C18091A004909197
:103AD000A1048B30910519F00397029750F41092CE
:103AE000AD0481E09091AC04911180E08093AC042E
:103AF00047C11092AC0481E09091AD04911180E037
:103B00008093AD043DC18091A0049091A104892BC4
:103B100009F03BC181E09091AB04911180E080936A
:103B2000AB0460E080EF0E94350E60E080910201FE
:103B30000E94350E1092EF0460E080EF0E94350E77
:103B400060E0809101010E94350E10920A0518C1B3
:103B50008091A0049091A104049709F016C18AE015
:103B60000E94560F2FE38DE093E02150804090405B
:103B7000E1F700C0000089E00E94560F2FE38DE0BE
:103B800093E0215080409040E1F700C0000080EFBA
:103B90000E94560F89E00E94560F2FEF88E09DE3A8
:103BA000215080409040E1F700C0000080EF0E946B
:103BB000560F8AE00E94560F2FE38DE093E02150CC
:103BC00080409040E1F700C00000DAC08091A0047E
:103BD0009091A104059711F5812CA12CC12CE12C09
:103BE00000E020E047E061E084E00E94CC1682E142
:103BF0000E94560F2FEF88E09DE3215080409040B7
:103C0000E1F700C0000080EF0E94560F82E10E94A1
:103C1000560F81E08093A4048093A3048091A004B4
:103C20009091A104029709F0B0C080910301813006
:103C300011F448E562C047E060C080910301823022
:103C400009F0A3C00F91EF90CF90AF908F900C949C
:103C50006C100F91EF90CF90AF908F900C94FF105D
:103C600080910301813011F44EE001C046E6812CC1
:103C7000A12CCC24C394EE24E39400E020E064E083
:103C800087E045C080910301813011F443E501C014
:103C900041E7812CA12CCC24C394EE24E39400E0D2
:103CA00021E063E087E00E94CC168091A00490910F
:103CB000A104419709F069C081E0809397041092B4
:103CC000930410929404109295041092960482E04A
:103CD000809303015AC08091A0049091A104823086
:103CE000910520F00A97029708F04FC080910301D8
:103CF000813011F44FE301C043E0812CA12CCC248E
:103D0000C394EE24E39400E020E064E084E00E94A9
:103D1000CC163BC08091A0049091A104009771F053
:103D20009C01245031092230310540F024503109E2
:103D30002230310518F08D7F0C9799F480910301A2
:103D4000813011F446E401C04EE7812CA12CCC2433
:103D5000C394EE24E39400E020E064E082E00E945B
:103D6000CC168091A0049091A104029771F464E0B4
:103D700082E00F91EF90CF90AF908F900C94001451
:103D800081E08093A4048093A3040F91EF90CF90DF
:103D9000AF908F900895CF92DF92EF92FF920F93A2
:103DA0001F93CF93DF93CBE1D1E002E211E06E01EC
:103DB000780141E06991F80181918F010E948600AC
:103DC00041E0F6016081F70180810E942601F1E067
:103DD000C232DF0761F740E0609120018091270146
:103DE000DF91CF911F910F91FF90EF90DF90CF90D7
:103DF0000C948600CF93DF93C82FD62F40E00E940B
:103E0000260140E06D2F8C2F0E9486002FE382E474
:103E10009FE0215080409040E1F700C0000041E069
:103E20006D2F8C2F0E94860041E06D2F8C2FDF912B
:103E3000CF910C9426012F923F924F925F926F92F6
:103E40007F928F929F92AF92BF92CF92DF92EF922A
:103E5000FF920F931F93CF93DF9300D000D000D039
:103E6000CDB7DEB71092A40461E086E00E94FF00A7
:103E7000882309F454C022E42A95F1F700C061E0D8
:103E800086E00E94FF00882309F46CC08091A204A0
:103E9000813089F5809104019091050101979093FB
:103EA0000501809304018FE493EC0197F1F700C0C2
:103EB000000080910401909105018436910508F07D
:103EC00051C08CE291E0909305018093040110921F
:103ED000A204DF9861E086E00E94FF00882309F4D5
:103EE00041C09FE3E2E4FFE09150E040F040E1F7A1
:103EF00000C00000EFCF8CE291E090930501809329
:103F0000040181E08093A204DF9A2FE382E49FE022
:103F1000215080409040E1F700C0000023C0809114
:103F20000401909105018C329140B0F4D59ADD984E
:103F3000FFE72AE186E0F15020408040E1F700C031
:103F40000000D598DD9A9FE3E2E4FFE09150E04065
:103F5000F040E1F700C000008CE291E09093050191
:103F6000809304018091A404882349F080919D04EA
:103F7000882309F4A3C02EEA34E040E08AC0A9E215
:103F8000EA2EA1E0FA2E06E311E0BEEA8B2EB4E0A1
:103F90009B2E712C40E0F7016081F80180810E9426
:103FA000860040E0F7016081F80180810E942601CF
:103FB000F1E2FA95F1F70000E3E4AE2EE1E0BE2E67
:103FC000FEE4CF2EF1E0DF2E2401612CF5016081AB
:103FD000F60180810E94FF00882349F1F2E4FA95FE
:103FE000F1F700C0F5016081F60180810E94FF00B9
:103FF000F2018823E9F0808180FF0AC0826080831B
:10400000F7E0F71540F524E0261528F540E00AC052
:104010008160F2018083F7E0F715E8F424E02615CB
:10402000D0F441E0662D872D0E94F20B14C0F201FE
:10403000808180FF10C08C7F84608083F7E0F7155B
:1040400050F424E0261538F44FEF662D872D0E949A
:10405000F20BF20110826394FFEFAF1ABF0A2FEF49
:10406000C21AD20A8FEF481A580A9BE06912AECFE3
:1040700041E0F70161917F01F80181918F010E9478
:1040800086007394FDE08F0E911C2DE0721282CF9A
:104090006DCF80E090E0F901E80FF91F508150FDED
:1040A00041E0019685309105B1F7235F3F4F85E0F0
:1040B0002631380771F740939D0454CF80919E04B8
:1040C000811105C080919F04882309F479C08091F3
:1040D000EF0482FF11C01092EF048091A004909130
:1040E000A104892B49F460E080EF0E94350E60E066
:1040F000809102010E94350E80910A0582FF11C055
:1041000010920A058091A0049091A104892B49F492
:1041100060E080EF0E94350E60E0809101010E9416
:10412000350E0EEA14E066E9C62E62E0D62EE12CCA
:10413000F12C7BE0B72E812C912C80919E0488235A
:1041400099F0F801E80DF91D808180FF0DC0BE9C3B
:10415000F001BF9CF00D1124E80DF91DEA57FC4F4A
:1041600080810E940A1D1CC080919F04882389F0D1
:10417000F801E80DF91D808180FF0BC0F601E80D04
:10418000F91D808190E00E94F2129093A104809327
:10419000A0049FEF891A990AE5E08E16910469F64A
:1041A000FFEFEF1AFF0A035F1F4F25E0C20ED11C7D
:1041B00088E0E816F10409F0BECF81E08093A40402
:1041C0008091A404811101C58091EF0480FFFDC49A
:1041D00080910A0580FFF9C48091A3048111F7C47E
:1041E0008091CB0480FF10C081E080939E04809377
:1041F000A40480939D049FE3E2E4FFE09150E0403B
:10420000F040E1F700C000008091F00480FF1CC086
:104210008091A0049091A104892B21F48091AB049A
:10422000882391F080918C04811101C081E08093FA
:104230008C0400E020E040E060E081E00E94190D85
:1042400061E085E00E94F8178091F20480FF1CC0B5
:104250008091A0049091A104892B21F48091AB045A
:10426000882391F080918B04811101C081E08093BB
:104270008B0400E020E040E061E080E00E94190D46
:1042800063E085E00E94F8178091C80480FF1CC09D
:104290008091A0049091A104892B21F48091AB041A
:1042A000882391F080918A04811101C081E080937C
:1042B0008A0400E020E041E060E080E00E94190D07
:1042C00060E082E00E94F8178091F10480FF1CC03A
:1042D0008091A0049091A104892B21F48091AB04DA
:1042E000882391F080918904811101C081E080933D
:1042F000890401E020E040E060E080E00E94190DC8
:1043000062E085E00E94F81780910B0580FF1CC0D9
:104310008091A0049091A104892B21F48091AB0499
:10432000882391F080918804811101C081E08093FD
:10433000880400E021E040E060E080E00E94190D88
:1043400062E087E00E94F8178091AE0480FF20C0F1
:104350008091A0049091A104892B21F48091AB0459
:104360008823B1F080908904A0908804C0908B04C9
:10437000E0908C0400918A0480910301813011F453
:104380004BE301C045E020E060E080E00E94CC16F5
:104390008091AF0480FF20C08091A0049091A1047F
:1043A000892B21F48091AB048823B1F0809089049B
:1043B000A0908804C0908B04E0908C0400918A0443
:1043C00080910301813011F44CE301C046E020E00C
:1043D00061E080E00E94CC168091B00480FF20C094
:1043E0008091A0049091A104892B21F48091AB04C9
:1043F0008823B1F080908904A0908804C0908B0439
:10440000E0908C0400918A0480910301813011F4C2
:104410004DE301C044E020E062E080E00E94CC1661
:104420008091B10480FF20C08091A0049091A104EC
:10443000892B21F48091AB048823B1F0809089040A
:10444000A0908804C0908B04E0908C0400918A04B2
:1044500080910301813011F44EE301C04CE020E073
:1044600063E080E00E94CC168091B20480FF20C0FF
:104470008091A0049091A104892B21F48091AB0438
:104480008823B1F080908904A0908804C0908B04A8
:10449000E0908C0400918A0480910301813011F432
:1044A0004FE301C043E020E064E080E00E94CC16CE
:1044B0008091D90480FF20C08091A0049091A10434
:1044C000892B21F48091AB048823B1F0809089047A
:1044D000A0908804C0908B04E0908C0400918A0422
:1044E00080910301813011F440E401C04BE020E0F1
:1044F00064E083E00E94CC168091D80480FF20C045
:104500008091A0049091A104892B21F48091AB04A7
:104510008823B1F080908904A0908804C0908B0417
:10452000E0908C0400918A0480910301813011F4A1
:1045300041E401C043E820E063E083E00E94CC1640
:104540008091D70480FF20C08091A0049091A104A5
:10455000892B21F48091AB048823B1F080908904E9
:10456000A0908804C0908B04E0908C0400918A0491
:1045700080910301813011F442E401C04AE020E05F
:1045800062E083E00E94CC168091D60480FF20C0B8
:104590008091A0049091A104892B21F48091AB0417
:1045A0008823B1F080908904A0908804C0908B0487
:1045B000E0908C0400918A0480910301813011F411
:1045C00043E401C041E020E061E083E00E94CC16BA
:1045D0008091D50480FF20C08091A0049091A10417
:1045E000892B21F48091AB048823B1F08090890459
:1045F000A0908804C0908B04E0908C0400918A0401
:1046000080910301813011F444E401C049E020E0CD
:1046100060E083E00E94CC168091BB0480FF20C044
:104620008091A0049091A104892B21F48091AB0486
:104630008823B1F080908904A0908804C0908B04F6
:10464000E0908C0400918A0480910301813011F480
:1046500047E501C048E720E060E081E00E94CC1619
:104660008091BC0480FF20C08091A0049091A1049F
:10467000892B21F48091AB048823B1F080908904C8
:10468000A0908804C0908B04E0908C0400918A0470
:1046900080910301813011F448E501C047E020E03A
:1046A00061E081E00E94CC168091C90480FF20C0A7
:1046B0008091A0049091A104892B21F48091AB04F6
:1046C0008823B1F080908904A0908804C0908B0466
:1046D000E0908C0400918A0480910301813011F4F0
:1046E00046E501C041E620E061E082E00E94CC1690
:1046F0008091E40480FF20C08091A0049091A104E7
:10470000892B21F48091AB048823B1F08090890437
:10471000A0908804C0908B04E0908C0400918A04DF
:1047200080910301813011F445E401C047E720E0A6
:1047300062E084E00E94CC168091E30480FF20C0F8
:104740008091A0049091A104892B21F48091AB0465
:104750008823B1F080908904A0908804C0908B04D5
:10476000E0908C0400918A0480910301813011F45F
:104770004AE101C044E520E061E084E00E94CC16FB
:104780008091E20480FF20C08091A0049091A10458
:10479000892B21F48091AB048823B1F080908904A7
:1047A000A0908804C0908B04E0908C0400918A044F
:1047B00080910301813011F44BE101C04BE520E011
:1047C00060E084E00E94CC168091BD0480FF20C090
:1047D0008091A0049091A104892B21F48091AB04D5
:1047E0008823B1F080908904A0908804C0908B0445
:1047F000E0908C0400918A0480910301813011F4CF
:1048000047E301C04CE720E062E081E00E94CC1663
:104810008091BE0480FF20C08091A0049091A104EB
:10482000892B21F48091AB048823B1F08090890416
:10483000A0908804C0908B04E0908C0400918A04BE
:1048400080910301813011F44AE401C04BE720E07C
:1048500063E081E00E94CC168091CA0480FF20C0F2
:104860008091A0049091A104892B21F48091AB0444
:104870008823B1F080908904A0908804C0908B04B4
:10488000E0908C0400918A0480910301813011F43E
:104890004EE401C049E720E062E082E00E94CC16CD
:1048A0008091BF0480FF12C08091A0049091A10468
:1048B000892B21F48091AB04882341F064E081E0EE
:1048C0000E94001464E081E00E94B3168091E60427
:1048D00080FF20C08091A0049091A104892B21F435
:1048E0008091AB048823B1F080908904A090880463
:1048F000C0908B04E0908C0400918A0480910301A5
:10490000813011F446E401C04EE720E064E084E029
:104910000E94CC168091E50480FF12C08091A00413
:104920009091A104892B21F48091AB04882341F05C
:1049300063E084E00E94D61363E084E00E94B31633
:104940008091CC0480FF20C08091A0049091A104AC
:10495000892B21F48091AB048823B1F080908904E5
:10496000A0908804C0908B04E0908C0400918A048D
:1049700080910301813011F442E501C040E721E05C
:1049800064E082E00E94CC168091000580FF20C088
:104990008091A0049091A104892B21F48091AB0413
:1049A0008823B1F080908904A0908804C0908B0483
:1049B000E0908C0400918A0480910301813011F40D
:1049C00047E401C04CE621E064E086E00E94CC169A
:1049D0008091FF0480FF20C08091A0049091A104E9
:1049E000892B21F48091AB048823B1F08090890455
:1049F000A0908804C0908B04E0908C0400918A04FD
:104A000080910301813011F449E401C04DE721E0B8
:104A100063E086E00E94CC168091F30480FF20C002
:104A20008091A0049091A104892B21F48091AB0482
:104A30008823B1F080908904A0908804C0908B04F2
:104A4000E0908C0400918A0480910301813011F47C
:104A500043E501C041E721E064E085E00E94CC1617
:104A600080910D0580FF20C08091A0049091A10449
:104A7000892B21F48091AB048823B1F080908904C4
:104A8000A0908804C0908B04E0908C0400918A046C
:104A900080910301813011F44FE401C049E621E027
:104AA00064E087E00E94CC1680910C0580FF20C056
:104AB0008091A0049091A104892B21F48091AB04F2
:104AC0008823B1F080908904A0908804C0908B0462
:104AD000E0908C0400918A0480910301813011F4EC
:104AE00041E501C04AE721E063E087E00E94CC167F
:104AF0008091FE0480FF20C08091A0049091A104C9
:104B0000892B21F48091AB048823B1F08090890433
:104B1000A0908804C0908B04E0908C0400918A04DB
:104B200080910301813011F447E201C04CE420E0A0
:104B300062E086E00E94CC168091FD0480FF20C0D8
:104B40008091A0049091A104892B21F48091AB0461
:104B50008823B1F080908904A0908804C0908B04D1
:104B6000E0908C0400918A0480910301813011F45B
:104B700048E201C042E520E061E086E00E94CC16F8
:104B80008091FC0480FF23C08091A0049091A10437
:104B9000892B21F48091AB048823C9F0809089048B
:104BA000A0908804C0908B04E0908C0400918A044B
:104BB00080910301813011F44BE201C04DE520E00A
:104BC00060E086E00E94CC1602C01092A30480919F
:104BD000A404811146C38091A804882309F47EC0EF
:104BE0009091A6048091EF0491116EC0882371F01A
:104BF0008091D80480FF0AC060911701809118014C
:104C00000E94FA1E1092D8041092A7048091EF041B
:104C1000882371F08091D90480FF0AC06091160149
:104C2000809158050E94FA1E1092D9041092A70490
:104C30008091EF04882371F08091B20480FF0AC054
:104C40006091190180911A010E94FA1E1092B2041B
:104C50001092A7048091EF048823D1F08091D704AB
:104C600080FF16C08091A704882339F01092A70412
:104C70001092A8041092A60409C0609112018091BC
:104C800013010E94FA1E81E08093A7041092D704BA
:104C90008091FC0480FF0AC060911401809115018D
:104CA0000E94FA1E1092FC041092A7048091EF0457
:104CB0008823A1F08091AE0480FF10C01092AE0452
:104CC00081E08093A6040AC0882341F08091AE045D
:104CD00080FF04C01092AE041092A6048091A0043C
:104CE0009091A1042091EF04892B09F090C080914C
:104CF000AB0481118CC020FF10C021FD0EC080913B
:104D000002010E94560F8091EF0482608093EF04AD
:104D10008091A5048F5F8093A50480910A0580FF90
:104D200010C081FD0EC0809101010E94560F80913C
:104D30000A05826080930A058091A5048F5F8093A5
:104D4000A5048091EF0482FF0EC080EF0E94560FF1
:104D5000809102010E94560F1092EF048091A504E9
:104D60008F5F8093A50480910A0582FF0EC080EFBB
:104D70000E94560F809101010E94560F10920A0561
:104D80008091A5048F5F8093A5048091A50488235A
:104D900031F021E22A95F1F700001092A5045EEAB5
:104DA000E52E54E0F52E06E813E0A12CB12C6701A6
:104DB000CA0CDB1CF601808180FF08C081FD06C0A3
:104DC000F801EA0DFB1D80810E94560FF6018081DB
:104DD00082FF0BC080EF0E94560FF801EA0DFB1D09
:104DE00080810E94560FF6011082FFEFAF1ABF0AB2
:104DF00025E0A216B104D9F68DE0E80EF11C055F9E
:104E00001F4F96E1E91695E0F90679F62AC28091DE
:104E10009804811135C080919C04811131C080912A
:104E20009B0481112DC020FF02C021FF06C080918C
:104E30000A0580FF2CC081FD2AC02EEA34E050E034
:104E400040E080E090E0453019F4811105C00AC0CF
:104E5000473011F4813031F0F901E80FF91F60811A
:104E600060FD05C001968530910569F701C051E0EC
:104E70004F5F235F3F4F483021F75093980407C09E
:104E800020FD05C080910A0580FF109298042EE550
:104E9000A22E23E0B22E3EE0832E33E0932EEEEAE4
:104EA000F4E0FC83EB8346E8242E43E0342E86E3D3
:104EB00093E09A83898300E010E0E980FA80610141
:104EC000EB81FC81FE83ED83612C712C462C053037
:104ED00019F4611007C096C1073021F491E06916FA
:104EE00009F490C1ED81FE81808180FFCDC081FDFC
:104EF000CBC02091980421110FC02091EF0420FF16
:104F000002C08860808380910A0580FF05C0ED8122
:104F1000FE81808180618083ED81FE81808183FFBD
:104F200010C084FD0EC080910301823011F4F501A0
:104F300001C0F401E60DF71D4081642D802F0E9411
:104F4000A20FED81FE81808184FF0AC083FD08C02D
:104F50004091A0045091A104642D802F0E94BA14A6
:104F6000ED81FE818081887109F089C02091AD04B6
:104F700080910301211105C03091AC04332309F461
:104F80006CC01092900410928F0410928D048230A5
:104F9000A1F5F6011081143441F01D3441F01531B2
:104FA00041F01C3139F412E705C01BE603C014E7D9
:104FB00001C015E7809157058823A1F01A3359F4F1
:104FC00021114BC18091A0049091A1040B9709F489
:104FD00044C110E709C0193229F4222309F43DC164
:104FE0001AE302C01B3631F08CE8810F823010F0DA
:104FF000123749F5222339F121C0813021F5F7011B
:105000001081183141F0193141F0103141F01E3159
:1050100039F410E505C01BE403C01DE401C018E429
:1050200080915705882311F0123361F01B3431F061
:105030001D3421F0183411F0103529F480EE8093DE
:105040008D0401C019E310938E0480918D04882390
:1050500091F080EE0E94560F0EC0109290041092B4
:105060008F04823011F4F60101C0F7018081809332
:105070008E0410928D0480918E040E94560FED8153
:10508000FE81808182608083ED81FE81808182FF4C
:10509000B9C083FF10C084FD0EC08091030182302F
:1050A00011F4F50101C0F401E60DF71D4081642DF6
:1050B000802F0E940910ED81FE81808184FF0AC04B
:1050C00083FD08C04091A0045091A104642D802F5D
:1050D0000E94AD15ED81FE818081887109F08FC03D
:1050E0002091AD0480910301211105C03091AC04E1
:1050F000332309F46EC010928E048230E1F5F6017C
:105100001081143441F01D3441F0153141F01C314F
:1051100039F412E705C01BE603C014E701C015E728
:10512000809157058823A1F01A3359F4211197C0B3
:105130008091A0049091A1040B9709F490C010E70E
:1051400009C0193229F4222309F489C01AE302C0E4
:105150001B3631F08CE8810F823010F0123729F4C1
:10516000222319F080EE0E94560F80EF0E94560F06
:10517000812F0E94560F80910301813009F03FC0BA
:10518000F7011081183141F0193141F0103141F02F
:105190001E3139F410E505C01BE403C01DE401C055
:1051A00018E480915705882311F0123361F01B3405
:1051B00031F01D3421F0183411F0103529F480EE4F
:1051C0000E94560F01C019E380E8810F0E94560F1C
:1051D00016C0823039F480EF0E94560FF6014080ED
:1051E000842D04C0F701408080E8840D0E94560F92
:1051F00080918E04841101C080E080938E04ED8143
:10520000FE811082FFEF6F1A7F0A8D819E810196C9
:105210009E838D839FEFC91AD90AEFEFEE1AFE0A1B
:10522000F5E06F16710409F051CE0F5F25E0A20E74
:10523000B11C85E0880E911CEB81FC813D96FC83BE
:10524000EB83FBE02F0E311C89819A8105969A83AE
:105250008983083009F031CE04C019E2C5CE19E2C5
:1052600079CF26960FB6F894DEBF0FBECDBFDF9183
:10527000CF911F910F91FF90EF90DF90CF90BF9053
:10528000AF909F908F907F906F905F904F903F90E6
:105290002F900895CF92DF92EF92FF92CF930E94CA
:1052A000CC032091A0043091A104882309F46DC09F
:1052B000C9014197039708F068C080919704811154
:1052C0000DC08091930490919404A0919504B091A5
:1052D0009604892B8A2B8B2B09F457C0C0EACC2E5D
:1052E000C6E8DC2EEE24E394F12CC1E088EE93E0D6
:1052F0000E94D703882309F49EC080919A0480936A
:1053000099048AE994E00E94F203892B79F7C0920C
:105310009304D0929404E0929504F09296048091C4
:105320009A048E3E29F40E94560FC093970403C03E
:105330008AEF0E94560F80919A048230B9F028F4C7
:10534000882369F0813091F0D1CF823FB9F08F3F4F
:1053500069F68AEA0E94560F10929704C7CF80918F
:105360009904803F19F6809103010CC09091990433
:10537000903F09F0BBCF80930301B8CF8BEA0E9426
:10538000560F83E80E94560FB1CF809193049091FD
:105390009404A0919504B09196040097A105B105DD
:1053A00059F00197A109B109809393049093940453
:1053B000A0939504B093960421513109233031050F
:1053C00088F580918E04882369F180918F049091F3
:1053D00090049C012F5F3F4F3093900420938F04E3
:1053E000893E934020F4809103018230D9F480916A
:1053F0009104909192049C012F5F3F4F309392044F
:10540000209391048739910568F080918D04811172
:105410000E94560F80918E040E94560F10929204A3
:10542000109291040E941B1FCF91FF90EF90DF908C
:10543000CF900C944418CF91FF90EF90DF90CF90D5
:10544000089541E06091190180911A010E9486003F
:1054500041E06091190180911A010E94260141E00A
:1054600060911701809118010E94860041E06091CF
:105470001701809118010E94260141E060911601F8
:10548000809158050E94860041E06091160180914C
:1054900058050E94260141E0609114018091150198
:1054A0000E94860041E060911401809115010E94E4
:1054B000260141E060911201809113010E94860053
:1054C00041E060911201809113010C942601CF9369
:1054D000DF93CDB7DEB72A970FB6F894DEBF0FBEC5
:1054E000CDBFD79ADF98D598DD9A80916100826010
:1054F00080936100809162008D7F80936200D49AD6
:10550000DC9A0E94BE030E94AC040E94CB1E0E9443
:10551000212A10926D0410926C04D698DE9A85E0D0
:10552000E9E5F1E0DE01169601900D928A95E1F72A
:1055300045E050E060E070E0CE0101960E94942BBF
:10554000DE011196FE0136969F0141E0CF016D917B
:105550005191651340E0A217B307C9F7442381F1C5
:1055600085E090E00E94A42B90E00E94321290937C
:10557000A1048093A00486E090E00E94A42B8230D6
:1055800008F080E08093AB0487E090E00E94A42BB9
:10559000823008F080E08093AA0488E090E00E94C6
:1055A000A42B823008F080E08093A90489E090E089
:1055B0000E94A42B823008F080E0809386041FC0F4
:1055C00045E050E060E070E00E94AC2B60E085E0D8
:1055D00090E00E94B62B61E086E090E00E94B62B3E
:1055E00060E087E090E00E94B62B60E088E090E009
:1055F0000E94B62B60E089E090E00E94B62B2A96CC
:105600000FB6F894DEBF0FBECDBFDF91CF910895E6
:1056100008950E945E2B0E94082B0E94672AC0E01A
:10562000D0E00E944A292097E1F30E940000F9CFC0
:105630001F920F920FB60F9211242F933F938F93C7
:105640009F93AF93BF9380915A0590915B05A09172
:105650005C05B0915D053091590526E6230F2D3785
:1056600028F029EE230F0196A11DB11D20935905A5
:1056700080935A0590935B05A0935C05B0935D05FC
:1056800080915E0590915F05A0916005B0916105E4
:105690000196A11DB11D80935E0590935F05A093B7
:1056A0006005B0936105BF91AF919F918F913F913C
:1056B0002F910F900FBE0F901F901895789483B77D
:1056C000806483BF83B7886083BF83B7846083BFF0
:1056D00087B7816087BF1EBC8EB582608EBD8EB5D8
:1056E00081608EBD8FB581608FBD85B5846085BDBD
:1056F00085B5806485BDEAE8F0E0808182608083C2
:10570000808181608083EBE8F0E08081816080832C
:10571000329A319A309A379A1AB80895EE0FFF1FCD
:105720000590F491E02D0994DC01CB01FC01E19995
:10573000FECF06C0FFBBEEBBE09A31960DB20D92D4
:1057400041505040B8F70895E199FECF9FBB8EBB02
:10575000E09A99278DB30895DC01CB0103C02D9108
:105760000E94B72B41505040D0F70895262FE19961
:10577000FECF9FBB8EBB2DBB0FB6F894E29AE19A89
:0A5780000FBE01960895F894FFCFC4
:10578A00011412022C011B0B191A29255322170E78
:10579A00100D0506050702020102020505050505A9
:1057AA0003000504030201000502020704040404BD
:1057BA0007030303030304060300020406000002AE
:1057CA000406070303070404040407020202030190
:1057DA0001070503010407050353554741520075A4
:1057EA00726B74706C7D71697A1C322123242B349C
:1057FA0033433B424B3A31444D152D1B2C3C2A1D59
:10580A0022351A161E26252E363D3E464505060425
:10581A000C030B830A0109780769727A6B73746C3B
:10582A00757D704A7C7B795A717776664914117E48
:10583A005A291259580E0D55414C0048504B4D5299
:10584A0047494B4F511E302E20122122231724255F
:10585A00263231181910131F14162F112D152C0268
:10586A00030405060708090A0B3B3C3D3E3F40413D
:10587A0042434457584F50514B4C4D474849523573
:10588A00374A4E1C5345010E341D38461C392A36F8
:10589A003A290F0D332705423224222C04044D21C4
:1058AA00222C04093A3C4B2C4321443A4D04093436
:1058BA001C4B1C421B433B1C04031B3A1B04044D98
:1058CA0021222C04051C4D4D4B2404073B3C4D431F
:1058DA002C242D04031B1C3A0404442D43210403E5
:1058EA002A432104051C21442D31040332322104A8
:1058FA00051C2C1C2D4304052C2D1B3E450603219B
:10590A001636040321362504033A1B220403214DCB
:10591A002104021A22010102030405FFFF0DFFFF01
:10592A0009FF0C0E0F0011080706FFFF12FFFFFF09
:10593A00FFFF0BFFFFFFFF1310FFFFFFFF0A010826
:10594A0008010100010000014008080808010101DE
:10595A0000010101010808000140010100010000E5
:10596A00010000000001020304050629290D56560C
:10597A007E0229282B350A090C0703330D1B1A004E
:10598A00349C0C08000B1B351A000034331B3C3ABC
:10599A0000004B000000000000000000000E004D57
:1059AA004850000000000000000000000F00000046
:1059BA00000100000000020304050610111213146E
:1059CA001E1F2021220B0A0908071918171615008D
:1059DA002C2D2E2F1C26252423390032313006582F
:1059EA0000006B0000000000000000000066007468
:1059FA007572000000000000000000000D000000A9
:105A0A00007600000000161E26252E000000000069
:105A1A0000151D242D2C0000000000001C1B232B48
:105A2A003400000000000045463E3D3600000000FC
:105A3A0000004D44433C35000000000000001A22DB
:105A4A00212A0000000000005A4B423B33000000AC
:105A5A0000000029003A3132000000000000000076
:105A6A0000000000000000524C0000000000494104
:105A7A00000000000000000000040C0558006B0044
:105A8A00000000007475660100720000000000004A
:105A9A0000760D00003B4435292B1C3A4321443A39
:105AAA003B4435291C2C1C2D431B3A232C1A222338
:105ABA003C433144213C2D1B442D1B2942324D21AC
:105ACA0023244B29322D241C42442B2B29443129CF
