:100000000C9446000C9465000C9465000C946500FB
:100010000C9465000C9465000C9465000C946500CC
:100020000C9465000C9465000C9465000C946500BC
:100030000C9465000C9465000C9465000C946500AC
:100040000C94C6220C9465000C9465000C94650019
:100050000C9465000C9465000C9465000C9465008C
:100060000C9465000C9465000C9465000C9465007C
:100070000C9465000C9465000C9465000C9465006C
:100080000C9465000C9465000C94650011241FBE4F
:10009000CFEFD0E1DEBFCDBF14E0A0E0B1E0E4EFF0
:1000A000F6E400E00BBF02C007900D92A436B10742
:1000B000D9F725E0A4E6B4E001C01D92A833B20749
:1000C000E1F70E94B7220C9478230C940000E1E63B
:1000D000F0E0908121E030E001C0220F8A95EAF73C
:1000E0002095292320830895633091F128F461300D
:1000F00059F06230D9F00895653009F44DC0D0F15F
:10010000673009F45BC0089521E030E0B90102C016
:10011000660F771F8A95E2F7CB019AB3442321F04B
:10012000809589238ABB0895892BFCCF21E030E09C
:10013000B90102C0660F771F8A95E2F7CB0197B32A
:10014000442321F08095892387BB0895892BFCCF18
:1001500021E030E0B90102C0660F771F8A95E2F70F
:10016000CB0194B3442321F08095892384BB089567
:10017000892BFCCF21E030E0B90102C0660F771F68
:100180008A95E2F7CB0191B3442321F0809589232E
:1001900081BB0895892BFCCF21E030E0B90102C07A
:1001A000660F771F8A95E2F7CB0192B1442321F0C5
:1001B0008095892382B90895892BFCCF21E030E016
:1001C000B90102C0660F771F8A95E2F7CB019091C3
:1001D0006400442329F08095892380936400089566
:1001E000892BFBCF282F6330E9F030F4613061F0C8
:1001F0006230B1F080E008956530C1F0A8F067305A
:10020000C9F79091630001C099B3892F90E002C0B3
:10021000959587952A95E2F7809590958170089538
:1002200096B3F3CF93B3F1CF90B3EFCF91B1EDCFBE
:10023000633091F128F4613059F06230D9F00895BB
:10024000653009F44DC0D0F1673009F45BC0089502
:1002500021E030E0B90102C0660F771F8A95E2F70E
:10026000CB019BB3411104C0809589238BBB0895BA
:10027000892BFCCF21E030E0B90102C0660F771F67
:100280008A95E2F7CB0198B3411104C08095892388
:1002900088BB0895892BFCCF21E030E0B90102C072
:1002A000660F771F8A95E2F7CB0195B3411104C021
:1002B0008095892385BB0895892BFCCF21E030E010
:1002C000B90102C0660F771F8A95E2F7CB0192B39E
:1002D000411104C08095892382BB0895892BFCCFEE
:1002E00021E030E0B90102C0660F771F8A95E2F77E
:1002F000CB0193B1411104C08095892383B908953E
:10030000892BFCCF21E030E0B90102C0660F771FD6
:100310008A95E2F7CB0190916500411105C0809567
:100320008923809365000895892BFBCF90917204F7
:1003300080917304292F2823D1F081E080937604E3
:100340008093650410927204109273049091740467
:1003500080917504292F2823F1F081E080937704A0
:10036000809364041092740410927504089520918F
:100370006504222321F0109276041092650421E096
:1003800030916A04311120E0922390937204822309
:1003900080937304DBCF20916404222321F0109218
:1003A00077041092640421E030916B04311120E055
:1003B0009223909374048223809375040895CF93BD
:1003C00041E060912001809127010E9418018AE498
:1003D0008A95F1F700C060911B01809122010E9473
:1003E000F2008093720460911C01809123010E94AD
:1003F000F2008093730460911D01809124010E949A
:10040000F2008093740460911E01809125010E9486
:10041000F2008093750440E06091200180912701F3
:100420000E9418019AE49A95F1F700C060911D01AD
:10043000809124010E94F200C82F60911E018091DA
:1004400025010E94F2008C2360911F01882309F48A
:10045000C3C0809126010E94F200809378046091CD
:100460002101809128010E94F2008093770441E0ED
:1004700060912001809127010E9418018AE48A95E9
:10048000F1F700C060911F01809126010E94F200E7
:100490008093790460912101809128010E94F200EB
:1004A00080937A0440E060912001809127010E94AE
:1004B00018019AE49A95F1F700C041E0609120019B
:1004C000809127010E9418018AE48A95F1F700C003
:1004D00040E060912001809127010E9418019AE478
:1004E0009A95F1F700C060911B01809122010E9452
:1004F000F200C82F60911C01809123010E94F2003C
:10050000C82360911D01809124010E94F200C8233C
:1005100060911E01809125010E94F2008C2309F454
:1005200048C041E060912001809127010E9418019C
:100530008AE48A95F1F700C060911B018091220145
:100540000E94F20080937D0460911C018091230140
:100550000E94F20080937C0460911D01809124012F
:100560000E94F20080937B0460911E01809125011E
:100570000E94F2008093760440E060912001809117
:1005800027010E9418019AE49A95F1F700C041E012
:1005900060912001809127010E9418018AE48A95C8
:1005A000F1F700C040E060912001809127010E9496
:1005B00018018FE39FE10197F1F700C0000041E0CF
:1005C00060912001809127010E9418019AE49A9578
:1005D000F1F700C0CF910895809126010E94F200AA
:1005E0008093780460912101809128010E94F2009B
:1005F00080937904E4CF98E080E061E070E0482FD8
:1006000050E055954795842F21B130E0E0912301CA
:1006100002C035952795EA95E2F720FF806843B13F
:1006200020912501FB0102C0EE0FFF1F2A95E2F782
:100630009F012095242323B9F0E8FA95F1F723B11F
:1006400030912501AB0101C0440F3A95EAF7242B04
:1006500023B920E82A95F1F7915089F608950F9370
:100660001F93CF93DF9382B102E211E0F8019181F1
:10067000C1E0D0E09E0101C0220F9A95EAF7922FC7
:100680009095982392B983B1822B83B992B18281DC
:100690009E0101C0220F8A95EAF7922B92B983B18D
:1006A000822B83B992B183819E0101C0220F8A956A
:1006B000EAF7922B92B983B1822B83B98FEB90E04A
:1006C0000197F1F700C0000023B18281AE0102C0A2
:1006D000440F551F8A95E2F7CA018095822383B99A
:1006E00050E85A95F1F70E94FB02E2E7F4E0982FF8
:1006F00091709683982F92709783982F947094831B
:10070000982F98709583982F90719083982F90725E
:100710009183982F907492838078838382B1F801BB
:1007200092819E0101C0220F9A95EAF7922F90952F
:10073000982392B983B1822B83B992B1838101C08E
:10074000CC0F8A95EAF78C2F8095892382B983B1E3
:10075000C82BC3B9DF91CF911F910F910895E2E6A5
:10076000F0E08081877F808380818B7F808383E03E
:100770000E94670082E00C946700029B07C080B172
:1007800083FB882780F991E08927089581E0089507
:1007900030E020E08217930749F02F5F3F4F039B23
:1007A00007C04AE14A95F1F700C0F4CF80E0089510
:1007B00081E00895882331F095E19A95F1F70000E2
:1007C0008450F8CF0895EF92FF920F931F93CF9329
:1007D000DF93E82E0E94BD038111FCCF8091610060
:1007E00088608093610080910001880F880F0E94CB
:1007F000DA03809161008460809361008091000140
:10080000880F880F880F0E94DA0382E00E94670039
:1008100080910001880F880F0E94DA03D0E0C0E0C9
:1008200011E0F12C01E0C7010C2E02C095958795CF
:100830000A94E2F780FF6FC083E00E9467001027F0
:1008400080910001880F880F0E94DA039091610067
:1008500094609093610080910001880F880F880F49
:100860000E94DA0382E00E94670080910001880FF5
:10087000880F0E94DA032196C830D105A1F6112312
:1008800009F44FC083E00E94670080910001880F47
:10089000880F0E94DA038091610084608093610078
:1008A00080910001880F880F880F0E94DA0382E090
:1008B0000E94670080910001880F880F0E94DA0370
:1008C00083E00E94670080910001880F880F0E94DA
:1008D000DA0380916100846080936100809100015F
:1008E000880F880F880F0E94DA0382E00E94670059
:1008F00080910001880F880F0E94DA0387EC90E056
:100900000197F1F700C00000DF91CF911F910F9187
:10091000FF90EF900895809161008860809361005E
:100920008FCF80916100886080936100AECF9F92ED
:10093000AF92BF92CF92DF92EF92FF920F931F93ED
:10094000CF93DF937C0180B1182F187083FDFBCF0C
:10095000029BFECF80910001880F880F0E94DA036E
:100960008091610084608093610080910001880F14
:10097000880F880F0E94DA0382E00E94670080914E
:100980000001880F880F0E94DA03D0E0C0E001E088
:10099000AA24A394B12C99249394039B08C0C50165
:1009A0000C2E01C0880F0A94EAF7182B09258091B4
:1009B0000001880F880F0E94DA0380916100846033
:1009C0008093610080910001880F880F880F0E943A
:1009D000DA0382E00E94670080910001880F880F8F
:1009E0000E94DA032196C830D105B9F680B183FBA5
:1009F000CC24C0F8D12C8FEF9FEF0C151D0409F00B
:100A000042C080910001880F880F0E94DA03809114
:100A1000610084608093610080910001880F880FDD
:100A2000880F0E94DA0382E00E9467008091000133
:100A3000880F880F0E94DA0380916100886080939C
:100A4000610080910001880F880F0E94DA03809175
:100A5000610084608093610080910001880F880F9D
:100A6000880F0E94DA0382E00E94670083E00E9400
:100A700067008FE891E00197F1F700C00000F701EF
:100A8000108390E080E0DF91CF911F910F91FF9054
:100A9000EF90DF90CF90BF90AF909F900895EF922E
:100AA000FF921F93CF93DF93C82F7B01142F8534C0
:100AB00029F040F48FEF8C0F8A3030F480EE0E94E2
:100AC000E30302C08934D1F3CC2301F1D0E0EF2855
:100AD000C9F0113079F4C654DE4F88818058DF9117
:100AE000CF911F91FF90EF900C94E303C654DE4F1B
:100AF0008881F5CF123051F480EF0E94E303C25A8F
:100B0000DE4FF6CF113091F31230C9F3DF91CF9160
:100B10001F91FF90EF900895EF92FF921F93CF9354
:100B2000DF938091920490919304892B91F480EF4C
:100B30000E94E303809102010E94E3031092D60415
:100B400080EF0E94E303809101010E94E303109271
:100B5000ED0489E20E94E3032FEF80E792E0215049
:100B600080409040E1F700C0000080EF0E94E30366
:100B700089E20E94E3038CE5E82E84E0F82ED0E0C1
:100B8000C0E0C230D10519F0C430D105D9F4AFEFBF
:100B9000B0E722E0A150B0402040E1F700C00000E3
:100BA00089E40E94E3038FEF90E7A2E08150904038
:100BB000A040E1F700C0000080EF0E94E30389E459
:100BC0000E94E303BFEF20E782E0B1502040804065
:100BD000E1F700C00000D701ED917D01F0E0EE5A91
:100BE000FB4F1081812F0E94E303BFEF20E782E0DB
:100BF000B15020408040E1F700C0000080EF0E942B
:100C0000E303812F0E94E3039FEFA0E7B2E091503E
:100C1000A040B040E1F700C000002196C830D105E7
:100C200009F0AFCF89E20E94E3032FEF80E792E063
:100C3000215080409040E1F700C0000080EF0E940A
:100C4000E30389E20E94E3038DE20E94E303AFEF36
:100C5000B0E722E0A150B0402040E1F700C0000022
:100C600080EF0E94E3038DE20E94E3038FEF90E7A1
:100C7000A2E081509040A040E1F700C0000086E172
:100C80000E94E303BFEF20E782E0B15020408040A4
:100C9000E1F700C0000080EF0E94E30386E10E94BC
:100CA000E3039FEFA0E7B2E09150A040B040E1F72E
:100CB00000C0000081E08093960480939504DF914A
:100CC000CF911F91FF90EF9008951F93CF93DF93E3
:100CD0008091920490919304892B91F480EF0E946B
:100CE000E303809102010E94E3031092D60480EF97
:100CF0000E94E303809101010E94E3031092ED043E
:100D00006091920485E090E00E946B238091030142
:100D1000823009F061C02FEF80E792E021508040DF
:100D20009040E1F700C0000089E20E94E3032FEF4A
:100D300080E792E0215080409040E1F700C0000041
:100D400080EF0E94E30389E20E94E3032FEF80E734
:100D500092E0215080409040E1F700C0000089E41B
:100D60000E94E3032FEF80E792E021508040904003
:100D7000E1F700C0000080EF0E94E30389E40E94D5
:100D8000E303C8E4D4E02FEF80E792E021508040F5
:100D90009040E1F700C000001991812F0E94E30309
:100DA0002FEF80E792E0215080409040E1F700C0B3
:100DB000000080EF0E94E303812F0E94E3032FEFE6
:100DC00080E792E0215080409040E1F700C00000B1
:100DD00024E0C235D207B9F681E08093960480936F
:100DE0009504DF91CF911F9108950F931F93CF9397
:100DF000DF93EC018091920490919304892B91F4FC
:100E000080EF0E94E303809102010E94E3031092AD
:100E1000D60480EF0E94E303809101010E94E30366
:100E20001092ED042FEF81EE94E02150804090402D
:100E3000E1F700C0000089E20E94E303EFEFF1EE6A
:100E400024E0E150F0402040E1F700C0000080EFD6
:100E50000E94E30389E20E94E3038FEF91EEE4E056
:100E600081509040E040E1F700C0000089E40E941A
:100E7000E303FFEF21EE84E0F15020408040E1F7F2
:100E800000C0000080EF0E94E30389E40E94E303B6
:100E90008E010F5F1F4F888190E098012C1B3D0B46
:100EA000821793074CF19FEFE1EEF4E09150E040A0
:100EB000F040E1F700C00000F80181918F010E942D
:100EC000E303FFEF21EE84E0F15020408040E1F7A2
:100ED00000C0000080EF0E94E303F8013197808199
:100EE0000E94E3039FEFE1EEF4E09150E040F04018
:100EF000E1F700C00000CFCFC80FD91F89818093D0
:100F00000001DF91CF911F910F910895EF92FF9211
:100F10001F93CF93DF9310929E0480919A0491E0E7
:100F2000811190E090939A04811102C0109299046B
:100F30008091920490919304892B91F480EF0E9408
:100F4000E303809102010E94E3031092D60480EF34
:100F50000E94E303809101010E94E3031092ED04DB
:100F600080910301823009F094C02FEF80E792E076
:100F7000215080409040E1F700C0000089E20E94CB
:100F8000E3032FEF80E792E0215080409040E1F7AB
:100F900000C0000080EF0E94E30389E20E94E303A7
:100FA0002FEF80E792E0215080409040E1F700C0B1
:100FB000000089E40E94E3032FEF80E792E02150D4
:100FC00080409040E1F700C0000080EF0E94E30302
:100FD00089E40E94E30380919A04882309F464C0A1
:100FE000C4E2D4E02FEF80E792E0215080409040AF
:100FF000E1F700C000001991812F0E94E3032FEF59
:1010000080E792E0215080409040E1F700C000006E
:1010100080EF0E94E303812F0E94E3032FEF80E71C
:1010200092E0215080409040E1F700C0000024E0B1
:10103000C732D207B9F6C3E0D4E08BE0E82E84E0F3
:10104000F82E9FEF20E782E0915020408040E1F7AA
:1010500000C000001991812F0E94E3039FEF20E759
:1010600082E0915020408040E1F700C0000080EF16
:101070000E94E303812F0E94E3039FEF20E782E0B9
:10108000915020408040E1F700C00000EC16FD06C2
:10109000C1F681E08093960480939504DF91CF910F
:1010A0001F91FF90EF900895C0E2D4E08FEF90E79A
:1010B00022E0815090402040E1F700C000001991EB
:1010C000812F0E94E3038FEF90E722E08150904050
:1010D0002040E1F700C0000080EF0E94E303812F71
:1010E0000E94E3038FEF90E722E081509040204080
:1010F000E1F700C0000084E0C432D807B9F69BCF06
:10110000EF92FF921F93CF93DF9381E090917E0443
:10111000911180E080937E048091920490919304D9
:10112000892B91F480EF0E94E303809102010E94D9
:10113000E3031092D60480EF0E94E3038091010143
:101140000E94E3031092ED0480910301823009F0C4
:101150006FC02FEF80E792E0215080409040E1F790
:1011600000C0000089E20E94E3032FEF80E792E0D5
:10117000215080409040E1F700C0000080EF0E94C5
:10118000E30389E20E94E3032FEF80E792E021501E
:1011900080409040E1F700C0000089E40E94E30332
:1011A0002FEF80E792E0215080409040E1F700C0AF
:1011B000000080EF0E94E30389E40E94E303809132
:1011C0007E04882309F43FC0CCEED3E087EFE82EFD
:1011D00083E0F82E2FEF80E792E02150804090408E
:1011E000E1F700C000001991812F0E94E3032FEF67
:1011F00080E792E0215080409040E1F700C000007D
:1012000080EF0E94E303812F0E94E3032FEF80E72A
:1012100092E0215080409040E1F700C00000EC16C1
:10122000FD06C1F660917E0489E090E00E946B2388
:1012300081E08093960480939504DF91CF911F9174
:10124000FF90EF900895C7EFD3E02FEF80E792E093
:10125000215080409040E1F700C000001991812F9B
:101260000E94E3032FEF80E792E0215080409040FE
:10127000E1F700C0000080EF0E94E303812F0E948D
:10128000E3032FEF80E792E0215080409040E1F7A8
:1012900000C0000024E0C330D207B9F6C3CFEF92FC
:1012A000FF921F93CF93DF9381E090919C04911163
:1012B00080E080939C048091920490919304892B08
:1012C00091F480EF0E94E303809102010E94E30306
:1012D0001092D60480EF0E94E303809101010E94E6
:1012E000E3031092ED0480910301823009F09AC06B
:1012F0002FEF80E792E0215080409040E1F700C05E
:10130000000089E20E94E3032FEF80E792E0215082
:1013100080409040E1F700C0000080EF0E94E303AE
:1013200089E20E94E3032FEF80E792E021508040A2
:101330009040E1F700C0000089E40E94E3032FEF32
:1013400080E792E0215080409040E1F700C000002B
:1013500080EF0E94E30389E40E94E30380919C04F0
:10136000882309F46AC0C4E2D4E02FEF80E792E05A
:10137000215080409040E1F700C000001991812F7A
:101380000E94E3032FEF80E792E0215080409040DD
:10139000E1F700C0000080EF0E94E303812F0E946C
:1013A000E3032FEF80E792E0215080409040E1F787
:1013B00000C0000024E0C732D207B9F6C7E1D4E08C
:1013C00080E2E82E84E0F82E9FEF20E782E0915043
:1013D00020408040E1F700C000001991812F0E9459
:1013E000E3039FEF20E782E0915020408040E1F747
:1013F00000C0000080EF0E94E303812F0E94E303FE
:101400009FEF20E782E0915020408040E1F700C04C
:101410000000EC16FD06C1F660919C0487E090E0A8
:101420000E946B2381E08093960480939504DF9162
:10143000CF911F91FF90EF900895C0E2D4E08FEF1D
:1014400090E722E0815090402040E1F700C000008A
:101450001991812F0E94E3038FEF90E722E08150E2
:1014600090402040E1F700C0000080EF0E94E303BD
:10147000812F0E94E3038FEF90E722E0815090409C
:101480002040E1F700C0000084E0C432D807B9F67C
:1014900095CFEF92FF921F93CF93DF9381E09091CE
:1014A0009B04911180E080939B0480919204909121
:1014B0009304892B91F480EF0E94E3038091020151
:1014C0000E94E3031092D60480EF0E94E303809110
:1014D00001010E94E3031092ED0480910301823028
:1014E00009F09AC02FEF80E792E0215080409040B1
:1014F000E1F700C0000089E20E94E3032FEF80E7DC
:1015000092E0215080409040E1F700C0000080EF61
:101510000E94E30389E20E94E3032FEF80E792E059
:10152000215080409040E1F700C0000089E40E9413
:10153000E3032FEF80E792E0215080409040E1F7F5
:1015400000C0000080EF0E94E30389E40E94E303EF
:1015500080919B04882309F46AC0C4E2D4E02FEF91
:1015600080E792E0215080409040E1F700C0000009
:101570001991812F0E94E3032FEF80E792E0215021
:1015800080409040E1F700C0000080EF0E94E3033C
:10159000812F0E94E3032FEF80E792E021508040EB
:1015A0009040E1F700C0000024E0C732D207B9F64E
:1015B000CBE0D4E087E1E82E84E0F82E9FEF20E72F
:1015C00082E0915020408040E1F700C00000199176
:1015D000812F0E94E3039FEF20E782E0915020409B
:1015E0008040E1F700C0000080EF0E94E303812FFC
:1015F0000E94E3039FEF20E782E09150204080406B
:10160000E1F700C00000EC16FD06C1F660919B04F6
:1016100088E090E00E946B2381E0809396048093A1
:101620009504DF91CF911F91FF90EF900895C0E254
:10163000D4E08FEF90E722E0815090402040E1F726
:1016400000C000001991812F0E94E3038FEF90E703
:1016500022E0815090402040E1F700C0000080EF80
:101660000E94E303812F0E94E3038FEF90E722E0C3
:10167000815090402040E1F700C0000084E0C43277
:10168000D807B9F695CFEF92FF921F93CF93DF93D0
:101690008091920490919304892B91F480EF0E94A1
:1016A000E303809102010E94E3031092D60480EFCD
:1016B0000E94E303809101010E94E3031092ED0474
:1016C00080910301823009F03FC02FEF80E792E064
:1016D000215080409040E1F700C0000089E20E9464
:1016E000E3032FEF80E792E0215080409040E1F744
:1016F00000C0000080EF0E94E30389E20E94E30340
:101700002FEF80E792E0215080409040E1F700C049
:10171000000089E40E94E3032FEF80E792E021506C
:1017200080409040E1F700C0000080EF0E94E3039A
:1017300089E40E94E30380919D04813009F444C050
:1017400070F0823009F472C081E080939604809337
:101750009504DF91CF911F91FF90EF900895C9E319
:10176000D4E088E4E82E84E0F82E2FEF80E792E0C2
:10177000215080409040E1F700C000001991812F76
:101780000E94E3032FEF80E792E0215080409040D9
:10179000E1F700C0000080EF0E94E303812F0E9468
:1017A000E3032FEF80E792E0215080409040E1F783
:1017B00000C0000060919D0486E090E00E946B23D1
:1017C000EC16FD0691F6C0CFCDE2D4E02FEF80E716
:1017D00092E0215080409040E1F700C00000199154
:1017E000812F0E94E3032FEF80E792E02150804099
:1017F0009040E1F700C0000080EF0E94E303812FDA
:101800000E94E3032FEF80E792E021508040904058
:10181000E1F700C0000060919D0486E090E00E9426
:101820006B2324E0C933D20789F68ECFC7E2D4E018
:101830008FEF90E722E0815090402040E1F700C018
:1018400000001991812F0E94E3038FEF90E722E0BF
:10185000815090402040E1F700C0000080EF0E94DE
:10186000E303812F0E94E3038FEF90E722E0815092
:1018700090402040E1F700C0000060919D0486E0A8
:1018800090E00E946B2384E0CD32D80789F65CCFCC
:101890000F931F93CF93DF93CBE1D1E002E211E0EE
:1018A000699141E0F80181918F010E947400DE018D
:1018B0001197F801319741E06C9180810E941801E5
:1018C000F1E0C232DF0761F740E0609120018091D2
:1018D0002701DF91CF911F910F910C947400CF934A
:1018E000DF93C82FD62F40E00E94180140E06D2FF3
:1018F0008C2F0E9474002FEF84E39CE021508040E5
:101900009040E1F700C0000041E06D2F8C2F0E9455
:10191000740041E06D2F8C2FDF91CF910C94180152
:1019200041E06091190180911A010E94740041E028
:101930006091190180911A010E94180141E06091A3
:101940001701809118010E94740041E06091170115
:10195000809118010E94180141E060911601809168
:101960002E050E94740041E06091160180912E05C1
:101970000E94180141E060911401809115010E94BC
:10198000740041E060911401809115010E941801DA
:1019900041E060911201809113010E94740041E0C6
:1019A00060911201809113010C9418010F931F9301
:1019B000CF93DF93C3E4D1E00EE411E0699141E0FD
:1019C000F80181918F010E947400DE011197F801E6
:1019D000319741E06C9180810E941801F1E0CE3492
:1019E000DF0761F7C9E2D1E006E311E0699141E068
:1019F000F80181918F010E947400F1E0C633DF0786
:101A0000A9F7DF91CF911F910F910895CF93DF93A5
:101A1000EC0110928A04809162008D7F80936200B5
:101A200010929E0481E0209721F0C130D10599F4F5
:101A300084E080930001C530D10599F484E080935F
:101A40000001CA30D10599F484E080930001CE01F1
:101A5000DF91CF910895C230D10569F484E080937D
:101A60000001C630D10569F484E080930001CB30D9
:101A7000D10551F30CC0C330D105F1F484E080935B
:101A80000001C730D105B9F584E080930001CC3066
:101A9000D105B9F584E08093000181E080938A0448
:101AA0001092860410928704109288041092890480
:101AB00082E080930301CBCFC430D10509F0BBCFC6
:101AC00084E080930001C930D10509F0BACF84E0E9
:101AD00080930001CD30D10509F0B9CF84E0809327
:101AE000000110928A0481E0809303018DE192E06D
:101AF0000E94F506ACCFC830D10529F784E0809369
:101B00000001CE30D10531F784E08093000181E0FF
:101B100080938A041092860410928704109288049D
:101B20001092890482E080930301809162008260B8
:101B3000809362008CCF0F931F93CF93DF93EC01C0
:101B4000009192041091930410928A048091620093
:101B50008D7F8093620010929E0489E692E0209728
:101B600029F0C130D10519F584E692E00E94F5060E
:101B7000C530D10519F58EE492E00E94F50687E3A1
:101B800092E0CA30D10509F50E94F506CF30D105A3
:101B90000CF0E80181E08093960480939504109204
:101BA0009104CE01DF91CF911F910F910895C23022
:101BB000D10589F48FE592E00E94F506C630D10583
:101BC00089F487E492E00E94F5068EE292E0CB3041
:101BD000D105D1F20FC0C330D10509F58AE592E0F5
:101BE0000E94F506C730D10509F045C087E292E0B2
:101BF0000E94F506CC30D10509F044C081E0809305
:101C00008A0410928604109287041092880410921D
:101C1000890482E08093030183E292E0B5CFC4306F
:101C2000D10509F0A5CF83E592E00E94F506C93001
:101C3000D10509F0A4CF8CE392E00E94F506CE30E6
:101C4000D10509F0A3CF81E080938A041092860425
:101C500010928704109288041092890482E0809385
:101C6000030186E192E00E94F506809162008260A5
:101C7000809362008BCFC830D105C9F682E492E030
:101C80000E94F506CD30D105D1F610928A0481E08C
:101C9000809303018DE192E077CFCF92EF92FF9294
:101CA0000F931F93CF93DF93C82FD62F142FF22EAD
:101CB00080919704882331F02AE12A95F1F700C03A
:101CC00010929704002369F080910301823009F09B
:101CD0009FC082E10E94E303809197048F5F80930D
:101CE0009704EE2081F080910301823009F092C0C8
:101CF00080EE0E94E30384E10E94E3038091970455
:101D00008F5F80939704CC2069F08091030182302B
:101D100009F085C081E10E94E303809197048F5F01
:101D20008093970480919704882331F08AE18A9503
:101D3000F1F700C010929704FF2019F080EE0E9486
:101D4000E303812F0E94E3039FEFE0E7F2E091506D
:101D5000E040F040E1F700C00000FF2019F080EE05
:101D60000E94E30380910301823019F480EF0E9406
:101D7000E30380910301823009F053C0812F0E9458
:101D8000E3032BE0C29FB001112461567B4F6D0F1E
:101D9000711DFB011082002359F0809103018230F4
:101DA00009F042C080EF0E94E30382E10E94E30356
:101DB000EE2069F0809103018230C1F580EE0E942F
:101DC000E30380EF0E94E30384E10E94E303CC205D
:101DD00051F080910301823071F580EF0E94E3039E
:101DE00081E10E94E303FAE1FA95F1F700C081E096
:101DF000809396048093950410927F0480939004BE
:101E0000DF91CF911F910F91FF90EF90CF900895A8
:101E10008AE260CF80EE0E94E3038DE16DCF88E31C
:101E20007ACF80E8810FABCF8AEAC0CF80EE0E94E4
:101E3000E3038DE9CACF88EBD4CF843251F0982FD9
:101E4000977F953131F0833421F0893211F08A3552
:101E500009F480E09B012C5031092330310528F42E
:101E600090910301913009F4C5C5863109F4C2C5CA
:101E7000863209F4BFC5853209F4BCC58E3209F437
:101E8000B9C5882309F4B6C5FB013197EE30F105D9
:101E900008F097C3E25BF04F0C9440235C0FB10F46
:101EA000011047109610E21028116B11AE11FD11B0
:101EB00046128F128F128F128E3109F484C38C3226
:101EC00009F483C38D3209F482C3843309F481C3D6
:101ED0008B3209F480C3833209F47FC38B3109F458
:101EE0007EC38C3109F47DC3853309F47CC38C3304
:101EF00009F47BC3843409F47AC38D3409F479C3BB
:101F00008A3209F478C3813209F477C3823209F442
:101F100076C38A3109F475C3833309F474C38B33F0
:101F200009F473C3823409F472C38B3409F471C3A6
:101F3000823309F470C3813309F46FC38A3309F41F
:101F40006EC3863309F456C58D3309F453C58E33F9
:101F500009F450C5863409F44DC5853409F061C3D0
:101F600008958E3109F45FC38C3209F45EC38D325B
:101F700009F45DC3843309F45CC38B3209F45BC399
:101F8000833209F45AC38B3109F459C38C3109F4F3
:101F900058C3863309F457C38D3309F456C38E33BF
:101FA00009F455C3853409F454C3853309F453C384
:101FB0008C3309F452C3843409F451C38D3409F4C9
:101FC00050C38A3209F44FC3813209F44EC38A31B7
:101FD00009F44DC3833309F44CC38B3309F44BC369
:101FE000823409F44AC38B3409F449C3823309F4B7
:101FF00048C3813309F447C38A3309F446C380E0F8
:1020000008958E3109F443C38C3209F442C38D32F2
:1020100009F441C38B3109F440C3853309F43FC34C
:102020008C3309F43EC3843409F43DC38D3409F480
:102030003CC38A3209F43BC3813209F43AC38A3182
:1020400009F439C3833309F438C38B3309F437C334
:10205000823409F436C38B3409F435C3823309F46E
:1020600034C3813309F433C38A3309F432C386336A
:1020700009F4C0C48D3309F4BDC48E3309F4BAC465
:10208000863409F4B7C4853409F025C308958E3128
:1020900009F423C38C3209F422C38D3209F421C31D
:1020A0008D3109F420C3853109F41FC3833209F44B
:1020B0001EC38B3109F41DC3853309F41CC38C3353
:1020C00009F41BC3843409F41AC38D3409F419C309
:1020D0008A3209F418C3813209F417C38A3109F42A
:1020E00016C3833309F415C38B3309F414C3823444
:1020F00009F413C38B3409F412C3823309F411C3F6
:10210000813309F410C38A3309F40FC3863309F409
:1021100071C48D3309F46EC48E3309F46BC48634F4
:1021200009F468C4853409F002C308958E3109F4B6
:1021300000C38C3209F4FFC28D3209F4FEC28D3126
:1021400009F4FDC2853109F4FCC28B3109F4FBC2EC
:102150008C3109F4FAC2843409F4F9C28D3409F4DB
:10216000F8C28A3209F4F7C2813209F4F6C2823227
:1021700009F4F5C28A3109F4F4C2833309F4F3C2D5
:102180008B3309F4F2C2823409F4F1C28B3409F4BE
:10219000F0C2823309F4EFC2813309F4EEC28A330C
:1021A00009F4EDC2863309F425C48D3309F422C441
:1021B0008E3309F41FC4863409F41CC4853409F035
:1021C000E0C208958E3109F4DEC28C3209F4DDC21A
:1021D0008D3209F4DCC2833209F4DBC2853309F4A1
:1021E000DAC28C3309F4D9C2843409F4D8C28D34EC
:1021F00009F4D7C28A3209F4D6C2813209F4D5C2B1
:10220000823209F4D4C28A3109F4D3C28B3309F47F
:10221000D2C2823409F4D1C28B3409F4D0C28233E1
:1022200009F4CFC2813309F4CEC28A3309F4CDC296
:10223000863309F4DFC38D3309F4DCC38E3309F42C
:10224000D9C3863409F4D6C3853409F0C0C20895D1
:102250008C3209F4BEC28D3209F4BDC2863309F452
:10226000BCC28D3309F4BBC28E3309F4BAC28634C2
:1022700009F4B9C2853409F4B8C2853309F4B7C288
:102280008C3309F4B6C2843409F4B5C28D3409F430
:10229000B4C28A3209F4B3C2813209F4B2C28A31BB
:1022A00009F4B1C2833309F4B0C28B3309F4AFC26D
:1022B000823409F4AEC28B3409F4ADC2823309F41E
:1022C000ACC2813309F4ABC28A3309F4AAC28E319D
:1022D00009F0A9C208958E3109F4A7C28C3209F41D
:1022E000A6C28D3209F4A5C28B3109F4A4C285338C
:1022F00009F4A3C28C3309F4A2C2843409F4A1C244
:102300008D3409F4A0C28A3209F49FC2813209F4E3
:102310009EC28A3109F49DC28B3309F49CC2823477
:1023200009F49BC28B3409F49AC2823309F499C22E
:10233000813309F498C28A3309F497C2863309F4C9
:1023400059C38D3309F456C38E3309F453C386340D
:1023500009F450C3853409F08AC208958C3209F417
:1023600088C28D3209F487C2843309F486C28B3265
:1023700009F485C2833209F484C28B3109F483C223
:10238000863309F482C28D3309F481C28E3309F495
:1023900080C2863409F47FC2853309F47EC28C334F
:1023A00009F47DC2843409F47CC28D3409F47BC203
:1023B0008A3209F47AC2813209F479C2823209F48C
:1023C00078C28A3109F477C2833309F476C28B3339
:1023D00009F475C2823409F474C28B3409F473C2EF
:1023E000823309F472C2813309F471C28A3309F469
:1023F00070C2853409F06FC208958E3109F46DC240
:102400008C3209F46CC28D3209F46BC2843309F446
:102410006AC28B3209F469C28C3109F468C28D3307
:1024200009F467C2853409F466C2843409F465C2CC
:102430008D3409F464C28A3209F463C2813209F42A
:1024400062C2823209F461C28A3109F460C2833304
:1024500009F45FC28B3309F45EC2823409F45DC2B1
:102460008B3409F45CC2823309F45BC2813309F412
:102470005AC28A3309F459C2863309F4BBC28E3377
:1024800009F4B8C2863409F052C208958E3109F4B5
:1024900050C28C3209F44FC28D3209F44EC28B32D5
:1024A00009F44DC2833209F44CC28D3309F44BC296
:1024B000853409F44AC2853309F449C2843409F4E5
:1024C00048C28D3409F447C28A3209F446C28132C7
:1024D00009F445C2823209F444C28A3109F443C284
:1024E000833309F442C28B3309F441C2823409F4C4
:1024F00040C28B3409F43FC2823309F43EC28133B7
:1025000009F43DC28A3309F43CC2863309F472C22D
:102510008E3309F46FC2863409F035C208958534CC
:1025200009F433C2863409F432C28E3309F431C25D
:102530008D3309F430C2863309F42FC28C3209F48A
:102540002EC28D3209F42DC2843309F42CC28B3291
:1025500009F42BC2833209F42AC28B3109F429C24F
:102560008C3109F428C2853309F427C28C3309F46D
:1025700026C2843409F425C28D3409F424C28A3277
:1025800009F423C2813209F422C28A3109F421C23A
:10259000833309F420C28B3309F41FC2823409F457
:1025A0001EC28B3409F41DC2823309F41CC281336C
:1025B00009F41BC28A3309F41AC28E3109F019C218
:1025C000089580E0089584ED089589E4089581E4F4
:1025D00008958DE508958BE5089581EE089584E5CD
:1025E000089581E608958BED08958DED089582EDAF
:1025F00008958EE108958AEC08958AE4089585E5AA
:1026000008958CEC089585ED08958EEC089582E58B
:1026100008958EE408958CE4089581EC089589EC82
:10262000089580E0089582E5089589E4089581E49D
:10263000089584E508958EE808958DED08958DE55B
:1026400008958BE5089582ED08958CE4089585E45E
:10265000089585ED08958EE1089584ED08958CEC3C
:1026600008958EE308958AEC08958AE4089585E537
:1026700008958DE308958EEC08958EE0089586E325
:10268000089586E4089581EC089589EC089584ED19
:10269000089581E4089581E608958EE408958CE418
:1026A000089582E5089582ED08958EE108958AECFB
:1026B00008958AE408958CEC08958DED08958EECCC
:1026C000089589E8089585ED08958BED089581EECC
:1026D000089581EC089580E008958EE3089585EDD6
:1026E00008958EEC089587E8089588EF089582E5AF
:1026F00008958BE5089581E4089589E408958CECAC
:1027000008958EE108958AEC08958AE408958CE492
:1027100008958DE5089584ED089582ED08958BED7B
:1027200008958DED089581EC089589EC089580E079
:1027300008958EE8089589E4089581E4089587E86E
:10274000089587E0089581E608958EEC08958CEC55
:1027500008958EE108958AEC08958AE408958DE540
:10276000089582ED089585ED08958DED08958CE42A
:1027700008958EE4089582E5089581EC089589EC2A
:10278000089580E0089585E4089589E4089581E43A
:1027900008958DED089584E508958BED08958CECF2
:1027A00008958EE108958AEC08958AE4089584E5F9
:1027B000089582ED08958EEC08958CE408958EE4DA
:1027C000089582E5089581EC089589EC089580E0EC
:1027D000089589E4089581E408958DE3089582EDD4
:1027E000089586E4089585E408958EE4089584EDBF
:1027F00008958BED08958CEC089582E508958AEC98
:1028000008958AE408958CE4089586E308958EEC93
:10281000089585E5089585ED08958EE3089581EC8A
:10282000089589EC089580E0089584ED089581E489
:10283000089581E6089585E508958CE4089582E57C
:10284000089582ED08958EE108958AEC08958AE452
:1028500008958CEC089585ED08958EEC08958DED26
:1028600008958BED089581EE089581EC089580E040
:10287000089589E4089581E408958BE5089584E539
:1028800008958DED08958DE508958DE3089582ED09
:10289000089586E4089585E4089584ED08958BED08
:1028A00008958CEC089582E508958AEC08958AE4F1
:1028B00008958EE408958CE4089586E308958EECDF
:1028C000089585E5089585ED08958EE3089581ECDA
:1028D000089589EC089580E008958DE5089581E6D6
:1028E000089581EE08958DED089582ED08958CECA4
:1028F00008958EEC08958AE4089581E408958EE1A8
:1029000008958DE308958EE4089584ED089589E493
:10291000089584E508958AEC08958BED089585E483
:1029200008958BE5089581EC089589EC089580E081
:1029300008958DED089581E6089581EE089582E56C
:1029400008958EE808958EEC08958AE4089584E54C
:10295000089581E408958EE108958DE308958EE44D
:10296000089582ED089589E4089584ED08958AEC30
:1029700008958BED089585E408958BE5089581EC25
:10298000089589EC089580E008958EE4089585E423
:10299000089586E4089582ED08958DE3089589E40D
:1029A000089581E408958BE5089584E5089581EE06
:1029B00008958DE508958EE0089584ED08958BEDDA
:1029C00008958CEC089582E508958AEC08958AE4D0
:1029D00008958CE4089586E308958EEC089585E5C6
:1029E000089585ED08958EE3089581EC089589ECAE
:1029F000089580E00895CF92DF92EF92FF920F93B7
:102A00001F93CF937A011092830410928204109244
:102A10008004062F10E0C82ED12CF8019BE0899F7E
:102A2000E00DF11D1124E35AFC4FBA0180810E9490
:102A30001D0FC82F882321F18CE0E81AF10893E0DC
:102A4000E916F10428F580910301813009F525E0AC
:102A50002C9DC0012D9D900D1124FC01E354FD4FD0
:102A6000E00FF11FC0818B569D4FFC01E00FF11F5D
:102A70008081811111C08C2F0E94E303C0938104D7
:102A8000CF911F910F91FF90EF90DF90CF9008951D
:102A9000C7FF07C0C058EFCF8AE20E94E3038AE273
:102AA00008C0809103018230B9F782E10E94E303FC
:102AB00082E180938004DFCFCF92DF92EF92FF928A
:102AC0000F931F93CF937A0110928104062F10E089
:102AD000C82ED12CF8019BE0899FE00DF11D112437
:102AE000E35AFC4FBA0180810E941D0FC82F882332
:102AF00009F444C0809103019CE0E91AF10893E0D5
:102B0000E916F104B8F48130A9F425E02C9DC00148
:102B10002D9D900D1124FC01E354FD4FE00FF11F9A
:102B2000C0818B569D4FFC01E00FF11F108180E8A2
:102B30008C0F0DC01C2F1095111F1127111FC7FDE1
:102B4000C0588230A1F780EF0E94E3038C2F0E94CF
:102B5000E303112399F080910301823069F480EF3F
:102B60000E94E30382E1CF911F910F91FF90EF90BC
:102B7000DF90CF900C94E3038AEAF5CFCF911F91B9
:102B80000F91FF90EF90DF90CF9008951F93CF9318
:102B9000DF93182FD62FC42F109283041092820433
:102BA0001092800480910301411132C0823011F5EE
:102BB00082E10E94E30382E180938004812F90E010
:102BC0006D2F70E0209103012230C9F42BE0289F83
:102BD000F001299FF00D1124E35AFC4FE60FF71F77
:102BE000C0818C2F0E94E303C0938104DF91CF91B9
:102BF0001F9108958AE20E94E3038AE2DDCF25E077
:102C0000289FF001299FF00D1124E35FFC4FE6CFD0
:102C1000823071F44B3631F08CE8840F823010F042
:102C2000423731F480EE0E94E30380EE809380040B
:102C3000809103018130A9F6CB3431F0CD3421F0FD
:102C4000C83411F0C03569F680EE0E94E30380EECF
:102C500080938004C6CF0F931F93CF93DF93C42F2D
:102C60001092810490910301411130C0082F10E0AF
:102C7000C62FD0E09230D1F480EF0E94E3038BE0C6
:102C8000809FF001819FF00D1124E35AFC4FEC0F5F
:102C9000FD1F80810E94E30380EF0E94E30382E135
:102CA000DF91CF911F910F910C94E30385E0809FFA
:102CB000F001819FF00D1124E35FFC4FEC0FFD1F2D
:102CC000808180580E94E3038AEAEACF923059F467
:102CD0004B3631F08CE8840F823010F0423719F413
:102CE00080EE0E94E30380910301813059F4CB34DC
:102CF00031F0CD3421F0C83411F0C03519F480EE34
:102D00000E94E30380910301823029F480EF0E9446
:102D1000E3038C2FC5CF80E88C0FC2CFEF92FF92D8
:102D20000F931F93CF93DF9370E0C82FD0E0FB0188
:102D30009BE0899FE00DF11D1124E35AFC4F808137
:102D40008D3009F489C0C8F4843009F46FC048F4A8
:102D5000813009F472C090E0A0E0E0E020E030E0D3
:102D60002EC0853009F458C08C30A9F790918F049B
:102D7000940F90938F0493E055C08235B1F048F4DE
:102D80008C3449F790918E04940F90938E0491E0C7
:102D900012C0883509F459C08237E9F690918F0442
:102DA000940F90938F0494E04EC090918E04940FF2
:102DB00090938E0490E0A4E0E1E027E031E05091B0
:102DC0009C04552309F450C0863609F453C0863755
:102DD00051F490918F04940F90938F0490E0A3E0AE
:102DE000E0E025E031E050919B04552309F467C0F1
:102DF0008B3609F46DC008F045C0813409F458C021
:102E0000893409F4BCC031116CC0DF91CF911F919E
:102E10000F91FF90EF90089590918F04940F9093ED
:102E20008F0490E0A0E0E0E025E0C8CF90918F040F
:102E3000940F90938F0492E0F5CF90918F04940FAC
:102E400090938F0491E0A3E0EECF90918F04940FC4
:102E500090938F0491E0E6CF90918F04940F90931C
:102E60008F0491E0A7E0DFCF863609F4B2CF863732
:102E700009F0B9CF90918F04940F90938F0490E054
:102E8000A7E0AECF843769F0853709F0BCCF8091D9
:102E90008F04840F80938F0494E0A0E0E0E025E0AD
:102EA00020C080918E04840F80938E0493E016C01E
:102EB00080918F04840F80938F0492E066C08B36DC
:102EC00031F308F056C0813461F3893409F09BCFA7
:102ED00080918E04840F80938E0492E0A7E0E1E05D
:102EE00027E0EA2EF12C892F90E03BE03E9D800107
:102EF0003F9D100D112401561B4F080F191FD801BB
:102F00005C9158713C9F80013D9F100D112401562A
:102F10001B4F060F171FD8011C914F3F41F44091E2
:102F20008F0441110DC040918E04411109C0329FA0
:102F30009001112421563B4FE20FF32FF11D108316
:102F40004BE04E9D90014F9D300D112421563B4F7B
:102F5000820F931F4C9F90014D9F300D11242156DD
:102F60003B4F620F731FFB012081522BDC015C93EE
:102F70004CCF843709F49CCF853709F044CF80913A
:102F80008F04840F80938F0493E0A3E087CF809118
:102F90007204809366048091730480936704809127
:102FA000740480936804809175048093690480910F
:102FB000760480936A04109276048091770480935B
:102FC0006B04109277048091780480936C04809154
:102FD000790480936D0480917A0480936E0410923A
:102FE0007A0480917B0480936F0410927B0480911B
:102FF0007C048093700410927C0480917D04809303
:10300000710410927D048FE39CE90197F1F700C0F1
:10301000000080917E04882309F4DAC00E942F0307
:103020008091720490916604891761F061E070E00C
:10303000882311F070E060E0409103018091060167
:103040000E944F058091730490916704891761F085
:1030500061E070E0882311F070E060E040910301CE
:10306000809107010E944F0580917404909168043B
:10307000891761F061E070E0882311F070E060E092
:1030800040910301809108010E944F0580917504D1
:1030900090916904891761F061E070E0882311F074
:1030A00070E060E040910301809109010E944F05AA
:1030B0008091760490916A04891761F061E070E074
:1030C000882311F070E060E04091030180910A01D3
:1030D0000E944F058091770490916B04891761F0ED
:1030E00061E070E0882311F070E060E0409103013E
:1030F00080910B010E944F058091780490916C049F
:10310000891761F061E070E0882311F070E060E001
:103110004091030180910C010E944F058091790438
:1031200090916D04891761F061E070E0882311F0DF
:1031300070E060E04091030180910D010E944F0515
:1031400080917A0490916E04891761F061E070E0DB
:10315000882311F070E060E04091030180910E013E
:103160000E944F0580917B0490916F04891761F054
:1031700061E070E0882311F070E060E040910301AD
:1031800080910F010E944F0580917C049091700402
:10319000891761F061E070E0882311F070E060E071
:1031A00040910301809110010E944F0580917D04A0
:1031B00090917104891789F061E070E0882311F023
:1031C00070E060E040910301809111010C944F0583
:1031D0000E94DF010E94960123CF08956F927F9293
:1031E0008F929F92AF92BF92CF92DF92EF92FF9217
:1031F0000F931F93CF93DF931092960461E086E0C4
:103200000E94F200882309F4D8C025E32A95F1F73B
:10321000000061E086E00E94F200882309F446C0C5
:1032200080919404813079F5809104019091050199
:10323000019790930501809304018FE39CE9019726
:10324000F1F700C0000080910401909105018436DF
:10325000910560F58CE291E0909305018093040163
:1032600010929404DF9861E086E00E94F2008823C7
:10327000E9F09FEFE4E3FCE09150E040F040E1F73B
:1032800000C00000F0CF8CE291E0909305018093A4
:10329000040181E080939404DF9A2FEF84E39CE0A3
:1032A000215080409040E1F700C0000080919604DA
:1032B000811166C019E2E12E11E0F12E06E311E062
:1032C0008FE9882E84E0982E712C6701E80140E098
:1032D000F70161917F01F80181918F010E947400D3
:1032E00040E0F601608188810E941801FAE1FA95B8
:1032F000F1F700C0C3E4AC2EC1E0BC2EDEE4CD2E5D
:10330000D1E0DD2EE401612CF50161915F01F60150
:1033100081916F010E94F200882309F497C0F5E3C0
:10332000FA95F1F70000F50131976081F6013197C8
:1033300080810E94F200882309F473C0888180FF95
:1033400060C08260888327E0271528F484E040E08D
:10335000861508F461C063942196EBE06E12D4CF19
:1033600041E0F70131976081F801319780810E9437
:1033700074007394FBE08F0E911C2DE07212A5CFA8
:1033800080919004882309F46FC04FE954E028E04D
:1033900030E090E080E0FA01E80FF91F608160FD05
:1033A00031E0019685309105B1F72150455F5F4FBF
:1033B0002111EFCF3093900479CF80910401909147
:1033C00005018C329140B0F4D59ADD98FFEF21EEE3
:1033D00084E0F15020408040E1F700C00000D59823
:1033E000DD9A9FEFE4E3FCE09150E040F040E1F72C
:1033F00000C000008CE291E09093050180930401ED
:1034000055CF8160888397E0971508F0A4CFE4E05A
:10341000E61508F0A0CF41E0662D872D0E948E169C
:103420009ACF888180FF97CF8C7F84608883F7E074
:10343000F71508F090CF24E0261508F08CCF4FEF59
:10344000662D872D0E948E16188285CF888180FF79
:1034500082CF8C7F8460888387E0871508F07BCFDC
:1034600094E0961560F377CF80919104882309F456
:1034700066C08091D60482FF0FC01092D60480915E
:10348000920490919304892B39F480EF0E94E30316
:10349000809102010E94E3038091ED0482FF0FC03E
:1034A0001092ED048091920490919304892B39F449
:1034B00080EF0E94E303809101010E94E303809169
:1034C000AE0480FD0E9486078091CB0480FD0E949F
:1034D000490A8091CC0480FD0E944F098091E40448
:1034E00080FD0E9480080FE914E0ADE6EA2EA2E01C
:1034F000FA2EB7EFCB2EB4E0DB2ED0E0C0E0F8011F
:10350000EC0FFD1F808180FF0BC0F701EC0FFD1F4A
:10351000808190E00E949B0D90939304809392048D
:103520002196C530D10559F7055F1F4F85E0E80E9C
:10353000F11CC016D10609F781E0809396048091B2
:1035400096048111CDC38091D60480FFC2C28091C0
:10355000ED0480FFBEC2809195048111B3C48091B7
:103560009204909193040C970397D8F48091D90416
:1035700080FF07C081E090919E04911180E08093CC
:103580009E048091E20480FF03C081E080937F0469
:103590009FEFE3ECF9E09150E040F040E1F700C02C
:1035A00000008091CE0480FF18C080919D0481307E
:1035B00031F08091920490919304892B71F01092D4
:1035C0008A0481E080939104809396048093900410
:1035D000809162008260809362008091030182305A
:1035E00009F08DC38091E40480FF10C080919204A3
:1035F00090919304892B51F480919D048F5F8330C7
:1036000008F080E080939D040E94430B80919F040A
:1036100080FF0FC080919D04823059F0F5E0AF2EFD
:10362000C12CE12C00E020E045E060E080E00E9459
:103630004D0E8091A00480FF0FC080919D048230C8
:1036400059F0E5E0AE2EC12CE12C00E020E046E090
:1036500061E080E00E944D0E8091A10480FF0FC0C8
:1036600080919D04823059F075E0A72EC12CE12C89
:1036700000E020E044E062E080E00E944D0E809196
:10368000A20480FF0FC080919D04823059F065E054
:10369000A62EC12CE12C00E020E04CE063E080E0AD
:1036A0000E944D0E8091A30480FF0FC080919D0465
:1036B000823059F055E0A52EC12CE12C00E020E02D
:1036C00043E064E080E00E944D0E8091C40480FFDE
:1036D0000FC080919D04823059F045E0A42EC12C8A
:1036E000E12C00E020E04BE064E083E00E944D0E1E
:1036F0008091C30480FF0FC080919D04823059F0F7
:1037000035E0A32EC12CE12C00E020E043E863E08B
:1037100083E00E944D0E8091C20480FF0FC0809113
:103720009D04823059F025E0A22EC12CE12C00E04E
:1037300020E04AE062E083E00E944D0E8091C104E7
:1037400080FF0FC080919D04823059F095E0A92E32
:10375000C12CE12C00E020E041E061E083E00E9428
:103760004D0E8091C00480FF0FC080919D04823077
:1037700059F085E0A82EC12CE12C00E020E049E0C2
:1037800060E083E00E944D0E8091AA0480FF0FC08C
:1037900080919D04823059F002E3A02EC12CE12CCF
:1037A00000E020E048E760E081E00E944D0E80915B
:1037B000AB0480FF0FC080919D04823059F012E36A
:1037C000A12EC12CE12C00E020E047E061E081E087
:1037D0000E944D0E8091B60480FF56C080919204E5
:1037E00090919304009709F44FC00497D9F58AE0AB
:1037F0000E94E3032FEF80E792E021508040904049
:10380000E1F700C0000089E00E94E303EFEFF0E77A
:1038100022E0E150F0402040E1F700C0000080EFDE
:103820000E94E30389E00E94E3038FEF93EDE0E35E
:1038300081509040E040E1F700C0000080EF0E941E
:10384000E3038AE00E94E303FFEF20E782E0F15008
:1038500020408040E1F700C0000081E080939604A2
:10386000809395048091920490919304039761F45E
:10387000D5E0AD2EC12CEE24E39400E020E047E03B
:1038800061E082E00E944D0E8091B50480FF15C07A
:1038900080919D04813031F0809192049091930445
:1038A000892B59F0C5E0AC2EC12CE12C00E020E0C2
:1038B00049E060E082E00E944D0E8091CF0480FFDD
:1038C00017C080919D04823031F4809192049091D0
:1038D0009304892B69F0B5E0AB2ECC24C394EE247D
:1038E000E39400E020E043E064E084E00E944D0EB9
:1038F0008091F00480FF17C080919D04823031F4E4
:103900008091920490919304892B69F0A5E0AA2EEE
:10391000CC24C394EE24E39400E020E046E664E087
:1039200087E00E944D0E8091EF0480FF17C08091C8
:103930009D04823031F48091920490919304892BFC
:1039400069F0F5E0AF2ECC24C394EE24E39400E0BC
:1039500020E041E763E087E00E944D0E8091B904CA
:1039600080FF15C080919D04823031F480919204D3
:1039700090919304892B59F0E5E0AE2EC12CE12CF7
:1039800000E020E04EE764E082E00E944D0E80916E
:10399000DA0480FF0CC080919D04813031F0809169
:1039A000920490919304892B11F00E948C058091D0
:1039B000D80480FF0CC080919D04813031F080914B
:1039C000920490919304892B11F00E9465068091D6
:1039D000AC0480FF11C08091920490919304892BD4
:1039E00059F075E0A72EC12CE12C00E021E04DE755
:1039F00062E081E00E944D0E8091AD0480FF11C015
:103A00008091920490919304892B59F065E0A62E41
:103A1000C12CE12C00E021E04AE763E081E00E9454
:103A20004D0E8091B70480FF11C080919204909157
:103A30009304892B59F055E0A52EC12CE12C01E00F
:103A400021E04DE762E082E00E944D0E8091B804D3
:103A500080FF11C08091920490919304892B59F0BA
:103A600045E0A42EC12CE12C01E021E04AE763E00F
:103A700082E00E944D0E8091E50480FF11C080918C
:103A8000920490919304892B59F035E0A32EC12C18
:103A9000E12C00E020E04BE764E086E00E944D0E60
:103AA0008091EE0480FF11C0809192049091930464
:103AB000892B59F025E0A22EC12CE12C00E020E05A
:103AC0004CE762E087E00E944D0E809196048111E0
:103AD00007C180919A04882309F46AC08091D604B2
:103AE000909198049111FBC1882371F08091C304D7
:103AF00080FF0AC060911701809118010E946F0C2D
:103B00001092C304109299048091D604882371F016
:103B10008091C40480FF0AC06091160180912E0537
:103B20000E946F0C1092C404109299048091D604E4
:103B3000882371F08091A30480FF0AC0609119016D
:103B400080911A010E946F0C1092A30410929904A4
:103B50008091D604882389F08091C20480FF0DC033
:103B600080919904882309F4B0C1109299041092AD
:103B70009A04109298041092C2048091E10480FF8C
:103B80000AC060911401809115010E946F0C10927F
:103B9000E104109299048091D604882349F0809121
:103BA0009F0480FF05C010929F0481E080939804D9
:103BB0002091D604922F91704091920450919304D9
:103BC000452B09F098C1992381F021FD0EC0809109
:103BD00002010E94E3038091D60482608093D604A0
:103BE000809197048F5F809397048091ED0480FF0C
:103BF00010C081FD0EC0809101010E94E3038091FD
:103C0000ED0482608093ED04809197048F5F809330
:103C100097048091D60482FF0EC080EF0E94E303D8
:103C2000809102010E94E3031092D60480919704D0
:103C30008F5F809397048091ED0482FF0EC080EF28
:103C40000E94E303809101010E94E3031092ED04BE
:103C5000809197048F5F80939704809197048823C5
:103C600031F09AE19A95F1F700C010929704CDE5F2
:103C7000D3E02FE9E22E24E0F22E35EBC32E33E021
:103C8000D32E470110E000E05401F401808180FF51
:103C900008C081FD06C0FE01E00FF11F80810E9477
:103CA000E303FFEF8F1A9F0AF501808182FF0CC0AA
:103CB00080EF0E94E303FE01E00FF11F80810E946C
:103CC000E303F401319710820F5F1F4F0530110598
:103CD000D9F62B96FBE0EF0EF11CCC16DD0689F62B
:103CE000DF91CF911F910F91FF90EF90DF90CF90D8
:103CF000BF90AF909F908F907F906F90089581308C
:103D000009F0E3CE80919F0480FF0CC095E0A92EBE
:103D1000C0907F04E12C00E020E04BE360E080E015
:103D20000E944D0E8091A00480FF0CC085E0A82E5B
:103D3000C0907F04E12C00E020E04CE361E080E0F3
:103D40000E944D0E8091A10480FF0CC005E0A02EC2
:103D5000C0907F04E12C00E020E04DE362E080E0D1
:103D60000E944D0E8091A20480FF0CC015E0A12E90
:103D7000C0907F04E12C00E020E04EE363E080E0AF
:103D80000E944D0E8091A30480FF0CC0D5E0AD2EA3
:103D9000C0907F04E12C00E020E04FE364E080E08D
:103DA0000E944D0E8091C40480FF0CC0C5E0AC2E73
:103DB000C0907F04E12C00E020E040E464E083E078
:103DC0000E944D0E8091C30480FF0CC0B5E0AB2E65
:103DD000C0907F04E12C00E020E041E463E083E058
:103DE0000E944D0E8091C20480FF0CC0A5E0AA2E57
:103DF000C0907F04E12C00E020E042E462E083E038
:103E00000E944D0E8091C10480FF0CC0F5E0AF2EE2
:103E1000C0907F04E12C00E020E043E461E083E017
:103E20000E944D0E8091C00480FF0CC0E5E0AE2ED4
:103E3000C0907F04E12C00E020E044E460E083E0F7
:103E40000E944D0E8091AA0480FF0CC075E0A72E41
:103E5000C0907F04E12C00E020E047E560E081E0D5
:103E60000E944D0E8091AB0480FF0CC065E0A62E31
:103E7000C0907F04E12C00E020E048E561E081E0B3
:103E80000E944D0E8091F00480FF0DC055E0A52EDC
:103E9000CC24C394EE24E39400E020E04EE064E000
:103EA00087E00E944D0E8091EF0480FF0ECE45E02A
:103EB000A42ECC24C394EE24E39400E020E043E558
:103EC00063E000CE1092950400CE609112018091C3
:103ED00013010E946F0C81E0809399044CCE8823DB
:103EE00009F466CE80919F0480FF62CE10929F04F9
:103EF000109298045DCE40918B0441115DC0809179
:103F00008F04811159C080918E04811155C099236D
:103F100011F021FF06C09091ED0490FF16C091FDB5
:103F200014C06FE974E030E020E08530B9F521116C
:103F300039C02F5F3F4F25303105B9F78F5F655F7F
:103F40007F4F883081F740938B048DE5C82E83E046
:103F5000D82E9FE9892E94E0992EC0E0D0E0B12CB4
:103F6000A12C75018401712CD53079F5711032C006
:103F700073940F5F1F4FFFEFEF1AFF0A25E07212D5
:103F8000F3CFDF5F86E0C80ED11C9BE0890E911C49
:103F9000E5E0AE0EB11CD83021F7A2CE873011F487
:103FA000213039F2FB01E20FF31F9081592F51703C
:103FB00090FFBFCF452FC2CF9111C7CF8091ED04A5
:103FC00080FDC3CF10928B04C0CFD73019F421E00D
:103FD000721671F2F801808180FF97C081FD95C053
:103FE00090918B0491110EC09091D60490FF02C065
:103FF000886080838091ED0480FF04C0F801808197
:1040000080618083F801808183FF0FC084FD0DC033
:1040100080910301F701823009F041C0EB5CFC4F55
:104020004081672D8D2F0E94C615F801808184FF85
:104030000AC083FD08C04091920450919304672DFB
:104040008D2F0E94FB14F8018081887109F059C0FE
:104050008091030190919E04109283041092820437
:10406000992309F4D0C010928004823019F5F6012A
:10407000EE0DFF1DC081C434A9F0CD34A9F0C531C7
:10408000A9F0CC31A9F0CB3631F0C43721F0C537D7
:1040900011F0C23749F580EE8093800425C0EB51C2
:1040A000FD4FBECFCBE6F7CFC4E7F5CFC5E7F3CFE3
:1040B000C2E7F1CF8130C1F4F701E35FFC4FC0816B
:1040C000C83109F498C0C93109F497C0C03109F466
:1040D00096C0CE3109F495C0CB34E9F2CD34D9F293
:1040E000C834C9F2C035B9F2C0938104809180040C
:1040F000882319F080EE0E94E303809181040E94DE
:10410000E303F801808182608083F801808182FF6F
:104110002FCF83FF0FC084FD0DC080910301F701F5
:10412000823009F07EC0EB5CFC4F4081672D8D2F03
:104130000E942B16F801808184FF0AC083FD08C00D
:104140004091920450919304672D8D2F0E945C152D
:10415000F8018081887109F04BC080910301909132
:104160009E04992309F470C010928104823009F5ED
:10417000F601EE0DFF1DC081C43409F455C0CD34E5
:1041800009F454C0C53109F453C0CC3109F452C00C
:10419000CB3631F0C43721F0C53711F0C23719F4EE
:1041A00080EE0E94E30380EF0E94E3038C2F0E94C5
:1041B000E303809103018130D9F4F701E35FFC4F01
:1041C000C081C831C9F1C931C9F1C031C9F1CE319D
:1041D000C9F1CB3431F0CD3421F0C83411F0C03501
:1041E00019F480EE0E94E30380E88C0F0E94E30341
:1041F000F8011082BDCECBE44ECFCDE44CCFC8E465
:104200004ACFC0E548CFF601EE0DFF1D823019F010
:10421000F701E35FFC4F808180938104109280045A
:104220006CCFEB51FD4F81CFCBE6BACFC4E7B8CF0F
:10423000C5E7B6CFC2E7B4CFCBE4D3CFCDE4D1CF7F
:10424000C8E4CFCFC0E5CDCF823091F480EF0E949B
:10425000E303F601EE0DFF1D6080862D0E94E3034F
:1042600080918104681201C080E080938104C0CFF6
:10427000F701E35FFC4F608080E8860DEFCFCF93BE
:10428000DF93CDB7DEB72A970FB6F894DEBF0FBE27
:10429000CDBFD79ADF98D598DD9A80916100826072
:1042A00080936100809162008D7F80936200D49A38
:1042B000DC9A0E94AF030E94D60C0E94480C0E9418
:1042C000900C1092650410926404D698DE9A85E0F2
:1042D000E9E5F1E0DE01169601900D928A95E1F78D
:1042E00045E050E070E060E0CE0101960E94492375
:1042F000FE013196DE011696AD0121E0CD016191FE
:104300003D91631320E0E417F507C9F72223C1F1BB
:1043100085E090E00E94592390E00E94060D909362
:1043200093048093920486E090E00E9459238330A6
:1043300008F080E080939D0487E090E00E9459237C
:10434000823008F080E080939C0488E090E00E9436
:104350005923823008F080E080939B0489E090E04C
:104360000E945923823008F080E080937E042A96D0
:104370000FB6F894DEBF0FBECDBFDF91CF91089589
:1043800045E050E070E060E00E94612360E085E07D
:1043900090E00E946B2361E086E090E00E946B2336
:1043A00060E087E090E00E946B2360E088E090E0AE
:1043B0000E946B2360E089E090E00E946B23D7CFDE
:1043C000CF92DF92EF92FF92CF930E94BD03209194
:1043D0009204309193048823A9F0C9010C970397A4
:1043E00088F480918A04811159C08091860490914B
:1043F0008704A0918804B0918904892B8A2B8B2B88
:1044000009F04CC08091860490918704A0918804A3
:10441000B09189040097A105B10509F095C02C5011
:1044200031092330310588F580918104882369F1B1
:1044300080918204909183049C012F5F3F4F3093C1
:10444000830420938204893E934020F480910301E9
:104450008230D9F480918404909185049C012F5F6F
:104460003F4F30938504209384048739910568F089
:104470008091800481110E94E303809181040E9455
:10448000E30310928504109284040E94EE18CF91E9
:10449000FF90EF90DF90CF900C94C71780EAC82E62
:1044A00086E8D82EEE24E394F12CC1E088EE93E068
:1044B0000E94C803882309F453C080918D0480931F
:1044C0008C048DE894E00E949704892B79F7C092C0
:1044D0008604D0928704E0928804F0928904809147
:1044E0008D048E3EA1F40E94E303C0938A04809160
:1044F0008D04823029F078F48823B9F08130B1F648
:1045000090918C04903F91F680930301CFCF8AEF76
:104510000E94E303ECCF823F91F08F3F39F68AEAA5
:104520000E94E30310928A04C1CF80918C04803FE3
:1045300009F0BCCF809103010E94E303B7CF8BEA5F
:104540000E94E30383E8F8CF0197A109B1098093A2
:10455000860490938704A0938804B09389045FCF66
:10456000CF91FF90EF90DF90CF90089508950E9433
:1045700010230E94B6220E943F21C0E0D0E00E949A
:10458000E0212097E1F30E940000F9CF1F920F92E3
:104590000FB60F9211242F933F938F939F93AF9356
:1045A000BF938091300590913105A0913205B09173
:1045B000330530912F0523E0230F2D3758F5019651
:1045C000A11DB11D20932F058093300590933105D7
:1045D000A0933205B0933305809134059091350551
:1045E000A0913605B09137050196A11DB11D8093AC
:1045F000340590933505A0933605B0933705BF91E8
:10460000AF919F918F913F912F910F900FBE0F907F
:104610001F90189526E8230F0296A11DB11DD2CF39
:10462000789483B7806483BF83B7886083BF83B780
:10463000846083BF87B7816087BF1EBC8EB58260F0
:104640008EBD8EB581608EBD8FB581608FBD85B505
:10465000846085BD85B5806485BDEAE8F0E0808131
:1046600082608083808181608083EBE8F0E08081DC
:1046700081608083329A319A309A379A1AB80895B5
:10468000EE0FFF1F0024001C0BBE0790F691E02DDB
:104690000994DC01CB01FC01E199FECF06C0FFBB10
:1046A000EEBBE09A31960DB20D9241505040B8F7F2
:1046B0000895E199FECF9FBB8EBBE09A99278DB3F9
:1046C0000895DC01CB0103C02D910E946C23415061
:1046D0005040D0F70895262FE199FECF9FBB8EBBA7
:1046E0002DBB0FB6F894E29AE19A0FBE0196089599
:0446F000F894FFCF6C
:1046F400011412022C011B0B191A29255322170E1F
:10470400100D05060507020201020205050505054F
:104714000300050403020100050202070404040463
:104724000703030303030406030002040600000254
:104734000406070303070404040407020202030136
:10474400010705030104070503535547415200754A
:10475400726B74706C7D71697A1C322123242B3442
:1047640033433B424B3A31444D152D1B2C3C2A1DFF
:1047740022351A161E26252E363D3E4645050604CC
:104784000C030B830A0109780769727A6B73746CE2
:10479400757D704A7C7B795A717776664914117EEF
:1047A4005A291259580E0D55414C0048504B4D5240
:1047B40047494B4F511E302E201221222317242506
:1047C400263231181910131F14162F112D152C020F
:1047D400030405060708090A0B3B3C3D3E3F4041E4
:1047E40042434457584F50514B4C4D47484952351A
:1047F400374A4E1C5345010E341D38461C392A369F
:104804003A290F0D332705423224222C04044D216A
:10481400222C04024D2104051C4D4D4B2404073B5E
:104824003C4D432C242D04031B1C3A0404442D4307
:104834002104032A432104051C21442D310403329D
:10484400322104051C2C1C2D4304032136250403AA
:104854003A1B220403214D2104021A2201010203FE
:104864000405FFFF0EFFFF09FF0DFFFF000C080703
:1048740006FFFFFFFFFFFFFFFF0BFFFFFFFFFFFF31
:10488400FFFFFFFF0A010101010100000001010116
:10489400010001010101010001010000000000010B
:1048A40000010000000100010000000001020304F7
:1048B40005060000003334292B2B1A1B0C0B0A2885
:1048C40008281B001B1A0027003535000D0D0C07A6
:1048D40000003433093C3A00004B000000000000A3
:1048E400000000000E004D00500000000000000019
:1048F4000000000F0000000001000000000203049B
:10490400050610111213141E1F2021220B0A090878
:10491400071918171615002C2D2E2F1C26252423B5
:104924003900323130065800006B000000000000EE
:1049340000000000660074757200000000000000B2
:104944000000000D000000007600000000161E2686
:10495400252E000000000000151D242D2C00000051
:104964000000001C1B232B340000000000004546FF
:104974003E3D360000000000004D44433C3500003D
:1049840000000000001A22212A0000000000005A42
:104994004B423B3300000000000029003A31320052
:1049A4000000000000000000000000000000524C65
:1049B4000000000000494100000000000000000069
:1049C400040C0558006B00000000007475660100BB
:1049D4007200000000000000760D00003B44352901
:1049E4002B1C3A4321443A3B4435291C2C1C2D43AF
:1049F4001B3A232C1A22233C433144213C2D1B44D3
:104A04002D1B2942324D2123244B29322D241C42B3
:104A1400442B2B294431291A224D3C2D241A222BB4
:104A24003C4B4B21443A32441B1A224D1C2D2C433F
:104A34001C4B21443A32441B212B342B4B1C1B337B
:104A4400242345161E26252E363D3E460206000921
:044A5400020002005A
:00000001FF
