:1000000071C0000090C000008EC000008CC00000D5
:100010008AC0000088C0000086C0000084C00000C4
:1000200082C0000080C000007EC000007CC00000D4
:100030007AC0000078C0000076C0000074C00000E4
:1000400072C0000070C000006EC000006CC00000F4
:100050006AC0000068C0000066C000000C94BF14B5
:1000600062C0000060C000005EC000005CC0000014
:100070005AC0000058C0000056C0000054C0000024
:1000800052C0000050C000004EC000004CC0000034
:100090004AC0000048C0000046C0000044C0000044
:1000A00042C0000040C000003EC000003CC0000054
:1000B0003AC0000038C0000036C0000034C0000064
:1000C00032C0000030C000002EC000002CC0000074
:1000D0002AC0000028C0000026C0000024C0000084
:1000E00022C0000011241FBECFEFD1E2DEBFCDBF82
:1000F00000E00CBF15E0A0E0B2E0E2E5F1E500E0D1
:100100000BBF02C007900D92A635B107D9F726E0C4
:10011000A6E5B5E001C01D92AA34B207E1F70E943E
:1001200009150C94A7286CCF90B321E030E001C0F2
:10013000220F8A95EAF72095292320BB0895EF9294
:10014000FF920F931F93CF93DF9370E0C82FD0E0FF
:10015000FB019BE0899FE00DF11D1124E857FB4F47
:1001600080818D3009F489C0C8F4843009F46FC0EF
:1001700048F4813009F472C090E0A0E0E0E020E0B3
:1001800030E02EC0853009F458C08C30A9F790912A
:100190005C05940F90935C0593E055C08235B1F0F7
:1001A00048F48C3449F790915B05940F90935B056C
:1001B00091E012C0883509F459C08237E9F6909170
:1001C0005C05940F90935C0594E04EC090915B05A4
:1001D000940F90935B0590E0A4E0E1E027E031E02C
:1001E00050915805552309F450C0863609F453C080
:1001F000863751F490915C05940F90935C0590E0E4
:10020000A3E0E0E025E031E050915705552309F4E3
:1002100067C08B3609F46DC008F045C0813409F41D
:1002200058C0893409F4BCC031116CC0DF91CF9142
:100230001F910F91FF90EF90089590915C05940F9E
:1002400090935C0590E0A0E0E0E025E0C8CF9091BD
:100250005C05940F90935C0592E0F5CF90915C055E
:10026000940F90935C0591E0A3E0EECF90915C0534
:10027000940F90935C0591E0E6CF90915C05940F0C
:1002800090935C0591E0A7E0DFCF863609F4B2CF0A
:10029000863709F0B9CF90915C05940F90935C0577
:1002A00090E0A7E0AECF843769F0853709F0BCCF86
:1002B00080915C05840F80935C0594E0A0E0E0E011
:1002C00025E020C080915B05840F80935B0593E05F
:1002D00016C080915C05840F80935C0592E066C037
:1002E0008B3631F308F056C0813461F3893409F05C
:1002F0009BCF80915B05840F80935B0592E0A7E024
:10030000E1E027E0EA2EF12C892F90E03DE03E9DD0
:1003100080013F9D100D112404591A4F080F191F19
:10032000D8015C9158713C9F80013D9F100D1124B4
:1003300004591A4F060F171FD8011C914F3F41F463
:1003400040915C0541110DC040915B05411109C010
:10035000329F9001112424593A4FE20FF32FF11DDF
:1003600010834DE04E9D90014F9D300D1124245976
:100370003A4F820F931F4C9F90014D9F300D1124D7
:1003800024593A4F620F731FFB012081522BDC016D
:100390005C934CCF843709F49CCF853709F044CF68
:1003A00080915C05840F80935C0593E0A3E087CF88
:1003B000CF93DF93DC01EB014131510529F48091AA
:1003C0000302813009F477C09C91992309F473C02A
:1003D000FA013197E131F10508F019C78827EC508F
:1003E000FE4F8F4F0C949F28050278024D03B803EF
:1003F0004905B40515067606EF065C07C50707092B
:100400004D03E10433047C04590882E09C3199F0E7
:10041000892F8F7E833271F0943461F09A3251F0DB
:10042000892F8B7F8A3131F0813321F09A5381E01B
:10043000933008F480E088838C918E3109F440C0B9
:100440008C3209F451C08D3209F44CC08433E1F18F
:100450008B32C1F1833291F18B3191F18C31B1F159
:10046000853381F18C3381F18434B1F18D3471F1B4
:100470008A3271F1813261F1823261F18A3181F126
:10048000833341F18B3351F1823431F18B3431F1CB
:10049000823331F1813331F18A3331F1863251F0D7
:1004A000863341F08D3331F08E3321F0863411F0F4
:1004B0008534E1F48C93DF91CF91089581E6FACFF2
:1004C00084E5F8CF8BE5F6CF8DE5F4CF8EE1F2CF62
:1004D0008AE4F0CF85E5EECF82E5ECCF8EE4EACF7B
:1004E0008CE4E8CF81E4E6CF89E4E4CF80E0E2CF9A
:1004F0009D3109F4B0C0943209F4ABC0933409F4CF
:10050000AAC0963109F4A7C09E3109F4A0C0963262
:1005100009F49DC0953209F49EC0892F877F8633E8
:1005200009F499C02BEB290F223008F494C0292F2D
:100530002D7F2C3209F48FC0953309F488C09C3389
:1005400009F485C0943409F486C09D3409F483C04D
:100550009C3109F47CC09B3109F477C0833209F4E3
:1005600076C0943309F473C0933309F474C09B3498
:1005700009F471C09A3109F46EC0923209F469C06D
:10058000913209F468C081E09A3219F0923309F08F
:1005900080E088838C91982F977F953109F465C00E
:1005A000843209F460C0833409F457C0863109F4F9
:1005B00081CF8E3109F47ECF863209F47BCF85322C
:1005C00009F478CF8E3209F475CF863309F472CFEF
:1005D0008D3309F458C08E3309F46CCF863409F496
:1005E00069CF853409F449C094ED980F9230B8F181
:1005F000853309F440C08C3309F449C0843409F4CC
:1006000048C08D3471F18C31E1F18B3161F183326D
:1006100061F18B3261F1843361F1833361F18B33AA
:1006200061F18234A1F18B3451F18A3161F082326F
:1006300041F1813241F18A3241F1823341F181331A
:1006400041F18A3341F589E435CF85E0A2CF88E0D6
:10065000A0CF89E09ECF81E09CCF85E52BCF81E6BE
:1006600029CF8EE127CF86E125CF8EE023CF82E50B
:1006700021CF8DE51FCF84E51DCF8AE41BCF85E414
:1006800019CF85E217CF8EE415CF8DE313CF8BE51D
:1006900011CF81E40FCF80E00DCF84E09534A9F035
:1006A000943491F09A3281F0892F8B7F8A3161F0F6
:1006B000923451F09B3441F08FEC890F833020F05D
:1006C0009A5381E0923008F480E088838C918534DD
:1006D000B9F18E31A9F18D3209F448C08C3209F498
:1006E00043C08B31C9F1853399F18C3359F184348E
:1006F00049F18D3449F18A3249F1813239F18A3137
:1007000039F1833339F18B3339F1823439F18B3458
:1007100039F1823339F18A3339F1813339F1863253
:1007200009F4C8CE863309F4C5CE8D3309F4C2CEA0
:100730008E3309F4BFCE863409F4BCCE80E0BACE45
:1007400084E5B8CE82E5B6CE8EE1B4CE8AE4B2CEF0
:100750008CE4B0CE8DE5AECE8EE4ACCE89E0AACEF0
:1007600085E5A8CE8BE5A6CE89E4A4CE81E4A2CE11
:1007700084ED890F8230A0F0892F877F853181F049
:10078000943471F09A3261F0923451F09B3441F01C
:100790008FEC890F823020F09A5381E0923008F478
:1007A00080E088838C918E33F1F18634F1F18534C9
:1007B00009F44DC08E31D9F18C32D9F18D32D9F195
:1007C0008D31D9F18531D9F1833209F442C08B31B1
:1007D00009F441C0853309F442C08C3309F441C0A7
:1007E000843499F18D3469F18A3269F1813259F199
:1007F0008A3159F1833389F18B3349F1823449F1DC
:100800008B3449F1823349F1813349F18A3349F11B
:10081000863209F44FCE863309F44CCE8D3309F479
:1008200049CE80E047CE86E445CE85E443CE8EE3D4
:1008300041CE85E53FCE8EE43DCE87E03BCE88E7D6
:1008400039CE8EE137CE8AE435CE8CE433CE84E5E2
:1008500031CE82E52FCE8BE52DCE8DE52BCE81E4FA
:1008600029CE89E427CE943459F09B3449F0892F5E
:100870008F7D8A3129F09A3219F081E0913309F4A1
:1008800080E088838C91843489F18B3469F18A31DA
:1008900089F18A3269F1813319F18A33F9F08C32A6
:1008A000E9F08D32E9F08D34E9F08B33E9F08234F0
:1008B000E9F08132E9F08233E9F0863209F4FACDC9
:1008C000863309F4F7CD8E3309F4F4CD863409F478
:1008D000F1CD853409F4EECD80E0ECCD89E4EACDAC
:1008E00081E4E8CD8EE1E6CD85E5E4CD8CE4E2CD92
:1008F0008AE4E0CD84E5DECD943461F09B3451F0A0
:100900009A3241F0892F8B7F813321F09A5381E015
:10091000943008F480E088838C918633B1F18E3373
:10092000B1F18634B1F18D33B1F18534E1F18D321D
:1009300009F443C08C3209F442C0853371F18C3321
:1009400071F18434A1F18D3431F18B3231F1843382
:1009500031F1833331F18B3331F1823431F18B3426
:1009600021F18A3121F1813221F18A3211F1823370
:1009700011F1813311F18A3311F18E3109F49ACDDD
:10098000863209F497CD80E095CD8DE393CD86E452
:1009900091CD85E48FCD82E58DCD84E58BCD8BE542
:1009A00089CD86E387CD8EE485CD85E583CD8CE446
:1009B00081CD8AE47FCD8EE37DCD81E47BCD89E45A
:1009C00079CD892F8F7E833281F08CEB890F823035
:1009D00060F0892F8B7F8A3141F09A3231F0813378
:1009E00021F09A5381E0933008F480E088838C9161
:1009F0008332A9F18333A9F18E31A9F18534A9F1AC
:100A00008533A9F18C33A9F18434E9F18B34C9F130
:100A10008A31E9F18A32C9F1813379F18A3359F1A6
:100A20008C3249F18D3249F18D3449F18B3349F1E2
:100A3000823449F1813249F1823349F1863209F435
:100A400039CD863309F436CD8D3309F433CD8E3369
:100A500009F430CD863409F42DCD80E02BCD86E02D
:100A600029CD8CE027CD8DE525CD85E023CD84E50E
:100A700021CD8BE51FCD89E41DCD81E41BCD8EE119
:100A800019CD85E517CD8CE415CD8AE413CD8EE420
:100A900011CD84EE890F833070F0943461F09A3276
:100AA00051F09A3141F0892F8D7F813321F09A5393
:100AB00081E0923008F480E088838C918E31E1F1FE
:100AC0008C3209F44FC08D3209F44AC0982F977FB9
:100AD0009531A1F18B31A1F18C31F1F18434D1F157
:100AE0008D3481F18A3281F1813271F1823281F16A
:100AF0008A31A1F1833351F18B3351F1823451F1B9
:100B00008B3451F1823351F1813351F18A3351F1F8
:100B1000863209F4CFCC863309F4CCCC8D3309F47A
:100B2000C9CC8E3309F4C6CC863409F4C3CC8534E1
:100B300009F4C0CC80E0BECC8EE0BCCC87E0BACC5F
:100B400081E6B8CC8EE1B6CC8AE4B4CC85E5B2CCF3
:100B50008DE5B0CC8CE4AECC8EE4ACCC82E5AACCF6
:100B600081E4A8CC89E4A6CC933261F0943451F0AE
:100B70009A3241F09A3131F0913321F09A5381E069
:100B8000933008F480E088838C918E31C1F18C32EF
:100B900009F449C08D3209F444C0833291F18533A0
:100BA000C1F18C3381F18434B1F18D3471F18A3229
:100BB00071F1813261F1823261F18A3181F18B33DD
:100BC00061F1823441F18B3441F1823341F181335F
:100BD00041F18A3341F1863209F46CCC863309F451
:100BE00069CC8D3309F466CC8E3309F463CC86343A
:100BF00009F460CC853409F45DCC80E05BCC85E4FD
:100C000059CC8DE557CC8BE555CC8EE153CC8AE49D
:100C100051CC84E54FCC8CE44DCC8EE44BCC82E5BA
:100C200049CC81E447CC89E445CC943461F09A32D4
:100C300051F09B3441F0892F8B7F813321F09A53FF
:100C400081E0943008F480E088838C918C3209F440
:100C50004BC08D3209F446C0863361F18D33A1F16A
:100C60008E3351F1863451F18534B1F1853341F140
:100C70008C3341F1843461F18D3431F18A3231F1B8
:100C8000813221F18A3121F1833321F18B3321F13A
:100C9000823421F18B3411F1823311F1813311F15E
:100CA0008A3311F1863209F405CC8E3109F402CC75
:100CB00080E000CC8DE3FECB86E4FCCB85E4FACB70
:100CC00084E5F8CB8BE5F6CB82E5F4CB8AE4F2CB76
:100CD0008CE4F0CB86E3EECB8EE4ECCB85E5EACB7F
:100CE0008EE3E8CB81E4E6CB89E4E4CB9333D9F01F
:100CF0009232C9F082E09534B9F0943491F09A328E
:100D000081F0892F8B7F8A3161F0923451F09B34CE
:100D100041F08FEC890F823020F09A5381E09230BD
:100D200018F480E001C080E288838C918333D9F18C
:100D30008232D9F18332D9F18534D9F18E31C9F1BA
:100D40008D3209F44AC08C3209F445C08B31D9F197
:100D50008533B9F18C3379F1843469F18D3469F1DB
:100D60008A3269F1813259F18A3159F18B3359F163
:100D7000823459F18B3459F1823359F18A3359F164
:100D8000813359F1863209F495CB863309F492CB3D
:100D90008D3309F48FCB8E3309F48CCB863409F470
:100DA00089CB80E087CB81E785CB80E783CB8AE363
:100DB00081CB84E57FCB82E57DCB8EE17BCB8AE462
:100DC00079CB8CE477CB85E575CB8EE473CB8DE561
:100DD00071CB8BE56FCB89E46DCB81E46BCB933228
:100DE00071F0943461F09A3251F09B3441F0892FC4
:100DF0008B7F813321F09A5381E0943008F480E0B6
:100E000088838C918C3209F455C08D3209F450C01E
:100E10008433F1F18B32D1F1833281F18B3171F175
:100E2000863371F18D33B1F18E3361F1863461F126
:100E3000853361F18C3361F1843481F18D3451F16A
:100E40008A3251F1813241F1823261F18A3131F1DC
:100E5000833331F18B3331F1823431F18B3421F131
:100E6000823321F1813321F18A3321F1863209F471
:100E700021CB8E3109F41ECB80E01CCB8DE51ACB43
:100E80008DE318CB86E416CB85E414CB84E512CB36
:100E90008BE510CB82E50ECB8AE40CCB8CE40ACB3D
:100EA00086E308CB8EE406CB85E504CB8EE302CB4C
:100EB00081E400CB89E4FECA892F8F7E8D3281F0D8
:100EC000943371F09B3261F09C3151F0923241F0D9
:100ED000923431F0913321F09A5381E0923008F44A
:100EE00080E088838C918E31C1F194ED980F92301F
:100EF00090F1843391F18B3291F18C3191F18D33FA
:100F0000B1F18534C1F18434E1F18D3461F18A327B
:100F100061F1813261F1823261F18A31A1F1833371
:100F200041F18B3341F1823451F18B3431F1823311
:100F300031F1813331F18A3331F1863209F4BACAA1
:100F4000863309F4B7CA8E3309F4B4CA863409F477
:100F5000B1CA80E0AFCA81E6ADCA8DE5ABCA82E511
:100F6000A9CA8CE4A7CA8EE1A5CA8DE3A3CA8EE400
:100F7000A1CA84E59FCA8AE49DCA85E49BCA8BE521
:100F800099CA81E497CA89E495CA9C3309F19B31D7
:100F9000F9F09C3109F46FC0943309F46CC09531B9
:100FA000A9F09E3109F467C0892F8F7E8D3271F0D0
:100FB0008EED890F823050F0923441F0892F8D7F71
:100FC000813321F09A5381E0923018F480E001C01F
:100FD00084E088838C918C3309F465C08B3109F4EB
:100FE0004CC0853109F44BC094ED980F923008F451
:100FF00048C08B3209F44FC0833209F444C08D33AA
:1010000009F447C0853409F44AC0853309F445C062
:10101000843409F44AC08D34C1F18A32C1F181327D
:10102000C1F18232C1F18A3109F441C08333A9F19F
:101030008B33A9F18234B9F18B3499F1823399F170
:10104000813399F18A3399F1863209F433CA8E31AA
:1010500009F430CA863309F42DCA8E3309F42ACA3A
:10106000863409F427CA843309F424CA8C3109F47C
:1010700021CA80E01FCA80E1ACCF86E11BCA8DE5A2
:1010800019CA81E617CA8EE015CA8EE113CA8DE32C
:1010900011CA8EE40FCA82E50DCA84E50BCA8AE440
:1010A00009CA85E407CA8BE505CA81E403CA89E455
:1010B00001CA9C3161F1923251F19E3109F483C031
:1010C000963209F480C0953101F19432F1F09D32ED
:1010D000E1F09B3109F477C0892F877F833209F4CF
:1010E00072C0943309F46FC09D3379F09C3309F4D6
:1010F0006AC0953309F467C0923439F086EC890FE1
:10110000823018F081E0913319F480E001C080E46E
:1011100088838C918C3109F458C0823209F457C00D
:10112000982F977F953109F458C0843209F45DC037
:1011300094ED980F923008F44CC08B3109F44BC0F9
:10114000833209F44AC08B3209F449C0843309F46C
:1011500048C0853409F451C08D3309F448C08D343A
:1011600009F441C0843409F44EC08334F1F18C3366
:1011700009F44BC0853309F442C08A3109F441C0F7
:101180008132A9F18A32A9F18B34A9F18234E9F1D3
:101190008B3399F1833399F18A3399F1813399F142
:1011A000823399F18E3109F485C9863209F482C9F6
:1011B000863309F47FC98E3309F47CC9863409F477
:1011C00079C980E077C988E0A3CF8EE773C98CE93D
:1011D00071C981E66FC986E16DC98EE06BC982E590
:1011E00069C98DE567C98EE165C985E563C98EE486
:1011F00061C98DE35FC985E45DC98AE45BC984E5A3
:1012000059C989E457C981E455C98BE553C91C9272
:1012100052C97A9B07C08FB183FB882780F991E080
:101220008927089581E00895282F61506C3008F0D7
:101230008DC0E62FF0E08827EF5DF64F8F4F0C94BE
:101240009F282D093C094B095A096909A609780903
:101250008709A609A609A609980981E090E001C0BE
:10126000880F2A95EAF792B1411104C0809589232D
:1012700082B90895892BFCCF81E090E001C0880FEE
:101280002A95EAF795B1411104C08095892385B963
:101290000895892BFCCF81E090E001C0880F2A954A
:1012A000EAF798B1411104C08095892388B908955F
:1012B000892BFCCF81E090E001C0880F2A95EAF7E6
:1012C0009BB1411104C0809589238BB90895892B66
:1012D000FCCF81E090E001C0880F2A95EAF79EB12B
:1012E000411104C0809589238EB90895892BFCCFC4
:1012F00081E090E001C0880F2A95EAF794B341118C
:1013000004C08095892384BB0895892BFCCF81E09C
:1013100090E001C0880F2A95EAF7909102014111EF
:1013200005C080958923809302010895892BFBCF06
:1013300081E090E001C0880F2A95EAF790910B01B7
:10134000411105C08095892380930B010895892B55
:10135000FBCF282F61506C3078F5E62FF0E088271E
:10136000EB54F64F8F4F0C949F28C109CC09CE093E
:10137000D009D209DC09D409D609DC09DC09DC0969
:10138000D90980B190E002C0959587952A95E2F73A
:10139000809590958170089583B1F4CF86B1F2CF96
:1013A00089B1F0CF8CB1EECF82B3ECCF8091000148
:1013B000E9CF80910901E6CF80E00895282F6150A0
:1013C0006C3008F08DC0E62FF0E08827E551F64F2D
:1013D0008F4F0C949F28F709060A150A240A330A2E
:1013E000700A420A510A700A700A700A620A81E0A1
:1013F00090E001C0880F2A95EAF791B1442321F0CB
:101400008095892381B90895892BFCCF81E090E0F4
:1014100001C0880F2A95EAF794B1442321F0809502
:10142000892384B90895892BFCCF81E090E001C025
:10143000880F2A95EAF797B1442321F080958923F4
:1014400087B90895892BFCCF81E090E001C0880F17
:101450002A95EAF79AB1442321F0809589238AB925
:101460000895892BFCCF81E090E001C0880F2A9578
:10147000EAF79DB1442321F0809589238DB9089521
:10148000892BFCCF81E090E001C0880F2A95EAF714
:1014900093B3442321F08095892383BB0895892B3E
:1014A000FCCF81E090E001C0880F2A95EAF7909187
:1014B0000101442329F08095892380930101089537
:1014C000892BFBCF81E090E001C0880F2A95EAF7D5
:1014D00090910A01442329F08095892380930A0181
:1014E0000895892BFBCFCF93DF93C82FD62F40E0F1
:1014F0009BDE40E06D2F8C2F61DF2FEF84E39CE0BB
:10150000215080409040E1F700C0000041E06D2F85
:101510008C2F54DF41E06D2F8C2FDF91CF9184CE43
:101520000F931F93CF93DF93C62F90E0FC01E65CEF
:10153000FA4F1081835D9A4FFC01D08140E0612F0A
:101540008D2F3CDF40E0612F8D2F6EDEFAE1FA95A2
:10155000F1F700C06C2F70E0FB01EE5DFA4F695EA1
:101560007A4F0081FB01C081602F8C2FF2DE811148
:10157000FBCF41E0612F8D2FDF91CF911F910F9114
:101580001DCF882331F095E19A95F1F70000845042
:10159000F8CF0895CF92DF92EF92FF920F931F93AF
:1015A000CF93DF93C82FF62E34DE8111FDCF839ABF
:1015B00080910002880F880FE4DF829A80910002F8
:1015C000880F880F880FDDDF82E00E9494008091F1
:1015D0000002880F880FD5DF10E000E0D1E0CC2EAC
:1015E000D12CEE24E394C601002E02C09595879578
:1015F0000A94E2F780FF90C083E00E949400DE2509
:1016000080910002880F880FBCDF829A80910002CF
:10161000880F880F880FB5DF82E00E9494008091C8
:101620000002880F880FADDF0F5F1F4F08301105D4
:10163000D1F6DD2309F472C083E00E94940080910A
:101640000002880F880F9DDF829A80910002880F28
:10165000880F880F96DF82E00E949400809100023C
:10166000880F880F8EDF83E00E9494008091000233
:10167000880F880F86DF829A80910002880F880F7A
:10168000880F7FDF82E00E94940080910002880F23
:10169000880F77DF87EC90E00197F1F700C000003A
:1016A000FF2089F18091660590910302923009F044
:1016B0003EC0882311F0C43131F180916505882343
:1016C00011F0C13101F180916405882311F0C2311C
:1016D000D1F080916205882311F0C131A1F0809191
:1016E0006305882311F0CF3171F08091560588236E
:1016F000B9F0C03FA9F001E021E041E061E081E004
:1017000064D010925605DF91CF911F910F91FF90F9
:10171000EF90DF90CF900895839A72CF839A8FCF06
:1017200081E0C03F09F080E080935605ECCF88232C
:1017300011F0CD3941F380916505882311F0C83B44
:1017400011F380916405882311F0CA3AE1F2809187
:101750006205882311F0C83BB1F2809163058823AC
:1017600011F0CB3D81F2C03E71F2C13860F201E070
:1017700021E041E061E081E028D0C5CF60E080EE6B
:1017800009DF60E082E106DF60E080EE03DF60E019
:101790008CE700DF2FEF81EE94E0215080409040F5
:1017A000E1F700C0000060E080EEF4DE60E080EF72
:1017B000F1DE60E082E1EEDE60E080EEEBDE60E034
:1017C00080EFE8DE60E08CE7E5CE0F931F93CF93C8
:1017D000DF93162FD42FC22F882331F08091660516
:1017E000813079F18230D1F1112341F0809165058A
:1017F000813009F44BC0823009F455C0DD2341F03B
:1018000080916405813009F466C0823009F470C0AB
:10181000CC2341F080916205813009F481C082308F
:1018200009F491C0002341F080916305813009F4EF
:10183000A8C0823009F4B8C0DF91CF911F910F91F9
:1018400008958091030260E0823031F484E1A2DEE9
:1018500082E080936605C8CF8DE1F9CF2FEF84E356
:101860009CE0215080409040E1F700C00000809152
:10187000030260E0823041F480EF8CDE60E084E1BE
:1018800089DE10926605B0CF8DE9FACF8091030210
:1018900060E0823031F481E17DDE82E08093650595
:1018A000ADCF88E3F9CF2FEF84E39CE02150804057
:1018B0009040E1F700C000008091030260E08230B8
:1018C00041F480EF67DE60E081E164DE109265053F
:1018D00095CF88EBFACF8091030260E0823031F43B
:1018E00082E158DE82E08093640592CF8AE2F9CFEC
:1018F0002FEF84E39CE0215080409040E1F700C04E
:1019000000008091030260E0823041F480EF42DE0B
:1019100060E082E13FDE109264057ACF8AEAFACF76
:101920008091030260E0823049F480EE33DE60E0B3
:1019300081E130DE82E08093620574CF80EE2ADEA2
:1019400060E088E3F6CF2FEF84E39CE021508040F5
:101950009040E1F700C000008091030260E0823017
:1019600059F480EE17DE60E080EF14DE60E081E184
:1019700011DE1092620556CF80EE0CDE60E088EB3F
:10198000F7CF8091030260E0823049F480EE02DEFE
:1019900060E08FE1FFDD82E0809363054DCF80EE54
:1019A000F9DD60E08BE5F6CF2FEF84E39CE021507A
:1019B00080409040E1F700C000008091030260E0A9
:1019C000823059F480EEE6DD60E080EFE3DD60E038
:1019D0008FE1E0DD109263052FCF80EEDBDD60E06C
:1019E0008BEDF7CF61E0D6CD4F925F926F927F92F1
:1019F0008F92AF92CF92EF92FF920F931F93CF935C
:101A0000DF93CDB7DEB7F82E662E142F722E80919D
:101A10005E05882331F02AE12A95F1F700C0109283
:101A20005E05002361F080910302823009F0D7C087
:101A300082E1D8DF80915E058F5F80935E05EE20A6
:101A400061F080910302823009F0CBC084E1CADFEB
:101A500080915E058F5F80935E05CC2061F0809160
:101A60000302823009F0BFC081E1BCDF80915E05D6
:101A70008F5F80935E05AA2071F08091030282300F
:101A800009F0B3C080EEAEDF81E1ACDF80915E058E
:101A90008F5F80935E05882071F080910302823011
:101AA00009F0A7C080EE9EDF8FE19CDF80915E058C
:101AB0008F5F80935E0580915E05882331F08AE117
:101AC0008A95F1F700C010925E05772011F080EE44
:101AD00089DF812F87DF9FEF21EE84E09150204046
:101AE0008040E1F700C00000772011F080EE7ADF3F
:101AF00080910302823011F480EF74DF8091030241
:101B0000823009F07AC0812F6DDF712C4F2C512C5F
:101B1000F3019DE0F99EE00DF11D1124E459FA4F07
:101B20001082002349F080910302823009F068C0DE
:101B300080EF58DF82E156DFEE2049F0809103020A
:101B4000823009F05FC080EF4DDF84E14BDFCC20B5
:101B500049F080910302823009F056C080EF42DFE5
:101B600081E140DFAA2059F080910302823009F020
:101B70004DC080EE37DF80EF35DF81E133DF882035
:101B800059F080910302823009F044C080EE2ADFD0
:101B900080EF28DF81E126DF2AE12A95F1F700C0F6
:101BA00001E021E041E061E081E00FDE8DE0849D15
:101BB000F001859DF00D1124E459FA4FE60DF71D53
:101BC0001082DF91CF911F910F91FF90EF90CF90F6
:101BD000AF908F907F906F905F904F9008958AE2C2
:101BE00028CF8DE134CF88E340CF80EEFBDE88E361
:101BF0004CCF80EEF7DE8BE558CF80E8810F84CFA5
:101C00008AEA99CF8DE9A2CF88EBABCF80EEEADEEE
:101C100088EBB4CF80EEE6DE88EBBDCF0F931F9349
:101C2000CF93DF93EC0180913F0690914006892B82
:101C300081F460E080EFAEDC60E082E1ABDC10922A
:101C4000AD0560E080EFA6DC60E084E1A3DC1092EB
:101C5000C8052FEF81EE94E0215080409040E1F7DD
:101C600000C0000089E2BEDEEFEFF1EE24E0E150BB
:101C7000F0402040E1F700C0000080EFB3DE89E2D1
:101C8000B1DE8FEF91EEE4E081509040E040E1F76B
:101C900000C0000089E4A6DEFFEF21EE84E0F150F1
:101CA00020408040E1F700C0000080EF9BDE89E427
:101CB00099DE8E010F5F1F4F888190E098012C1BE9
:101CC0003D0B8217930734F19FEFE1EEF4E0915062
:101CD000E040F040E1F700C00000F80181918F0181
:101CE00081DEFFEF21EE84E0F15020408040E1F7FB
:101CF00000C0000080EF76DEF8013197808172DE4F
:101D00009FEFE1EEF4E09150E040F040E1F700C0D9
:101D10000000D2CFC80FD91F898180930002DF91C4
:101D2000CF911F910F910895EF92FF921F93CF9340
:101D3000DF93C82F7B01142F853429F038F48FEFFF
:101D40008C0F8A3028F480EE4DDE02C08934D9F33E
:101D5000CC23F1F0D0E0EF28B9F0113071F4CB5979
:101D6000DD4F88818058DF91CF911F91FF90EF90D8
:101D700039CECB59DD4F8881F6CF123049F480EF50
:101D800031DEC75FDD4FF7CF113099F31230C9F361
:101D9000DF91CF911F91FF90EF9008958F92AF92B6
:101DA000CF92EF92FF920F931F93CF93DF931092F6
:101DB0006A05813309F4A9C508F0E3C0823209F449
:101DC0000EC508F0B6C08D3109F4AAC2813209F4FB
:101DD000C0C3853109F049C281E090915705911146
:101DE00080E08093570580913F0690914006892BB3
:101DF00061F480EFF7DD82E1F5DD1092AD0580EF53
:101E0000F1DD84E1EFDD1092C8058091030282309C
:101E100009F02BC28FEF90E7A2E081509040A040E4
:101E2000E1F700C0000089E2DDDDBFEF20E782E0DE
:101E3000B15020408040E1F700C0000080EFD2DDCB
:101E400089E2D0DD9FEFA0E7B2E09150A040B04022
:101E5000E1F700C0000089E4C5DD2FEF80E792E0E4
:101E6000215080409040E1F700C0000080EFBADDD3
:101E700089E4B8DD80915705882309F425C2C2EEB4
:101E8000D2E055EEE52E52E0F52EAFEFB0E722E0BE
:101E9000A150B0402040E1F700C000001991812F0F
:101EA000A1DD8FEF90E7A2E081509040A040E1F7E4
:101EB00000C0000080EF96DD812F94DDBFEF20E7AA
:101EC00082E0B15020408040E1F700C00000EC16F5
:101ED000FD06D9F6C9ECD2E08FEF90E7A2E0815081
:101EE0009040A040E1F700C000001991812F7ADDF9
:101EF000BFEF20E782E0B15020408040E1F700C012
:101F0000000080EF6FDD812F6DDD9FEFA0E7B2E075
:101F10009150A040B040E1F700C0000022E0C53D74
:101F2000D207D1F66091570588E090E00E94912891
:101F30009CC18A3209F49EC38C3209F4EAC0833210
:101F400009F093C180913F0690914006892B09F0DA
:101F5000F6C281E090916705911180E0809367055A
:101F600060E080EF17DB60E082E114DB1092AD05EA
:101F700060E080EF0FDB60E084E10CDB1092C805CD
:101F800074C1853309F4E8C4D8F5833309F4FFC27A
:101F900008F4A9C480913F0690914006009771F023
:101FA0009C01245031092230310540F02450310980
:101FB0002230310518F08D7F0C9789F4809103024F
:101FC0004EE7813009F446E4812CA12CCC24C39443
:101FD000EE24E39400E020E064E082E005DD8091FF
:101FE0003F0690914006029709F0A9C2DF91CF9178
:101FF0001F910F91FF90EF90CF90AF908F90BECB3D
:102000008C3309F490C2843409F4F8C28B3309F09C
:102010002CC181E090911906911180E080931906FE
:1020200080913F0690914006892B61F480EFDADCC5
:1020300082E1D8DC1092AD0580EFD4DC84E1D2DC03
:102040001092C80580910302823009F00EC12FEF73
:1020500080E792E0215080409040E1F700C000000E
:1020600089E2C0DCAFEFB0E722E0A150B0402040F1
:10207000E1F700C0000080EFB5DC89E2B3DC8FEF50
:1020800090E7A2E081509040A040E1F700C000003E
:1020900089E4A8DCBFEF20E782E0B1502040804017
:1020A000E1F700C0000080EF9DDC89E49BDC8091BB
:1020B0001906882309F40EC2C1EFD2E09FEFA0E712
:1020C000B2E09150A040B040E1F700C0000019918B
:1020D000812F88DC2FEF80E792E0215080409040F4
:1020E000E1F700C0000080EF7DDC812F7BDCAFEFEB
:1020F000B0E722E0A150B0402040E1F700C000006E
:1021000082E0CC3FD807D1F66091190689E090E0D3
:102110000DCF10925A058091610591E0811190E0F8
:1021200090936105811102C010925F0580913F0676
:1021300090914006892B61F480EF54DC82E152DCFF
:102140001092AD0580EF4EDC84E14CDC1092C805A6
:1021500080910302823009F088C02FEF80E792E07F
:10216000215080409040E1F700C0000089E23ADC55
:10217000AFEFB0E722E0A150B0402040E1F700C04F
:10218000000080EF2FDC89E22DDC8FEF90E7A2E0EA
:1021900081509040A040E1F700C0000089E422DCBB
:1021A000BFEF20E782E0B15020408040E1F700C05F
:1021B000000080EF17DC89E415DC8091610588233D
:1021C00009F459C0C2EED2E09FEFA0E7B2E091500F
:1021D000A040B040E1F700C000001991812F02DC5F
:1021E0002FEF80E792E0215080409040E1F700C05F
:1021F000000080EFF7DB812FF5DBAFEFB0E722E0E7
:10220000A150B0402040E1F700C0000082E0C53E90
:10221000D807D1F6C1ECD2E069ECE62E62E0F62EEA
:102220009FEFA0E7B2E09150A040B040E1F700C0BE
:1022300000001991812FD6DB2FEF80E792E021502B
:1022400080409040E1F700C0000080EFCBDB812FA1
:10225000C9DBAFEFB0E722E0A150B0402040E1F78A
:1022600000C00000EC16FD06D9F681E0809316064A
:102270008093680564C1CEEDD2E09FEFA0E7B2E0A5
:102280009150A040B040E1F700C000001991812FAB
:10229000A9DB2FEF80E792E0215080409040E1F7EA
:1022A00000C0000080EF9EDB812F9CDBAFEFB0E72A
:1022B00022E0A150B0402040E1F700C0000082E0E1
:1022C000C23ED807D1F6A6CFCEEDD2E042EEE42E44
:1022D00042E0F42E9FEFA0E7B2E09150A040B04062
:1022E000E1F700C000001991812F7CDB2FEF80E720
:1022F00092E0215080409040E1F700C0000080EF64
:1023000071DB812F6FDBAFEFB0E722E0A150B0406F
:102310002040E1F700C00000EC16FD06D9F6DACD4A
:1023200081E090915805911180E08093580580914B
:102330003F0690914006892B61F480EF53DB82E1E8
:1023400051DB1092AD0580EF4DDB84E14BDB109249
:10235000C80580910302823009F087CF8FEF90E7A4
:10236000A2E081509040A040E1F700C0000089E267
:1023700039DBBFEF20E782E0B15020408040E1F739
:1023800000C0000080EF2EDB89E22CDB9FEFA0E78E
:10239000B2E09150A040B040E1F700C0000089E4F5
:1023A00021DB2FEF80E792E0215080409040E1F761
:1023B00000C0000080EF16DB89E414DB8091580533
:1023C000882309F45BC0C2EED2E035EEE32E32E0A2
:1023D000F32EAFEFB0E722E0A150B0402040E1F78C
:1023E00000C000001991812FFDDA8FEF90E7A2E085
:1023F00081509040A040E1F700C0000080EFF2DA89
:10240000812FF0DABFEF20E782E0B150204080401A
:10241000E1F700C00000EC16FD06D9F6C5EDD2E0EC
:102420009EEDE92E92E0F92E8FEF90E7A2E0815029
:102430009040A040E1F700C000001991812FD2DA4E
:10244000BFEF20E782E0B15020408040E1F700C0BC
:10245000000080EFC7DA812FC5DA9FEFA0E7B2E076
:102460009150A040B040E1F700C00000EC16FD061E
:10247000D9F66091580587E090E058CDCEEDD2E0D6
:1024800022EEE22E22E0F22E9FEFA0E7B2E0915082
:10249000A040B040E1F700C000001991812FA2DAFE
:1024A0002FEF80E792E0215080409040E1F700C09C
:1024B000000080EF97DA812F95DAAFEFB0E722E0E6
:1024C000A150B0402040E1F700C00000EC16FD062E
:1024D000D9F6A4CFC5EED2E09FEFA0E7B2E09150CD
:1024E000A040B040E1F700C000001991812F7ADAD6
:1024F0002FEF80E792E0215080409040E1F700C04C
:10250000000080EF6FDA812F6DDAAFEFB0E722E0E5
:10251000A150B0402040E1F700C0000082E0C13F80
:10252000D807D1F6F1CD81E0809369059FEFA4E350
:10253000BCE09150A040B040E1F700C00000DF9146
:10254000CF911F910F91FF90EF90CF90AF908F9010
:10255000089580913F06909140068B30910519F0C7
:102560000397029750F410925A0581E09091590513
:10257000911180E08093590578CE1092590581E041
:1025800090915A05911180E080935A056ECE80910A
:102590003F0690914006049791F68AE023DA2FEFE8
:1025A00080E792E0215080409040E1F700C00000B9
:1025B00089E018DAAFEFB0E722E0A150B040204048
:1025C000E1F700C0000080EF0DDA89E00BDA8FEF51
:1025D00093EDA0E381509040A040E1F700C00000DF
:1025E00080EF00DA8AE0FED9BFEF20E782E0B15049
:1025F00020408040E1F700C0000037CE80913F06C8
:10260000909140060597F1F4812CA12CC12CE12C6E
:1026100000E020E047E061E084E0E6D982E1E2D931
:102620009FEFA3EDB0E39150A040B040E1F700C0B0
:10263000000080EFD7D982E1D5D981E080931606DA
:102640008093680580913F0690914006029709F0BB
:1026500076CF8091030247E0813009F448E5812C70
:10266000A12CCC24C394EE24E39400E020E064E0A9
:1026700084E049C180910302823009F060CF8091EB
:102680003F0690914006892B61F480EFABD982E13F
:10269000A9D91092AD0580EFA5D984E1A3D91092F4
:1026A000C80589E29FD92FEF80E792E02150804052
:1026B0009040E1F700C0000080EF94D989E292D900
:1026C00086E0E82E83E0F82ED0E0C0E0C230D105ED
:1026D00019F0C430D105C1F4AFEFB0E722E0A1504A
:1026E000B0402040E1F700C0000089E47BD98FEFC3
:1026F00090E7A2E081509040A040E1F700C00000C8
:1027000080EF70D989E46ED9BFEF20E782E0B15045
:1027100020408040E1F700C00000D701ED917D012D
:10272000F0E0E450FD4F1081812F5CD9BFEF20E72E
:1027300082E0B15020408040E1F700C0000080EF0F
:1027400051D9812F4FD99FEFA0E7B2E09150A0401F
:10275000B040E1F700C000002196C830D10509F073
:10276000B5CF89E23FD92FEF80E792E0215080403A
:102770009040E1F700C0000080EF34D989E232D9FF
:102780008DE230D9AFEFB0E722E0A150B040204059
:10279000E1F700C0000080EF25D98DE223D98FEF4B
:1027A00090E7A2E081509040A040E1F700C0000017
:1027B0008EE118D9BFEF20E782E0B1502040804081
:1027C000E1F700C0000080EF0DD98EE10BD99FEF3B
:1027D000A0E7B2E09150A040B040E1F70CCF80916B
:1027E0003F0690914006892BA1F460E080EF0E94A3
:1027F000CA0A60E082E10E94CA0A1092AD0560E058
:1028000080EF0E94CA0A60E084E10E94CA0A109226
:10281000C80560913F0685E090E00E949128609194
:10282000670586E090E00E94912880910302823043
:1028300009F01BCD2FEF80E792E0215080409040BF
:10284000E1F700C0000089E2CDD8AFEFB0E722E0A9
:10285000A150B0402040E1F700C0000080EFC2D896
:1028600089E2C0D88FEF90E7A2E081509040A0406D
:10287000E1F700C0000089E4B5D8BFEF20E782E0AF
:10288000B15020408040E1F700C0000080EFAAD89E
:1028900089E4A8D8CEE0D3E09FEFA0E7B2E0915062
:1028A000A040B040E1F700C000001991812F9AD8F4
:1028B0002FEF80E792E0215080409040E1F700C088
:1028C000000080EF8FD8812F8DD8AFEFB0E722E0E6
:1028D000A150B0402040E1F700C0000083E0C831C3
:1028E000D807D1F6C2CC8091030246E6813009F4C4
:1028F0004EE0812CA12CCC24C394EE24E39400E080
:1029000020E064E087E070D81ACE8091030241E7AE
:10291000813009F443E5812CA12CCC24C394EE240E
:10292000E39400E021E063E087E05ED880913F0619
:1029300090914006419709F002CE81E080933E06D7
:1029400010923A0610923B0610923C0610923D06F9
:1029500082E080930302F3CD80913F069091400680
:102960008230910520F00A97029708F0E8CD809117
:10297000030243E0813009F072CE4FE370CE1F9224
:102980000F920FB60F9211242F933F938F939F9323
:10299000AF93BF938091460690914706A091480659
:1029A000B09149063091450623E0230F2D3758F5A5
:1029B0000196A11DB11D2093450680934606909374
:1029C0004706A0934806B09349068091410690912E
:1029D0004206A0914306B09144060196A11DB11D87
:1029E0008093410690934206A0934306B093440619
:1029F000BF91AF919F918F913F912F910F900FBEFB
:102A00000F901F90189526E8230F0296A11DB11D67
:102A1000D2CFCF93DF93CDB7DEB763970FB6F894DD
:102A2000DEBF0FBECDBF789484B5826084BD84B50F
:102A3000816084BD85B5826085BD85B5816085BDB9
:102A400080916E00816080936E0010928100809171
:102A500081008260809381008091810081608093F9
:102A60008100809180008160809380008091B1001E
:102A700084608093B1008091B00081608093B00049
:102A8000809191008260809391008091910081609B
:102A9000809391008091900081608093900080915C
:102AA000A10082608093A1008091A1008160809349
:102AB000A1008091A00081608093A00080912101FD
:102AC00082608093210180912101816080932101A6
:102AD0008091200181608093200180917A00846040
:102AE00080937A0080917A00826080937A0080914E
:102AF0007A00816080937A0080917A008068809368
:102B00007A001092C10080E8809361001092610009
:102B1000229A2A982098289A239A2B98279A80916B
:102B20000B01816080930B018B988A9883E00E944F
:102B3000940082E00E9494008DE2A82E85E0B82ED9
:102B400097E1C92E95E0D92E02E215E0D801ED906B
:102B50008D01F601F1906F0141E06E2D8F2D0E94E5
:102B6000DE0941E06E2D8F2D0E941409A016B106DA
:102B700069F717E4C12E15E0D12E0DE2E02E05E035
:102B8000F02E0AE315E0D8016D918D0141E0F701C7
:102B900081917F010E94DE09C016D106A1F70EE4E3
:102BA00015E0A7E4CA2EA5E0DA2EB5E5AB2EB5E018
:102BB000BB2ED801ED908D01F601F1906F0141E03F
:102BC0006E2D8F2D0E94DE0941E06E2D8F2D0E940B
:102BD0001409A016B10669F740E062E086E00E94A1
:102BE000DE0941E065E084E00E94DE0941E065E045
:102BF00084E00E94140941E065E085E00E94DE095E
:102C000041E065E085E00E94140941E067E085E06D
:102C10000E94DE0941E067E085E00E94140941E07E
:102C200065E083E00E94DE0941E065E083E00E9408
:102C3000140941E068E083E00E94DE0941E068E0B9
:102C400083E00E941409109218061092170621982A
:102C5000299A85E0E4E0F2E0DE01169601900D92FB
:102C60008A95E1F745E050E070E060E0CE01019622
:102C70000E947028DE011196FE0136969F0181E0C8
:102C8000E88BF98B4D919191491380E0A217B3071E
:102C9000C9F7882309F486C185E090E00E94802866
:102CA000082F10E010923E062B9810925A051092B1
:102CB000590581E00115110529F00130110509F0D0
:102CC000E9C084E0809300020530110509F0E8C0F6
:102CD00084E0809300020A30110509F0E7C084E027
:102CE000809300020F30110509F0E6C084E0809364
:102CF00000021093400600933F0686E090E00E9499
:102D00008028823008F080E08093670587E090E0BB
:102D10000E948028823008F080E08093580588E087
:102D200090E00E948028823008F080E08093570570
:102D300089E090E00E948028823008F080E0809353
:102D400019060E94090920913F0630914006215141
:102D500031098823A1F02330310588F480913E06A3
:102D6000811142C180913A0690913B06A0913C06A8
:102D7000B0913D06892B8A2B8B2B09F035C18091B0
:102D80003A0690913B06A0913C06B0913D06009713
:102D9000A105B10509F058C12330310588F58091AE
:102DA0003706882369F180913506909136069C019B
:102DB0002F5F3F4F3093360620933506893E934070
:102DC00020F4809103028230D9F4809133069091EF
:102DD00034069C012F5F3F4F309334062093330617
:102DE0008739910568F08091320681110E94F20CBA
:102DF000809137060E94F20C10923406109233062E
:102E00001092160662E081E00E94A909882309F465
:102E1000C0C1B5E3BA95F1F7000062E081E00E941D
:102E2000A909882309F42FC180911506813009F082
:102E300017C18091010290910202019790930202C2
:102E400080930102EFE3FCE93197F1F700C0000045
:102E500080910102909102028436910508F013C11D
:102E60008CE291E090930202809301021092150689
:102E70002A9862E081E00E94A909882309F403C12D
:102E8000FFEF24E33CE0F15020403040E1F700C088
:102E90000000EFCF0230110599F484E08093000226
:102EA0000630110599F484E0809300020B3011057F
:102EB000A1F484E08093000200311105A9F416CF3B
:102EC0000330110539F584E08093000207301105C5
:102ED00009F046C084E0809300020C30110509F02F
:102EE00045C084E0809300020131110509F044C01F
:102EF00084E08093000281E080933E0610923A06BF
:102F000010923B0610923C0610923D0682E08093A0
:102F10000302EFCE0430110509F0D6CE84E0809391
:102F200000020930110509F0D6CE84E0809300023A
:102F30000E30110509F0D6CE86E0809300020231F2
:102F4000110509F0D6CE84E08093000210923E066F
:102F500081E0809303028FE193E00E940E0EC9CEC0
:102F600008301105F1F684E0809300020D30110560
:102F7000F9F684E0809300020331110501F784E043
:102F80008093000281E080933E0610923A061092F0
:102F90003B0610923C0610923D0682E080930302AD
:102FA0002B9AA7CE45E050E070E060E088899989CF
:102FB0000E94882860E085E090E00E94912861E00E
:102FC00086E090E00E94912860E087E090E00E9417
:102FD000912860E088E090E00E94912860E089E01C
:102FE00090E00E949128ADCEEE24E394DD24D394AA
:102FF00089EE93E0019711F40C9425217B9902C08E
:103000000C947C27FAE1FA95F1F700C0F3CF8AEF30
:103010000E94F20C0C942028823F89F08F3F41F7E8
:103020008AEA0E94F20C10923E06E2CF80913806A6
:10303000803FF1F6809103020E94F20CD9CF8BEA17
:103040000E94F20C83E8F8CF0197A109B10980939F
:103050003A0690933B06A0933C06B0933D069CCE67
:103060008CE291E0909302028093010281E08093D0
:1030700015062A9A8FEF94E3ACE081509040A0406F
:10308000E1F700C0000080911606811165C0ECE6F2
:10309000EE2EE5E0FE2EADE2B5E0BC87AB87FAE3AD
:1030A000CF2EF5E0DF2E712CF60141906F01AB853C
:1030B000BC855D90BC87AB8740E0642D852D0E9468
:1030C000DE0940E0642D852D0E941409BAE1BA950D
:1030D000F1F700C0870167E1862E65E0962E72E267
:1030E000A72E75E0B72E612CF50121905F01D40168
:1030F0003D904D01622D832D0E94A909882309F47A
:1031000093C0B5E3BA95F1F70000622D832D0E94BC
:10311000A909882309F471C0F801808180FF5DC08E
:1031200082608083F7E0F71528F424E040E026155C
:1031300008F45EC063940F5F1F4FBBE06B12D4CFE7
:1031400041E0642D852D0E94DE097394EDE0EE0EC2
:10315000F11CFDE07F12A8CF80916B05882309F454
:1031600072C04CE655E028E030E090E080E0FA01E3
:10317000E80FF91F608160FD31E00196853091050F
:10318000B1F72150435F5F4F2111EFCF30936B05B3
:103190007ACF80910102909102028C329140B0F47A
:1031A000209A2898EFEFF1EE24E0E150F040204023
:1031B000E1F700C000002098289A3FEF84E39CE0EC
:1031C000315080409040E1F700C000008CE291E077
:1031D000909302028093010256CF81608083B7E012
:1031E000B71508F0A7CFE4E0E61508F0A3CF41E05B
:1031F000662D872D0E949F009DCFD8018C9180FF66
:1032000099CF8C7F84608C93B7E0B71508F092CF8C
:10321000E4E0E61508F08ECF4FEF662D872D0E9473
:103220009F00D8011C9286CFF801808180FF82CF59
:103230008C7F84608083F7E0F71508F07BCF24E073
:10324000261550F377CF80916A05811105C08091D2
:103250006905882309F462C08091AD0582FF10C022
:103260001092AD0580913F0690914006892B41F464
:1032700060E080EF0E94CA0A60E082E10E94CA0A10
:103280008091C80582FF10C01092C80580913F064A
:1032900090914006892B41F460E080EF0E94CA0AB9
:1032A00060E084E10E94CA0A2CE6A22E25E0B22E3C
:1032B00030E6832E34E0932ED12CC12C77247394E6
:1032C00042E0642E5BE0552EF12CE12C80916A05E2
:1032D000882309F4C4C7F501EE0DFF1D808180FF2E
:1032E000BEC75C9CC0015D9C900D112488579B4F0C
:1032F000E80EF91ED7018C910E94CE0EFFEFCF1A77
:10330000DF0A2DE0A20EB11C35E0830E911C88E08F
:10331000C816D104C9F681E080931606809116067E
:1033200081110C9411228091AD0580FD02C00C9496
:1033300011228091C80580FD02C00C941122809159
:103340006805811109C58091890580FF10C081E061
:1033500080936A058093160680936B059FEFA4E324
:10336000BCE09150A040B040E1F700C00000809167
:10337000AE0580FF1CC080913F0690914006892BCE
:1033800021F480916705882391F080916605811171
:1033900001C081E08093660500E020E040E060E04D
:1033A00081E00E94E50B61E085E00E94900A809137
:1033B000B00580FF1CC080913F0690914006892B8C
:1033C00021F480916705882391F080916505811132
:1033D00001C081E08093650500E020E040E061E00D
:1033E00080E00E94E50B63E085E00E94900A8091F6
:1033F000860580FF1CC080913F0690914006892B76
:1034000021F480916705882391F0809164058111F2
:1034100001C081E08093640500E020E041E060E0CD
:1034200080E00E94E50B60E082E00E94900A8091BB
:10343000AF0580FF1CC080913F0690914006892B0C
:1034400021F480916705882391F0809163058111B3
:1034500001C081E08093630501E020E040E060E08E
:1034600080E00E94E50B62E085E00E94900A809176
:10347000C90580FF1CC080913F0690914006892BB2
:1034800021F480916705882391F080916205811174
:1034900001C081E08093620500E021E040E060E04F
:1034A00080E00E94E50B62E087E00E94900A809134
:1034B0006C0580FF1FC080913F0690914006892BCC
:1034C00021F4809167058823A9F080906305A0907E
:1034D0006205C0906505E0906605009164058091E5
:1034E00003024BE3813009F045E020E060E080E03A
:1034F0000E94F40C80916D0580FF1FC080913F06F3
:1035000090914006892B21F4809167058823A9F0CA
:1035100080906305A0906205C0906505E090660507
:1035200000916405809103024CE3813009F046E08C
:1035300020E061E080E00E94F40C80916E0580FF45
:103540001FC080913F0690914006892B21F4809105
:1035500067058823A9F080906305A0906205C0905C
:103560006505E090660500916405809103024DE3D6
:10357000813009F044E020E062E080E00E94F40C39
:1035800080916F0580FF1FC080913F06909140069B
:10359000892B21F4809167058823A9F08090630529
:1035A000A0906205C0906505E090660500916405F5
:1035B000809103024EE3813009F04CE020E063E0AB
:1035C00080E00E94F40C8091700580FF1FC0809104
:1035D0003F0690914006892B21F48091670588234E
:1035E000A9F080906305A0906205C0906505E09009
:1035F000660500916405809103024FE3813009F074
:1036000043E020E064E080E00E94F40C80919705A4
:1036100080FF1FC080913F0690914006892B21F4C6
:10362000809167058823A9F080906305A0906205CA
:10363000C0906505E09066050091640580910302E5
:1036400040E4813009F04BE020E064E083E00E9438
:10365000F40C8091960580FF1FC080913F069091E9
:103660004006892B21F4809167058823A9F080907A
:103670006305A0906205C0906505E0906605009125
:1036800064058091030241E4813009F043E820E0C1
:1036900063E083E00E94F40C8091950580FF1FC0D9
:1036A00080913F0690914006892B21F48091670517
:1036B0008823A9F080906305A0906205C0906505FD
:1036C000E0906605009164058091030242E4813038
:1036D00009F04AE020E062E083E00E94F40C80916F
:1036E0009405482F417080FF1EC080913F06909145
:1036F0004006892B21F4809167058823A1F08090F2
:103700006305A0906205C0906505E0906605009194
:10371000640580910302813009F443E420E061E014
:1037200083E00E94F40C8091930580FF1FC080917C
:103730003F0690914006892B21F4809167058823EC
:10374000A9F080906305A0906205C0906505E090A7
:103750006605009164058091030244E4813009F01C
:1037600049E020E060E083E00E94F40C809179055C
:1037700080FF1FC080913F0690914006892B21F465
:10378000809167058823A9F080906305A090620569
:10379000C0906505E0906605009164058091030284
:1037A00047E5813009F048E720E060E081E00E94D1
:1037B000F40C80917A0580FF1FC080913F069091A4
:1037C0004006892B21F4809167058823A9F0809019
:1037D0006305A0906205C0906505E09066050091C4
:1037E00064058091030248E5813009F047E020E05C
:1037F00061E081E00E94F40C8091870580FF1FC08A
:1038000080913F0690914006892B21F480916705B5
:103810008823A9F080906305A0906205C09065059B
:10382000E0906605009164058091030246E58130D1
:1038300009F041E620E061E082E00E94F40C809112
:10384000A20580FF1FC080913F0690914006892B02
:1038500021F4809167058823A9F080906305A090EA
:103860006205C0906505E090660500916405809151
:10387000030245E4813009F047E720E062E084E09C
:103880000E94F40C8091A10580FF1FC080913F062B
:1038900090914006892B21F4809167058823A9F037
:1038A00080906305A0906205C0906505E090660574
:1038B00000916405809103024AE1813009F044E5FA
:1038C00020E061E084E00E94F40C8091A00580FF7C
:1038D0001FC080913F0690914006892B21F4809172
:1038E00067058823A9F080906305A0906205C090C9
:1038F0006505E090660500916405809103024BE147
:10390000813009F04BE520E060E084E00E94F40C97
:1039100080917B0580FF1FC080913F0690914006FB
:10392000892B21F4809167058823A9F08090630595
:10393000A0906205C0906505E09066050091640561
:103940008091030247E3813009F04CE720E062E018
:1039500081E00E94F40C80917C0580FF1FC0809163
:103960003F0690914006892B21F4809167058823BA
:10397000A9F080906305A0906205C0906505E09075
:10398000660500916405809103024AE4813009F0E4
:103990004BE720E063E081E00E94F40C8091880511
:1039A00080FF1FC080913F0690914006892B21F433
:1039B000809167058823A9F080906305A090620537
:1039C000C0906505E0906605009164058091030252
:1039D0004EE4813009F049E720E062E082E00E9495
:1039E000F40C80917D0580FF15C080913F06909179
:1039F0004006892B21F480916705882359F00E94A5
:103A0000BE0B01E021E041E061E081E00E94E50BB6
:103A100010927D058091A40580FF1FC080913F0614
:103A200090914006892B21F4809167058823A9F0A5
:103A300080906305A0906205C0906505E0906605E2
:103A4000009164058091030246E4813009F04EE75D
:103A500020E064E084E00E94F40C8091A30580FFE4
:103A60003CC080913F0690914006892B21F48091C3
:103A70006705882391F160E081EE0E94CA0A60E048
:103A800084E10E94CA0A60E087E70E94CA0A60E0F7
:103A900081EE0E94CA0A60E080EF0E94CA0A60E0DC
:103AA00084E10E94CA0A60E080EF0E94CA0A60E0D6
:103AB00087E70E94CA0AEFEFF1EE24E0E150F04000
:103AC0002040E1F700C0000001E021E041E061E0BA
:103AD00081E00E94E50B1092A30580918A0580FF8A
:103AE0001FC080913F0690914006892B21F4809160
:103AF00067058823A9F080906305A0906205C090B7
:103B00006505E0906605009164058091030242E539
:103B1000813009F040E721E064E082E00E94F40C8B
:103B20008091BE0580FF1FC080913F0690914006A6
:103B3000892B21F4809167058823A9F08090630583
:103B4000A0906205C0906505E0906605009164054F
:103B50008091030247E4813009F04CE621E064E003
:103B600086E00E94F40C8091BD0580FF1FC080910B
:103B70003F0690914006892B21F4809167058823A8
:103B8000A9F080906305A0906205C0906505E09063
:103B90006605009164058091030249E4813009F0D3
:103BA0004DE721E063E086E00E94F40C8091B105CE
:103BB00080FF1FC080913F0690914006892B21F421
:103BC000809167058823A9F080906305A090620525
:103BD000C0906505E0906605009164058091030240
:103BE00043E5813009F041E721E064E085E00E948F
:103BF000F40C8091CB0580FF1FC080913F0690910F
:103C00004006892B21F4809167058823A9F08090D4
:103C10006305A0906205C0906505E090660500917F
:103C20006405809103024FE4813009F049E621E008
:103C300064E087E00E94F40C8091CA0580FF1FC0F9
:103C400080913F0690914006892B21F48091670571
:103C50008823A9F080906305A0906205C090650557
:103C6000E0906605009164058091030241E5813092
:103C700009F04AE721E063E087E00E94F40C8091BC
:103C8000BC0580FF1FC080913F0690914006892BA4
:103C900021F4809167058823A9F080906305A090A6
:103CA0006205C0906505E09066050091640580910D
:103CB000030247E2813009F04CE420E062E086E054
:103CC0000E94F40C8091BB0580FF1FC080913F06CD
:103CD00090914006892B21F4809167058823A9F0F3
:103CE00080906305A0906205C0906505E090660530
:103CF000009164058091030248E2813009F042E5B9
:103D000020E061E086E00E94F40C8091BA0580FF1B
:103D10001FC080913F0690914006892B21F480912D
:103D200067058823A9F080906305A0906205C09084
:103D30006505E090660500916405809103024BE201
:103D4000813009F04DE520E060E086E00E94F40C4F
:103D500080911606811102C180916105882309F4C2
:103D600062C08091AD0590916005911165C3882373
:103D700061F08091960580FF08C065E085E00E94B3
:103D8000730A1092960510925F058091AD05882305
:103D900061F08091970580FF08C067E085E00E9490
:103DA000730A1092970510925F058091AD058823E4
:103DB00061F08091700580FF08C065E084E00E949A
:103DC000730A1092700510925F058091AD058823EB
:103DD00089F08091950580FF0DC080915F05882353
:103DE00009F422C310925F051092610510926005DC
:103DF000109295058091BA0580FF08C065E083E0C8
:103E00000E94730A1092BA0510925F058091AD0569
:103E1000882349F080916C0580FF05C010926C05E5
:103E200081E0809360052091AD05922F91704091C3
:103E30003F0650914006452B09F00AC38091670563
:103E4000811106C3992379F021FD0DC082E10E9402
:103E5000F20C8091AD0582608093AD0580915E0586
:103E60008F5F80935E058091C80580FF0FC081FD44
:103E70000DC084E10E94F20C8091C805826080939D
:103E8000C80580915E058F5F80935E058091AD05CA
:103E900082FF0DC080EF0E94F20C82E10E94F20CC2
:103EA0001092AD0580915E058F5F80935E058091D5
:103EB000C80582FF0DC080EF0E94F20C84E10E94D1
:103EC000F20C1092C80580915E058F5F80935E05AD
:103ED00080915E05882331F03AE13A95F1F700C010
:103EE00010925E0508E814E08CE6A82E85E0B82E56
:103EF00090EE892E94E0992E6501F12CE12C36018B
:103F0000D6018C9180FF08C081FD06C0F801EE0D3E
:103F1000FF1D80810E94F20CBFEFCB1ADB0AF30178
:103F2000808182FF0CC080EF0E94F20CF801EE0D40
:103F3000FF1D80810E94F20CF60131971082FFEF85
:103F4000EF1AFF0A25E0E216F104C9F6055F1F4FDC
:103F50003DE0A30EB11C8016910671F680912606F5
:103F600080931A068091270680931B06809128066D
:103F700080931C068091290680931D0680912A0655
:103F800080931E0610922A0680912B0680931F06AE
:103F900010922B0680912C068093200680912D068E
:103FA0008093210680912E068093220610922E0681
:103FB00080912F068093230610922F068091300661
:103FC0008093240610923006809131068093250656
:103FD000109231068FE39CE90197F1F700C00000D1
:103FE00080911906882309F464C6809101018F7DB0
:103FF000809301018091020180628093020180918F
:1040000001018064809301018091020180648093AA
:104010000201249A2C9AAFEBB0E01197F1F700C09F
:104020000000809102018F7B80930201B0E8BA9575
:10403000F1F798E080E0282F30E035952795822F22
:104040004091000145FF80682C98E0E8EA95F1F77F
:104050002C9AF0E8FA95F1F7915069F7982F917042
:1040600090932C06982F927090932D06982F947011
:1040700090932A06982F987090932B06982F907102
:1040800090932606982F907290932706982F9074FD
:1040900090932806807880932906809101018F7B78
:1040A0008093010180910201806480930201249831
:1040B0002C9A8091260690911A06891759F061E092
:1040C00070E0882311F070E060E0409103028BE122
:1040D0000E94940E8091270690911B06891759F033
:1040E00061E070E0882311F070E060E0409103022D
:1040F0008BE00E94940E8091280690911C068917EF
:1041000059F061E070E0882311F070E060E04091C8
:10411000030289E10E94940E8091290690911D0668
:10412000891759F061E070E0882311F070E060E0D9
:10413000409103028AE10E94940E80912A06909198
:104140001E06891759F061E070E0882311F070E0D5
:1041500060E04091030289E20E94940E80912B0658
:1041600090911F06891759F061E070E0882311F0E3
:1041700070E060E04091030285E20E94940E80911D
:104180002C0690912006891759F061E070E0882391
:1041900011F070E060E04091030283E50E94940E0C
:1041A00080912D0690912106891759F061E070E009
:1041B000882311F070E060E04091030282E20E94E7
:1041C000940E80912E0690912206891759F061E095
:1041D00070E0882311F070E060E04091030287E115
:1041E0000E94940E80912F0690912306891759F012
:1041F00061E070E0882311F070E060E0409103021C
:104200008EE00E94940E80913006909124068917CA
:1042100059F061E070E0882311F070E060E04091B7
:10422000030280E10E94940E809131069091250650
:10423000891759F061E070E0882311F070E060E0C8
:10424000409103028DE00E94940E80E090E0892B63
:1042500011F40C94A1160E9400000C94A1168091F8
:104260006905882309F444C0F501EE0DFF1D808126
:1042700080FF3EC0F401EE0DFF1D008110E0409074
:104280003F063090400610923E062B9810925A0539
:104290001092590584E993E00115110529F00130C8
:1042A0001105A1F58FE893E00E940E0E053011056F
:1042B000A1F589E793E00E940E0E0A301105A1F5E1
:1042C0008BE593E00E940E0E86E393E00F3011051C
:1042D00091F50E940E0E04311105ACF47092160691
:1042E00070926805109269051093400600933F068E
:1042F000BFEFEB1AFB0AE5E0EE16F10411F00C94A7
:1043000066190C947E19042D132DC4CF02301105AB
:10431000C1F48AE893E00E940E0E06301105C1F444
:1043200082E793E00E940E0E0B301105C9F482E57E
:1043300093E00E940E0E8BE293E00031110549F2EA
:1043400017C00330110539F585E893E00E940E0E81
:104350000730110509F04DC08BE693E00E940E0E68
:104360000C30110509F04CC08DE493E00E940E0E54
:104370000131110509F04BC070923E0610923A06C9
:1043800010923B0610923C0610923D06609203028A
:1043900085E293E09ECF0430110509F087CF8EE7C8
:1043A00093E00E940E0E0930110509F086CF80E6D9
:1043B00093E00E940E0E0E30110509F085CF81E4C6
:1043C00093E00E940E0E0331110509F084CF709224
:1043D0003E0610923A0610923B0610923C0610924E
:1043E0003D066092030288E193E00E940E0E2B9A34
:1043F00072CF08301105B9F686E693E00E940E0EE2
:104400000D301105C1F688E493E00E940E0E0231D2
:104410001105C9F610923E06709203028FE193E0F7
:1044200058CF1092680594CC68E083E00E94730A2C
:1044300081E080935F05DCCC882309F4F4CC809183
:104440006C0580FFF0CC10926C0510926005EBCCEF
:1044500040915D0541116CC080915C05811168C07F
:1044600080915B05811164C0992311F021FF06C082
:104470009091C80590FF17C091FD15C06CE675E0DE
:1044800030E020E0853009F044C0211147C02F5FA3
:104490003F4F25303105B1F78F5F635F7F4F883025
:1044A00079F740935D058CE695E09F878E87A8E8B5
:1044B000B4E0BC87AB8710E0812C512C412C7201F9
:1044C0002B843C84CE84DF84912CB5E08B1239C0E0
:1044D00091103DC09394BFEFCB1ADB0AEFEF2E1A79
:1044E0003E0AFFEFEF1AFF0A25E09212EECF839407
:1044F0008E859F850D969F878E87AB85BC851B9685
:10450000BC87AB87B5E04B0E511CE8E08E12D7CFCD
:1045100025CD873019F4213009F4B9CFFB01E20F22
:10452000F31F9081592F517090FFB1CF452FB4CF19
:104530009111B9CF8091C80580FDB5CF10925D056E
:10454000B2CFE7E08E1203C0F1E09F1619F2D60158
:104550008C9180FF9EC181FD9CC190915D05911160
:104560000EC09091AD0590FF02C088608C93809141
:10457000C80580FF04C0F601808180618083D60178
:104580008C9183FF2AC084FD28C080910302F7012B
:10459000823009F0F2C0E85CFB4F008110923606D1
:1045A00010923506109232060111EFC0823009F0E8
:1045B000E7C082E10E94F20C82E180933206809192
:1045C0000302F101823019F0F701E851FC4F00813C
:1045D000802F0E94F20C00933706D6018C9184FF45
:1045E00095C0B82FB8706B2E83FD90C0A0903F0689
:1045F000B09040061982109236061092350610923D
:10460000320600910302F701E851FC4F013009F036
:10461000F10180818E83A114B10409F4F9C0A501D0
:10462000BE016F5F7F4F888999890E94D8018E8172
:10463000882309F46BC0F1E1AF16B10409F0CAC0D8
:10464000013009F0C7C0F701E054FC4F80818E8330
:10465000F701E856FC4F8081982F9170282F287021
:104660002D878074B12C712CA12C2E81222309F46A
:104670004DC081114BC0992349F0023009F0C1C0EF
:1046800082E10E94F20C82E180933206662051F0B2
:1046900080910302823091F484E10E94F20C84E163
:1046A00080933206772051F080910302823031F4FA
:1046B00081E10E94F20C81E1809332068D8588238E
:1046C00061F060E080EE0E94CA0A809103028230AD
:1046D00009F09CC081E10E94F20CAA2059F080915F
:1046E0000302823039F460E080EE0E94CA0A84E15D
:1046F0000E94F20CBB2021F060E080EE0E94CA0A0A
:104700008E810E94F20C8E8180933706F6018081A3
:10471000887109F0BAC090915A05809103029111F5
:1047200005C020915905222309F480C11092360654
:104730001092350610923206823009F07BC0D1010A
:104740001C91143409F46EC01D3409F46DC0153188
:1047500009F46CC01C3109F46BC01B3639F01437F6
:1047600029F0153719F0123709F082C0992309F49E
:104770007FC080EE809332067BC0E05FFB4F0DCFA1
:104780008AE20E94F20C8AE218CF823071F40B3672
:1047900031F08CE8800F823010F0023731F480EE77
:1047A0000E94F20C80EE80933206809103028130E9
:1047B00009F00ECF0B3439F00D3429F0083419F01C
:1047C000003509F005CF80EE0E94F20C80EE809358
:1047D0003206FECE8981982F917081FB662460F8A5
:1047E00082FB772470F883FB332730F93D8784FB05
:1047F000AA24A0F885FBBB24B0F886FB882780F9A3
:1048000034CF8AE20E94F20C8AE23ECF88E363CF83
:10481000D1018C918E8384E10E94F20C84E180931B
:1048200032066ECF1BE6A2CF14E7A0CF15E79ECFCE
:1048300012E79CCF8130E1F4F701E851FC4F108181
:10484000183109F4EBC0193109F4EAC0103109F448
:10485000E9C01E3109F4E8C01B3409F48ACF1D34C5
:1048600009F487CF183409F484CF103509F481CFC7
:104870001093370680913206882319F080EE0E944B
:10488000F20C809137060E94F20CD6018C91826066
:104890008C93F601808182FF1DCE83FF1FC084FDB3
:1048A0001DC080910302F701823009F0CFC0E85C9F
:1048B000FB4F0081109237060111D4C0823009F0FD
:1048C000C8C080EF0E94F20CD1018C910E94F20CC2
:1048D00080EF0E94F20C82E10E94F20CF6018081CE
:1048E00084FF52C1082F087083FD4EC1A0903F067F
:1048F000B0904006198210923706D1018C918E83B8
:10490000A114B10409F4A7C1A501BE016F5F7F4FD7
:10491000888999890E94D8018E81882309F434C13D
:10492000B1E1AB16B10409F0C5C08091030281303A
:1049300009F0C0C0F701E054FC4F80818E83F7017D
:10494000E856FC4F8081E82FE170ED87F82FF87072
:10495000AF2E807430E0712CB12C612C2E8122237B
:1049600009F412C1909103028111BFC080E8820F47
:10497000923051F4332321F060E080EE0E94CA0AA5
:1049800080EF0E94F20C8E810E94F20C3D85332351
:1049900059F080910302823009F0A3C080EF0E9499
:1049A000F20C82E10E94F20C662051F08091030229
:1049B000823091F480EF0E94F20C84E10E94F20CAC
:1049C000772051F080910302823031F480EF0E9411
:1049D000F20C81E10E94F20CAA2071F080EE0E949C
:1049E000F20C80910302823009F07DC080EF0E94BA
:1049F000F20C81E10E94F20CBB2009F4C5C0809149
:104A00000302823009F0C0C080EE0E94F20C80EFF9
:104A10000E94F20C84E10E94F20CB6C01BE4A9CE05
:104A20001DE4A7CE18E4A5CE10E5A3CE109236065D
:104A300010923506F101823019F0F701E851FC4F70
:104A4000808180933706109232061BCFE05FFB4FC8
:104A500030CFF701E851FC4F808180580E94F20C62
:104A60008AEA3ACF823059F40B3631F08CE8800F65
:104A7000823010F0023719F480EE0E94F20C80911F
:104A80000302813059F40B3431F00D3421F0083435
:104A900011F0003519F480EE0E94F20C80910302AF
:104AA000823029F480EF0E94F20C802F15CF80E82D
:104AB000800F12CF8981282F21702D8781FB6624DA
:104AC00060F882FB772470F883FBAA24A0F884FBAB
:104AD000BB24B0F885FB332730F986FB882780F9A3
:104AE0003DCF8AEA5FCF88EB85CF2E3709F0A3C090
:104AF000923009F0EDC274E7A72EE2E7BE2E09E678
:104B000080910302823009F03FC0A02FAB0DBB277C
:104B1000BB1FCD018A0D911D892BB1F160E081E1B0
:104B20000E94CA0A002361F060E0802F0E94CA0A36
:104B300060E080EF0E94CA0A60E0802F0E94CA0AEB
:104B4000BB2061F060E08B2D0E94CA0A60E080EF1C
:104B50000E94CA0A60E08B2D0E94CA0AAA2061F056
:104B600060E08A2D0E94CA0A60E080EF0E94CA0AB3
:104B700060E08A2D0E94CA0A60E080EF0E94CA0AA3
:104B800060E081E10E94CA0AF6018081887109F023
:104B90004FC090915A0580910302911105C0209158
:104BA0005905222309F46CC010923706823009F5AA
:104BB000D1011C91143409F453C01D3409F452C0BE
:104BC000153109F451C01C3109F450C01B3631F0C5
:104BD000143721F0153711F0123729F4992319F001
:104BE00080EE0E94F20C80EF0E94F20C812F0E9456
:104BF000F20C809103028130D9F4F701E851FC4FA7
:104C000010811831A9F11931A9F11031A9F11E3122
:104C1000A9F11B3431F01D3421F0183411F0103596
:104C200019F480EE0E94F20C80E8810F0E94F20CD1
:104C3000D6011C924FCCA12CB12C2C3909F060CF9D
:104C4000923009F016C254E7A52E63E7B62E57CF6F
:104C5000A0E5BA2E16C280EF0E94F20C8E81D5CE4E
:104C60001BE6BCCF14E7BACF15E7B8CF12E7B6CF33
:104C70001BE4D7CF1DE4D5CF18E4D3CF10E5D1CFB7
:104C8000823081F480EF0E94F20CF1010081802FCC
:104C90000E94F20C80913706081301C080E08093D7
:104CA0003706C6CFF701E851FC4F008180E8800F3E
:104CB000EFCF41E062E086E00E9414092AE42A95E1
:104CC000F1F700C068E084E00E94A90980932606FD
:104CD00068E085E00E94A9098093270668E086E0E5
:104CE0000E94A9098093280662E084E00E94A90935
:104CF0008093290640E062E086E00E9414093AE4CD
:104D00003A95F1F700C068E086E00E94A909182FE3
:104D100062E084E00E94A909812362E009F4B8C03E
:104D200085E00E94A90980932C066CE085E00E9432
:104D3000A90980932B0641E062E086E00E941409F5
:104D40008AE48A95F1F700C062E085E00E94A90933
:104D500080932D066CE085E00E94A90980932E06C1
:104D600040E062E086E00E9414099AE49A95F1F727
:104D700000C041E062E086E00E941409AAE4AA951E
:104D8000F1F700C040E062E086E00E941409BAE456
:104D9000BA95F1F700C068E084E00E94A909182FD5
:104DA00068E085E00E94A909182368E086E00E9477
:104DB000A909182362E084E00E94A9098123C1F1B6
:104DC00041E062E086E00E941409EAE4EA95F1F726
:104DD00000C068E084E00E94A9098093310668E081
:104DE00085E00E94A9098093300668E086E00E9471
:104DF000A90980932F0662E084E00E94A9098093AC
:104E00002A0640E062E086E00E941409FAE4FA957E
:104E1000F1F700C041E062E086E00E9414092AE454
:104E20002A95F1F700C040E062E086E00E94140994
:104E30008FE39FE10197F1F700C0000041E062E0DD
:104E400086E00E9414099AE49A95F1F700C09091C7
:104E5000260680912706292F282331F181E08093AF
:104E60002A06809318061092260610922706909123
:104E7000280680912906292F282351F181E080936B
:104E80002B0680931706109228061092290611C946
:104E900085E00E94A90980932C066CE085E00E94C1
:104EA000A90980932D06CACF20911806222321F04C
:104EB00010922A061092180621E030911E06311138
:104EC00020E0922390932606822380932706CFCF5B
:104ED00020911706222321F010922B06109217061C
:104EE00021E030911F06311120E092239093280693
:104EF000822380932906DDC8809139068093380685
:104F00008FB1282F2870F22E83FDFACF7A9BFECF27
:104F100080910002880F880F0E94C10A829A8091B6
:104F20000002880F880F880F0E94C10A82E00E9449
:104F3000940080910002880F880F0E94C10A10E03F
:104F400000E0CC24C3947B9B09C081E090E0002E5C
:104F500001C0880F0A94EAF7F82ACE248091000253
:104F6000880F880F0E94C10A829A80910002880FE0
:104F7000880F880F0E94C10A82E00E9494008091ED
:104F80000002880F880F0E94C10A0F5F1F4F083070
:104F90001105C9F68FB183FB882780F98A8B1B8A9C
:104FA0008A899B89C816190611F00C94F81780910C
:104FB0000002880F880F0E94C10A829A8091000225
:104FC000880F880F880F0E94C10A82E00E94940017
:104FD00080910002880F880F0E94C10A839A8091F5
:104FE0000002880F880F0E94C10A829A80910002F5
:104FF000880F880F880F0E94C10A82E00E949400E7
:1050000083E00E949400AFE8B1E01197F1F700C08F
:105010000000F092390680EA96E8A1E0B0E08093C3
:105020003A0690933B06A0933C06B0933D069EEE55
:10503000F9120C9407188EEE0E94F20CD0923E06E4
:1050400080913906823059F010F00C940C188823A6
:1050500011F40C941618813011F00C94F8179091FB
:105060003806903F11F00C94F817809303020C94CB
:10507000F8172DE4A22E3CE4B32E913039F5BCE4B0
:10508000BB2E60E088E30E94CA0A60E08FE40E94C1
:10509000CA0A60E08FEC0E94CA0ABB2049F060E0B7
:1050A0008B2D0E94CA0A60E080E88B0D0E94CA0A1C
:1050B00060E08DE40E94CA0A60E08DEC0E94CA0A9A
:1050C00060E088EB0E94CA0AFDE4AF2E0FE418CD21
:1050D000913009F4BDCD8DE4A82E90E5B92EF6CF20
:1050E000DC01CB01FC01F999FECF06C0F2BDE1BDA8
:1050F000F89A319600B40D9241505040B8F7089597
:10510000F999FECF92BD81BDF89A992780B508958F
:10511000DC01CB0102C02D9105D041505040D8F7A1
:105120000895262FF999FECF1FBA92BD81BD20BDEB
:105130000FB6F894FA9AF99A0FBE01960895EE0FF9
:10514000FF1F881F8BBF0790F691E02D1994F894EC
:02515000FFCF8F
:10515200012C010253554741520075726B74706CF9
:105162007D71697A1C322123242B3433433B424B19
:105172003A31444D152D1B2C3C2A1D22351A161E80
:1051820026252E363D3E46450506040C030B830AB2
:105192000109780769727A6B73746C757D704A7C49
:1051A2007B795A717776664914117E5A29125958B9
:1051B2000E0D55414C0048504B4D5247494B4F51F3
:1051C2001E302E20122122231724252632311819AF
:1051D20010131F14162F112D152C02030405060798
:1051E20008090A0B3B3C3D3E3F404142434457586D
:1051F2004F50514B4C4D4748495235374A4E1C533C
:1052020045010E341D38461C392A363A290F0D3312
:10521200272C1A22233C433144213C2D1B442D1BB5
:105222002942324D2123244B29322D241C42442B66
:105232002B294431293B4435291C2C1C2D431B3A74
:10524200233B4435292B1C3A4321443A45161E265A
:10525200252E363D3E460206000902000200212BA1
:10526200342B4B1C1B33242305423224222C0404EE
:105272004D21222C04044D21222C04093A3C4B2CB2
:105282004321443A4D0409341C4B1C421B433B1C32
:1052920004052C2D1B3E45060321163604031B3A3A
:1052A2001B04073B3C4D432C242D04031B1C3A04D6
:1052B20004442D432104032A432104051C4D4D4B74
:1052C2002404051C21442D31040332322104051C1F
:1052D2002C1C2D43040321362504033A1B2204030C
:1052E200214D2104021A22010108080101000100D6
:1052F200000140080808080101010001010101083C
:10530200080001400101000100000100000000014D
:10531200020304050629290D56567E0229282B353B
:105322000A090C0703330D1B1A00349C0C08000BEE
:105332001B351A000034331B020304050610111238
:1053420013141E1F2021220B0A0908071918171609
:1053520015002C2D2E2F1C26252423390032313006
:105362003C3A00004B000000000000000000000E6C
:10537200004D4850000000000000000000000F0037
:105382000000000100000000065800006B00000051
:10539200000000000000006600747572000000004A
:1053A2000000000000000D00000000760000000078
:1053B2000102030405FFFF0DFFFF09FF0C0E0F00A2
:1053C20011080706FFFF12FFFFFFFFFF0BFFFFFFA2
:1053D200FF1310FFFFFFFF0A161E26252E000000F6
:1053E200000000151D242D2C0000000000001C1BD5
:1053F200232B3400000000000045463E3D360000ED
:10540200000000004D44433C350000000000000055
:105412001A22212A0000000000005A4B423B3300AE
:10542200000000000029003A3132000000000000B4
:10543200000000000000000000524C0000000000CC
:105442004941000000000000000000040C05580063
:105452006B0000000000747566010072000000001D
:10546200000000760D00000701070103050706048E
:1054720002000C07040303030301010101010305F8
:1054820007060402000200060402010101010303EF
:10549200030307070C0C0C0405060405060508089F
:0654A200080202020C00EA
:00000001FF
