:10000000A6C00000C5C00000C3C00000C1C0000001
:10001000BFC00000BDC00000BBC00000B9C00000F0
:10002000B7C00000B5C00000B3C00000B1C0000000
:10003000AFC00000ADC00000ABC00000A9C0000010
:10004000A7C00000A5C00000A3C00000A1C0000020
:100050009FC000009DC000009BC000000C94C822FF
:1000600097C0000095C0000093C0000091C0000040
:100070008FC000008DC000008BC0000089C0000050
:1000800087C0000085C0000083C0000081C0000060
:100090007FC000007DC000007BC0000079C0000070
:1000A00077C0000075C0000073C0000071C0000080
:1000B0006FC000006DC000006BC0000069C0000090
:1000C00067C0000065C0000063C0000061C00000A0
:1000D0005FC000005DC000005BC0000059C00000B0
:1000E00057C000008114F914B8152516B617211849
:1000F0008218E2185D19CA19331A601BB8154E1719
:10010000A016E916C51A661E821E9E1EBA1ED61EAF
:100110004B1FF21E0E1F4B1F4B1F4B1F2D1F5C1F33
:100120005E1F601F621F641F7A1F661F681F7A1F91
:100130007A1F7A1F6B1F8D1FA91FC51FE11FFD1F8F
:100140007220192035207220722072205420112430
:100150001FBECFEFD1E2DEBFCDBF00E00CBF15E088
:10016000A0E0B2E0EEE6F3E500E00BBF02C00790CE
:100170000D92A236B107D9F726E0A2E6B5E001C09C
:100180001D92A635B207E1F70E943A230C94B529D7
:1001900037CF2F923F924F925F926F927F928F92C2
:1001A0009F92AF92BF92CF92DF92EF92FF920F9306
:1001B0001F93CF93DF93CDB7DEB761970FB6F89457
:1001C000DEBF0FBECDBF10921C0662E081E00E9430
:1001D0004E1F882309F454C025E32A95F1F7000047
:1001E00062E081E00E944E1F882309F46CC0809178
:1001F0001B06813089F580910002909101020197E0
:1002000090930102809300028FE39CE90197F1F73C
:1002100000C0000080910002909101028436910597
:1002200008F051C08CE291E09093010280930002AB
:1002300010921B062A9862E081E00E944E1F8823DC
:1002400009F441C09FEFA4E3BCE09150A040B0404E
:10025000E1F700C00000EFCF8CE291E09093010243
:100260008093000281E080931B062A9AEFEFF4E36B
:100270002CE0E150F0402040E1F700C0000023C036
:1002800080910002909101028C329140B0F4209A4A
:100290002898BFEFE1EEF4E0B150E040F040E1F724
:1002A00000C000002098289A2FEF84E39CE02150A2
:1002B00080409040E1F700C000008CE291E0909314
:1002C00001028093000280911C06882351F08091E6
:1002D0001A06882309F4AFC04AE655E028E030E06A
:1002E00096C058E6A52E54E0B52E6BE5C62E64E008
:1002F000D62E7AE6E72E75E0F72E912CD5018D905B
:100300005D01F60121906F0140E0682D822D0E9471
:100310007C1F40E0682D822D0E94551EFAE1FA955F
:10032000F1F700C030E8432E34E0532E45E7642E49
:1003300044E0742E8701312CD2012D912D01F3015F
:1003400091913F01622F892F288B998B0E944E1F1C
:10035000288999898823A1F1F5E3FA95F1F700003E
:10036000622F892F0E944E1FD8018823E1F08C91C3
:1003700080FF0AC082608C93B7E0B915A8F5E4E06D
:10038000E31590F540E00AC08160D8018C93B7E096
:10039000B91550F5E4E0E31538F541E0632D892DFA
:1003A0000E947A2121C08C9180FF1EC08C7F8460C6
:1003B0008C93B7E0B915C0F4E4E0E315A8F40DC0E0
:1003C000F801808180FF10C08C7F84608083F7E01B
:1003D000F91550F424E0231538F44FEF632D892DDF
:1003E0000E947A21D8011C9233940F5F1F4FBBE00B
:1003F0003B12A2CF41E0682D822D0E947C1F939476
:10040000EDE0EE0EF11CFDE09F1278CF60CF80E0B2
:1004100090E0FA01E80FF91F608160FD31E001967C
:1004200085309105B1F72150435F5F4F2111EFCF28
:1004300030931A0648CF80911906811105C080912A
:100440001806882309F45FC78091AB0582FF10C0AE
:100450001092AB0580912C0690912D06892B41F4CA
:1004600060E080EF0E94781B60E082E10E94781BD0
:100470008091C60582FF10C01092C60580912C069F
:1004800090912D06892B41F460E080EF0E94781B4B
:1004900060E084E10E94781B0AE6402E05E0502EC1
:1004A0008DE9282E83E0382E612C712C92E0992E54
:1004B000FF24F39422E0B22EC12CD12C8091190696
:1004C000882309F428C6F201EC0DFD1D808180FF10
:1004D00022C68BE0869DF001879DF00D1124EC0D66
:1004E000FD1DEB53FC4F808110921906813309F4F6
:1004F0009BC5B8F4823209F4F6C450F48D3109F486
:10050000F9C1813209F4AAC3853109F025C408C1B3
:100510008A3209F45CC48C32C1F0833209F01CC405
:10052000BBC3853309F4A7C530F4833309F4D7C3BB
:1005300008F468C5BFC58C3309F484C3843409F456
:1005400010C48B3309F008C4BFC210921E0681E0AC
:1005500090911606911180E08093160681111092F9
:10056000140680912C0690912D06892B81F480EF42
:100570000E94681C82E10E94681C1092AB0580EF0B
:100580000E94681C84E10E94681C1092C60580913C
:100590000302823009F0E0C32FEF80E792E02150A0
:1005A00080409040E1F700C0000089E20E94681C92
:1005B000AFEFB0E7E2E0A150B040E040E1F700C0AB
:1005C000000080EF0E94681C89E20E94681CFFEF17
:1005D00020E782E0F15020408040E1F700C00000B9
:1005E00089E40E94681C9FEFA0E7B2E09150A04010
:1005F000B040E1F700C0000080EF0E94681C89E471
:100600000E94681C80911606882381F105E212E0A1
:10061000EFEFF0E722E0E150F0402040E1F700C0CA
:100620000000D801ED908D018E2D0E94681CBFEF57
:10063000E0E7F2E0B150E040F040E1F700C0000038
:1006400080EF0E94681C8E2D0E94681C2FEF80E7AF
:1006500092E0215080409040E1F700C00000A2E00D
:1006600008321A07A9F604E012E02EC001E212E0F7
:10067000BFEFE0E7F2E0B150E040F040E1F700C04A
:100680000000D801ED908D018E2D0E94681CBFEFF7
:10069000E0E7F2E0B150E040F040E1F700C00000D8
:1006A00080EF0E94681C8E2D0E94681C2FEF80E74F
:1006B00092E0215080409040E1F700C00000A2E0AD
:1006C00005321A07A9F6CFCFBFEFE0E7F2E0B1504D
:1006D000E040F040E1F700C00000D801ED908D014E
:1006E0008E2D0E94681CBFEFE0E7F2E0B150E040C1
:1006F000F040E1F700C0000080EF0E94681C8E2DE2
:100700000E94681C2FEF80E792E0215080409040CB
:10071000E1F700C00000A2E00C301A07A9F61CC3E4
:1007200081E090911F06911180E080931F068091D7
:100730002C0690912D06892B81F480EF0E94681C75
:1007400082E10E94681C1092AB0580EF0E94681C39
:1007500084E10E94681C1092C605809103028230D9
:1007600009F0FAC2BFEFE0E7F2E0B150E040F0403C
:10077000E1F700C0000089E20E94681C2FEF80E7CB
:1007800092E0215080409040E1F700C0000080EFEF
:100790000E94681C89E20E94681CAFEFB0E7E2E0AB
:1007A000A150B040E040E1F700C0000089E40E94A1
:1007B000681CFFEF20E782E0F15020408040E1F725
:1007C00000C0000080EF0E94681C89E40E94681C41
:1007D00080911F06882381F105E212E09FEFA0E7D8
:1007E000B2E09150A040B040E1F700C00000F80135
:1007F000E1908F018E2D0E94681CFFEF20E782E0C0
:10080000F15020408040E1F700C0000080EF0E94DE
:10081000681C8E2D0E94681C9FEFA0E7B2E09150EB
:10082000A040B040E1F700C00000E2E008321E073F
:10083000A9F60CE012E02EC001E212E0FFEF20E783
:1008400082E0F15020408040E1F700C00000D80174
:10085000ED908D018E2D0E94681CBFEFE0E7F2E065
:10086000B150E040F040E1F700C0000080EF0E948E
:10087000681C8E2D0E94681C2FEF80E792E02150AB
:1008800080409040E1F700C00000A2E005321A0766
:10089000A9F6CFCFBFEFE0E7F2E0B150E040F04083
:1008A000E1F700C00000D801ED908D018E2D0E946F
:1008B000681CBFEFE0E7F2E0B150E040F040E1F744
:1008C00000C0000080EF0E94681C8E2D0E94681CF2
:1008D0002FEF80E792E0215080409040E1F700C088
:1008E0000000A2E008311A07A9F660911F0688E00F
:1008F00090E077C181E090912006911180E0809393
:10090000200680912C0690912D06892B81F480EF92
:100910000E94681C82E10E94681C1092AB0580EF67
:100920000E94681C84E10E94681C1092C605809198
:100930000302823009F010C2BFEFE0E7F2E0B150ED
:10094000E040F040E1F700C0000089E20E94681C2E
:100950002FEF80E792E0215080409040E1F700C007
:10096000000080EF0E94681C89E20E94681CAFEFC3
:10097000B0E7E2E0A150B040E040E1F700C0000085
:1009800089E40E94681CFFEF20E782E0F1502040DC
:100990008040E1F700C0000080EF0E94681C89E4FD
:1009A0000E94681C80912006882381F105E212E0F4
:1009B0009FEFA0E7B2E09150A040B040E1F700C047
:1009C0000000F801E1908F018E2D0E94681CFFEF5E
:1009D00020E782E0F15020408040E1F700C00000B5
:1009E00080EF0E94681C8E2D0E94681C9FEFA0E77C
:1009F000B2E09150A040B040E1F700C00000E2E05A
:100A000008321E07A9F608E112E02EC001E212E04A
:100A1000FFEF20E782E0F15020408040E1F700C086
:100A20000000D801ED908D018E2D0E94681CBFEF53
:100A3000E0E7F2E0B150E040F040E1F700C0000034
:100A400080EF0E94681C8E2D0E94681C2FEF80E7AB
:100A500092E0215080409040E1F700C00000A2E009
:100A600005321A07A9F6CFCFBFEFE0E7F2E0B150A9
:100A7000E040F040E1F700C00000D801ED908D01AA
:100A80008E2D0E94681CBFEFE0E7F2E0B150E0401D
:100A9000F040E1F700C0000080EF0E94681C8E2D3E
:100AA0000E94681C2FEF80E792E021508040904028
:100AB000E1F700C00000A2E001321A07A9F6609138
:100AC000200687E090E08DC081E090912206911190
:100AD00080E08093220680912C0690912D06892B30
:100AE00081F480EF0E94681C82E10E94681C1092D1
:100AF000AB0580EF0E94681C84E10E94681C109284
:100B0000C60580910302823009F026C1BFEFE0E7FD
:100B1000F2E0B150E040F040E1F700C0000089E2AF
:100B20000E94681C2FEF80E792E0215080409040A7
:100B3000E1F700C0000080EF0E94681C89E20E947B
:100B4000681CAFEFB0E7E2E0A150B040E040E1F751
:100B500000C0000089E40E94681CFFEF20E782E0EB
:100B6000F15020408040E1F700C0000080EF0E947B
:100B7000681C89E40E94681C809122068823A1F1E8
:100B800004E312E09FEFA0E7B2E09150A040B04034
:100B9000E1F700C00000F801E1908F018E2D0E9466
:100BA000681CFFEF20E782E0F15020408040E1F731
:100BB00000C0000080EF0E94681C8E2D0E94681CFF
:100BC0009FEFA0E7B2E09150A040B040E1F700C035
:100BD0000000E2E00F331E07A9F66091220689E0CB
:100BE00090E00E949F29B8C008E212E0FFEF20E7E2
:100BF00082E0F15020408040E1F700C00000D801C1
:100C0000ED908D018E2D0E94681CBFEFE0E7F2E0B1
:100C1000B150E040F040E1F700C0000080EF0E94DA
:100C2000681C8E2D0E94681C2FEF80E792E02150F7
:100C300080409040E1F700C00000A2E004331A07B2
:100C4000A9F6CBCFF0921806BFEFE4E3FCE0B15079
:100C5000E040F040E1F700C0000044C380912C0662
:100C600090912D068B30910519F00397029750F45F
:100C700010921E0681E090911D06911180E08093F4
:100C80001D066AC010921D0681E090911E0691110A
:100C900080E080931E0660C080912C0690912D0606
:100CA000892B09F01FC381E090912106911180E00A
:100CB0008093210660E080EF0E94781B60E082E173
:100CC0000E94781B1092AB0560E080EF0E94781BB9
:100CD00060E084E10E94781B1092C6053DC08091BF
:100CE0002C0690912D06049709F0FCC28AE00E9420
:100CF000681C2FEF80E792E0215080409040E1F7A0
:100D000000C0000089E00E94681CAFEFB0E7E2E09D
:100D1000A150B040E040E1F700C0000080EF0E9429
:100D2000681C89E00E94681CFFEF23ED80E3F1500E
:100D300020408040E1F700C0000080EF0E94681C66
:100D40008AE00E94681C9FEFA0E7B2E09150A040AB
:100D5000B040E1F700C00000F0921C06F0921706C8
:100D6000C1C280912C0690912D06059709F5812C22
:100D7000A12CC12CE12C00E020E047E061E084E000
:100D80000E946A1C82E10E94681CEFEFF3ED20E3F1
:100D9000E150F0402040E1F700C0000080EF0E94E9
:100DA000681C82E10E94681CF0921C06F0921706F3
:100DB00080912C0690912D06029709F093C28091A4
:100DC0000302813011F047E068C148E566C18091B7
:100DD0000302823009F086C280912C0690912D0684
:100DE000892BA1F460E080EF0E94781B60E082E133
:100DF0000E94781B1092AB0560E080EF0E94781B88
:100E000060E084E10E94781B1092C60589E20E948E
:100E1000681C8FE799EAA3E081509040A040E1F779
:100E200000C0000080EF0E94681C89E20E94681CDC
:100E300009E412E0C12CD12CB2E0CB16D10421F090
:100E4000E4E0CE16D104D9F4FFE729EA83E0F150BB
:100E500020408040E1F700C0000089E40E94681C47
:100E60009FE7A9EAB3E09150A040B040E1F700C08D
:100E7000000080EF0E94681C89E40E94681CEFE774
:100E8000F9EA23E0E150F0402040E1F700C0000023
:100E9000D801ED918D01F0E0E15CFD4FE0808E2DF9
:100EA0000E94681CBFE7E9EAF3E0B150E040F0407F
:100EB000E1F700C0000080EF0E94681C8E2D0E94A8
:100EC000681C2FE789EA93E0215080409040E1F7C9
:100ED00000C00000AFEFCA1ADA0AB8E0CB16D1049E
:100EE00009F0AACF39CF80912C0690912D06892B3D
:100EF000A1F460E080EF0E94781B60E082E10E9434
:100F0000781B1092AB0560E080EF0E94781B60E0D8
:100F100084E10E94781B1092C60560912C0685E042
:100F200090E00E949F296091210686E090E00E9457
:100F30009F2980910302823009F00ECFEFEFF0E796
:100F400022E0E150F0402040E1F700C0000089E2DB
:100F50000E94681C8FEF90E7A2E081509040A04073
:100F6000E1F700C0000080EF0E94681C89E20E9447
:100F7000681CBFEFE0E7F2E0B150E040F040E1F77D
:100F800000C0000089E40E94681C2FEF80E792E017
:100F9000215080409040E1F700C0000080EF0E94A7
:100FA000681C89E40E94681C01E512E0AFEFB0E71D
:100FB000E2E0A150B040E040E1F700C00000D801FD
:100FC000ED908D018E2D0E94681CBFEFE0E7F2E0EE
:100FD000B150E040F040E1F700C0000080EF0E9417
:100FE000681C8E2D0E94681C2FEF80E792E0215034
:100FF00080409040E1F700C00000A2E00B351A07E6
:10100000A9F6AACE80910302813011F046E601C014
:101010004EE0812CA12CCC24C394EE24E39400E078
:1010200020E064E087E043C080910302813011F04A
:1010300041E701C043E5812CA12CCC24C394EE24CC
:10104000E39400E021E063E087E00E946A1C809165
:101050002C0690912D06419709F044C1F0922B0681
:1010600010922706109228061092290610922A063E
:101070009092030237C180912C0690912D06823008
:10108000910520F00A97029708F02CC18091030285
:10109000813011F043E001C04FE3812CA12CCC241E
:1010A000C394EE24E39400E020E064E084E00E9436
:1010B0006A1C18C180912C0690912D06009771F042
:1010C0009C01245031092230310540F0245031096F
:1010D0002230310518F08D7F0C9799F4809103022E
:1010E000813011F04EE701C046E4812CA12CCC24C4
:1010F000C394EE24E39400E020E064E082E00E94E8
:101100006A1C80912C0690912D06029709F0EAC086
:101110000E94A122E7C080911806882309F4DAC052
:10112000F201EC0DFD1D808180FFD4C0F101EC0DBA
:10113000FD1D008110E0E0902C06A0902D0610927D
:101140002B062B9810921E0610921D0601151105F4
:1011500019F481ED92E005C00130110529F48CEC01
:1011600092E00E947F1D18C00230110529F487EC1F
:1011700092E00E947F1D18C00330110529F482EC13
:1011800092E00E947F1D18C00430110529F48BEBFA
:1011900092E00E947F1D20C00530110529F486EBE6
:1011A00092E00E947F1D20C00630110529F48FEACD
:1011B00092E00E947F1D20C00730110529F488EAC3
:1011C00092E00E947F1D20C00830110529F483EAB7
:1011D00092E00E947F1D20C00930110529F48DE99D
:1011E00092E00E947F1D20C00A30110529F488E991
:1011F00092E00E947F1D20C00B30110529F48FE87A
:1012000092E00E947F1D1EC00C30110529F48AE86F
:1012100092E00E947F1D1CC00D30110529F485E865
:1012200092E00E947F1D26C00E30110529F48EE742
:1012300092E00E947F1D2AC00F30110519F483E748
:1012400092E021C00031110519F488E692E01BC03C
:101250000131110579F4F0922B06109227061092B5
:1012600028061092290610922A06B092030282E6FE
:1012700092E009C00231110549F410922B06F09258
:10128000030285E994E00E947F1D14C0033111051B
:1012900089F4F0922B0610922706109228061092DD
:1012A000290610922A06B09203028BE592E00E9472
:1012B0007F1D2B9A043111051CF00E2D1A2D46CFDF
:1012C000F0921C06F09217061092180610932D0645
:1012D00000932C06BFEFCB1ADB0AE5E0CE16D10453
:1012E00009F0ECC8FFEF6F1A7F0A2DE0420E511C87
:1012F00085E0280E311C98E06916710409F0DCC8FD
:1013000081E080931C0680911C0681112EC580917E
:10131000AB0580FF2AC58091C60580FF26C5809158
:101320001706811124C58091870580FF10C081E0D8
:101330008093190680931C0680931A06AFEFB4E3DE
:10134000ECE0A150B040E040E1F700C00000809127
:10135000AC0580FF1CC080912C0690912D06892B36
:1013600021F480912106882391F0809169058111F3
:1013700001C081E08093690500E020E040E060E08A
:1013800081E00E94752061E085E00E9449298091FA
:10139000AE0580FF1CC080912C0690912D06892BF4
:1013A00021F480912106882391F0809168058111B4
:1013B00001C081E08093680500E020E040E061E04A
:1013C00080E00E94752063E085E00E9449298091B9
:1013D000840580FF1CC080912C0690912D06892BDE
:1013E00021F480912106882391F080916705811175
:1013F00001C081E08093670500E020E041E060E00B
:1014000080E00E94752060E082E00E94492980917E
:10141000AD0580FF1CC080912C0690912D06892B74
:1014200021F480912106882391F080916605811135
:1014300001C081E08093660501E020E040E060E0CB
:1014400080E00E94752062E085E00E944929809139
:10145000C70580FF1CC080912C0690912D06892B1A
:1014600021F480912106882391F0809165058111F6
:1014700001C081E08093650500E021E040E060E08C
:1014800080E00E94752062E087E00E9449298091F7
:101490006A0580FF20C080912C0690912D06892B33
:1014A00021F4809121068823B1F080906605A090F8
:1014B0006505C0906805E090690500916705809119
:1014C0000302813011F045E001C04BE320E060E011
:1014D00080E00E946A1C80916B0580FF20C0809193
:1014E0002C0690912D06892B21F4809121068823CA
:1014F000B1F080906605A0906505C0906805E09009
:1015000069050091670580910302813011F046E082
:1015100001C04CE320E061E080E00E946A1C809101
:101520006C0580FF20C080912C0690912D06892BA0
:1015300021F4809121068823B1F080906605A09067
:101540006505C0906805E090690500916705809188
:101550000302813011F044E001C04DE320E062E07D
:1015600080E00E946A1C80916D0580FF20C0809100
:101570002C0690912D06892B21F480912106882339
:10158000B1F080906605A0906505C0906805E09078
:1015900069050091670580910302813011F04CE0EC
:1015A00001C04EE320E063E080E00E946A1C80916D
:1015B0006E0580FF20C080912C0690912D06892B0E
:1015C00021F4809121068823B1F080906605A090D7
:1015D0006505C0906805E0906905009167058091F8
:1015E0000302813011F043E001C04FE320E064E0EA
:1015F00080E00E946A1C8091950580FF20C0809148
:101600002C0690912D06892B21F4809121068823A8
:10161000B1F080906605A0906505C0906805E090E7
:1016200069050091670580910302813011F04BE05C
:1016300001C040E420E064E083E00E946A1C8091E5
:10164000940580FF20C080912C0690912D06892B57
:1016500021F4809121068823B1F080906605A09046
:101660006505C0906805E090690500916705809167
:101670000302813011F043E801C041E420E063E05F
:1016800083E00E946A1C8091930580FF20C08091B6
:101690002C0690912D06892B21F480912106882318
:1016A000B1F080906605A0906505C0906805E09057
:1016B00069050091670580910302813011F04AE0CD
:1016C00001C042E420E062E083E00E946A1C809155
:1016D000920580FF20C080912C0690912D06892BC9
:1016E00021F4809121068823B1F080906605A090B6
:1016F0006505C0906805E0906905009167058091D7
:101700000302813011F041E001C043E420E061E0D8
:1017100083E00E946A1C8091910580FF20C0809127
:101720002C0690912D06892B21F480912106882387
:10173000B1F080906605A0906505C0906805E090C6
:1017400069050091670580910302813011F049E03D
:1017500001C044E420E060E083E00E946A1C8091C4
:10176000770580FF20C080912C0690912D06892B53
:1017700021F4809121068823B1F080906605A09025
:101780006505C0906805E090690500916705809146
:101790000302813011F048E701C047E520E060E036
:1017A00081E00E946A1C8091780580FF20C08091B2
:1017B0002C0690912D06892B21F4809121068823F7
:1017C000B1F080906605A0906505C0906805E09036
:1017D00069050091670580910302813011F047E0AF
:1017E00001C048E520E061E081E00E946A1C809130
:1017F000850580FF20C080912C0690912D06892BB5
:1018000021F4809121068823B1F080906605A09094
:101810006505C0906805E0906905009167058091B5
:101820000302813011F041E601C046E520E061E0AD
:1018300082E00E946A1C8091A00580FF20C08091F8
:101840002C0690912D06892B21F480912106882366
:10185000B1F080906605A0906505C0906805E090A5
:1018600069050091670580910302813011F047E717
:1018700001C045E420E062E084E00E946A1C80919F
:101880009F0580FF20C080912C0690912D06892B0A
:1018900021F4809121068823B1F080906605A09004
:1018A0006505C0906805E090690500916705809125
:1018B0000302813011F044E501C04AE120E061E01B
:1018C00084E00E946A1C80919E0580FF20C0809168
:1018D0002C0690912D06892B21F4809121068823D6
:1018E000B1F080906605A0906505C0906805E09015
:1018F00069050091670580910302813011F04BE585
:1019000001C04BE120E060E084E00E946A1C80910D
:10191000790580FF20C080912C0690912D06892B9F
:1019200021F4809121068823B1F080906605A09073
:101930006505C0906805E090690500916705809194
:101940000302813011F04CE701C047E320E062E080
:1019500081E00E946A1C80917A0580FF20C08091FE
:101960002C0690912D06892B21F480912106882345
:10197000B1F080906605A0906505C0906805E09084
:1019800069050091670580910302813011F04BE7F2
:1019900001C04AE420E063E081E00E946A1C80917B
:1019A000860580FF20C080912C0690912D06892B02
:1019B00021F4809121068823B1F080906605A090E3
:1019C0006505C0906805E090690500916705809104
:1019D0000302813011F049E701C04EE420E062E0EB
:1019E00082E00E946A1C80917B0580FF15C0809177
:1019F0002C0690912D06892B21F4809121068823B5
:101A000059F00E94A12201E021E041E061E081E083
:101A10000E94752010927B058091A20580FF20C056
:101A200080912C0690912D06892B21F4809121061E
:101A30008823B1F080906605A0906505C090680588
:101A4000E09069050091670580910302813011F0F3
:101A50004EE701C046E420E064E084E00E946A1C96
:101A60008091A10580FF3CC080912C0690912D06AD
:101A7000892B21F480912106882391F160E081EE89
:101A80000E94781B60E084E10E94781B60E087E799
:101A90000E94781B60E081EE0E94781B60E080EF7E
:101AA0000E94781B60E084E10E94781B60E080EF78
:101AB0000E94781B60E087E70E94781BFFEF21EE11
:101AC00084E0F15020408040E1F700C0000001E0D8
:101AD00021E041E061E081E00E9475201092A105C3
:101AE0008091880580FF20C080912C0690912D0662
:101AF000892B21F4809121068823B1F0809066051E
:101B0000A0906505C0906805E090690500916705A3
:101B100080910302813011F040E701C042E521E0ED
:101B200064E082E00E946A1C8091BC0580FF20C0B6
:101B300080912C0690912D06892B21F4809121060D
:101B40008823B1F080906605A0906505C090680577
:101B5000E09069050091670580910302813011F0E2
:101B60004CE601C047E421E064E086E00E946A1C84
:101B70008091BB0580FF20C080912C0690912D069E
:101B8000892B21F4809121068823B1F0809066058D
:101B9000A0906505C0906805E09069050091670513
:101BA00080910302813011F04DE701C049E421E04A
:101BB00063E086E00E946A1C8091AF0580FF20C030
:101BC00080912C0690912D06892B21F4809121067D
:101BD0008823B1F080906605A0906505C0906805E7
:101BE000E09069050091670580910302813011F052
:101BF00041E701C043E521E064E085E00E946A1C02
:101C00008091C90580FF20C080912C0690912D06FF
:101C1000892B21F4809121068823B1F080906605FC
:101C2000A0906505C0906805E09069050091670582
:101C300080910302813011F049E601C04FE421E0B8
:101C400064E087E00E946A1C8091C80580FF20C084
:101C500080912C0690912D06892B21F480912106EC
:101C60008823B1F080906605A0906505C090680556
:101C7000E09069050091670580910302813011F0C1
:101C80004AE701C041E521E063E087E00E946A1C69
:101C90008091BA0580FF20C080912C0690912D067E
:101CA000892B21F4809121068823B1F0809066056C
:101CB000A0906505C0906805E090690500916705F2
:101CC00080910302813011F04CE401C047E220E032
:101CD00062E086E00E946A1C8091B90580FF20C006
:101CE00080912C0690912D06892B21F4809121065C
:101CF0008823B1F080906605A0906505C0906805C6
:101D0000E09069050091670580910302813011F030
:101D100042E501C048E220E061E086E00E946A1CE2
:101D20008091B80580FF23C080912C0690912D06EC
:101D3000892B21F4809121068823C9F080906605C3
:101D4000A0906505C0906805E09069050091670561
:101D500080910302813011F04DE501C04BE220E09B
:101D600060E086E00E946A1C02C010921706809113
:101D70001C06811191C580911606882309F474C050
:101D8000909115068091AB05911164C0882361F094
:101D90008091940580FF08C065E085E00E941D23C6
:101DA00010929405109214068091AB05882361F07F
:101DB0008091950580FF08C067E085E00E941D23A3
:101DC00010929505109214068091AB05882361F05E
:101DD00080916E0580FF08C065E084E00E941D23AD
:101DE00010926E05109214068091AB058823C1F005
:101DF0008091930580FF14C080911406882339F0E8
:101E000010921406109216061092150607C068E08C
:101E100083E00E941D2381E08093140610929305B5
:101E20008091B80580FF08C065E083E00E941D2313
:101E30001092B805109214068091AB058823A1F08A
:101E400080916A0580FF10C010926A0581E080933E
:101E500015060AC0882341F080916A0580FF04C0FE
:101E600010926A051092150620912C0630912D06CD
:101E70008091AB05232B09F08DC090912106911123
:101E800089C080FF0FC081FD0DC082E10E94681CE7
:101E90008091AB0582608093AB05809164058F5F74
:101EA000809364058091C60580FF0FC081FD0DC041
:101EB00084E10E94681C8091C60582608093C605FB
:101EC000809164058F5F809364058091AB0582FFEC
:101ED0000DC080EF0E94681C82E10E94681C109275
:101EE000AB05809164058F5F809364058091C60582
:101EF00082FF0DC080EF0E94681C84E10E94681C74
:101F00001092C605809164058F5F8093640580916F
:101F10006405882331F09AE19A95F1F700C0109298
:101F20006405BAE6CB2EB5E0DB2E15ECE12E13E00E
:101F3000F12E00E010E05601A00EB11ED5018C91EB
:101F400080FF08C081FD06C0F701E00FF11F80810E
:101F50000E94681CF501808182FF0BC080EF0E9407
:101F6000681CF701E00FF11F80810E94681CD501F9
:101F70001C920F5F1F4F05301105E9F6BDE0CB0E37
:101F8000D11CEBE0EE0EF11CF2EDCF16F5E0DF0612
:101F900081F682C490911306911137C09091630528
:101FA000911133C03091620531112FC080FF06C0FE
:101FB00081FD04C04AE655E020E007C08091C605D7
:101FC00080FF2AC081FFF6CF27C080E090E0253057
:101FD00019F4009731F40BC0273019F481309105C2
:101FE00031F0FA01E80FF91F608160FD05C001962C
:101FF0008530910561F701C031E02F5F435F5F4F8E
:10200000283019F73093130607C080FD05C0809172
:10201000C60580FF1092130685E793E099878887AD
:10202000ADE48A2EA3E09A2EADEFB2E0BD83AC837F
:10203000E5EDF2E0FF83EE838AE695E09D878C87ED
:10204000A5ECB3E0BF87AE87E5E2F3E0FB87EA8764
:1020500010E000E02A843B844E845F84CC84DD84DD
:10206000612C712C053021F46114710441F4CFC34B
:10207000073029F4F1E06F16710409F4C8C3D601E2
:102080008C9180FFA7C181FDA5C19091130691118C
:102090000EC09091AB0590FF02C088608C93809138
:1020A000C60580FF04C0F601808180618083D6016F
:1020B0008C9183FF5EC084FD5CC0809103028230FE
:1020C00019F4E885F98501C0F401E60DF71D90814A
:1020D00010922506109224061092230691111CC01E
:1020E000823029F482E10E94681C82E104C08AE205
:1020F0000E94681C8AE2809323068091030282304A
:1021000019F4F201F08002C0D101FC908F2D0E94E1
:10211000681CF09226062DC0823081F49B3631F087
:102120008CE8890F823010F0923741F480EE998B61
:102130000E94681C80EE8093230699898091030297
:10214000813081F49B3431F09D3421F0983411F0CA
:10215000903541F480EE998B0E94681C80EE80934C
:1021600023069989892F998B0E94681C99899093DD
:102170002606F601808184FFB8C083FDB6C0E090DA
:102180002C06F0902D061982109225061092240636
:102190001092230680910302813019F4D1018C91B1
:1021A00002C0F20180818A83E114F10409F48EC037
:1021B000A701BE016F5F7F4FCE01029686D38A8151
:1021C000882309F492C0F1E1EF16F104D1F4809173
:1021D00003028130B1F4EC81FD81E60DF71D8081B1
:1021E0008A83EE81FF81E60DF71D8081982F917023
:1021F000282F28702B838074F12CA12CE12CB12C7A
:1022000016C08981982F917081FBBB24B0F882FBA6
:10221000AA24A0F883FB222720F92B8384FBEE2439
:10222000E0F885FBFF24F0F886FB882780F92A81F7
:10223000222309F45AC0811158C0992379F0809162
:102240000302823029F482E10E94681C82E104C00A
:102250008AE20E94681C8AE280932306BB2051F028
:1022600080910302823091F484E10E94681C84E131
:1022700080932306AA2051F080910302823031F42A
:1022800081E10E94681C81E1809323069B81992350
:1022900069F060E080EE0E94781B8091030282303A
:1022A00011F481E101C088E30E94681CEE2009F46A
:1022B000E5C280910302823009F0E0C260E080EE66
:1022C0000E94781B84E10E94681CD8C2D2018C91C4
:1022D0008A8384E10E94681C84E1809323068A81BA
:1022E0000E94681C8A8180932606F601808188718D
:1022F00009F06CC090911E0680910302911105C0F7
:1023000020911D06222309F44EC01092250610923A
:102310002406109223068230E9F4D2011C91143471
:1023200079F01D3479F0153179F01C3179F01B36D4
:1023300071F0143761F0153751F0123751F507C0BD
:102340001BE605C014E703C015E701C012E7992397
:1023500001F11CC08130E9F4F1011081183179F0EC
:10236000193179F0103179F01E3179F01B3471F0A8
:102370001D3461F0183451F0103559F407C01BE4D6
:1023800005C01DE403C018E401C010E580EE809391
:1023900023061093260680912306882399F080EE69
:1023A0000E94681C0FC010922506109224068230ED
:1023B00019F4D2018C9102C0F1018081809326062C
:1023C00010922306809126060E94681CD6018C91EB
:1023D00082608C93F601808182FF19C283FF55C011
:1023E00084FD53C080910302823019F4E885F98599
:1023F00001C0F401E60DF71D90811092260691119F
:1024000015C0823061F480EF0E94681CD2018C916B
:102410000E94681C80EF0E94681C82E134C0F101B8
:10242000808180580E94681C8AEA2DC0823069F43D
:102430009B3631F08CE8890F823010F0923729F406
:1024400080EE998B0E94681C9989809103028130EB
:1024500069F49B3431F09D3421F0983411F09035BB
:1024600029F480EE998B0E94681C9989809103025F
:10247000823039F480EF998B0E94681C9989892FEA
:1024800002C080E8890F0E94681CD6018C9184FFED
:1024900048C183FD46C1E0902C06F0902D061982BC
:1024A00010922606F20180818A83E114F10409F476
:1024B0002CC1A701BE016F5F7F4FCE01029605D2EE
:1024C0008A81882309F42DC1F1E1EF16F104D9F4D2
:1024D000809103028130B9F4EC81FD81E60DF71D96
:1024E00080818A83EE81FF81E60DF71D8081282F90
:1024F00021702B83982F9870E92E807430E0B12CD6
:10250000F12CA12C16C08981282F21702B8381FBEF
:10251000AA24A0F882FBBB24B0F883FBEE24E0F8E9
:1025200084FBFF24F0F885FB332730F986FB8827EE
:1025300080F92A81222309F4F4C0909103028111C9
:1025400053C0923059F4332321F060E080EE0E94B2
:10255000781B80EF0E94681C8A8102C080E8820F8D
:102560000E94681C9B81992361F080910302823054
:1025700029F480EF0E94681C82E101C08AEA0E946F
:10258000681CAA2051F080910302823091F480EF00
:102590000E94681C84E10E94681CBB2051F080915D
:1025A0000302823031F480EF0E94681C81E10E94B6
:1025B000681CEE2079F080EE0E94681C8091030276
:1025C000823029F480EF0E94681C81E101C088EB11
:1025D0000E94681CFF2009F4A4C08091030282308D
:1025E00009F09FC080EE95C02E3741F4923009F477
:1025F0004CC1EDE4BE2EF0E5EF2E11C02C3939F4BC
:10260000923049F464E7B62E73E7E72E42C1B12C4D
:10261000E12CF12C06C04DE4B42E5CE4E52E3FE441
:10262000F32E913089F58E2D90E08F0D911D8B0D3D
:10263000911D892B49F160E088E30E94781BFF20FF
:1026400049F060E08F2D0E94781B60E080E88F0DDC
:102650000E94781BEE2049F060E08E2D0E94781BCE
:1026600060E080E88E0D0E94781BBB2049F060E09E
:102670008B2D0E94781B60E080E88B0D0E94781BF8
:1026800060E088EB0E94781B80910302823009F0A1
:1026900048C08E2D90E08F0D911D8B0D911D892BC3
:1026A00009F43FC060E081E10E94781BFF2061F0E7
:1026B00060E08F2D0E94781B60E080EF0E94781B05
:1026C00060E08F2D0E94781BEE2061F060E08E2D7F
:1026D0000E94781B60E080EF0E94781B60E08E2DE6
:1026E0000E94781BBB2051F060E08B2D0E94781B6C
:1026F00060E080EFFDD760E08B2DFAD760E080EFDF
:10270000F7D760E081E1F4D70CC080EF0E94681C2D
:102710008A810E94681C80EF0E94681C84E10E94EC
:10272000681CD6018C91887109F06FC090911E06CB
:1027300080910302911105C0F0901D06FF2009F45D
:102740004FC010922606823029F5F2011081143410
:1027500079F01D3479F0153179F01C3179F01B36A0
:1027600071F0143761F0153751F0123769F407C072
:102770001BE605C014E703C015E701C012E7992363
:1027800019F080EE0E94681C80EF0E94681C812F67
:102790000E94681C809103028130B9F5D1011C911F
:1027A000183179F0193179F0103179F01E3179F062
:1027B0001B3471F01D3461F0183451F0103559F4A8
:1027C00007C01BE405C01DE403C018E401C010E508
:1027D00080EE0E94681C80E8810F0E94681C15C072
:1027E000823039F480EF0E94681CF201E0808E2D67
:1027F00004C0D101EC9080E88E0D0E94681C80918D
:1028000026068E11F82EF0922606F6011082FFEFB2
:102810006F1A7F0A2FEFC21AD20A8FEF481A580A8E
:102820009FEF291A390AA5E06A16710409F01ACC3B
:102830000F5FE885F9853596F987E887F5E08F0E13
:10284000911C8C819D8105969D838C83AE81BF8177
:102850001596BF83AE83EC85FD853D96FD87EC879D
:102860008E859F850B969F878E87AA85BB8515963B
:10287000BB87AA87083009F0EDCB0EC0FF2009F412
:102880002ECD60E080EE34D72ACD94E7B92E22E732
:10289000E22E89E6F82EF8CE61960FB6F894DEBFE8
:1028A0000FBECDBFDF91CF911F910F91FF90EF90A1
:1028B000DF90CF90BF90AF909F908F907F906F9060
:1028C0005F904F903F902F900895CF93DF93DC015E
:1028D000EB014131510529F480910302813009F463
:1028E000F0C69C91992309F4ECC6FA013197E131C5
:1028F000F10508F0E5C68827EE58FF4F8F4F0C947E
:10290000AD299C3199F0892F8F7E833289F09434E0
:1029100079F09A3269F0892F8B7F8A3149F08133BF
:1029200039F09A5381E0933020F402C082E001C074
:1029300080E088839C919E3109F445C09C3209F463
:1029400056C09D3209F451C0943309F440C09B3203
:10295000E1F19332B1F19B31B1F19C31D1F1953379
:10296000A1F19C33A1F19434D1F19D3491F19A32CB
:1029700091F1913281F1923281F19A31A1F1933347
:1029800061F19B3371F1923451F19B3451F19233E7
:1029900051F1913351F19A3351F1963209F48EC6C7
:1029A000963309F48BC69D3309F488C69E3309F427
:1029B00085C6963409F482C6953409F47FC690E042
:1029C0007DC691E67BC694E579C69BE577C69DE515
:1029D00075C69EE173C69AE471C695E56FC692E529
:1029E0006DC69EE46BC69CE469C691E467C699E433
:1029F00065C69D3109F43FC09432D9F19334D9F1C1
:102A00009631C9F19E3199F1963289F1953299F159
:102A1000892F877F863379F12BEB290F223058F1EC
:102A2000292F2D7F2C3239F1953309F19C33F9F0A0
:102A3000943409F19D34F9F09C31C9F09B31A9F02F
:102A40008332A9F0943399F09333A9F09B3499F031
:102A50009A3189F0923269F0913269F081E09A32CC
:102A600059F0923349F080E007C085E005C088E066
:102A700003C089E001C081E088839C91892F877F12
:102A8000853109F45BC0943209F456C0933409F4DB
:102A90004DC0963109F412C69E3109F40FC6963224
:102AA00009F40CC6953209F409C69E3209F406C62B
:102AB000963309F403C69D3309F450C09E3309F4DC
:102AC000FDC5963409F4FAC5953409F43FC084ED88
:102AD000890F823068F19533B9F19C3309F442C013
:102AE000943409F441C09D3429F19C31A9F19B3102
:102AF00019F1933219F19B3219F1943319F193338F
:102B000019F19B3319F1923469F19B3409F19A312F
:102B100009F1923209F1913209F19A3209F19233B5
:102B200009F1913309F19A3309F514C095E5C6C549
:102B300091E6C4C59EE1C2C596E1C0C59EE0BEC592
:102B400092E5BCC59DE5BAC594E5B8C59AE4B6C59D
:102B500095E4B4C599E4B2C595E2B0C59EE4AEC5AE
:102B60009DE3ACC59BE5AAC591E4A8C590E0A6C5C8
:102B70009534A9F09434A9F09A3299F0892F8B7F7B
:102B80008A3179F0923469F09B3459F08FEC890FD7
:102B9000833038F09A5381E0923020F402C084E010
:102BA00001C080E088838C918534B9F18E31A9F120
:102BB0008D3209F448C08C3209F443C08B31C9F11D
:102BC000853399F18C3359F1843449F18D3449F1CD
:102BD0008A3249F1813239F18A3139F1833339F15D
:102BE0008B3339F1823439F18B3439F1823339F155
:102BF0008A3339F1813339F1863209F4E1C28633FF
:102C000009F4DEC28D3309F4DBC28E3309F4D8C275
:102C1000863409F4D5C280E0D3C284E5D1C282E50E
:102C2000CFC28EE1CDC28AE4CBC28CE4C9C28DE5AD
:102C3000C7C28EE4C5C289E0C3C285E5C1C28BE5C7
:102C4000BFC289E4BDC281E4BBC284ED890F82307A
:102C5000A0F0892F877F853181F0943471F09A320A
:102C600061F0923451F09B3441F08FEC890F823047
:102C700020F09A5381E0923008F480E088839C91A0
:102C80009E33F1F19634F1F1953409F44DC09E3143
:102C9000D9F19C32D9F19D32D9F19D31D9F19531DB
:102CA000D9F1933209F442C09B3109F441C0953304
:102CB00009F442C09C3309F441C0943499F19D3425
:102CC00069F19A3269F1913259F19A3159F193339C
:102CD00089F19B3349F1923449F19B3449F19233A4
:102CE00049F1913349F19A3349F1963209F4E6C436
:102CF000963309F4E3C49D3309F4E0C490E0DEC4E4
:102D000096E4DCC495E4DAC49EE3D8C495E5D6C461
:102D10009EE4D4C497E0D2C498E7D0C49EE1CEC468
:102D20009AE4CCC49CE4CAC494E5C8C492E5C6C481
:102D30009BE5C4C49DE5C2C491E4C0C499E4BEC48B
:102D4000943459F09B3449F0892F8F7D8A3129F0D2
:102D50009A3219F081E0913309F480E088838C91F4
:102D6000843489F18B3469F18A3189F18A3269F1CD
:102D7000813319F18A33F9F08C32E9F08D32E9F0C0
:102D80008D34E9F08B33E9F08234E9F08132E9F0F7
:102D90008233E9F0863209F413C2863309F410C293
:102DA0008E3309F40DC2863409F40AC2853409F45D
:102DB00007C280E005C289E403C281E401C28EE15A
:102DC000FFC185E5FDC18CE4FBC18AE4F9C184E55E
:102DD000F7C1943461F09B3451F09A3241F0892F5D
:102DE0008B7F813321F09A5381E0943008F480E0A6
:102DF00088839C919633B1F19E33B1F19634B1F151
:102E00009D33B1F19534E1F19D3209F443C09C3218
:102E100009F442C0953371F19C3371F19434A1F1FE
:102E20009D3431F19B3231F1943331F1933331F1EF
:102E30009B3331F1923431F19B3421F19A3121F1FC
:102E4000913221F19A3211F1923311F1913311F152
:102E50009A3311F19E3109F431C4963209F42EC42B
:102E600090E02CC49DE32AC496E428C495E426C4CB
:102E700092E524C494E522C49BE520C496E31EC4D5
:102E80009EE41CC495E51AC49CE418C49AE416C4D4
:102E90009EE314C491E412C499E410C4892F8F7E78
:102EA000833281F08CEB890F823060F0892F8B7F29
:102EB0008A3141F09A3231F0813321F09A5381E026
:102EC000933008F480E088838C918332A9F18333B6
:102ED000A9F18E31A9F18534A9F18533A9F18C339B
:102EE000A9F18434E9F18B34C9F18A31E9F18A32EC
:102EF000C9F1813379F18A3359F18C3249F18D323C
:102F000049F18D3449F18B3349F1823449F18132F1
:102F100049F1823349F1863209F452C1863309F40A
:102F20004FC18D3309F44CC18E3309F449C1863445
:102F300009F446C180E044C186E042C18CE040C152
:102F40008DE53EC185E03CC184E53AC18BE538C1E1
:102F500089E436C181E434C18EE132C185E530C1F6
:102F60008CE42EC18AE42CC18EE42AC184EE890F40
:102F7000833070F0943461F09A3251F09A3141F01C
:102F8000892F8D7F813321F09A5381E0923008F4AC
:102F900080E088838C918E31E1F18C3209F44FC04E
:102FA0008D3209F44AC0982F977F9531A1F18B316A
:102FB000A1F18C31F1F18434D1F18D3481F18A3277
:102FC00081F1813271F1823281F18A31A1F1833351
:102FD00051F18B3351F1823451F18B3451F1823301
:102FE00051F1813351F18A3351F1863209F4E8C04D
:102FF000863309F4E5C08D3309F4E2C08E3309F459
:10300000DFC0863409F4DCC0853409F4D9C080E01F
:10301000D7C08EE0D5C087E0D3C081E6D1C08EE1B5
:10302000CFC08AE4CDC085E5CBC08DE5C9C08CE4B6
:10303000C7C08EE4C5C082E5C3C081E4C1C089E4D5
:10304000BFC0933261F0943451F09A3241F09A311A
:1030500031F0913321F09A5381E0933008F480E00D
:1030600088838C918E31C1F18C3209F449C08D3244
:1030700009F444C0833291F18533C1F18C3381F17D
:103080008434B1F18D3471F18A3271F1813261F1A0
:10309000823261F18A3181F18B3361F1823441F105
:1030A0008B3441F1823341F1813341F18A3341F173
:1030B000863209F485C0863309F482C08D3309F461
:1030C0007FC08E3309F47CC0863409F479C085341E
:1030D00009F476C080E074C085E472C08DE570C0EC
:1030E0008BE56EC08EE16CC08AE46AC084E568C07E
:1030F0008CE466C08EE464C082E562C081E460C096
:1031000089E45EC0943461F09A3251F09B3441F00E
:10311000892F8B7F813321F09A5381E0943008F41A
:1031200080E088838C918C3209F449C08D3209F497
:1031300044C0863351F18D3391F18E3341F18634A1
:1031400041F18534A1F1853331F18C3331F184348F
:1031500051F18D3421F18A3221F1813211F18A311C
:1031600011F1833311F18B3311F1823411F18B346E
:1031700001F1823301F1813301F18A3301F18632A9
:10318000F9F08E31E9F080E01BC08DE319C086E4D0
:1031900017C085E415C084E513C08BE511C082E536
:1031A0000FC08AE40DC08CE40BC086E309C08EE436
:1031B00007C085E505C08EE303C081E401C089E452
:1031C0008C937FC29333C9F09232B9F09534B9F041
:1031D0009434B9F09A32A9F0892F8B7F8A3189F023
:1031E000923479F09B3469F08FEC890F823048F08B
:1031F0009A5381E0923030F404C080E203C082E050
:1032000001C080E088839C919333D9F19232D9F147
:103210009332D9F19534D9F19E31C9F19D3209F437
:103220004AC09C3209F445C09B31D9F19533B9F1BC
:103230009C3379F1943469F19D3469F19A3269F1E2
:10324000913259F19A3159F19B3359F1923459F134
:103250009B3459F1923359F19A3359F1913359F121
:10326000963209F42BC2963309F428C29D3309F42F
:1032700025C29E3309F422C2963409F41FC290E09D
:103280001DC291E71BC290E719C29AE317C294E5E9
:1032900015C292E513C29EE111C29AE40FC29CE4EA
:1032A0000DC295E50BC29EE409C29DE507C29BE5F0
:1032B00005C299E403C291E401C2933271F09434DF
:1032C00061F09A3251F09B3441F0892F8B7F81332A
:1032D00021F09A5381E0943008F480E088839C9137
:1032E0009C3209F455C09D3209F450C09433F1F179
:1032F0009B32D1F1933281F19B3171F1963371F1AF
:103300009D33B1F19E3361F1963461F1953361F1F2
:103310009C3361F1943481F19D3451F19A3251F131
:10332000913241F1923261F19A3131F1933331F1BD
:103330009B3331F1923431F19B3421F1923321F1FD
:10334000913321F19A3321F1963209F4B7C19E31BC
:1033500009F4B4C190E0B2C19DE5B0C19DE3AEC136
:1033600096E4ACC195E4AAC194E5A8C19BE5A6C1C9
:1033700092E5A4C19AE4A2C19CE4A0C196E39EC1D7
:103380009EE49CC195E59AC19EE398C191E496C1E3
:1033900099E494C1892F8F7E8D3281F0943371F03E
:1033A0009B3261F09C3151F0923241F0923431F015
:1033B000913321F09A5381E0923008F480E08883C1
:1033C0009C919E31C1F184ED890F823090F194334C
:1033D00091F19B3291F19C3191F19D33B1F1953492
:1033E000C1F19434E1F19D3461F19A3261F191328D
:1033F00061F1923261F19A31A1F1933341F19B3342
:1034000041F1923451F19B3431F1923331F19133E6
:1034100031F19A3331F1963209F450C1963309F4FF
:103420004DC19E3309F44AC1963409F447C190E076
:1034300045C191E643C19DE541C192E53FC19CE490
:103440003DC19EE13BC19DE339C19EE437C194E596
:1034500035C19AE433C195E431C19BE52FC191E4B4
:103460002DC199E42BC19C33E9F09B31D9F09C31FB
:10347000D9F09433C9F09531C9F09E31A9F0892F64
:103480008F7E8D3299F08EED890F823078F09234F4
:1034900069F0892F8D7F813349F09A5381E0923012
:1034A00030F404C084E003C080E101C080E0888380
:1034B0009C919C3309F463C09B3109F44AC0953157
:1034C00009F449C084ED890F823008F446C09B326C
:1034D00009F44DC0933209F442C09D3309F445C04C
:1034E000953409F448C0953309F443C0943409F481
:1034F00048C09D34B1F19A32B1F19132B1F19232BA
:10350000B1F19A3109F43FC0933399F19B3399F1AA
:103510009234A9F19B3489F1923389F1913389F185
:103520009A3389F1963209F4C9C09E3109F4C6C0B4
:10353000963309F4C3C09E3309F4C0C0963409F42D
:10354000BDC0943309F4BAC09C3109F4B7C090E00F
:10355000B5C096E1B3C09DE5B1C091E6AFC09EE0B5
:10356000ADC09EE1ABC09DE3A9C09EE4A7C092E5BB
:10357000A5C094E5A3C09AE4A1C095E49FC09BE5D3
:103580009DC091E49BC099E499C09C3121F1923295
:1035900011F19E3111F1963201F1953101F1943220
:1035A000F1F09D32E1F09B31C1F0892F877F8332AA
:1035B000A1F0943391F09D3391F09C3371F09533E9
:1035C00061F0923461F086EC890F823040F081E046
:1035D000913331F404C080E403C088E001C080E08E
:1035E00088839C919C3109F448C0923209F447C009
:1035F000892F877F853109F448C0943209F44DC082
:1036000084ED890F8230E8F19B31E9F19332E9F1E1
:103610009B32E9F19433E9F1953409F446C09D33C6
:10362000F1F19D34C1F1943409F445C09334A9F10A
:103630009C3309F442C09533D1F19A31D1F19132E2
:1036400071F19A3271F19B3471F19234B1F19B3383
:1036500061F1933361F19A3361F1913361F1923306
:1036600061F19E3159F1963249F1963339F19E3329
:1036700029F1963419F190E021C09EE71FC09CE922
:103680001DC091E61BC096E119C09EE017C092E5EF
:1036900015C09DE513C09EE111C095E50FC09EE4E5
:1036A0000DC09DE30BC095E409C09AE407C094E502
:1036B00005C099E403C091E401C09BE59C9301C05F
:1036C0001C92DF91CF910895882331F095E19A956E
:1036D000F1F700008450F8CF08957A9B07C08FB1AE
:1036E00083FB882780F991E08927089581E0089578
:1036F000CF92DF92EF92FF920F931F93CF93DF93BE
:10370000C82FF62EEADF8111FDCF839A8091020245
:10371000880F880FD9DF829A80910202880F880F64
:10372000880FD2DF82E07ED780910202880F880F57
:10373000CBDF00E010E0D1E0CC2ED12CEE24E394DE
:10374000C601002E02C0959587950A94E2F780FF86
:1037500004C083E067D7DE2501C0839A809102020E
:10376000880F880FB1DF829A80910202880F880F3C
:10377000880FAADF82E056D780910202880F880F57
:10378000A3DF0F5F1F4F08301105D1F6DD2319F0BD
:1037900083E048D701C0839A80910202880F880F86
:1037A00093DF829A80910202880F880F880F8CDF46
:1037B00082E038D780910202880F880F85DF83E08E
:1037C00031D780910202880F880F7EDF829A809124
:1037D0000202880F880F880F77DF82E023D780915D
:1037E0000202880F880F70DF87EC90E00197F1F7F5
:1037F00000C00000FF2009F462C090910302809194
:1038000069059230B1F5882319F0C43109F457C025
:1038100080916805882319F0C13109F450C0809166
:103820006705882319F0C23109F449C08091650504
:10383000882319F0C13109F442C0809166058823BC
:1038400011F0CF31E1F180914C06882359F0C03F4F
:1038500049F001E021E041E061E081E046D41092CE
:103860004C062DC081E0C03F09F080E080934C06FB
:1038700026C0882311F0CD3911F180916805882385
:1038800011F0C83BE1F080916705882311F0CA3A36
:10389000B1F080916505882311F0C83B81F08091DB
:1038A0006605882311F0CB3D51F0C03E41F0C13890
:1038B00030F001E021E041E061E081E016D4DF91E9
:1038C000CF911F910F91FF90EF90DF90CF900895CF
:1038D00061E00ECF4F925F926F927F928F92AF9284
:1038E000CF92EF92FF920F931F93CF93DF93CDB7B9
:1038F000DEB7F82E662E142F722E80916405882371
:1039000031F02AE12A95F1F700C0109264050023F6
:1039100069F080910302823011F482E101C08AE2F1
:10392000D7DF809164058F5F80936405EE2069F096
:1039300080910302823011F484E101C08DE1C8DF7F
:10394000809164058F5F80936405CC2069F080913D
:103950000302823011F481E101C088E3B9DF809174
:1039600064058F5F80936405AA2089F0809103022B
:10397000823021F480EEACDF81E103C080EEA8DF6D
:1039800088E3A6DF809164058F5F809364058820BB
:10399000B9F080910302823051F480EE99DF8FE11B
:1039A00097DF809164058F5F8093640509C080EE86
:1039B0008FDF8BE58DDF909164059F5F90936405A9
:1039C00080916405882331F08AE18A95F1F700C07F
:1039D00010926405772011F080EE7ADF812F78DF76
:1039E0009FEF21EE84E0915020408040E1F700C03D
:1039F0000000772011F080EE6BDF809103028230AF
:103A000011F480EF65DF80910302823011F4812F81
:103A100002C080E8810F5CDF712C4F2C512CF30128
:103A20009DE0F99EE00DF11D1124E659FA4F108238
:103A3000002351F080910302823021F480EF48DFAF
:103A400082E101C08AEA44DFEE2051F08091030256
:103A5000823021F480EF3CDF84E101C08DE938DF62
:103A6000CC2051F080910302823021F480EF30DFCE
:103A700081E101C088EB2CDFAA2071F08091030264
:103A8000823031F480EE24DF80EF22DF81E103C059
:103A900080EE1EDF88EB1CDF882071F0809103022E
:103AA000823031F480EE14DF80EF12DF81E103C059
:103AB00080EE0EDF88EB0CDF2AE12A95F1F700C0DB
:103AC00001E021E041E061E081E00FD38DE0849DE1
:103AD000F001859DF00D1124E60DF71DE659FA4F12
:103AE0001082DF91CF911F910F91FF90EF90CF90B7
:103AF000AF908F907F906F905F904F900895EF926E
:103B0000FF920F931F93CF93DF93EC0180912C06CC
:103B100090912D06892B81F460E080EFE9DD60E073
:103B200082E1E6DD1092AB0560E080EFE1DD60E070
:103B300084E1DEDD1092C6052FEF81EE94E0215086
:103B400080409040E1F700C0000089E2C1DEEFEF65
:103B5000F1EE24E0E150F0402040E1F700C0000029
:103B600080EFB6DE89E2B4DE8FEF91EEE4E08150C3
:103B70009040E040E1F700C0000089E4A9DEFFEFDB
:103B800021EE84E0F15020408040E1F700C00000C9
:103B900080EF9EDE89E49CDE8E010F5F1F4F9881CF
:103BA000292F30E0C8018C1B9D0B2817390734F1F1
:103BB0009FEFE1EEF4E09150E040F040E1F700C00B
:103BC00000007801F80181918F0182DEFFEF21EE84
:103BD00084E0F15020408040E1F700C0000080EF19
:103BE00077DEF701808174DEFFEF21EE84E0F15093
:103BF00020408040E1F700C00000D1CFFE01E20F7D
:103C0000F31F818180930202DF91CF911F910F9169
:103C1000FF90EF900895FF920F931F93CF93DF9340
:103C20001F92CDB7DEB7F82E8B0185E4F81629F187
:103C30008F1528F08FEF8F0D8A3020F41EC089E495
:103C4000F816D9F0FF2051F1012B49F0413009F568
:103C5000EF2DF0E0EB5FFA4F8081805807C04130D4
:103C600089F4EF2DF0E0EB5FFA4F80810F90DF9148
:103C7000CF911F910F91FF902BCE80EE498328DECC
:103C80004981E2CF423051F4EF2DF0E0E755FB4F90
:103C9000ECCF423019F480EF1BDEF6CF0F90DF91AE
:103CA000CF911F910F91FF9008950F931F93982F1D
:103CB000062F10E0F8013197EC30F10508F0EBC069
:103CC0008827ED57FF4F8F4F0C94AD2941110DC040
:103CD00042B121E030E0B90102C0660F771F9A952A
:103CE000E2F7CB01809584230BC042B121E030E0A4
:103CF000B90102C0660F771F9A95E2F7CB01842BBA
:103D000082B9C9C041110DC045B121E030E0B9010F
:103D100002C0660F771F9A95E2F7CB018095842346
:103D20000BC045B121E030E0B90102C0660F771F3A
:103D30009A95E2F7CB01842B85B9ADC041110DC036
:103D400048B121E030E0B90102C0660F771F9A95B3
:103D5000E2F7CB01809584230BC048B121E030E02D
:103D6000B90102C0660F771F9A95E2F7CB01842B49
:103D700088B991C041110DC04BB121E030E0B901CB
:103D800002C0660F771F9A95E2F7CB0180958423D6
:103D90000BC04BB121E030E0B90102C0660F771FC4
:103DA0009A95E2F7CB01842B8BB975C041110DC0F8
:103DB0004EB121E030E0B90102C0660F771F9A953D
:103DC000E2F7CB01809584230BC04EB121E030E0B7
:103DD000B90102C0660F771F9A95E2F7CB01842BD9
:103DE0008EB959C041110DC044B321E030E0B90192
:103DF00002C0660F771F9A95E2F7CB018095842366
:103E00000BC044B321E030E0B90102C0660F771F58
:103E10009A95E2F7CB01842B84BB3DC041110EC0C3
:103E20004091020121E030E0B90102C0660F771F26
:103E30009A95E2F7CB01809584230CC04091020152
:103E400021E030E0B90102C0660F771F9A95E2F7D2
:103E5000CB01842B809302011EC041110EC0409102
:103E60000B0121E030E0B90102C0660F771F9A957F
:103E7000E2F7CB01809584230CC040910B0121E037
:103E800030E0B90102C0660F771F9A95E2F7CB01C7
:103E9000842B80930B011F910F910895282F862F5B
:103EA00090E0FC013197EC30F10520F58827E157CF
:103EB000FF4F8F4F0C94AD2990B10FC093B10DC03F
:103EC00096B10BC099B109C09CB107C092B305C0AF
:103ED0009091000102C090910901892F90E002C0E9
:103EE000959587952A95E2F78170992721E0822799
:103EF0008170089580E008950F931F93982F062FE7
:103F000010E0F8013197EC30F10508F0EBC088279C
:103F1000E556FF4F8F4F0C94AD29442369F041B112
:103F200021E030E0B90102C0660F771F9A95E2F7F1
:103F3000CB01809584230BC041B121E030E0B90171
:103F400002C0660F771F9A95E2F7CB01842B81B9E7
:103F5000C9C0442369F044B121E030E0B90102C096
:103F6000660F771F9A95E2F7CB01809584230BC0EB
:103F700044B121E030E0B90102C0660F771F9A9585
:103F8000E2F7CB01842B84B9ADC0442369F047B17B
:103F900021E030E0B90102C0660F771F9A95E2F781
:103FA000CB01809584230BC047B121E030E0B901FB
:103FB00002C0660F771F9A95E2F7CB01842B87B971
:103FC00091C0442369F04AB121E030E0B90102C058
:103FD000660F771F9A95E2F7CB01809584230BC07B
:103FE0004AB121E030E0B90102C0660F771F9A950F
:103FF000E2F7CB01842B8AB975C0442369F04DB137
:1040000021E030E0B90102C0660F771F9A95E2F710
:10401000CB01809584230BC04DB121E030E0B90184
:1040200002C0660F771F9A95E2F7CB01842B8DB9FA
:1040300059C0442369F043B321E030E0B90102C024
:10404000660F771F9A95E2F7CB01809584230BC00A
:1040500043B321E030E0B90102C0660F771F9A95A3
:10406000E2F7CB01842B83BB3DC0442371F0409128
:10407000010121E030E0B90102C0660F771F9A9577
:10408000E2F7CB01809584230CC04091010121E02F
:1040900030E0B90102C0660F771F9A95E2F7CB01B5
:1040A000842B809301011EC0442371F040910A01CA
:1040B00021E030E0B90102C0660F771F9A95E2F760
:1040C000CB01809584230CC040910A0121E030E0AF
:1040D000B90102C0660F771F9A95E2F7CB01842BD6
:1040E00080930A011F910F9108950F931F93CF930F
:1040F000DF93162FD42FC22F882359F180916905A1
:10410000813019F0823071F024C08091030260E0A8
:10411000823011F484E101C08DE1EADA82E080931B
:10412000690517C02FEF84E39CE021508040904048
:10413000E1F700C000008091030260E0823029F4C2
:1041400080EFD6DA60E084E101C08DE9D1DA109227
:104150006905112359F180916805813019F0823089
:1041600071F024C08091030260E0823011F481E19B
:1041700001C088E3BDDA82E08093680517C02FEFA5
:1041800084E39CE0215080409040E1F700C00000B3
:104190008091030260E0823029F480EFA9DA60E0C8
:1041A00081E101C088EBA4DA10926805DD2359F1A2
:1041B00080916705813019F0823071F024C08091C0
:1041C000030260E0823011F482E101C08AE290DAF9
:1041D00082E08093670517C02FEF84E39CE02150B5
:1041E00080409040E1F700C000008091030260E051
:1041F000823029F480EF7CDA60E082E101C08AEA53
:1042000077DA10926705CC23B9F18091650581308A
:1042100019F08230A1F030C08091030260E082305A
:1042200029F480EE65DA60E081E104C080EE60DAB6
:1042300060E088E35DDA82E0809365051DC02FEFC2
:1042400084E39CE0215080409040E1F700C00000F2
:104250008091030260E0823041F480EE49DA60E050
:1042600080EF46DA60E081E104C080EE41DA60E090
:1042700088EB3EDA109265050023B9F1809166055E
:10428000813019F08230A1F030C08091030260E0EB
:10429000823029F480EE2CDA60E08FE104C080EEF9
:1042A00027DA60E08BE524DA82E0809366051DC0A2
:1042B0002FEF84E39CE0215080409040E1F700C064
:1042C00000008091030260E0823041F480EE10DA59
:1042D00060E080EF0DDA60E08FE104C080EE08DA84
:1042E00060E08BED05DA10926605DF91CF911F91AA
:1042F0000F9108951F93CF93DF93A62FB0E0C82F9F
:10430000D0E0FD019BE0899FE00DF11D1124EB53EE
:10431000FC4F90819D3009F455C0D0F4943009F4DD
:1043200040C050F4913009F058C080916305840F6B
:104330008093630581E044C0953061F19C3009F0C1
:104340004CC080916305840F8093630583E036C081
:104350009235B1F050F49C3409F03FC08091620571
:10436000840F8093620581E011C0983509F192377E
:10437000A1F580916305840F8093630584E020C0DC
:1043800080916205840F8093620580E054E021E013
:1043900037E021C080916305840F8093630580E03E
:1043A0000DC080916305840F8093630582E006C091
:1043B00080916305840F8093630581E050E009C01C
:1043C00053E007C080916305840F8093630581E00B
:1043D00057E020E035E071E005C080E050E020E0EB
:1043E00030E070E060912006662329F0963681F077
:1043F0009637C1F405C0963619F0963749F012C0C9
:1044000080916305840F8093630580E053E007C0CB
:1044100080916305840F8093630580E057E020E07E
:1044200035E071E060911F06662369F09B36C1F0AC
:1044300028F49134A9F1993461F13CC09437B9F072
:104440009537F9F037C09B36E1F028F4913479F0D4
:10445000993431F02FC0943719F19537D1F02AC033
:1044600080916205840F8093620582E006C080918E
:104470006205840F8093620583E057E021E037E016
:104480001CC080916305840F8093630584E050E035
:104490000EC080916305840F8093630583E006C09E
:1044A00080916305840F8093630582E053E020E0F0
:1044B00035E003C0772309F440C090E01DE0652F8C
:1044C00070E0FC01159FE00DF11D1124E659FA4F33
:1044D000508158714F3F41F440916305411116C01E
:1044E00040916205411112C01C9FF0011D9FF00D0B
:1044F0001124EA0FFB1FE659FA4F4081139FF00188
:104500001124E20FF11DE659FA4F40832DE0269F5A
:10451000F001279FF00D11248E0F9F1FFC01E6591B
:10452000FA4F2C9FB0012D9F700D1124A60FB71FBD
:10453000A659BA4F8C91582B5083DF91CF911F9180
:10454000089560E080EED4D860E082E1D1D860E0E8
:1045500080EECED860E08CE7CBD82FEF81EE94E0F0
:10456000215080409040E1F700C0000060E080EE04
:10457000BFD860E080EFBCD860E082E1B9D860E0ED
:1045800080EEB6D860E080EFB3D860E08CE7B0C8CA
:104590001F920F920FB60F9211242F933F938F9378
:1045A0009F93AF93BF938091520690915306A09131
:1045B0005406B09155063091510623E0230F2D3754
:1045C00020F40196A11DB11D05C026E8230F029617
:1045D000A11DB11D2093510680935206909353065E
:1045E000A0935406B093550680914D0690914E06C7
:1045F000A0914F06B09150060196A11DB11D809368
:104600004D0690934E06A0934F06B0935006BF916F
:10461000AF919F918F913F912F910F900FBE0F906F
:104620001F90189590B321E030E001C0220F8A95C9
:10463000EAF72095292320BB0895CF93DF93C82F55
:10464000D62F40E032DB40E06D2F8C2F55DC2FEF72
:1046500084E39CE0215080409040E1F700C00000DE
:1046600041E06D2F8C2F48DC41E06D2F8C2FDF91C6
:10467000CF911BCBCF93DF93CDB7DEB72A970FB681
:10468000F894DEBF0FBECDBF789484B5826084BD40
:1046900084B5816084BD85B5826085BD85B5816046
:1046A00085BD80916E00816080936E0010928100C4
:1046B000809181008260809381008091810081607F
:1046C0008093810080918000816080938000809140
:1046D000B10084608093B1008091B00081608093CC
:1046E000B000809191008260809391008091910050
:1046F0008160809391008091900081608093900010
:104700008091A10082608093A1008091A1008160CE
:104710008093A1008091A00081608093A00080918F
:104720002101826080932101809121018160809329
:1047300021018091200181608093200180917A0085
:10474000846080937A0080917A00826080937A00FE
:1047500080917A00816080937A0080917A008068ED
:1047600080937A001092C10080E8809361001092DB
:104770006100229A2A982098289A239A2B98279A9F
:1047800080910B01816080930B018B988A9883E064
:1047900049DF82E047DFE5E7AE2EE4E0BE2E00E829
:1047A00014E0FBE09F2E900EF801C1908F01F501FF
:1047B000D1905F0141E06C2D8D2D9EDB41E06C2D91
:1047C0008D2D73DA9012F0CF6BE5C62E64E0D62EF5
:1047D00008E614E07DE0B72EB00EF80161918F017C
:1047E00041E0F60181916F0187DBB012F6CF4BE912
:1047F000A42E44E0B42E02EA14E057E0952E900E69
:10480000F801C1908F01F501D1905F0141E06C2D5D
:104810008D2D72DB41E06C2D8D2D47DA9012F0CF9B
:1048200040E062E086E068DB41E065E084E064DB74
:1048300041E065E084E039DA41E065E085E05CDB99
:1048400041E065E085E031DA41E067E085E054DB96
:1048500041E067E085E029DA41E065E083E04CDB98
:1048600041E065E083E021DA41E068E083E044DB99
:1048700041E068E083E019DA10922F0610922E06CC
:104880002198299A85E0E6E5F4E0DE01169601908C
:104890000D928A95E1F745E050E060E070E0CE01CE
:1048A00001962CD5FE013196DE011696AD0121E070
:1048B000CD0161913D91631320E0E417F507C9F73D
:1048C000222309F4DBC085E090E028D5082F10E012
:1048D00010922B062B9810921E0610921D060115A1
:1048E000110511F481E004C00130110521F484E0C8
:1048F0008093020215C00230110521F484E08093F8
:10490000020215C00330110521F484E080930202F5
:1049100015C00430110521F484E0809302021CC00C
:104920000530110521F484E0809302021CC006309A
:10493000110521F484E0809302021CC007301105A8
:1049400021F484E0809302021CC00830110521F498
:1049500084E0809302021CC00930110521F484E038
:10496000809302021CC00A30110521F484E0809378
:1049700002021CC00B30110521F484E08093020276
:1049800018C00C30110521F484E08093020218C095
:104990000D30110521F484E08093020226C00E3010
:1049A000110521F486E08093020235C00F30110515
:1049B00019F00031110521F484E08093020239C01E
:1049C0000131110591F484E08093020281E080932B
:1049D0002B06109227061092280610922906109294
:1049E0002A0682E08093030224C00331110599F462
:1049F00084E08093020281E080932B0610922706C8
:104A0000109228061092290610922A0682E08093BE
:104A100003022B9A0EC00231110559F484E08093F1
:104A2000020210922B0681E08093030285E994E054
:104A300066D810932D0600932C0686E090E06ED485
:104A4000823008F080E08093210687E090E066D411
:104A5000823008F080E08093200688E090E05ED409
:104A6000823008F080E080931F0689E090E056D401
:104A7000823008F080E08093220619C045E050E0C3
:104A800060E070E053D460E085E090E058D461E0ED
:104A900086E090E054D460E087E090E050D460E09D
:104AA00088E090E04CD460E089E090E048D4AA240B
:104AB000A394B12C30EA432E36E8532E6624639437
:104AC000712C90E0C92E90E0D92E0E946D1B209190
:104AD0002C0630912D06882311F1C90141970397C7
:104AE000F0F480912B0681110CC0809127069091E3
:104AF0002806A0912906B0912A06892B8A2B8B2B98
:104B000071F011E001E089EE93E0019709F419C119
:104B10007B9BEBC2EAE1EA95F1F700C0F6CF80910A
:104B2000270690912806A0912906B0912A060097A1
:104B3000A105B10559F00197A109B1098093270694
:104B400090932806A0932906B0932A062151310993
:104B50002330310508F4FCC00E94C90080913C0656
:104B60008093300680913D068093310680913E0609
:104B70008093320680913F068093330680914006F1
:104B8000809334061092400680914106809335064A
:104B9000109241068091420680933606809143062A
:104BA000809337068091440680933806109244061D
:104BB00080914506809339061092450680914606FD
:104BC00080933A06109246068091470680933B06F2
:104BD000109247068FE39CE90197F1F700C00000AF
:104BE00080912206882309F4DBC0809101018F7D2A
:104BF0008093010180910201806280930201809183
:104C0000010180648093010180910201806480939E
:104C10000201249A2C9AEFEBF0E03197F1F700C0F3
:104C20000000809102018F7B80930201F0E8FA95E9
:104C3000F1F798E080E0282F30E035952795822F16
:104C40004091000145FF80682C9820E82A95F1F7F3
:104C50002C9AE0E8EA95F1F7915069F7982F917056
:104C600090934206982F927090934306982F9470D9
:104C700090934006982F987090934106982F9071CA
:104C800090933C06982F907290933D06982F9074C5
:104C900090933E06807880933F06809101018F7B40
:104CA0008093010180910201806480930201249825
:104CB0002C9A80913C0690913006891386C1809190
:104CC0003D069091310689138CC180913E069091EA
:104CD0003206891392C180913F0690913306891361
:104CE00098C1809140069091340689139EC18091AD
:104CF0004106909135068913A4C180914206909196
:104D000036068913AAC1809143069091370689130C
:104D1000B0C180914406909138068913B6C1809144
:104D20004506909139068913BCC180914606909141
:104D30003A068913C2C18091470690913B068913B8
:104D4000C8C1C114D10409F4C0CE0E940000B9CE7C
:104D500080912606882309F4FFCE80912406909145
:104D600025069C012F5F3F4F309325062093240694
:104D7000893E934028F480910302823009F0ECCE02
:104D800080914806909149069C012F5F3F4F3093D8
:104D90004906209348068739910508F06CC2DCCE9D
:104DA00041E062E086E00E94551EFAE4FA95F1F7D0
:104DB00000C068E084E072D880933C0668E085E03B
:104DC0006DD880933D0668E086E068D880933E0603
:104DD00062E084E063D880933F0640E062E086E0D2
:104DE0000E94551E2AE42A95F1F700C068E086E08B
:104DF00055D8182F62E084E051D8812362E009F48D
:104E000087C085E04BD8809342066CE085E046D8A9
:104E10008093410641E062E086E00E94551E8AE4EC
:104E20008A95F1F700C062E085E038D880934306A8
:104E30006CE085E033D88093440640E062E086E091
:104E40000E94551E9AE49A95F1F700C041E062E095
:104E500086E00E94551EEAE4EA95F1F700C040E0C2
:104E600062E086E00E94551EFAE4FA95F1F700C070
:104E700068E084E013D8182F68E085E00FD8182385
:104E800068E086E00BD8182362E084E007D881232D
:104E9000C1F141E062E086E00E94551E2AE42A95B5
:104EA000F1F700C068E084E00E944E1F809347063F
:104EB00068E085E00E944E1F8093460668E086E029
:104EC0000E944E1F8093450662E084E00E944E1FC0
:104ED0008093400640E062E086E00E94551E8AE42E
:104EE0008A95F1F700C041E062E086E00E94551E1D
:104EF0009AE49A95F1F700C040E062E086E00E94F3
:104F0000551EEFE3FFE13197F1F700C000000BC041
:104F100085E00E944E1F809342066CE085E00E946F
:104F20004E1F8093430641E062E086E00E94551EDA
:104F3000FAE4FA95F1F700C090913C0680913D06A5
:104F4000282F292351F081E08093400680932F067B
:104F500010923C0610923D0613C020912F0622238A
:104F600021F01092400610922F0621E03091340675
:104F7000311120E0922390933C06822380933D06DA
:104F800090913E0680913F06282F292351F081E021
:104F90008093410680932E0610923E0610923F06A3
:104FA00088CE20912E06222321F0109241061092E5
:104FB0002E0621E030913506311120E092239093A6
:104FC0003E06822380933F0674CE61E070E0882322
:104FD00011F060E070E0409103028BE10E940B1E33
:104FE0006ECE61E070E0882311F060E070E04091E7
:104FF00003028BE00E940B1E68CE61E070E0882304
:1050000011F060E070E04091030289E10E940B1E04
:1050100062CE61E070E0882311F060E070E04091C2
:1050200003028AE10E940B1E5CCE61E070E08823DF
:1050300011F060E070E04091030289E20E940B1ED3
:1050400056CE61E070E0882311F060E070E040919E
:10505000030285E20E940B1E50CE61E070E08823BF
:1050600011F060E070E04091030283E50E940B1EA6
:105070004ACE61E070E0882311F060E070E040917A
:10508000030282E20E940B1E44CE61E070E088239E
:1050900011F060E070E04091030287E10E940B1E76
:1050A0003ECE61E070E0882311F060E070E0409156
:1050B00003028EE00E940B1E38CE61E070E0882370
:1050C00011F060E070E04091030280E10E940B1E4D
:1050D00032CE61E070E0882311F060E070E0409132
:1050E00003028DE00E940B1E2CCE80914B06809314
:1050F0004A067B99FECF7A9BFECF80910202880FF1
:10510000880F0E94641B829A80910202880F880F88
:10511000880F0E94641B82E085DA80910202880F6A
:10512000880F0E94641B812C912C33243394212CF2
:105130007B9B08C0C501082C01C0880F0A94EAF7C0
:10514000282A312680910202880F880F0E94641B52
:10515000829A80910202880F880F880F0E94641B38
:1051600082E060DA80910202880F880F0E94641B3F
:10517000FFEF8F1A9F0A28E082169104C9F68FB1BB
:1051800083FBEE24E0F8F12C832D90E0E816F9067D
:1051900009F0B9CC80910202880F880F0E94641B2D
:1051A000829A80910202880F880F880F0E94641BE8
:1051B00082E038DA80910202880F880F0E94641B17
:1051C000839A80910202880F880F0E94641B829A42
:1051D00080910202880F880F880F0E94641B82E072
:1051E00021DA83E01FDA8FE891E00197F1F700C040
:1051F000000020924B0640922706509228066092AB
:10520000290670922A069EEE291206C08EEE0E9492
:10521000681C00932B0603C08AEF0E94681C8091D3
:105220004B068230C9F028F4882371F08130A1F058
:105230006ACC823FC9F08F3F09F065CC8AEA0E94B0
:10524000681C10922B065FCC80914A06803F09F0C3
:105250005ACC809103020CC090914A06903F09F00D
:1052600052CC809303024FCC8BEA0E94681C83E8E7
:105270000E94681C48CC8091230681110E94681C02
:10528000809126060E94681C1092490610924806DA
:1052900063CC0F931F93CF93DF93C62F90E0FC0155
:1052A000E859FB4F1081FC01E55AFB4FD08140E0EB
:1052B000612F8D2F0E947C1F40E0612F8D2F0E9457
:1052C000551E8AE18A95F1F700C02C2F30E0F901D4
:1052D000E058FB4FD901AB58BB4F0081CC91602FF8
:1052E0008C2F0E944E1F8111FACF41E0612F8D2F2C
:1052F000DF91CF911F910F910C947C1FDC01CB01AA
:10530000FC01F999FECF06C0F2BDE1BDF89A3196D5
:1053100000B40D9241505040B8F70895F999FECF6E
:1053200092BD81BDF89A992780B50895DC01CB0123
:1053300002C02D9105D041505040D8F70895262F36
:10534000F999FECF1FBA92BD81BD20BD0FB6F8946A
:10535000FA9AF99A0FBE01960895EE0FFF1F881F63
:0E5360008BBF0790F691E02D1994F894FFCFC3
:10536E002C0101022C1A22233C433144213C2D1BDB
:10537E00442D1B2942324D2123244B29322D241C2E
:10538E0042442B2B294431293B4435291C2C1C2DFE
:10539E00431B3A233B4435292B1C3A4321443A45BF
:1053AE00161E26252E363D3E46000700060200013B
:1053BE0009212B342B4B1C1B332423054232242270
:1053CE002C04044D21222C04093A3C4B2C4321443D
:1053DE003A4D0409341C4B1C421B433B1C04052C48
:1053EE002D1B3E45060321163604031B3A1B0407EC
:1053FE003B3C4D432C242D04031B1C3A0404442D2A
:10540E00432104032A432104051C4D4D4B2404055E
:10541E001C21442D31040332322104051C2C1C2D79
:10542E0043040321362504033A1B220403214D2194
:10543E0004021A22010108080101000100000140C6
:10544E000808080801010100010101010808000116
:10545E0040010100010000010000000001020304F0
:10546E00050629290D56567E0229282B350A090CC8
:10547E000703330D1B1A00349C0C08000B1B351A46
:10548E00000034331B020304050610111213141E00
:10549E001F2021220B0A0908071918171615002CB0
:1054AE002D2E2F1C2625242339003231303C3A0074
:1054BE00004B000000000000000000000E004D48F0
:1054CE0050000000000000000000000F000000006F
:1054DE000100000000065800006B000000000000F4
:1054EE0000000000660074757200000000000000ED
:1054FE000000000D00000000760000000001020315
:10550E000405FFFF0DFFFF09FF0C0E0F001108072A
:10551E0006FFFF12FFFFFFFFFF0BFFFFFFFF131042
:10552E00FFFFFFFF0A161E26252E000000000000BA
:10553E00151D242D2C0000000000001C1B232B34F5
:10554E0000000000000045463E3D36000000000011
:10555E00004D44433C35000000000000001A22219B
:10556E002A0000000000005A4B423B3300000000AE
:10557E00000029003A313200000000000000000057
:10558E00000000000000524C0000000000494100E5
:10559E000000000000000000040C0558006B000025
:1055AE00000000747566010072000000000000002B
:1055BE00760D00001412535547415201030507069C
:1055CE0004020002000604020101010103030303A9
:1055DE0007070C0C0C070107010305070604020060
:1055EE000C0704030303030101010103080305056E
:1055FE000705050405044D21222C040405060405A7
:10560E0006050808080202020C0075726B74706CB5
:10561E007D71697A1C322123242B3433433B424B58
:10562E003A31444D152D1B2C3C2A1D22351A161EBF
:10563E0026252E363D3E46450506040C030B830AF1
:10564E000109780769727A6B73746C757D704A7C88
:10565E007B795A717776664914117E5A29125958F8
:10566E000E0D55414C0048504B4D5247494B4F5132
:10567E001E302E20122122231724252632311819EE
:10568E0010131F14162F112D152C020304050607D7
:10569E0008090A0B3B3C3D3E3F40414243445758AC
:1056AE004F50514B4C4D4748495235374A4E1C537B
:1056BE0045010E341D38461C392A363A290F0D3352
:0256CE002700B3
:00000001FF
