:1000000071C0000090C000008EC000008CC00000D5
:100010008AC0000088C0000086C0000084C00000C4
:1000200082C0000080C000007EC000007CC00000D4
:100030007AC0000078C0000076C0000074C00000E4
:1000400072C0000070C000006EC000006CC00000F4
:100050006AC0000068C0000066C000000C948719E8
:1000600062C0000060C000005EC000005CC0000014
:100070005AC0000058C0000056C0000054C0000024
:1000800052C0000050C000004EC000004CC0000034
:100090004AC0000048C0000046C0000044C0000044
:1000A00042C0000040C000003EC000003CC0000054
:1000B0003AC0000038C0000036C0000034C0000064
:1000C00032C0000030C000002EC000002CC0000074
:1000D0002AC0000028C0000026C0000024C0000084
:1000E00022C0000011241FBECFEFD1E2DEBFCDBF82
:1000F00000E00CBF15E0A0E0B2E0E6EBF1E400E0C8
:100100000BBF02C007900D92AE34B107D9F726E0BD
:10011000AEE4B5E001C01D92A132B207E1F70E9442
:10012000A11A0C94D9206CCF90B321E030E001C02B
:10013000220F8A95EAF72095292320BB0895EF9294
:10014000FF920F931F93CF93DF9370E0C82FD0E0FF
:10015000FB019BE0899FE00DF11D1124EE5AFB4F3E
:1001600080818D3009F489C0C8F4843009F46FC0EF
:1001700048F4813009F472C090E0A0E0E0E020E0B3
:1001800030E02EC0853009F458C08C30A9F790912A
:100190004F05940F90934F0593E055C08235B1F011
:1001A00048F48C3449F790914E05940F90934E0586
:1001B00091E012C0883509F459C08237E9F6909170
:1001C0004F05940F90934F0594E04EC090914E05CB
:1001D000940F90934E0590E0A4E0E1E027E031E039
:1001E00050915805552309F450C0863609F453C080
:1001F000863751F490914F05940F90934F0590E0FE
:10020000A3E0E0E025E031E050915705552309F4E3
:1002100067C08B3609F46DC008F045C0813409F41D
:1002200058C0893409F4BCC031116CC0DF91CF9142
:100230001F910F91FF90EF90089590914F05940FAB
:1002400090934F0590E0A0E0E0E025E0C8CF9091CA
:100250004F05940F90934F0592E0F5CF90914F0585
:10026000940F90934F0591E0A3E0EECF90914F054E
:10027000940F90934F0591E0E6CF90914F05940F26
:1002800090934F0591E0A7E0DFCF863609F4B2CF17
:10029000863709F0B9CF90914F05940F90934F0591
:1002A00090E0A7E0AECF843769F0853709F0BCCF86
:1002B00080914F05840F80934F0594E0A0E0E0E02B
:1002C00025E020C080914E05840F80934E0593E079
:1002D00016C080914F05840F80934F0592E066C051
:1002E0008B3631F308F056C0813461F3893409F05C
:1002F0009BCF80914E05840F80934E0592E0A7E03E
:10030000E1E027E0EA2EF12C892F90E03BE03E9DD2
:1003100080013F9D100D11240F561A4F080F191F11
:10032000D8015C9158713C9F80013D9F100D1124B4
:100330000F561A4F060F171FD8011C914F3F41F45B
:1003400040914F0541110DC040914E05411109C02A
:10035000329F900111242F563A4FE20FF32FF11DD7
:1003600010834BE04E9D90014F9D300D11242F5670
:100370003A4F820F931F4C9F90014D9F300D1124D7
:100380002F563A4F620F731FFB012081522BDC0165
:100390005C934CCF843709F49CCF853709F044CF68
:1003A00080914F05840F80934F0593E0A3E087CFA2
:1003B000982F843249F0877F853131F0933421F0D2
:1003C000993211F09A3509F490E09B012C503109D3
:1003D0002330310528F480910302813009F479C07B
:1003E000963109F476C0963209F473C0953209F457
:1003F00070C09E3209F46DC0992309F46AC0FB01F4
:100400003197EE30F10508F0A0C38827E55FFD4F76
:100410008F4F0C94D12019026B02BB0202035203CE
:100420009F03E6032A046E04BE0408055205520524
:1004300052059E3109F48BC39C3209F48AC39D3264
:1004400009F489C3943309F488C39B3209F487C340
:10045000933209F486C39B3109F485C39C3109F4B6
:1004600084C3953309F483C39C3309F482C3943461
:1004700009F481C39D3409F480C39A3209F47FC31F
:10048000913209F47EC3923209F47DC39A3109F4A2
:100490007CC3933309F47BC39B3309F47AC392344E
:1004A00009F479C39B3409F478C3923309F477C310
:1004B000913309F476C39A3309F475C3963349F03E
:1004C0009D3339F09E3329F0963419F0953409F0B4
:1004D0006CC3892F08959E3109F469C39C3209F4D5
:1004E00068C39D3209F467C3943309F466C39B3231
:1004F00009F465C3933209F464C39B3109F463C3FF
:100500009C3109F462C3963309F461C39D3309F445
:1005100060C39E3309F45FC3953409F45EC3953319
:1005200009F45DC39C3309F45CC3943409F45BC3E0
:100530009D3409F45AC39A3209F459C3913209F42B
:1005400058C39A3109F457C3933309F456C39B3304
:1005500009F455C3923409F454C39B3409F453C3CA
:10056000923309F452C3913309F451C39A3309F415
:1005700050C390E0AECF9E3109F44DC39C3209F4D4
:100580004CC39D3209F44BC39B3109F44AC39533E4
:1005900009F449C39C3309F448C3943409F447C3AC
:1005A0009D3409F446C39A3209F445C3913209F4E3
:1005B00044C39A3109F443C3933309F442C39B33D0
:1005C00009F441C3923409F440C39B3409F43FC396
:1005D000923309F43EC3913309F43DC39A3309F4CD
:1005E0003CC3963309F475CF9D3309F472CF9E3323
:1005F00009F46FCF963409F46CCF953409F469CFC0
:1006000090E067CF9E3109F42AC39C3209F429C3D4
:100610009D3209F428C39D3109F427C3953109F4AB
:1006200026C3933209F425C39B3109F424C39533BF
:1006300009F423C39C3309F422C3943409F421C37D
:100640009D3409F420C39A3209F41FC3913209F48E
:100650001EC39A3109F41DC3933309F41CC39B33A1
:1006600009F41BC3923409F41AC39B3409F419C367
:10067000923309F418C3913309F417C39A3309F478
:1006800016C3963309F425CF9D3309F422CF9E3348
:1006900009F41FCF963409F41CCF953409F419CF0F
:1006A00090E017CF9E3109F404C39C3209F403C3D0
:1006B0009D3209F402C39D3109F401C3953109F457
:1006C00000C39B3109F4FFC29C3109F4FEC294348B
:1006D00009F4FDC29D3409F4FCC29A3209F4FBC24C
:1006E000913209F4FAC2923209F4F9C29A3109F44A
:1006F000F8C2933309F4F7C29B3309F4F6C292347B
:1007000009F4F5C29B3409F4F4C2923309F4F3C23C
:10071000913309F4F2C29A3309F4F1C2963309F421
:10072000D8CE9D3309F4D5CE9E3309F4D2CE96347B
:1007300009F4CFCE953409F4CCCE90E0CACE9E31E8
:1007400009F4DFC29C3209F4DEC29D3209F4DDC235
:10075000933209F4DCC2953309F4DBC29C3309F40B
:10076000DAC2943409F4D9C29D3409F4D8C29A3259
:1007700009F4D7C2913209F4D6C2923209F4D5C233
:100780009A3109F4D4C29B3309F4D3C2923409F4E8
:10079000D2C29B3409F4D1C2923309F4D0C291334E
:1007A00009F4CFC29A3309F4CEC2963309F491CE3C
:1007B0009D3309F48ECE9E3309F48BCE963409F422
:1007C00088CE953409F485CE90E083CE9C3209F42E
:1007D000BCC29D3209F4BBC2963309F4BAC29D3340
:1007E00009F4B9C29E3309F4B8C2963409F4B7C209
:1007F000953409F4B6C2953309F4B5C29C3309F4B3
:10080000B4C2943409F4B3C29D3409F4B2C29A322A
:1008100009F4B1C2913209F4B0C29A3109F4AFC2FD
:10082000933309F4AEC29B3309F4ADC2923409F498
:10083000ACC29B3409F4ABC2923309F4AAC291331F
:1008400009F4A9C29A3309F4A8C29E3109F441CE31
:1008500090E03FCE9E3109F4A2C29C3209F4A1C2BD
:100860009D3209F4A0C29B3109F49FC2953309F46B
:100870009EC29C3309F49DC2943409F49CC29D34F9
:1008800009F49BC29A3209F49AC2913209F499C2CE
:100890009A3109F498C29B3309F497C2923409F44F
:1008A00096C29B3409F495C2923309F494C29133F1
:1008B00009F493C29A3309F492C2963309F409CE2B
:1008C0009D3309F406CE9E3309F403CE963409F421
:1008D00000CE953409F4FDCD90E0FBCD9C3209F4B7
:1008E00080C29D3209F47FC2943309F47EC29B32E8
:1008F00009F47DC2933209F47CC29B3109F47BC2B6
:10090000963309F47AC29D3309F479C29E3309F40F
:1009100078C2963409F477C2953309F476C29C33D1
:1009200009F475C2943409F474C29D3409F473C295
:100930009A3209F472C2913209F471C2923209F406
:1009400070C29A3109F46FC2933309F46EC29B33BB
:1009500009F46DC2923409F46CC29B3409F46BC281
:10096000923309F46AC2913309F469C29A3309F4E3
:1009700068C2953409F4ADCD90E0ABCD9E3109F459
:1009800062C29C3209F461C29D3209F460C29433A0
:1009900009F45FC29B3209F45EC29C3109F45DC266
:1009A0009D3309F45CC2953409F45BC2943409F4B4
:1009B0005AC29D3409F459C29A3209F458C291328C
:1009C00009F457C2923209F456C29A3109F455C259
:1009D000933309F454C29B3309F453C2923409F49B
:1009E00052C29B3409F451C2923309F450C291337C
:1009F00009F44FC29A3309F44EC2963309F469CD13
:100A00009E3309F466CD963409F463CD90E061CD50
:100A10009E3109F442C29C3209F441C29D3209F46C
:100A200040C29B3209F43FC2933209F43EC29D3367
:100A300009F43DC2953409F43CC2953309F43BC234
:100A4000943409F43AC29D3409F439C29A3209F453
:100A500038C2913209F437C2923209F436C29A315F
:100A600009F435C2933309F434C29B3309F433C219
:100A7000923409F432C29B3409F431C2923309F43E
:100A800030C2913309F42FC29A3309F42EC296333F
:100A900009F41FCD9E3309F41CCD963409F419CD09
:100AA00090E017CD953409F422C2963409F421C29E
:100AB0009E3309F420C29D3309F41FC2963309F412
:100AC0001EC29C3209F41DC29D3209F41CC294332B
:100AD00009F41BC29B3209F41AC2933209F419C2F9
:100AE0009B3109F418C29C3109F417C2953309F4FB
:100AF00016C29C3309F415C2943409F414C29D340F
:100B000009F413C29A3209F412C2913209F411C2E3
:100B10009A3109F410C2933309F40FC29B3309F4DC
:100B20000EC2923409F40DC29B3409F40CC2923304
:100B300009F40BC2913309F40AC29A3309F409C2C9
:100B40009E3109F4C6CC90E0C4CC90E0C2CC94EDC8
:100B5000C0CC99E4BECC91E4BCCC9DE5BACC9BE57D
:100B6000B8CC91EEB6CC94E5B4CC91E6B2CC9BED8A
:100B7000B0CC9DEDAECC92EDACCC9EE1AACC9AEC83
:100B8000A8CC9AE4A6CC95E5A4CC9CECA2CC95ED9F
:100B9000A0CC9EEC9ECC92E59CCC9EE49ACC9CE4AE
:100BA00098CC91EC96CC99EC94CC90E092CC92E5D8
:100BB00090CC99E48ECC91E48CCC94E58ACC9EE8E0
:100BC00088CC9DED86CC9DE584CC9BE582CC92EDD6
:100BD00080CC9CE47ECC95E47CCC95ED7ACC9EE1F7
:100BE00078CC94ED76CC9CEC74CC9EE372CC9AECF1
:100BF00070CC9AE46ECC95E56CCC9DE36ACC9EEC0F
:100C000068CC9EE066CC96E364CC96E462CC91EC32
:100C100060CC99EC5ECC94ED5CCC91E45ACC91E63E
:100C200058CC9EE456CC9CE454CC92E552CC92ED48
:100C300050CC9EE14ECC9AEC4CCC9AE44ACC9CEC45
:100C400048CC9DED46CC9EEC44CC99E842CC95ED49
:100C500040CC9BED3ECC91EE3CCC91EC3ACC9EE36B
:100C600038CC95ED36CC9EEC34CC97E832CC98EF6E
:100C700030CC92E52ECC9BE52CCC91E42ACC99E4A7
:100C800028CC9CEC26CC9EE124CC9AEC22CC9AE495
:100C900020CC9CE41ECC9DE51CCC94ED1ACC92EDAE
:100CA00018CC9BED16CC9DED14CC91EC12CC99ECAC
:100CB00010CC9EE80ECC99E40CCC91E40ACC97E8D9
:100CC00008CC97E006CC91E604CC9EEC02CC9CECE0
:100CD00000CC9EE1FECB9AECFCCB9AE4FACB9DE5EE
:100CE000F8CB92EDF6CB95EDF4CB9DEDF2CB9CE4F9
:100CF000F0CB9EE4EECB92E5ECCB91ECEACB99EC19
:100D0000E8CB95E4E6CB99E4E4CB91E4E2CB9DED2E
:100D1000E0CB94E5DECB9BEDDCCB9CECDACB9EE12B
:100D2000D8CB9AECD6CB9AE4D4CB94E5D2CB92ED47
:100D3000D0CB9EECCECB9CE4CCCB9EE4CACB92E550
:100D4000C8CB91ECC6CB99ECC4CB99E4C2CB91E46F
:100D5000C0CB9DE3BECB92EDBCCB96E4BACB95E481
:100D6000B8CB9EE4B6CB94EDB4CB9BEDB2CB9CEC70
:100D7000B0CB92E5AECB9AECACCB9AE4AACB9CE498
:100D8000A8CB96E3A6CB9EECA4CB95E5A2CB95EDA4
:100D9000A0CB9EE39ECB91EC9CCB99EC9ACB94EDAF
:100DA00098CB91E496CB91E694CB95E592CB9CE4DD
:100DB00090CB92E58ECB92ED8CCB9EE18ACB9AECD8
:100DC00088CB9AE486CB9CEC84CB95ED82CB9EECD1
:100DD00080CB9DED7ECB9BED7CCB91EE7ACB91ECE5
:100DE00078CB99E476CB91E474CB9BE572CB94E518
:100DF00070CB9DED6ECB9DE56CCB9DE36ACB92ED08
:100E000068CB96E466CB95E464CB94ED62CB9BED26
:100E100060CB9CEC5ECB92E55CCB9AEC5ACB9AE42F
:100E200058CB9EE456CB9CE454CB96E352CB9EEC3D
:100E300050CB95E54ECB95ED4CCB9EE34ACB91EC58
:100E400048CB99EC46CB9DE544CB91E642CB91EE65
:100E500040CB9DED3ECB92ED3CCB9CEC3ACB9EEC57
:100E600038CB9AE436CB91E434CB9EE132CB9DE390
:100E700030CB9EE42ECB94ED2CCB99E42ACB94E599
:100E800028CB9AEC26CB9BED24CB95E422CB9BE59B
:100E900020CB91EC1ECB99EC1CCB9DED1ACB91E6AF
:100EA00018CB91EE16CB92E514CB9EE812CB9EECBC
:100EB00010CB9AE40ECB94E50CCB91E40ACB9EE1E7
:100EC00008CB9DE306CB9EE404CB92ED02CB99E4E4
:100ED00000CB94EDFECA9AECFCCA9BEDFACA95E4ED
:100EE000F8CA9BE5F6CA91ECF4CA99ECF2CA9EE402
:100EF000F0CA95E4EECA96E4ECCA92EDEACA9DE324
:100F0000E8CA99E4E6CA91E4E4CA9BE5E2CA94E53A
:100F1000E0CA91EEDECA9DE5DCCA9EE0DACA94ED35
:100F2000D8CA9BEDD6CA9CECD4CA92E5D2CA9AEC38
:100F3000D0CA9AE4CECA9CE4CCCA96E3CACA9EEC54
:100F4000C8CA95E5C6CA95EDC4CA9EE3C2CA91EC6B
:100F5000C0CA99ECBECA7A9B07C08FB183FB8827B1
:100F600080F991E08927089581E00895282F615044
:100F70006C3008F08DC0E62FF0E08827ED53F84F75
:100F80008F4F0C94D120CF07DE07ED07FC070B082D
:100F900048081A0829084808480848083A0881E01B
:100FA00090E001C0880F2A95EAF792B1411104C080
:100FB0008095892382B90895892BFCCF81E090E048
:100FC00001C0880F2A95EAF795B1411104C08095B8
:100FD000892385B90895892BFCCF81E090E001C079
:100FE000880F2A95EAF798B1411104C080958923AA
:100FF00088B90895892BFCCF81E090E001C0880F6B
:101000002A95EAF79BB1411104C0809589238BB9D9
:101010000895892BFCCF81E090E001C0880F2A95CC
:10102000EAF79EB1411104C0809589238EB90895D5
:10103000892BFCCF81E090E001C0880F2A95EAF768
:1010400094B3411104C08095892384BB0895892BF2
:10105000FCCF81E090E001C0880F2A95EAF79091DB
:101060000201411105C080958923809302010895F2
:10107000892BFBCF81E090E001C0880F2A95EAF729
:1010800090910B01411105C08095892380930B013C
:101090000895892BFBCF282F61506C3078F5E62F0F
:1010A000F0E08827E95AF74F8F4F0C94D12063085E
:1010B0006E087008720874087E08760878087E0842
:1010C0007E087E087B0880B190E002C095958795E8
:1010D0002A95E2F7809590958170089583B1F4CFB9
:1010E00086B1F2CF89B1F0CF8CB1EECF82B3ECCF25
:1010F00080910001E9CF80910901E6CF80E0089559
:10110000282F61506C3008F08DC0E62FF0E0882762
:10111000E357F74F8F4F0C94D1209908A808B708D0
:10112000C608D5081209E408F308120912091209C1
:10113000040981E090E001C0880F2A95EAF791B197
:10114000442321F08095892381B90895892BFCCF10
:1011500081E090E001C0880F2A95EAF794B144231A
:1011600021F08095892384B90895892BFCCF81E0F3
:1011700090E001C0880F2A95EAF797B1442321F047
:101180008095892387B90895892BFCCF81E090E071
:1011900001C0880F2A95EAF79AB1442321F080957F
:1011A00089238AB90895892BFCCF81E090E001C0A2
:1011B000880F2A95EAF79DB1442321F08095892371
:1011C0008DB90895892BFCCF81E090E001C0880F94
:1011D0002A95EAF793B3442321F08095892383BBB2
:1011E0000895892BFCCF81E090E001C0880F2A95FB
:1011F000EAF790910101442329F080958923809397
:1012000001010895892BFBCF81E090E001C0880F98
:101210002A95EAF790910A01442329F080958923C1
:1012200080930A010895892BFBCFCF93DF93C82FBA
:10123000D62F40E09BDE40E06D2F8C2F61DF2FEF3B
:1012400084E39CE0215080409040E1F700C0000022
:1012500041E06D2F8C2F54DF41E06D2F8C2FDF91FB
:10126000CF9184CE882331F095E19A95F1F7000073
:101270008450F8CF0895EF92FF920F931F93CF936E
:10128000DF93E82E68DE8111FDCF839A8091020200
:10129000880F880FE7DF829A80910202880F880FFB
:1012A000880FE0DF82E00E94940080910202880FA4
:1012B000880FD8DFD0E0C0E011E0F12C01E0C701D9
:1012C0000C2E02C0959587950A94E2F780FF5AC0CC
:1012D00083E00E949400102780910202880F880FFB
:1012E000C1DF829A80910202880F880F880FBADFCF
:1012F00082E00E94940080910202880F880FB2DF82
:101300002196C830D105D9F6112309F43DC083E0F8
:101310000E94940080910202880F880FA3DF829AB6
:1013200080910202880F880F880F9CDF82E00E9464
:10133000940080910202880F880F94DF83E00E945E
:10134000940080910202880F880F8CDF829A80912E
:101350000202880F880F880F85DF82E00E949400C8
:1013600080910202880F880F7DDF87EC90E0019763
:10137000F1F700C00000DF91CF911F910F91FF9016
:10138000EF900895839AA8CF839AC4CF0F931F93A9
:10139000CF93DF93EC018091820590918305892B97
:1013A00061F480EF68DF82E166DF1092C80580EFAC
:1013B00062DF84E160DF1092DF052FEF81EE94E0C1
:1013C000215080409040E1F700C0000089E253DFE7
:1013D000EFEFF1EE24E0E150F0402040E1F700C0F3
:1013E000000080EF48DF89E246DF8FEF91EEE4E016
:1013F00081509040E040E1F700C0000089E43BDF0D
:10140000FFEF21EE84E0F15020408040E1F700C082
:10141000000080EF30DF89E42EDF8E010F5F1F4F69
:10142000888190E098012C1B3D0B8217930734F1C3
:101430009FEFE1EEF4E09150E040F040E1F700C0B2
:101440000000F80181918F0116DFFFEF21EE84E0AB
:10145000F15020408040E1F700C0000080EF0BDF3A
:10146000F8013197808107DF9FEFE1EEF4E09150C2
:10147000E040F040E1F700C00000D2CFC80FD91F14
:10148000898180930202DF91CF911F910F9108957E
:10149000EF92FF921F93CF93DF93C82F7B01142FFE
:1014A000853429F038F48FEF8C0F8A3028F480EEE1
:1014B000E2DE02C08934D9F3CC23F1F0D0E0EF288A
:1014C000B9F0113071F4CB59DD4F88818058DF912C
:1014D000CF911F91FF90EF90CECECB59DD4F8881F9
:1014E000F6CF123049F480EFC6DEC75FDD4FF7CF8D
:1014F000113099F31230C9F3DF91CF911F91FF9012
:10150000EF9008952F923F924F925F926F927F9249
:101510008F929F92AF92BF92CF92DF92EF92FF9203
:101520000F931F93CF93DF931092900562E081E0B9
:10153000B2DD882309F4C9C025E32A95F1F700003C
:1015400062E081E0A8DD882309F445C0809155055B
:10155000813071F580910002909101020197909382
:101560000102809300028FE39CE90197F1F700C02C
:10157000000080910002909101028436910558F597
:101580008CE291E090930102809300021092550545
:101590002A9862E081E07FDD8823E9F09FEFA4E3F1
:1015A000BCE09150A040B040E1F700C00000F1CF96
:1015B0008CE291E0909301028093000281E080939D
:1015C00055052A9AEFEFF4E32CE0E150F04020407B
:1015D000E1F700C0000080919005811159C056E1EB
:1015E000E52E55E0F52E69E0862E65E0962E01E9A0
:1015F00015E0712CD7014D907D01F40151904F0100
:1016000040E0642D852D7CDD40E0642D852DAEDC31
:10161000FAE1FA95F1F700C03EE2A32E35E0B32ED1
:1016200043E2C42E45E0D42EE801612CD5012D9073
:101630005D01F60131906F01622D832D2CDD882331
:1016400009F48CC0F5E3FA95F1F70000622D832DC3
:1016500022DD882309F46DC0888180FF5AC0826032
:10166000888327E0271528F484E040E0861508F4F5
:101670005BC0639421968BE06812D8CF41E0642D63
:10168000852D3EDD7394055F1F4F9DE07912B2CF2B
:1016900080918D05882309F46FC041E955E028E069
:1016A00030E090E080E0FA01E80FF91F608160FD12
:1016B00031E0019685309105B1F72150455F5F4FCC
:1016C0002111EFCF30938D0586CF8091000290914C
:1016D00001028C329140B0F4209A2898BFEFE1EEDD
:1016E000F4E0B150E040F040E1F700C00000209885
:1016F000289A2FEF84E39CE0215080409040E1F74E
:1017000000C000008CE291E09093010280930002FF
:1017100062CF8160888397E0971508F0AACFA4E094
:10172000A61508F0A6CF41E0662D872D0E949F00E8
:10173000A0CF888180FF9DCF8C7F84608883B7E0B5
:10174000B71508F096CFE4E0E61508F092CF4FEF1A
:10175000662D872D0E949F0018828BCF888180FF85
:1017600088CF8C7F84608883F7E0F71508F081CFFD
:1017700024E0261560F37DCF80915405882309F479
:1017800013C48091C80582FF0CC01092C8058091D7
:10179000820590918305892B21F480EF6CDD82E135
:1017A0006ADD8091DF0582FF0CC01092DF05809119
:1017B000820590918305892B21F480EF5CDD84E123
:1017C0005ADD8091A00580FFB4C01092560580912B
:1017D000530591E0811190E090935305811102C06F
:1017E000109251058091820590918305892B61F4B7
:1017F00080EF41DD82E13FDD1092C80580EF3BDDE7
:1018000084E139DD1092DF0580910302823009F016
:101810008BC0AFEFB0E7E2E0A150B040E040E1F7AD
:1018200000C0000089E227DDFFEF20E782E0F150F1
:1018300020408040E1F700C0000080EF1CDD89E21D
:101840001ADD9FEFA0E7B2E09150A040B040E1F771
:1018500000C0000089E40FDDEFEFF0E722E0E15087
:10186000F0402040E1F700C0000080EF04DD89E493
:1018700002DD80915305882309F497C2C2EED2E0BD
:1018800025EEE22E22E0F22E8FEF90E7A2E08150CB
:101890009040A040E1F700C000001991812FEBDCDF
:1018A000BFEFE0E7F2E0B150E040F040E1F700C008
:1018B000000080EFE0DC812FDEDC2FEF80E792E09C
:1018C000215080409040E1F700C00000EC16FD067A
:1018D000D9F6C1ECD2E089ECE82E82E0F82EEFEFE9
:1018E000F0E722E0E150F0402040E1F700C00000C6
:1018F0001991812FC0DC8FEF90E7A2E081509040DA
:10190000A040E1F700C0000080EFB5DC812FB3DC20
:10191000BFEFE0E7F2E0B150E040F040E1F700C097
:101920000000EC16FD06D9F681E0809390058093C7
:101930008F058091BD0580FFB1C081E09091570572
:10194000911180E0809357058091820590918305E5
:10195000892B61F480EF8FDC82E18DDC1092C80569
:1019600080EF89DC84E187DC1092DF05809103023F
:10197000823009F08EC02FEF80E792E02150804046
:101980009040E1F700C0000089E275DCAFEFB0E7FE
:10199000E2E0A150B040E040E1F700C0000080EF7D
:1019A0006ADC89E268DCFFEF20E782E0F15020404A
:1019B0008040E1F700C0000089E45DDC9FEFA0E714
:1019C000B2E09150A040B040E1F700C0000080EFCD
:1019D00052DC89E450DC80915705882309F411C258
:1019E000C2EED2E0EFEFF0E722E0E150F04020401D
:1019F000E1F700C000001991812F3DDC8FEF90E7E7
:101A0000A2E081509040A040E1F700C0000080EFCC
:101A100032DC812F30DCBFEFE0E7F2E0B150E04094
:101A2000F040E1F700C0000022E0C53ED207D1F649
:101A3000C9ECD2E015EDE12E12E0F12EAFEFB0E7E8
:101A4000E2E0A150B040E040E1F700C00000199191
:101A5000812F11DCFFEF20E782E0F1502040804031
:101A6000E1F700C0000080EF06DC812F04DC9FEF6F
:101A7000A0E7B2E09150A040B040E1F700C0000004
:101A8000EC16FD06D9F66091570588E090E00E94BB
:101A9000C32081E08093900580938F058091BE05DF
:101AA00080FFB4C081E090915805911180E080934F
:101AB00058058091820590918305892B61F480EF10
:101AC000DADB82E1D8DB1092C80580EFD4DB84E159
:101AD000D2DB1092DF0580910302823009F091C0C1
:101AE000EFEFF0E722E0E150F0402040E1F700C0E6
:101AF000000089E2C0DB8FEF90E7A2E081509040C8
:101B0000A040E1F700C0000080EFB5DB89E2B3DB65
:101B1000BFEFE0E7F2E0B150E040F040E1F700C095
:101B2000000089E4A8DB2FEF80E792E0215080409D
:101B30009040E1F700C0000080EF9DDB89E49BDB73
:101B400080915805882309F488C1C2EED2E0B5EE31
:101B5000EB2EB2E0FB2EAFEFB0E7E2E0A150B040D9
:101B6000E040E1F700C000001991812F84DBFFEF16
:101B700020E782E0F15020408040E1F700C0000003
:101B800080EF79DB812F77DB9FEFA0E7B2E0915008
:101B9000A040B040E1F700C00000EC16FD06D9F609
:101BA000C5EDD2E0AEEDEA2EA2E0FA2E8FEF90E77F
:101BB000A2E081509040A040E1F700C000001991E0
:101BC000812F59DBBFEFE0E7F2E0B150E040F04099
:101BD000E1F700C0000080EF4EDB812F4CDB2FEFE0
:101BE00080E792E0215080409040E1F700C0000083
:101BF000EC16FD06D9F66091580587E090E00E944A
:101C0000C32081E08093900580938F058091D60555
:101C100080FF86C081E090915C05911180E0809307
:101C20005C058091820590918305892B61F480EF9A
:101C300022DB82E120DB1092C80580EF1CDB84E10F
:101C40001ADB1092DF0580910302823009F063C035
:101C5000AFEFB0E7E2E0A150B040E040E1F700C0F4
:101C6000000089E208DBFFEF20E782E0F15020402E
:101C70008040E1F700C0000080EFFDDA89E2FBDA86
:101C80009FEFA0E7B2E09150A040B040E1F700C064
:101C9000000089E4F0DAEFEFF0E722E0E150F040F5
:101CA0002040E1F700C0000080EFE5DA89E4E3DAE4
:101CB00080915C05882309F4F9C0C1EFD2E08FEF71
:101CC00090E7A2E081509040A040E1F700C0000002
:101CD0001991812FD0DABFEFE0E7F2E0B150E04098
:101CE000F040E1F700C0000080EFC5DA812FC3DAD1
:101CF0002FEF80E792E0215080409040E1F700C054
:101D00000000A2E0CC3FDA07D1F660915C0589E0E3
:101D100090E00E94C32081E08093900580938F051E
:101D200061E9C62E65E0D62E71EEA72E74E0B72EBF
:101D3000E9EE8E2EE5E09E2E11E002E0F12CE12C82
:101D4000F601EE0DFF1D808180FF19C1F501EE0D3A
:101D5000FF1D7080C72DD0E05090820560908305F4
:101D6000109281052B981092560589E493E02097F4
:101D700031F0C130D10509F0C5C084E493E006DB41
:101D8000C530D10509F0C4C08EE293E0FFDA80E1EE
:101D900093E0CA30D10509F0C1C0F8DAFEE0F715CA
:101DA00008F0E3C0C52DD62DE0C0CEEDD2E092EE16
:101DB000E92E92E0F92EAFEFB0E7E2E0A150B0409B
:101DC000E040E1F700C000001991812F54DAFFEFE5
:101DD00020E782E0F15020408040E1F700C00000A1
:101DE00080EF49DA812F47DA9FEFA0E7B2E0915008
:101DF000A040B040E1F700C00000EC16FD06D9F6A7
:101E000068CDCEEDD2E002EEE02E02E0F02E8FEFB4
:101E100090E7A2E081509040A040E1F700C00000B0
:101E20001991812F28DABFEFE0E7F2E0B150E040EE
:101E3000F040E1F700C0000080EF1DDA812F1BDACF
:101E40002FEF80E792E0215080409040E1F700C002
:101E50000000EC16FD06D9F6EBCDCEEDD2E0EFEFAB
:101E6000F0E722E0E150F0402040E1F700C0000040
:101E70001991812F00DA8FEF90E7A2E08150904016
:101E8000A040E1F700C0000080EFF5D9812FF3D921
:101E9000BFEFE0E7F2E0B150E040F040E1F700C012
:101EA000000022E0C23ED207D1F67ACEC5EED2E0E3
:101EB000F1EFEF2EF2E0FF2EBFEFE0E7F2E0B150DE
:101EC000E040F040E1F700C000001991812FD3D924
:101ED0002FEF80E792E0215080409040E1F700C072
:101EE000000080EFC8D9812FC6D9AFEFB0E7E2E09C
:101EF000A150B040E040E1F700C00000EC16FD0644
:101F0000D9F603CFC230D10579F48FE393E03EDAFE
:101F1000C630D10581F487E293E038DACB30D105C1
:101F200089F487E093E039CFC330D10509F025C4A7
:101F30008AE393E02BDAC730D10509F044C480E28C
:101F400093E024DACC30D10509F044C41093810524
:101F500010927D0510927E0510927F0510928005EB
:101F60000093030283E093E011DA1093900510933D
:101F70008F0510925405D0938305C09382052FEFEF
:101F8000E21AF20A85E0E816F10409F0D9CE9BE0E6
:101F9000C90ED11CA5E0AA0EB11C8C149D0409F039
:101FA000CDCE81E080939005809190058111D2C3C0
:101FB0008091C80580FFD3C28091DF0580FFCFC22A
:101FC00080918F058111B3C6809182059091830520
:101FD0000C970397D8F48091CB0580FF07C081E070
:101FE00090915605911180E0809356058091D4051B
:101FF00080FF03C081E080938E05BFEFE3ECF9E042
:10200000B150E040F040E1F700C000008091C00511
:1020100080FF14C080915905813031F08091820594
:1020200090918305892B51F01092810581E0809376
:1020300054058093900580938D052B9A809103021F
:10204000823009F0BAC58091D60580FF5FC08091CB
:10205000820590918305892B09F058C0809159051C
:102060008F5F833008F080E08093590580EF03D9BB
:1020700082E101D91092C80580EFFDD884E1FBD838
:102080001092DF0580910302823009F03AC02FEFF1
:1020900080E792E0215080409040E1F700C00000CE
:1020A00089E2E9D8AFEFB0E7E2E0A150B040E0400C
:1020B000E1F700C0000080EFDED889E2DCD8FFEF56
:1020C00020E782E0F15020408040E1F700C00000AE
:1020D00089E4D1D89FEFA0E7B2E09150A040B04092
:1020E000E1F700C0000080EFC6D889E4C4D8809131
:1020F0005905813009F4ADC308F476C3823009F480
:10210000DAC381E08093900580938F0580919105DB
:1021100080FF0DC080915905823049F0C12CE12C1F
:1021200000E020E045E060E080E00E94D11980916D
:10213000920580FF0DC080915905823049F0C12C75
:10214000E12C00E020E046E061E080E00E94D1194F
:102150008091930580FF0DC080915905823049F030
:10216000C12CE12C00E020E044E062E080E00E942D
:10217000D1198091940580FF0DC08091590582305E
:1021800049F0C12CE12C00E020E04CE063E080E06D
:102190000E94D1198091950580FF0DC0809159054D
:1021A000823049F0C12CE12C00E020E043E064E003
:1021B00080E00E94D1198091B60580FF0DC080910A
:1021C0005905823049F0C12CE12C00E020E04BE0C1
:1021D00064E083E00E94D1198091B50580FF0DC0B5
:1021E00080915905823049F0C12CE12C00E020E0BB
:1021F00043E863E083E00E94D1198091B40580FF39
:102200000DC080915905823049F0C12CE12C00E0CD
:1022100020E04AE062E083E00E94D1198091B3059A
:1022200080FF0DC080915905823049F0C12CE12C0E
:1022300000E020E041E061E083E00E94D11980915C
:10224000B20580FF0DC080915905823049F0C12C44
:10225000E12C00E020E049E060E083E00E94D11939
:1022600080919C0580FF0DC080915905823049F016
:10227000C12CE12C00E020E048E760E081E00E9412
:10228000D11980919D0580FF0DC080915905823044
:1022900049F0C12CE12C00E020E047E061E081E062
:1022A0000E94D1198091A80580FF54C080918205B9
:1022B00090918305009709F44DC00497D9F58AE001
:1022C0000E943B09FFEF20E782E0F1502040804070
:1022D000E1F700C0000089E00E943B099FEFA0E702
:1022E000B2E09150A040B040E1F700C0000080EFA4
:1022F0000E943B0989E00E943B09EFEFF3ED20E3E8
:10230000E150F0402040E1F700C0000080EF0E9463
:102310003B098AE00E943B098FEF90E7A2E08150E1
:102320009040A040E1F700C0000081E0809390055C
:1023300080938F058091820590918305039751F4D6
:10234000C12CEE24E39400E020E047E061E082E06D
:102350000E94D1198091A70580FF13C08091590573
:10236000813031F08091820590918305892B49F06D
:10237000C12CE12C00E020E049E060E082E00E9416
:10238000D1198091C10580FF14C080915905823018
:1023900031F48091820590918305892B51F0CC24F2
:1023A000C394EE24E39400E020E043E064E084E0A2
:1023B000F8D78091E20580FF14C0809159058230E2
:1023C00031F48091820590918305892B51F0CC24C2
:1023D000C394EE24E39400E020E046E664E087E066
:1023E000E0D78091E10580FF14C0809159058230CB
:1023F00031F48091820590918305892B51F0CC2492
:10240000C394EE24E39400E020E041E763E087E03A
:10241000C8D78091AB0580FF12C0809159058230EA
:1024200031F48091820590918305892B41F0C12C74
:10243000E12C00E020E04EE764E082E0B2D780913A
:10244000CC0580FF0CC0809182059091830520917E
:102450005905213009F461C2892B09F070C28091BD
:10246000CA0580FF0CC08091820590918305209160
:102470005905213009F41AC3892B09F029C3809129
:102480009E0580FF0EC08091820590918305892B67
:1024900041F0C12CE12C00E021E04DE762E081E059
:1024A00080D780919F0580FF0EC08091820590911A
:1024B0008305892B41F0C12CE12C00E021E04AE7A3
:1024C00063E081E06ED78091A90580FF0EC0809106
:1024D000820590918305892B41F0C12CE12C01E00C
:1024E00021E04DE762E082E05CD78091AA0580FFA1
:1024F0000EC08091820590918305892B41F0C12CFB
:10250000E12C01E021E04AE763E082E04AD78091D4
:10251000D70580FF0EC08091820590918305892B9D
:1025200041F0C12CE12C00E020E04BE764E086E0C4
:1025300038D78091E00580FF0EC080918205909190
:102540008305892B41F0C12CE12C00E020E04CE711
:1025500062E087E026D7809190058111FBC08091D1
:102560005305882309F462C08091C80590915205F3
:102570009111E8C3882361F08091B50580FF08C000
:1025800065E085E00E9415091092B505109251058D
:102590008091C805882361F08091B60580FF08C04E
:1025A00067E085E00E9415091092B605109251056A
:1025B0008091C805882361F08091950580FF08C04F
:1025C00065E084E00E94150910929505109251056E
:1025D0008091C805882389F08091B40580FF0DC0E3
:1025E00080915105882309F4A5C3109251051092DA
:1025F0005305109252051092B4058091D30580FFC7
:1026000008C065E083E00E9415091092D30510927E
:1026100051058091C805882349F08091910580FF7C
:1026200005C01092910581E0809352052091C80564
:10263000922F91704091820550918305452B09F0AE
:102640008DC3992379F021FD0DC082E10E943B09E1
:102650008091C80582608093C805809120068F5FB5
:10266000809320068091DF0580FF0FC081FD0DC0A3
:1026700084E10E943B098091DF0582608093DF0541
:10268000809120068F5F809320068091C80582FF8D
:102690000DC080EF0E943B0982E10E943B0910922D
:1026A000C805809120068F5F809320068091DF050A
:1026B00082FF0DC080EF0E943B0984E10E943B092C
:1026C0001092DF05809120068F5F80932006809115
:1026D0002006882331F0BAE1BA95F1F700C01092D4
:1026E0002006C2E5D4E091E9E92E95E0F92E2AEA28
:1026F000C22E24E0D22E470110E000E05401F40184
:10270000808180FF08C081FD06C0FE01E00FF11F3F
:1027100080810E943B09FFEF8F1A9F0AD5018C919F
:1027200082FF0CC080EF0E943B09FE01E00FF11F09
:1027300080810E943B09F401319710820F5F1F4F87
:1027400005301105D9F62B96BBE0EB0EF11CCC162B
:10275000DD0689F6DF91CF911F910F91FF90EF90E9
:10276000DF90CF90BF90AF909F908F907F906F90B1
:102770005F904F903F902F900895C430D10509F09D
:10278000FFCA83E393E00E94C609C930D10509F06E
:10279000FECA85E193E00E94C609CE30D10509F05A
:1027A000FDCA1093810510927D0510927E0510924E
:1027B0007F0510928005009303028CEF92E00E9447
:1027C000C6092B9AD2CBC830D105F9F68BE193E03C
:1027D0000E94C609CD30D10501F7109281051093F2
:1027E000030289E395E0C0CBCFE5D3E05EE6E52EBA
:1027F00053E0F52EEFEFF0E722E0E150F04020400B
:10280000E1F700C000001991812F0E943B098FEF72
:1028100090E7A2E081509040A040E1F700C00000A6
:1028200080EF0E943B09812F0E943B09BFEFE0E748
:10283000F2E0B150E040F040E1F700C000006091EC
:10284000590586E090E00E94C320EC16FD0691F643
:1028500058CCC3E5D3E02FEF80E792E021508040D1
:102860009040E1F700C000001991812F0E943B09C0
:10287000AFEFB0E7E2E0A150B040E040E1F700C0C8
:10288000000080EF0E943B09812F0E943B09FFEF6F
:1028900020E782E0F15020408040E1F700C00000D6
:1028A0006091590586E090E00E94C32093E0CF3507
:1028B000D90789F626CCCDE4D3E0AFEFB0E7E2E06C
:1028C000A150B040E040E1F700C000001991812F15
:1028D0000E943B09FFEF20E782E0F150204080405A
:1028E000E1F700C0000080EF0E943B09812F0E94A9
:1028F0003B099FEFA0E7B2E09150A040B040E1F764
:1029000000C000006091590586E090E00E94C3205D
:10291000E3E0C335DE0789F6F4CB892B81F480EF41
:102920000E943B0982E10E943B091092C80580EF9A
:102930000E943B0984E10E943B091092DF0589E275
:102940000E943B09BFEFE0E7F2E0B150E040F04009
:10295000E1F700C0000080EF0E943B0989E20E947D
:102960003B0948E7E42E43E0F42ED0E0C0E0C2305B
:10297000D10519F0C430D105D9F42FEF80E792E0EA
:10298000215080409040E1F700C0000089E40E949F
:102990003B09AFEFB0E7E2E0A150B040E040E1F723
:1029A00000C0000080EF0E943B0989E40E943B09BF
:1029B000FFEF20E782E0F15020408040E1F700C0C7
:1029C0000000D701ED917D01F0E0E259FC4F10814C
:1029D000812F0E943B09BFEFE0E7F2E0B150E040F9
:1029E000F040E1F700C0000080EF0E943B09812F1A
:1029F0000E943B092FEF80E792E0215080409040F9
:102A0000E1F700C000002196C830D10509F0AFCF32
:102A100089E20E943B09AFEFB0E7E2E0A150B0408D
:102A2000E040E1F700C0000080EF0E943B0989E22E
:102A30000E943B098DE20E943B09FFEF20E782E004
:102A4000F15020408040E1F700C0000080EF0E947C
:102A50003B098DE20E943B099FEFA0E7B2E0915055
:102A6000A040B040E1F700C0000086E10E943B09B1
:102A7000EFEFF0E722E0E150F0402040E1F700C046
:102A8000000080EF0E943B0986E10E943B098FEF26
:102A900090E7A2E081509040A040E1F700C0000024
:102AA00081E08093900580938F05D9CC892B81F4A8
:102AB00080EF0E943B0982E10E943B091092C80509
:102AC00080EF0E943B0984E10E943B091092DF05E0
:102AD0006091820585E090E00E94C320809103020E
:102AE000823009F064C0BFEFE0E7F2E0B150E040AF
:102AF000F040E1F700C0000089E20E943B092FEF9F
:102B000080E792E0215080409040E1F700C0000053
:102B100080EF0E943B0989E20E943B09AFEFB0E7DA
:102B2000E2E0A150B040E040E1F700C0000089E4DD
:102B30000E943B09FFEF20E782E0F15020408040F7
:102B4000E1F700C0000080EF0E943B0989E40E9489
:102B50003B09C0E8D3E03AE8E32E33E0F32E9FEFE1
:102B6000A0E7B2E09150A040B040E1F700C0000003
:102B70001991812F0E943B09EFEFF0E722E0E1502D
:102B8000F0402040E1F700C0000080EF0E943B09C8
:102B9000812F0E943B098FEF90E7A2E08150904087
:102BA000A040E1F700C00000EC16FD06C1F681E090
:102BB0008093900580938F0562CC813009F0CBCC57
:102BC0008091910580FF09C0C0908E05E12C00E046
:102BD00020E04BE360E080E0E4D38091920580FF49
:102BE00009C0C0908E05E12C00E020E04CE361E0DC
:102BF00080E0D7D38091930580FF09C0C0908E05F7
:102C0000E12C00E020E04DE362E080E0CAD3809157
:102C1000940580FF09C0C0908E05E12C00E020E003
:102C20004EE363E080E0BDD38091950580FF09C04D
:102C3000C0908E05E12C00E020E04FE364E080E0EE
:102C4000B0D38091B60580FF09C0C0908E05E12CFD
:102C500000E020E040E464E083E0A3D38091B50588
:102C600080FF09C0C0908E05E12C00E020E041E427
:102C700063E083E096D38091B40580FF09C0C090E3
:102C80008E05E12C00E020E042E462E083E089D39D
:102C90008091B30580FF09C0C0908E05E12C00E053
:102CA00020E043E461E083E07CD38091B20580FFC3
:102CB00009C0C0908E05E12C00E020E044E460E013
:102CC00083E06FD380919C0580FF09C0C0908E0582
:102CD000E12C00E020E047E560E081E062D38091F4
:102CE0009D0580FF09C0C0908E05E12C00E020E02A
:102CF00048E561E081E055D38091E20580FF0AC09C
:102D0000CC24C394EE24E39400E020E04EE064E0A1
:102D100087E047D38091E10580FF1DCCCC24C3948C
:102D2000EE24E39400E020E043E563E012CC10924F
:102D30008F0511CC68E083E00E94150981E0809343
:102D4000510559CC882309F471CC8091910580FFFD
:102D50006DCC109291051092520568CC40915005AF
:102D600041115EC080914F0581115AC080914E057E
:102D7000811156C0992311F021FF06C09091DF0503
:102D800090FF16C091FD14C061E975E030E020E0CD
:102D90008530C1F521113AC02F5F3F4F25303105F5
:102DA000B9F78F5F655F7F4F883081F7409350059B
:102DB00081E9C82E85E0D82E10E0512CB12CA12C31
:102DC000F601E159F5407F01E5013601312CF5E0CE
:102DD0005F122FC0311033C03394FFEF6F1A7F0A98
:102DE00021962FEFE21AF20A85E03812F0CF5394C1
:102DF0009BE0C90ED11CA5E0AA0EB11CB8E05B1285
:102E0000DFCFA8CC873011F4213031F2FB01E20F83
:102E1000F31F9081592F517090FFBECF452FC1CF26
:102E20009111C6CF8091DF0580FDC2CF1092500571
:102E3000BFCF27E0521203C081E0381669F2D301F8
:102E40008C9180FF1DC181FD1BC190915005911196
:102E50000EC09091C80590FF02C088608C9380914D
:102E6000DF0580FF04C0F301808180618083D3018E
:102E70008C9183FF2CC084FD2AC080910302FE0147
:102E8000823009F08CC0E65DFB4F0081109279051D
:102E90001092780510927505011189C0823009F0F1
:102EA00081C082E10E943B0982E180937505809197
:102EB0000302F701EE5AFB4F823019F0FE01E65291
:102EC000FC4F9080892D0E943B0990927A05F30176
:102ED000808184FF32C083FD30C080908205909055
:102EE0008305109279051092780510927505B4014A
:102EF000F701EE5AFB4F80810E94D801482E8823AB
:102F0000E1F0FCE08F1A910823E08216910408F0AA
:102F100076C080910302813009F071C0FE01EE5449
:102F2000FC4F4080FE01E657FC4F808181116CC050
:102F3000842D0E943B0940927A05D3018C918871BF
:102F400009F09AC08091030290915605109279057C
:102F500010927805992309F4F1C01092750582301A
:102F600009F05FC0F701EE5AFB4F1081143409F4E9
:102F700050C01D3409F44FC0153109F44EC01C3146
:102F800009F44DC01B3639F0143729F0153719F004
:102F9000123709F064C080EE8093750560C0EE5F63
:102FA000FB4F73CF8AE20E943B098AE27ECF8230D8
:102FB00071F40B3631F08CE8800F823010F002375C
:102FC00031F480EE0E943B0980EE8093750580917C
:102FD0000302813071F40B3431F00D3421F00834E8
:102FE00011F0003531F480EE0E943B0980EE8093B1
:102FF0007505802F0E943B0900937A0568CF47FE34
:103000007AC180E8480E94CF8AE20E943B098AE2A6
:103010007BC11BE6C0CF14E7BECF15E7BCCF12E7DC
:10302000BACF8130E1F4FE01E652FC4F1081183135
:1030300009F47CC0193109F47BC0103109F47AC05D
:103040001E3109F479C01B3409F4A5CF1D3409F4ED
:10305000A2CF183409F49FCF103509F49CCF1093F8
:103060007A0580917505882319F080EE0E943B094E
:1030700080917A050E943B09F30180818260808300
:10308000D3018C9182FFA8CE83FF21C084FD1FC095
:1030900080910302FE01823009F05EC0E65DFB4FC5
:1030A000008110927A05011163C0823009F057C087
:1030B00080EF0E943B09F701EE5AFB4F80810E948E
:1030C0003B0980EF0E943B0982E10E943B09F3012A
:1030D000808184FF94C083FD92C08090820590908F
:1030E000830510927A05B401F701EE5AFB4F8081F7
:1030F0000E94D801482E882309F481C080910302E0
:10310000FCE08F1A910823E08216910408F058C061
:10311000813009F055C0FE01EE54FC4F4080FE01A5
:10312000E657FC4F908080E8840D5AC01BE433CFF3
:103130001DE431CF18E42FCF10E52DCFF701EE5A63
:10314000FB4F823019F0FE01E652FC4F80818093E4
:103150007A05109275058CCFEE5FFB4FA1CFFE0173
:10316000E652FC4F808180580E943B098AEAADCF2D
:10317000823059F40B3631F08CE8800F823010F039
:10318000023719F480EE0E943B09809103028130DE
:1031900059F40B3431F00D3421F0083411F00035BE
:1031A00019F480EE0E943B0980910302823029F4D9
:1031B00080EF0E943B09802F88CF80E8800F85CF69
:1031C000942C9094991C9924991C47FE02C090E875
:1031D000490E823009F0A7CF80EF0E943B09842D71
:1031E0000E943B09992059F080910302823009F036
:1031F00055C080EF0E943B0982E10E943B09D30148
:103200008C91887109F047C0809103029091560516
:10321000992309F455C010927A058230E9F4F70138
:10322000EE5AFB4F10811434D9F11D34D9F1153108
:10323000D9F11C31D9F11B3631F0143721F0153793
:1032400011F0123719F480EE0E943B0980EF0E94C2
:103250003B09812F0E943B09809103028130D9F400
:10326000FE01E652FC4F1081183111F1193111F1B4
:10327000103111F11E3111F11B3431F01D3421F0E8
:10328000183411F0103519F480EE0E943B0980E8E3
:10329000810F0E943B09F30110829ECD8AEAADCFD7
:1032A0001BE6D1CF14E7CFCF15E7CDCF12E7CBCFB9
:1032B0001BE4EACF1DE4E8CF18E4E6CF10E5E4CF45
:1032C000823091F480EF0E943B09F701EE5AFB4FE8
:1032D0009080892D0E943B0980917A05981201C047
:1032E00080E080937A05D7CFFE01E652FC4F9080B4
:1032F00080E8890DEFCF80910302823009F084CEFF
:1033000082E10E943B0982E18093750511CE1F92F4
:103310000F920FB60F9211242F933F938F939F9389
:10332000AF93BF938091890590918A05A0918B05F9
:10333000B0918C053091880523E0230F2D3758F587
:103340000196A11DB11D2093880580938905909356
:103350008A05A0938B05B0938C058091840590918C
:103360008505A0918605B09187050196A11DB11D27
:103370008093840590938505A0938605B093870577
:10338000BF91AF919F918F913F912F910F900FBE61
:103390000F901F90189526E8230F0296A11DB11DCE
:1033A000D2CFCF92EF92FF920F931F93CF93DF93E1
:1033B000C82FD62F142FF22E80912006882331F0AB
:1033C0002AE12A95F1F700C010922006002369F047
:1033D00080910302823009F09FC082E10E943B0984
:1033E000809120068F5F80932006EE2081F08091EF
:1033F0000302823009F092C080EE0E943B0984E112
:103400000E943B09809120068F5F80932006CC208C
:1034100069F080910302823009F085C081E10E9449
:103420003B09809120068F5F8093200680912006C3
:10343000882331F08AE18A95F1F700C010922006C6
:10344000FF2019F080EE0E943B09812F0E943B096A
:103450009FEFE0E7F2E09150E040F040E1F700C07C
:103460000000FF2019F080EE0E943B0980910302CA
:10347000823019F480EF0E943B0980910302823070
:1034800009F053C0812F0E943B092BE0C29FB0017D
:1034900011246F567A4F6D0F711DFB0110820023AE
:1034A00059F080910302823009F042C080EF0E94FF
:1034B0003B0982E10E943B09EE2069F08091030202
:1034C0008230C1F580EE0E943B0980EF0E943B09EB
:1034D00084E10E943B09CC2051F0809103028230AC
:1034E00071F580EF0E943B0981E10E943B09FAE1FE
:1034F000FA95F1F700C081E08093900580938F05E5
:1035000010928E0580938D05DF91CF911F910F91C1
:10351000FF90EF90CF9008958AE260CF80EE0E94F6
:103520003B098DE16DCF88E37ACF80E8810FABCF87
:103530008AEAC0CF80EE0E943B098DE9CACF88EBB2
:10354000D4CFCF93DF9300D000D000D01F92CDB75F
:10355000DEB7789484B5826084BD84B5816084BD13
:1035600085B5826085BD85B5816085BD80916E0021
:10357000816080936E001092810080918100826052
:10358000809381008091810081608093810080918F
:1035900080008160809380008091B100846080937E
:1035A000B1008091B00081608093B0008091910063
:1035B000826080939100809191008160809391005E
:1035C000809190008160809390008091A100826042
:1035D0008093A1008091A10081608093A1008091DF
:1035E000A00081608093A00080912101826080937F
:1035F000210180912101816080932101809120012E
:1036000081608093200180917A00846080937A00A9
:1036100080917A00826080937A0080917A00816044
:1036200080937A0080917A00806880937A0010926B
:10363000C10080E88093610010926100229A2A986C
:103640002098289A239A2B98279A80910B018160C1
:1036500080930B018B988A9883E00E94940082E00B
:103660000E9494000EE215E0E3E2AE2EE5E0BE2EED
:10367000F801E1908F01F501F1905F0141E06E2DBD
:103680008F2D0E94800841E06E2D8F2D0E94B6077D
:10369000F5E009331F0761F706E115E069E0E62E62
:1036A00065E0F62E73E2A72E75E0B72EF801619162
:1036B0008F0141E0F70181917F010E948008A016EF
:1036C000B106A1F706E415E04FE3A42E45E0B42EC1
:1036D0005DE4852E55E0952EF801E1908F01F5010E
:1036E000F1905F0141E06E2D8F2D0E94800841E036
:1036F0006E2D8F2D0E94B6078016910669F740E067
:1037000062E086E00E94800841E065E084E00E947B
:10371000800841E065E084E00E94B60741E065E092
:1037200085E00E94800841E065E085E00E94B607E0
:1037300041E067E085E00E94800841E067E085E0C5
:103740000E94B60741E065E083E00E94800841E006
:1037500065E083E00E94B60741E068E083E00E94F4
:10376000800841E068E083E00E94B60710925B05A4
:1037700010925A052198299A85E0E4E0F2E0DE01F2
:10378000169601900D928A95E1F745E050E070E0C1
:1037900060E0CE010196D6D4FE013196DE01169688
:1037A000AD0121E0CD0161913D91631320E0E4176B
:1037B000F507C9F7222309F4A3C285E090E0D2D42B
:1037C000082F10E0109281052B981092560581E089
:1037D0000115110529F00130110509F025C284E019
:1037E000809302020530110509F024C284E0809321
:1037F00002020A30110509F023C284E0809302021C
:10380000109383050093820586E090E0ABD483306B
:1038100008F080E08093590587E090E0A3D48230DF
:1038200008F080E08093580588E090E09BD48230D7
:1038300008F080E08093570589E090E093D48230CF
:1038400008F080E080935C05AA24A394B12C11E0D9
:103850002224239430EA432E36E8532E66246394C0
:10386000712C90E0892E90E0992E0E94AB07209158
:103870008205309183052C5031098823A1F0233033
:10388000310588F480918105811150C480917D05B6
:1038900090917E05A0917F05B0918005892B8A2BA0
:1038A0008B2B09F043C480917D0590917E05A091FA
:1038B0007F05B09180050097A105B10509F060C2B0
:1038C0002330310588F580917A05882369F180914C
:1038D0007805909179059C012F5F3F4F30937905D2
:1038E00020937805893E934020F480910302823032
:1038F000D9F480917605909177059C012F5F3F4F19
:1039000030937705209376058739910568F080918B
:10391000750581110E943B0980917A050E943B093F
:1039200010927705109276050E94820A80916905AF
:1039300080935D0580916A0580935E0580916B059B
:1039400080935F0580916C058093600580916D0583
:103950008093610510926D0580916E0580936205DC
:1039600010926E0580916F058093630580917005BC
:1039700080936405809171058093650510927105AF
:10398000809172058093660510927205809173058F
:103990008093670510927305809174058093680584
:1039A000109274058FE39CE90197F1F700C00000C5
:1039B00080915C05882309F4EFC1809101018F7D1E
:1039C00080930101809102018062809302018091C5
:1039D00001018064809301018091020180648093E1
:1039E0000201249A2C9AEFEBF0E03197F1F700C036
:1039F0000000809102018F7B80930201F0E8FA952C
:103A0000F1F798E080E0282F30E035952795822F58
:103A10004091000145FF80682C9820E82A95F1F735
:103A20002C9AE0E8EA95F1F7915069F7982F917098
:103A300090936F05982F927090937005982F9470C3
:103A400090936D05982F987090936E05982F9071B4
:103A500090936905982F907290936A05982F9074AF
:103A600090936B05807880936C05809101018F7B2A
:103A70008093010180910201806480930201249867
:103A80002C9A8091690590915D05891759F061E044
:103A900070E0882311F070E060E0409103028BE158
:103AA0000E94480A80916A0590915E05891759F035
:103AB00061E070E0882311F070E060E04091030263
:103AC0008BE00E94480A80916B0590915F058917F1
:103AD00059F061E070E0882311F070E060E04091FF
:103AE000030289E10E94480A80916C05909160056B
:103AF000891759F061E070E0882311F070E060E010
:103B0000409103028AE10E94480A80916D059091DC
:103B10006105891759F061E070E0882311F070E0C9
:103B200060E04091030289E20E94480A80916E059C
:103B300090916205891759F061E070E0882311F0D7
:103B400070E060E04091030285E20E94480A8091A3
:103B50006F0590916305891759F061E070E0882343
:103B600011F070E060E04091030283E50E94480A92
:103B70008091700590916405891759F061E070E0BB
:103B8000882311F070E060E04091030282E20E941D
:103B9000480A8091710590916505891759F061E097
:103BA00070E0882311F070E060E04091030287E14B
:103BB0000E94480A8091720590916605891759F014
:103BC00061E070E0882311F070E060E04091030252
:103BD0008EE00E94480A80917305909167058917CD
:103BE00059F061E070E0882311F070E060E04091EE
:103BF000030280E10E94480A809174059091680553
:103C0000891759F061E070E0882311F070E060E0FE
:103C1000409103028DE00E94480A8114910409F446
:103C200024CE0E9400001DCE0230110569F484E00C
:103C3000809302020630110569F484E08093020249
:103C40000B30110569F4D9CD03301105F1F484E08E
:103C50008093020207301105B9F584E080930202D7
:103C60000C301105B9F584E08093020281E0809365
:103C7000810510927D0510927E0510927F051092AD
:103C8000800582E080930302BBCD0430110509F06A
:103C9000A9CD84E0809302020930110509F0A9CD75
:103CA00084E0809302020D30110509F0A9CD84E073
:103CB000809302021092810581E08093030289E3E0
:103CC00095E00E94C6099CCD0830110529F784E0D3
:103CD000809302020E30110531F784E080930202D6
:103CE00081E08093810510927D0510927E051092EF
:103CF0007F051092800582E0809303022B9A80CD8D
:103D000045E050E070E060E035D260E085E090E0B2
:103D10003AD261E086E090E036D260E087E090E061
:103D200032D260E088E090E02ED260E089E090E05E
:103D30002AD28ACD8AEF0E943B09EBC1823FD9F09B
:103D40008F3F09F0F3C18AEA0E943B091092810576
:103D5000EDC180917B05803F09F0E8C180910302AD
:103D60000E943B09E3C190917B05903F09F0DEC1C1
:103D700080930302DBC18BEA0E943B0983E8F0CF0A
:103D80000197A109B10980937D0590937E05A093C9
:103D90007F05B093800594CD41E062E086E00E940B
:103DA000B607FAE4FA95F1F700C068E084E00E94F3
:103DB0004B088093690568E085E00E944B0880937A
:103DC0006A0568E086E00E944B0880936B0562E01C
:103DD00084E00E944B0880936C0540E062E086E03E
:103DE0000E94B6072AE42A95F1F700C068E086E051
:103DF0000E944B08082F62E084E00E944B08802359
:103E000062E009F4B6C085E00E944B0880936F051C
:103E10006CE085E00E944B0880936E0541E062E013
:103E200086E00E94B6078AE48A95F1F700C062E056
:103E300085E00E944B08809370056CE085E00E944D
:103E40004B088093710540E062E086E00E94B6076F
:103E50009AE49A95F1F700C041E062E086E00E94A2
:103E6000B607EAE4EA95F1F700C040E062E086E0D8
:103E70000E94B607FAE4FA95F1F700C068E084E022
:103E80000E944B08082F68E085E00E944B08082339
:103E900068E086E00E944B08082362E084E00E940C
:103EA0004B088023C1F141E062E086E00E94B60742
:103EB0002AE42A95F1F700C068E084E00E944B08EC
:103EC0008093740568E085E00E944B088093730539
:103ED00068E086E00E944B088093720562E084E00F
:103EE0000E944B0880936D0540E062E086E00E94EE
:103EF000B6078AE48A95F1F700C041E062E086E007
:103F00000E94B6079AE49A95F1F700C040E062E09B
:103F100086E00E94B607EFE3FFE13197F1F700C0BA
:103F2000000041E062E086E00E94B607FAE4FA95FC
:103F3000F1F700C09091690580916A05292F282327
:103F400021F110936D0510935B0510926905109295
:103F50006A0590916B0580916C05292F282349F102
:103F600010936E0510935A0510926B0510926C0514
:103F700088CD85E00E944B0880936F056CE085E05A
:103F80000E944B0880937005CCCF20915B052223C3
:103F900021F010926D0510925B0521E030916105D2
:103FA000311120E0922390936905822380936A0562
:103FB000D0CF20915A05222321F010926E05109245
:103FC0005A0521E030916205311120E0922390934F
:103FD0006B05822380936C0554CD80917C05809382
:103FE0007B058FB1082F087083FDFBCF7A9BFECF36
:103FF00080910202880F880F0E943209829A809174
:104000000202880F880F880F0E94320982E00E9406
:10401000940080910202880F880F0E943209F12CCF
:10402000E12C332433947B9B09C0C5010E2C01C0C5
:10403000880F0A94EAF7082B21E0322680910202C9
:10404000880F880F0E943209829A80910202880F9D
:10405000880F880F0E94320982E00E9494008091AC
:104060000202880F880F0E9432098FEFE81AF80ABF
:1040700098E0E916F104B9F68FB183FBCC24C0F8BF
:10408000D12C3C141D0409F051C080910202880F0C
:10409000880F0E943209829A80910202880F880F4D
:1040A000880F0E94320982E00E94940080910202EF
:1040B000880F880F0E943209839A80910202880F2C
:1040C000880F0E943209829A80910202880F880F1D
:1040D000880F0E94320982E00E94940083E00E94CF
:1040E0009400EFE8F1E03197F1F700C00000009391
:1040F0007C0540927D0550927E0560927F0570920E
:1041000080050E3E09F016CE8EEE0E943B092092ED
:10411000810580917C05823009F425CE08F00ECE11
:10412000882309F416CE813009F41DCE89EE93E080
:10413000019709F472CD7B9B50CFFAE1FA95F1F724
:1041400000C0F6CFDC01CB01FC01F999FECF06C01F
:10415000F2BDE1BDF89A319600B40D924150504045
:10416000B8F70895F999FECF92BD81BDF89A9927C5
:1041700080B50895DC01CB0102C02D9105D04150DE
:104180005040D8F70895262FF999FECF1FBA92BD57
:1041900081BD20BD0FB6F894FA9AF99A0FBE019628
:1041A0000895EE0FFF1F881F8BBF0790F691E02D3B
:0641B0001994F894FFCF02
:1041B6002C01010253554741520075726B74706CA5
:1041C6007D71697A1C322123242B3433433B424BC5
:1041D6003A31444D152D1B2C3C2A1D22351A161E2C
:1041E60026252E363D3E46450506040C030B830A5E
:1041F6000109780769727A6B73746C757D704A7CF5
:104206007B795A717776664914117E5A2912595864
:104216000E0D55414C0048504B4D5247494B4F519E
:104226001E302E201221222317242526323118195A
:1042360010131F14162F112D152C02030405060743
:1042460008090A0B3B3C3D3E3F4041424344575818
:104256004F50514B4C4D4748495235374A4E1C53E7
:1042660045010E341D38461C392A363A290F0D33BE
:10427600272C1A22233C433144213C2D1B442D1B61
:104286002942324D2123244B29322D241C42442B12
:104296002B294431293B4435291C2C1C2D431B3A20
:1042A600233B4435292B1C3A4321443A0542322408
:1042B600222C04024D2104073B3C4D432C242D04A3
:1042C600031B1C3A0404442D432104032A432104FE
:1042D600051C4D4D4B2404051C21442D310403328D
:1042E600322104051C2C1C2D43040321362504030E
:1042F6003A1B220403214D2104021A22011A224DDF
:104306003C2D241A222B3C4B4B21443A32441B1A97
:10431600224D1C2D2C431C4B21443A32441B45167E
:104326001E26252E363D3E460206000902000200E4
:10433600212B342B4B1C1B332423010101010100CB
:10434600000001010101000101010101000101005C
:104356000000000001000100000001000100000053
:10436600000102030405060000003334292B2B1A32
:104376001B0C0B0A2808281B001B1A0027003535C2
:10438600000D0D0C07000034330902030405061066
:10439600111213141E1F2021220B0A0908071918CF
:1043A600171615002C2D2E2F1C26252423390032F6
:1043B60031303C3A00004B000000000000000000D5
:1043C600000E004D0050000000000000000000003C
:1043D6000F000000000100000000065800006B00FE
:1043E6000000000000000000006600747572000006
:1043F60000000000000000000D0000000076000034
:104406000000161E26252E000000000000151D24A3
:104416002D2C0000000000001C1B232B3400000084
:1044260000000045463E3D360000000000004D44B9
:10443600433C35000000000000001A22212A00003B
:10444600000000005A4B423B3300000000000029E8
:10445600003A3132000000000000000000000000B9
:10446600000000524C00000000004941000000001E
:104476000000000000040C0558006B00000000005E
:1044860074756601007200000000000000760D00E1
:10449600000102030405FFFF0EFFFF09FF0DFFFFEA
:1044A600000C080706FFFFFFFFFFFFFFFF0BFFFFE4
:1044B600FFFFFFFFFFFFFFFF0A01030507060402D8
:1044C60000020006040201010101030303030707BA
:1044D6000C0C0C07010701030507060402000C0774
:1044E600040303030301010101044D21222C0404EA
:0E44F6000506040506050808080202020C006F
:00000001FF
