:100000000C94D6000C94F7000C94F7000C94F700B5
:100010000C94F7000C94F7000C94F7000C94F70084
:100020000C94F7000C94F7000C94F7000C94F70074
:100030000C94F7000C94F7000C94F7000C94F70064
:100040000C94F7000C94F7000C94F7000C94F70054
:100050000C94F7000C94F7000C94F7000C94592AB8
:100060000C94F7000C94F7000C94F7000C94F70034
:100070000C94F7000C94F7000C94F7000C94F70024
:100080000C94F7000C94F7000C94F7000C94F70014
:100090000C94F7000C94F7000C94F7000C94F70004
:1000A0000C94F7000C94F7000C94F7000C94F700F4
:1000B0000C94F7000C94F7000C94F7000C94F700E4
:1000C0000C94F7000C94F7000C94F7000C94F700D4
:1000D0000C94F7000C94F7000C94F7000C94F700C4
:1000E0000C94F7000C94F20F0C94D40F0C94CE03E4
:1000F0000C94930F0C9456060C94460F0C94EB053D
:100100000C94280F0C94BE0C0C94BC0F0C94640F30
:100110000C9406080C94400A0C94370F0C945D1054
:100120000C94550F0C942E100C94D10F0C944C1071
:100130000C94CB0F0C94DF060C944B040C94AB0B7B
:100140000C941F100C94BD0D0C94D70F0C945F05EC
:100150000C944E0E0C94820F0C946B100C94550D55
:100160000C94BB0A0C9471020C94C70F0C94CF0F23
:100170000C94A10F0C9410100C948D070C94C90FC3
:100180000C94CD0F0C94730F0C94210B0C9440091C
:100190000C9401100C943D100C94EB020C94C109CA
:1001A0000C94D6040C94330C0C949C0811241FBEA0
:1001B000CFEFD1E2DEBFCDBF00E00CBF15E0A0E085
:1001C000B2E0E6E6F2E600E00BBF02C007900D9257
:1001D000A238B107D9F726E0A2E8B5E001C01D9228
:1001E000A637B207E1F70E94A32A0C9431310C9490
:1001F000000090B321E030E001C0220F8A95EAF7B9
:100200002095292320BB0895EF92FF920F931F930F
:10021000CF93DF9370E0C82FD0E0FB019BE0899F74
:10022000E00DF11D1124E255FB4F80818D3009F462
:1002300089C0C8F4843009F46FC048F4813009F4EF
:1002400072C090E0A0E0E0E020E030E02EC0853019
:1002500009F458C08C30A9F790918405940F9093BD
:10026000840593E055C08235B1F048F48C3449F7E9
:1002700090918305940F9093830591E012C0883587
:1002800009F459C08237E9F690918405940F909350
:10029000840594E04EC090918305940F909383055C
:1002A00090E0A4E0E1E027E031E0509141065523E1
:1002B00009F450C0863609F453C0863751F4909142
:1002C0008405940F9093840590E0A3E0E0E025E09E
:1002D00031E050914006552309F467C08B3609F48C
:1002E0006DC008F045C0813409F458C0893409F460
:1002F000BCC031116CC0DF91CF911F910F91FF9065
:10030000EF90089590918405940F9093840590E068
:10031000A0E0E0E025E0C8CF90918405940F909391
:10032000840592E0F5CF90918405940F9093840515
:1003300091E0A3E0EECF90918405940F9093840513
:1003400091E0E6CF90918405940F9093840591E01D
:10035000A7E0DFCF863609F4B2CF863709F0B9CFF0
:1003600090918405940F9093840590E0A7E0AECF20
:10037000843769F0853709F0BCCF80918405840FFC
:100380008093840594E0A0E0E0E025E020C0809127
:100390008305840F8093830593E016C080918405C4
:1003A000840F8093840592E066C08B3631F308F0A9
:1003B00056C0813461F3893409F09BCF8091830565
:1003C000840F8093830592E0A7E0E1E027E0EA2E26
:1003D000F12C892F90E03DE03E9D80013F9D100D66
:1003E00011240D561A4F080F191FD8015C9158712E
:1003F0003C9F80013D9F100D11240D561A4F060F92
:10040000171FD8011C914F3F41F4409184054111C1
:100410000DC040918305411109C0329F9001112404
:100420002D563A4FE20FF32FF11D10834DE04E9DF4
:1004300090014F9D300D11242D563A4F820F931F7E
:100440004C9F90014D9F300D11242D563A4F620F55
:10045000731FFB012081522BDC015C934CCF84374E
:1004600009F49CCF853709F044CF80918405840F2F
:100470008093840593E0A3E087CFCF93DF93DC01E3
:10048000EB014731510529F480910302813009F4D1
:1004900085C09C91992309F481C0FA013197E73115
:1004A000F10510F00C94010F8827E65AFD4F8F4F8D
:1004B0000C9429317102EB02CE034B04D6045F0584
:1004C000EB0556068D0706089C08AB0B4009C109D1
:1004D000400ABB0A210B330CBE0C550DBD0D4E0E50
:1004E000DF0682E09C3199F0892F8F7E833271F094
:1004F000943461F09A3251F0892F8B7F8A3131F038
:10050000813321F09A5381E0933008F480E08883AE
:100510008C918E3109F447C08C3209F458C08D3269
:1005200009F453C0843309F442C08B32F1F18332B1
:10053000C1F18B31C1F18C31E1F18533B1F18C33F3
:10054000B1F18434E1F18D34A1F18A32A1F181322B
:1005500091F1823291F18A31B1F1833371F18B33B0
:1005600081F1823461F18B3461F1823361F1813345
:1005700061F18A3361F1863181F0863271F0853222
:1005800061F08E3251F0863341F08D3331F08E338D
:1005900021F0863411F08534E1F48C93DF91CF9112
:1005A000089581E6FACF84E5F8CF8BE5F6CF8DE5A7
:1005B000F4CF8EE1F2CF8AE4F0CF85E5EECF82E58D
:1005C000ECCF8EE4EACF8CE4E8CF81E4E6CF89E497
:1005D000E4CF80E0E2CF9D3109F4BEC0943209F44B
:1005E000B9C0933409F4B8C0963109F4B5C09E314E
:1005F00009F4AEC0963209F4ABC0953209F4ACC030
:10060000892F877F863309F4A7C02BEB290F22306F
:1006100008F4A2C0292F2D7F2C3209F49DC09533F8
:1006200009F496C09C3309F493C0943409F494C03F
:100630009D3409F491C09C3109F48AC09B3109F4BE
:1006400085C0833209F484C0943309F481C09333A4
:1006500009F482C09B3409F47FC09A3109F47CC04C
:10066000923209F477C0913209F476C081E09A326F
:1006700019F0923309F080E088838C91982F977F4E
:10068000953109F473C0843209F46EC0833409F4DF
:1006900065C08D3309F478C0853409F46FC094EDDA
:1006A000980F923008F45CC0853309F465C08C3330
:1006B00009F46EC0843409F46DC08D3409F452C05D
:1006C0008C3109F45FC08B3109F44EC0833209F4D8
:1006D0004DC08B3209F44CC0843309F44BC08333D2
:1006E00009F44AC08B3309F449C0823409F450C07C
:1006F0008B3409F445C08A3109F44EC0823209F4C2
:1007000041C0813209F440C0863209F446CF8A32B2
:10071000E9F18233E9F18133E9F18A33E9F1863194
:1007200009F43BCF8E3109F438CF853209F435CF47
:100730008E3209F432CF863309F42FCF8E3309F489
:100740002CCF863409F429CF80E027CF85E094CFE1
:1007500088E092CF89E090CF81E08ECF85E51DCFF4
:1007600081E61BCF8EE119CF86E117CF8EE015CF42
:1007700082E513CF8DE511CF84E50FCF8AE40DCF4D
:1007800085E40BCF85E209CF8EE407CF8DE305CF5B
:100790008BE503CF81E401CF89E4FFCE84E095347B
:1007A000B9F09434A1F0892F8B7F8A3181F0923493
:1007B00071F09B3461F08FEC890F833040F086EC50
:1007C000890F823020F0977F81E0923209F480E037
:1007D00088838C91853409F444C08E3109F441C07A
:1007E0008D3209F454C08C3209F44FC08B3109F4B6
:1007F00044C08533F1F18C33B1F18434A1F18D34EF
:10080000A1F18A32A1F1813291F18A3191F18333E0
:1008100091F18B3391F1823491F18B3491F18233E8
:1008200091F18A3391F1813391F1823291F18631E4
:1008300009F4B3CE863209F4B0CE853209F4ADCED8
:100840008E3209F4AACE863309F4A7CE8D3309F48B
:10085000A4CE8E3309F4A1CE863409F49ECE80E076
:100860009CCE84E59ACE82E598CE8EE196CE8AE43F
:1008700094CE8CE492CE8DE590CE8EE48ECE89E03F
:100880008CCE85E58ACE8BE588CE89E486CE81E460
:1008900084CE81E082CE84ED890F8230A0F0892F52
:1008A000877F853181F0943471F09A3261F092340F
:1008B00051F09B3441F08FEC890F823020F09A5335
:1008C00081E0923008F480E088838C918E3309F4C3
:1008D0004DC0863409F44CC0853409F45BC08E31B8
:1008E00009F448C08C3209F447C08D3209F446C07F
:1008F0008D3109F445C0853109F444C0833209F4CF
:100900004BC08B3109F44AC0853309F44BC08C339A
:1009100009F44AC08434E1F18D34B1F18A32B1F185
:100920008132A1F18A31A1F18333D1F18B3391F17D
:10093000823491F18B3491F1823391F1813391F1D1
:100940008A3391F1863109F428CE863209F425CE16
:10095000853209F422CE8E3209F41FCE863309F493
:100960001CCE8D3309F419CE80E017CE86E415CE67
:1009700085E413CE8EE311CE85E50FCE8EE40DCE49
:1009800087E00BCE88E709CE8EE107CE8AE405CE5C
:100990008CE403CE84E501CE82E5FFCD8BE5FDCD71
:1009A0008DE5FBCD81E4F9CD89E4F7CD892F8F7EEC
:1009B000833281F08CEB890F823060F09A3251F0F3
:1009C0009A3141F0892F8B7F813321F09A5381E056
:1009D000933008F480E088838C918E3109F455C0FF
:1009E0008C3209F468C08D3209F463C0853409F48F
:1009F00056C08C3109F44DC08B3109F448C08332A4
:100A000009F445C0833309F444C0843409F449C06F
:100A10008D3409F440C08A3209F43FC0853309F4AB
:100A200044C08132D1F18232D1F18A3109F43FC020
:100A30008C3309F442C08B33B1F1823491F18B34A1
:100A400091F18B3291F1823391F1813391F18A33BB
:100A500091F1843391F1863109F49FCD863209F406
:100A60009CCD853209F499CD8E3209F496CD86332A
:100A700009F493CD8D3309F490CD8E3309F48DCDE7
:100A8000863409F48ACD80E088CD8EE086CD81E67B
:100A900084CD85E582CD8EE180CD8AE47ECD8DE565
:100AA0007CCD8CE47ACD8EE478CD84E576CD82E57C
:100AB00074CD81E472CD89E470CD8BE56ECD943434
:100AC000B1F09A32A1F09A3191F0913381F086EC35
:100AD000890F823060F0943341F0892F877F833211
:100AE00021F09F7D81E09C3119F482E001C080E01B
:100AF00088838C918E3109F452C08C3209F469C01C
:100B00008D3209F464C0833209F44FC08C3109F48A
:100B10004AC0853409F445C0833309F444C08B319D
:100B200009F443C0853309F442C08C3309F43FC053
:100B3000843409F446C08D34E1F18433E1F18B3221
:100B4000F1F18A32D1F18132C1F18232C1F18A31BF
:100B5000E1F18B33C1F18234A1F18B34A1F1823305
:100B6000A1F18133A1F18A33A1F1863109F415CDC8
:100B7000863209F412CD853209F40FCD8E3209F494
:100B80000CCD863309F409CD8D3309F406CD8E33AF
:100B900009F403CD863409F400CD80E0FECC85E471
:100BA000FCCC82E7FACC8BE6F8CC84E7F6CC89E67D
:100BB000F4CC8EE1F2CC8BE5F0CC8AE4EECC84E58B
:100BC000ECCC8CE4EACC8EE4E8CC82E5E6CC81E4A3
:100BD000E4CC89E4E2CC943461F09A3251F09B3455
:100BE00041F0892F8B7F813321F09A5381E094303B
:100BF00008F480E088838C918C3209F455C08D32E2
:100C000009F450C08633B1F18D33F1F18E33A1F187
:100C10008634A1F1853409F43FC0853389F18C33E2
:100C200089F18434A9F18D3479F18A3279F18132F4
:100C300069F18A3169F1833369F18B3369F1823467
:100C400069F18B3459F1823359F1813359F18A3387
:100C500059F1863109F4A1CC8E3109F49ECC86324B
:100C600009F49BCC853209F498CC8E3209F495CCEA
:100C700080E093CC8DE391CC86E48FCC85E48DCC61
:100C800084E58BCC8BE589CC82E587CC8AE485CC66
:100C90008CE483CC86E381CC8EE47FCC85E57DCC6F
:100CA0008EE37BCC81E479CC89E477CC9333D9F0A3
:100CB0009232C9F082E09534B9F0943491F09A32CE
:100CC00081F0892F8B7F8A3161F0923451F09B340F
:100CD00041F08FEC890F823020F09A5381E09230FE
:100CE00018F480E001C080E288838C91833309F49A
:100CF0004AC0823209F449C0833209F448C08534BD
:100D000009F447C08E3109F444C08D3209F455C04E
:100D10008C3209F450C08B3109F445C0853309F495
:100D200040C08C33C1F18434B1F18D34B1F18A32D9
:100D3000B1F18132A1F18A31A1F18B33A1F1823479
:100D4000A1F18B34A1F18233A1F18A33A1F1813376
:100D5000A1F1863109F421CC863209F41ECC85320A
:100D600009F41BCC8E3209F418CC863309F415CC67
:100D70008D3309F412CC8E3309F40FCC863409F488
:100D80000CCC80E00ACC81E708CC80E706CC8AE373
:100D900004CC84E502CC82E500CC8EE1FECB8AE473
:100DA000FCCB8CE4FACB85E5F8CB8EE4F6CB8DE575
:100DB000F4CB8BE5F2CB89E4F0CB81E4EECB9C3134
:100DC00061F1923251F19E3109F483C0963209F4F7
:100DD00080C0953101F19432F1F09D32E1F09B3108
:100DE00009F477C0892F877F833209F472C0943366
:100DF00009F46FC09D3379F09C3309F46AC09533D0
:100E000009F467C0923439F086EC890F823018F00B
:100E100081E0913319F480E001C080E488838C91F3
:100E20008C3109F458C0823209F457C0982F977F4B
:100E3000953109F458C0843209F45DC094ED980FDF
:100E4000923008F44CC08B3109F44BC0833209F462
:100E50004AC08B3209F449C0843309F448C0853450
:100E600009F451C08D3309F448C08D3409F441C0F0
:100E7000843409F44EC08334F1F18C3309F44BC04F
:100E8000853309F442C08A3109F441C08132A9F1A5
:100E90008A32A9F18B34A9F18234E9F18B3399F1CB
:100EA000833399F18A3399F1813399F1823399F13E
:100EB0008E3109F472CB863209F46FCB863309F494
:100EC0006CCB8E3309F469CB863409F466CB80E0B1
:100ED00064CB88E0A3CF8EE760CB8CE95ECB81E664
:100EE0005CCB86E15ACB8EE058CB82E556CB8DE5C4
:100EF00054CB8EE152CB85E550CB8EE44ECB8DE3C7
:100F00004CCB85E44ACB8AE448CB84E546CB89E4E4
:100F100044CB81E442CB8BE540CB933271F09434E7
:100F200061F09A3251F09B3441F0892F8B7F8133ED
:100F300021F09A5381E0943008F480E088838C910A
:100F40008C3209F461C08D3209F45CC0843309F439
:100F500049C08B3209F444C08332D1F18B31C1F1E5
:100F60008633C1F18D3309F43FC08E33A9F1863445
:100F7000A9F18533A9F18C33A9F18434C9F18D34F9
:100F800099F18A3299F1813289F18232A9F18A315B
:100F900079F1833379F18B3379F1823479F18B34C0
:100FA00069F1823369F1813369F18A3369F18631FC
:100FB00009F4F3CA8E3109F4F0CA863209F4EDCA95
:100FC000853209F4EACA8E3209F4E7CA80E0E5CA3C
:100FD0008DE5E3CA8DE3E1CA86E4DFCA85E4DDCAB4
:100FE00084E5DBCA8BE5D9CA82E5D7CA8AE4D5CACB
:100FF0008CE4D3CA86E3D1CA8EE4CFCA85E5CDCAD4
:101000008EE3CBCA81E4C9CA89E4C7CA892F8F7E1F
:101010008D32D9F09433C9F09B32B9F09C31A9F0EC
:10102000923299F0923489F0913379F086EC890FFD
:10103000823058F09B3139F0953329F09C3319F008
:1010400081E0933219F480E801C080E088838C91BC
:10105000853109F451C094ED980F923008F44AC0DC
:10106000843309F449C08B3209F448C08C3109F447
:1010700047C08D3309F44AC0853409F44BC0843429
:1010800009F44EC08D34F1F18A32F1F18132F1F17F
:101090008232F1F18A3109F445C08333C9F18B33CF
:1010A000C9F18234D9F18B34B9F18233B9F181338A
:1010B000B9F18A33B9F18B31B9F18533B9F18C3398
:1010C000B9F18332B9F1863109F467CA863209F47D
:1010D00064CA853209F461CA8E3209F45ECA863365
:1010E00009F45BCA8E3309F458CA863409F455CA28
:1010F00080E053CA81E651CA8DE54FCA82E54DCAE8
:101100008CE44BCA8EE149CA8DE347CA8EE445CAD6
:1011100084E543CA8AE441CA85E43FCA8BE53DCAF7
:1011200081E43BCA89E439CA86E437CA8DE235CA0C
:101130008CE233CA81E131CA9C3309F19B31F9F069
:101140009C3109F47FC0943309F47CC09531A9F037
:101150009E3109F477C0892F8F7E8D3271F08EED2C
:10116000890F823050F0923441F0892F8D7F813386
:1011700021F09A5381E0923018F480E001C084E0BD
:1011800088838C918C3309F475C08B3109F45CC071
:10119000853109F45BC094ED980F923008F458C083
:1011A0008B3209F45FC0833209F454C08D3309F4E3
:1011B00057C0853409F45AC0853309F455C08434C6
:1011C00009F45AC08D3409F447C08A3209F446C084
:1011D000813209F445C0823209F444C08A3109F4ED
:1011E0004DC0833309F440C08B3309F43FC08234CF
:1011F00009F440C08B34E1F18233E1F18133E1F154
:101200008A33E1F1863109F4C8C98E3109F4C5C9C0
:10121000863209F4C2C9853209F4BFC98E3209F495
:10122000BCC9863309F4B9C98E3309F4B6C986340A
:1012300009F4B3C9843309F4B0C98C3109F4ADC9D8
:1012400080E0ABC980E19CCF86E1A7C98DE5A5C947
:1012500081E6A3C98EE0A1C98EE19FC98DE39DC936
:101260008EE49BC982E599C984E597C98AE495C94A
:1012700085E493C98BE591C981E48FC989E48DC95F
:1012800080E09A3331F09B3119F081E0933409F416
:1012900080E888838C91843309F451C0853209F445
:1012A00050C08B3109F465C0833409F44CC08533D8
:1012B00009F44BC08B3209F44AC0833209F449C0A7
:1012C0008C3309F448C0853109F447C08D3109F4E5
:1012D00046C0843209F445C08E3309F444C08634D4
:1012E00009F443C0843409F442C08D3209F441C08A
:1012F0008C3209F440C0813309F43FC08A33E9F1EC
:101300008232E9F18D3409F448C98B3309F445C9B7
:10131000823409F442C98B3409F43FC98A3109F493
:101320003CC9813209F439C98A3209F436C9823399
:1013300009F433C9833309F430C980E02EC986E249
:101340002CC98CE32AC981E228C98EE126C985E22D
:1013500024C984E222C98DE120C98DE21EC98CE234
:101360001CC985E31AC983E418C984E416C982E25A
:1013700014C981E312C98AE310C989E40EC989E25C
:101380000CC99434B9F09A32A9F0892F8B7F8A3135
:1013900089F0923479F09B3469F08FEC890F8230B8
:1013A00048F086EC890F823028F080E2923219F002
:1013B00081E001C080E088838C918E3109F444C0C3
:1013C0008D3209F457C08C3209F452C08B3109F4C4
:1013D00047C0853309F440C08C33C1F18434B1F186
:1013E0008D34B1F18A32B1F18132A1F18A31A1F1AA
:1013F0008333A1F18B33A1F18234A1F18B34A1F1BC
:101400008233A1F18A33A1F18133A1F18232A1F1BA
:101410008332A1F1863109F4C0C8863209F4BDC80F
:10142000853209F4BAC88E3209F4B7C8863309F494
:10143000B4C88D3309F4B1C88E3309F4AEC886340C
:1014400009F4ABC880E0A9C884E5A7C882E5A5C8AF
:101450008EE1A3C88AE4A1C88CE49FC885E49DC836
:101460008EE49BC885E599C88DE597C88BE595C83E
:1014700089E493C881E491C88FE28FC88AE38DC85C
:10148000892F8F7E833281F08CEB890F823060F060
:10149000892F8B7F8A3141F09A3231F0813321F0EC
:1014A0009A5381E0933008F480E088838C918332F2
:1014B00009F447C0833309F446C08E3109F445C0AE
:1014C000853409F444C0853309F443C08C3309F4EE
:1014D00042C0843409F449C08B3409F444C08A31D1
:1014E00009F447C08A3209F442C08133C1F18A331A
:1014F000A1F18C3291F18D3291F18D3491F18B33D8
:1015000091F1823491F1813291F1823391F18631FE
:1015100009F443C8863209F440C8853209F43DC84D
:101520008E3209F43AC8863309F437C88D3309F48A
:1015300034C88E3309F431C8863409F42EC880E0EB
:101540002CC886E02AC88CE028C88DE526C885E02E
:1015500024C884E522C88BE520C889E41EC881E43C
:101560001CC88EE11AC885E518C88CE416C88AE440
:1015700014C88EE412C8943459F09B3449F0892F72
:101580008F7D8A3129F09A3219F081E0913309F484
:1015900080E088838C91843409F44AC08B3409F448
:1015A00044C08A3109F44AC08A3209F444C0813304
:1015B000B1F18A3389F18C3279F18D3281F18D3438
:1015C00089F18B3391F1823499F18132A1F1823327
:1015D000A9F1863111F40C94CD02863211F40C94E9
:1015E000CD02853211F40C94CD028E3211F40C949C
:1015F000CD02863311F40C94CD028E3311F40C9489
:10160000CD02863411F40C94CD02853411F40C947F
:10161000CD0280E00C94CD0289E40C94CD0281E4EB
:101620000C94CD028EE10C94CD0285E50C94CD0294
:101630008CE40C94CD028AE40C94CD0284E50C94E5
:10164000CD02943461F09B3451F09A3241F0892FED
:101650008B7F813321F09A5381E0943008F480E04D
:1016600088838C91863309F44CC08E3309F44CC0C6
:10167000863409F44CC08D3309F44CC0853409F428
:1016800055C08D3209F461C08C3209F461C08533D4
:1016900009F443C08C3309F443C0843409F44CC0CA
:1016A0008D34C1F18B32C9F18433D1F18333D9F157
:1016B0008B33E1F18234E9F18B34D9F18A31E1F1F4
:1016C0008132E9F18A32D9F18233E1F18133E9F1F2
:1016D0008A33F1F1863111F40C94CD028E3111F47C
:1016E0000C94CD02863211F40C94CD02853211F4A3
:1016F0000C94CD028E3211F40C94CD0280E00C9447
:10170000CD028DE30C94CD0286E40C94CD0285E4E9
:101710000C94CD0282E50C94CD0284E50C94CD02AC
:101720008BE50C94CD0286E30C94CD028EE40C94F0
:10173000CD0285E50C94CD028CE40C94CD028AE4B4
:101740000C94CD028EE30C94CD0281E40C94CD0276
:1017500089E40C94CD0281E09A3309F480E0888317
:101760008C91843309F44FC0853209F44FC085331E
:1017700009F44FC0863109F44FC08B3109F44FC0D2
:101780008C3309F44FC08B3209F44FC08E3309F407
:101790004FC0863409F44FC08D3409F44FC08233F2
:1017A00009F44FC0843409F44FC08D3209F44FC09E
:1017B0008C3209F44FC0813309F44FC08A3309F4E5
:1017C0004CC0823209F44CC08B3311F40C94CD021E
:1017D000823411F40C94CD028B3411F40C94CD02AC
:1017E0008A3111F40C94CD02813211F40C94CD02A3
:1017F0008A3211F40C94CD02833311F40C94CD028F
:1018000080E00C94CD0286E20C94CD028CE30C9423
:10181000CD028EE10C94CD028AE50C94CD0286E1D6
:101820000C94CD0282E30C94CD0285E20C94CD029F
:1018300083E40C94CD0284E40C94CD0285E30C94F3
:10184000CD028DE40C94CD0282E20C94CD0281E3B2
:101850000C94CD028AE30C94CD0289E40C94CD0261
:1018600089E20C94CD02943479F09A3269F0892F90
:101870008B7F8A3149F0813339F086EC890F8330D0
:1018800018F081E0933209F480E088838C918E31E6
:1018900009F453C08C3209F46EC08D3209F468C06B
:1018A000833209F44DC0853309F44DC08C3309F4FB
:1018B0004DC0843409F456C08D3409F44AC08A32CC
:1018C00009F44AC0813209F447C08A3109F447C09B
:1018D000823309F444C08B3309F447C0823409F4DD
:1018E00041C08B3409F441C0813309F441C08A33CB
:1018F00009F441C0863111F40C94CD02863211F402
:101900000C94CD02853211F40C94CD028E3211F478
:101910000C94CD02863311F40C94CD028D3311F466
:101920000C94CD028E3311F40C94CD02863411F454
:101930000C94CD0280E00C94CD0285E50C94CD0290
:101940008DE50C94CD0284E50C94CD028BE50C94CE
:10195000CD028EE10C94CD028AE40C94CD0282E596
:101960000C94CD028CE40C94CD028EE40C94CD0248
:1019700081E40C94CD0289E40C94CD029B3479F07F
:10198000933269F09A3259F0892F8B7F813339F085
:1019900086EC890F843018F081E0943409F480E0FB
:1019A00088838C91863309F453C08E3309F453C075
:1019B000863409F453C08D3309F45FC0823309F4CF
:1019C00050C0853309F450C08C3309F450C08333C0
:1019D00009F450C08D3409F450C08B3309F450C061
:1019E000823409F450C08B3409F44DC0833209F4B9
:1019F0004DC08A3209F44DC0813209F44AC08133A6
:101A000009F44AC08A3309F44AC08D3209F444C04B
:101A10008C3209F444C0843409F444C08A3109F496
:101A200041C0863111F40C94CD028E3111F40C9426
:101A3000CD02863211F40C94CD02853211F40C944F
:101A4000CD028E3211F40C94CD0280E00C94CD02C4
:101A50008DE30C94CD0286E40C94CD0285E40C94C5
:101A6000CD028EE30C94CD0284E50C94CD028BE57F
:101A70000C94CD0286E30C94CD0282E50C94CD0249
:101A80008EE40C94CD0285E50C94CD028DE50C948A
:101A9000CD028AE40C94CD0281E40C94CD0289E459
:101AA0000C94CD028CE40C94CD029A3261F0892F13
:101AB0008B7F8A3141F0943431F0913321F09A5385
:101AC00081E0923008F480E088838C918A31E9F1DA
:101AD0008233D9F18E31E1F18D34E9F18132F1F1C6
:101AE0008A32E1F18434E9F18234D9F18B34E1F1C5
:101AF0008B33D1F18133D9F18D32C9F18A33D1F1F0
:101B00008C32C1F1863111F40C94CD02863211F47D
:101B10000C94CD02853211F40C94CD028E3211F466
:101B20000C94CD02863311F40C94CD028D3311F454
:101B30000C94CD028E3311F40C94CD02863411F442
:101B40000C94CD0280E00C94CD028EE40C94CD0276
:101B500084E50C94CD028EE10C94CD028AE40C94C1
:101B6000CD028CE40C94CD0282E50C94CD0281E48C
:101B70000C94CD0289E40C94CD02943489F0892F21
:101B80008B7F8A3169F0813359F086EC890F83307D
:101B900038F09A3229F081E8953119F081E001C0DE
:101BA00080E088838C918B3309F45AC08B3409F41C
:101BB00057C08E3109F457C0823209F454C08531C0
:101BC00009F457C0853309F451C08C3309F451C06E
:101BD000843409F451C0823409F44EC08A3109F4C6
:101BE0004EC0823309F44BC0813309F44BC08D32AF
:101BF00009F448C08D3409F448C08A3309F448C058
:101C00008C3209F445C08A3209F445C0813209F4A6
:101C100042C0863111F40C94CD02863211F40C943A
:101C2000CD02853211F40C94CD028E3211F40C9455
:101C3000CD02863311F40C94CD028D3311F40C9443
:101C4000CD028E3311F40C94CD02863411F40C9431
:101C5000CD02853411F40C94CD0280E00C94CD02B9
:101C60008EE40C94CD0285E50C94CD0284E50C94B1
:101C7000CD028BE50C94CD028CE40C94CD0282E570
:101C80000C94CD0281E40C94CD028EE10C94CD0233
:101C900089E40C94CD028AE40C94CD029434B9F01A
:101CA000892F8B7F8A3199F0813389F086EC890FF7
:101CB000833068F09A3259F0892F8F7E833239F061
:101CC000963219F081E0953119F484E001C080E08A
:101CD00088838C918B3309F46AC08B3409F467C014
:101CE000833309F467C08C3109F464C08E3109F480
:101CF00085C0853309F461C08B3209F45EC08D3430
:101D000009F45EC0823209F45EC0982F977F943345
:101D100009F45CC08A3109F45CC0823309F459C00B
:101D2000843409F459C0823409F456C0813309F46B
:101D300056C08D3209F453C08A3309F453C08C3233
:101D400009F450C08A3209F450C0813209F44DC000
:101D5000833209F44DC08B3109F44AC0863209F44C
:101D60004AC0853109F44AC0863111F40C94CD0281
:101D7000853211F40C94CD028E3211F40C94CD0204
:101D8000863311F40C94CD028D3311F40C94CD02F2
:101D90008E3311F40C94CD02863411F40C94CD02E0
:101DA000853411F40C94CD0280E00C94CD028EE4C5
:101DB0000C94CD0285E50C94CD028BE50C94CD02FC
:101DC0008EE10C94CD0286E20C94CD028DE50C944C
:101DD000CD0282E50C94CD028CE40C94CD0281E41A
:101DE0000C94CD0289E40C94CD028AE40C94CD02CB
:101DF00081E60C94CD028CE10C94CD0284E50C9428
:101E0000CD021C920C94CE027A9B07C08FB183FB4B
:101E1000882780F991E08927089581E00895282F87
:101E200061506C3008F08DC0E62FF0E08827E45E4A
:101E3000F04F8F4F0C942931280F370F460F550F55
:101E4000640FA10F730F820FA10FA10FA10F930FAA
:101E500081E090E001C0880F2A95EAF792B1411124
:101E600004C08095892382B90895892BFCCF81E035
:101E700090E001C0880F2A95EAF795B1411104C09E
:101E80008095892385B90895892BFCCF81E090E066
:101E900001C0880F2A95EAF798B1411104C08095D6
:101EA000892388B90895892BFCCF81E090E001C097
:101EB000880F2A95EAF79BB1411104C080958923C8
:101EC0008BB90895892BFCCF81E090E001C0880F89
:101ED0002A95EAF79EB1411104C0809589238EB9F5
:101EE0000895892BFCCF81E090E001C0880F2A95EE
:101EF000EAF794B3411104C08095892384BB089507
:101F0000892BFCCF81E090E001C0880F2A95EAF789
:101F100090910201411105C08095892380930201AF
:101F20000895892BFBCF81E090E001C0880F2A95AE
:101F3000EAF790910B01411105C0809589238093A8
:101F40000B010895892BFBCF282F61506C3078F559
:101F5000E62FF0E08827E055F04F8F4F0C942931A1
:101F6000BC0FC70FC90FCB0FCD0FD70FCF0FD10F9E
:101F7000D70FD70FD70FD40F80B190E002C095953F
:101F800087952A95E2F7809590958170089583B1A1
:101F9000F4CF86B1F2CF89B1F0CF8CB1EECF82B35E
:101FA000ECCF80910001E9CF80910901E6CF80E07C
:101FB0000895282F61506C3008F08DC0E62FF0E0B6
:101FC0008827EA51F04F8F4F0C942931F20F0110FE
:101FD00010101F102E106B103D104C106B106B105A
:101FE0006B105D1081E090E001C0880F2A95EAF740
:101FF00091B1442321F08095892381B90895892BDB
:10200000FCCF81E090E001C0880F2A95EAF794B1F7
:10201000442321F08095892384B90895892BFCCF2E
:1020200081E090E001C0880F2A95EAF797B1442338
:1020300021F08095892387B90895892BFCCF81E011
:1020400090E001C0880F2A95EAF79AB1442321F065
:10205000809589238AB90895892BFCCF81E090E08F
:1020600001C0880F2A95EAF79DB1442321F080959D
:1020700089238DB90895892BFCCF81E090E001C0C0
:10208000880F2A95EAF793B3442321F0809589239A
:1020900083BB0895892BFCCF81E090E001C0880FBD
:1020A0002A95EAF790910101442329F0809589232C
:1020B000809301010895892BFBCF81E090E001C05E
:1020C000880F2A95EAF790910A01442329F0809518
:1020D000892380930A010895892BFBCFCF93DF9347
:1020E000C82FD62F40E00E940F0F40E06D2F8C2F9D
:1020F0000E94D90F2FEF84E39CE021508040904054
:10210000E1F700C0000041E06D2F8C2F0E94D90F35
:1021100041E06D2F8C2FDF91CF910C940F0F0F9317
:102120001F93CF93DF93C62F90E0FC01E65BFA4F3D
:102130001081835C9A4FFC01D08140E0612F8D2F8C
:102140000E94D90F40E0612F8D2F0E940F0FFAE1FE
:10215000FA95F1F700C06C2F70E0FB01EE59FA4FD1
:10216000695A7A4F0081FB01C081602F8C2F0E9439
:10217000A40F8111FACF41E0612F8D2FDF91CF9114
:102180001F910F910C94D90F882331F095E19A9506
:10219000F1F700008450F8CF0895CF92DF92EF92CC
:1021A000FF920F931F93CF93DF93C82FF62E0E94B9
:1021B000040F8111FCCF839A80910202880F880F4F
:1021C0000E94C410829A80910202880F880F880FA3
:1021D0000E94C41082E00E94F90080910202880FE0
:1021E000880F0E94C41010E000E0D1E0CC2ED12C6A
:1021F000EE24E394C601002E02C0959587950A94BB
:10220000E2F780FF9AC083E00E94F900DE2580910A
:102210000202880F880F0E94C410829A80910202E5
:10222000880F880F880F0E94C41082E00E94F90076
:1022300080910202880F880F0E94C4100F5F1F4F09
:1022400008301105B9F6DD2309F479C083E00E9456
:10225000F90080910202880F880F0E94C410829AB0
:1022600080910202880F880F880F0E94C41082E0BC
:102270000E94F90080910202880F880F0E94C4100A
:1022800083E00E94F90080910202880F880F0E946B
:10229000C410829A80910202880F880F880F0E94D2
:1022A000C41082E00E94F90080910202880F880F1A
:1022B0000E94C41087EC90E00197F1F700C0000085
:1022C000FF2091F180918E0590910302923009F0E8
:1022D0003FC0882311F0C43139F180918D058823E6
:1022E00011F0C13109F180918C05882311F0C231C0
:1022F000D9F080918A05882311F0C131A9F080912D
:102300008B05882311F0CF3179F0809182058823E5
:10231000C1F0C03FB1F001E021E041E061E081E0C7
:102320000E94011210928205DF91CF911F910F91AF
:10233000FF90EF90DF90CF900895839A68CF839AB3
:1023400088CF81E0C03F09F080E080938205ECCF28
:10235000882311F0CD3941F380918D05882311F048
:10236000C83B11F380918C05882311F0CA3AE1F241
:1023700080918A05882311F0C83BB1F280918B05CA
:10238000882311F0CB3D81F2C03E71F2C13860F27A
:1023900001E021E041E061E081E00E940112C4CF50
:1023A00060E080EE0E94CD1060E082E10E94CD10DE
:1023B00060E080EE0E94CD1060E08CE70E94CD10BE
:1023C0002FEF81EE94E0215080409040E1F700C073
:1023D000000060E080EE0E94CD1060E080EF0E947F
:1023E000CD1060E082E10E94CD1060E080EE0E949E
:1023F000CD1060E080EF0E94CD1060E08CE70C947F
:10240000CD100F931F93CF93DF93162FD42FC22F8E
:10241000882331F080918E05813079F18230D9F1B5
:10242000112341F080918D05813009F44EC0823036
:1024300009F459C0DD2341F080918C05813009F405
:102440006CC0823009F477C0CC2341F080918A05BA
:10245000813009F48AC0823009F49DC0002341F024
:1024600080918B05813009F4B8C0823009F4CBC06B
:10247000DF91CF911F910F9108958091030260E049
:10248000823039F484E10E94CD1082E080938E0581
:10249000C7CF8DE1F8CF2FEF84E39CE0215080403F
:1024A0009040E1F700C000008091030260E08230BC
:1024B00051F480EF0E94CD1060E084E10E94CD10C5
:1024C00010928E05ADCF8DE9F9CF8091030260E0C7
:1024D000823039F481E10E94CD1082E080938D0535
:1024E000A9CF88E3F8CF2FEF84E39CE02150804010
:1024F0009040E1F700C000008091030260E082306C
:1025000051F480EF0E94CD1060E081E10E94CD1077
:1025100010928D058FCF88EBF9CF8091030260E098
:10252000823039F482E10E94CD1082E080938C05E4
:102530008BCF8AE2F8CF2FEF84E39CE021508040DC
:102540009040E1F700C000008091030260E082301B
:1025500051F480EF0E94CD1060E082E10E94CD1026
:1025600010928C0571CF8AEAF9CF8091030260E066
:10257000823059F480EE0E94CD1060E081E10E942B
:10258000CD1082E080938A0569CF80EE0E94CD1045
:1025900060E088E3F4CF2FEF84E39CE0215080409B
:1025A0009040E1F700C000008091030260E08230BB
:1025B00071F480EE0E94CD1060E080EF0E94CD109B
:1025C00060E081E10E94CD1010928A0547CF80EE35
:1025D0000E94CD1060E088EBF5CF8091030260E0AF
:1025E000823059F480EE0E94CD1060E08FE10E94AD
:1025F000CD1082E080938B053BCF80EE0E94CD1002
:1026000060E08BE5F4CF2FEF84E39CE02150804025
:102610009040E1F700C000008091030260E082304A
:1026200071F480EE0E94CD1060E080EF0E94CD102A
:1026300060E08FE10E94CD1010928B0519CF80EEE3
:102640000E94CD1060E08BEDF5CF61E00C94CD10D1
:102650004F925F926F927F928F92AF92CF92EF9252
:10266000FF920F931F93CF93DF93CDB7DEB7F82E72
:10267000662E142F722E80918605882331F02AE170
:102680002A95F1F700C010928605002369F0809129
:102690000302823009F0F5C082E10E942513809187
:1026A00086058F5F80938605EE2069F08091030296
:1026B000823009F0E8C084E10E94251380918605EC
:1026C0008F5F80938605CC2069F080910302823071
:1026D00009F0DBC081E10E942513809186058F5FA0
:1026E00080938605AA2081F080910302823009F050
:1026F000CEC080EE0E94251381E10E9425138091B7
:1027000086058F5F80938605882081F08091030283
:10271000823009F0C1C080EE0E9425138FE10E9433
:102720002513809186058F5F8093860580918605AD
:10273000882331F08AE18A95F1F700C0109286056E
:10274000772019F080EE0E942513812F0E94251317
:102750009FEF21EE84E0915020408040E1F700C0DF
:102760000000772019F080EE0E942513809103026B
:10277000823019F480EF0E94251380910302823089
:1027800009F08FC0812F0E942513712C4F2C512CE2
:10279000F3019DE0F99EE00DF11D1124ED56FA4F75
:1027A0001082002359F080910302823009F07CC02E
:1027B00080EF0E94251382E10E942513EE2059F03C
:1027C00080910302823009F071C080EF0E942513CE
:1027D00084E10E942513CC2059F0809103028230BD
:1027E00009F066C080EF0E94251381E10E94251345
:1027F000AA2071F080910302823009F05BC080EE64
:102800000E94251380EF0E94251381E10E94251369
:10281000882071F080910302823009F050C080EE70
:102820000E94251380EF0E94251381E10E94251349
:102830002FEF81EE94E0215080409040E1F700C0FE
:10284000000001E021E041E061E081E00E9401122E
:102850008DE0849DF001859DF00D1124ED56FA4F19
:10286000E60DF71D1082DF91CF911F910F91FF9020
:10287000EF90CF90AF908F907F906F905F904F9040
:1028800008958AE20ACF8DE117CF88E324CF80EE46
:102890000E94251388E331CF80EE0E9425138BE53B
:1028A0003ECF80E8810F6FCF8AEA86CF8DE991CF46
:1028B00088EB9CCF80EE0E94251388EBA7CF80EE9B
:1028C0000E94251388EBB2CF0F931F93CF93DF9312
:1028D000EC0180916B0690916C06892BA1F460E06D
:1028E00080EF0E94CD1060E082E10E94CD10109236
:1028F000D40560E080EF0E94CD1060E084E10E948A
:10290000CD101092EF052FEF81EE94E02150804022
:102910009040E1F700C0000089E20E942513EFEF2C
:10292000F1EE24E0E150F0402040E1F700C000006B
:1029300080EF0E94251389E20E9425138FEF91EE0C
:10294000E4E081509040E040E1F700C0000089E4FD
:102950000E942513FFEF21EE84E0F15020408040DB
:10296000E1F700C0000080EF0E94251389E40E9477
:1029700025138E010F5F1F4F888190E098012C1B5B
:102980003D0B821793074CF19FEFE1EEF4E091507D
:10299000E040F040E1F700C00000F80181918F01B4
:1029A0000E942513FFEF21EE84E0F150204080408B
:1029B000E1F700C0000080EF0E942513F801319775
:1029C00080810E9425139FEFE1EEF4E09150E040FA
:1029D000F040E1F700C00000CFCFC80FD91F8981B8
:1029E00080930202DF91CF911F910F910895EF9292
:1029F000FF921F93CF93DF93C82F7B01142F853451
:102A000029F040F48FEF8C0F8A3030F480EE0E9472
:102A1000251302C08934D1F3CC2301F1D0E0EF2893
:102A2000C9F0113079F4CB59DD4F88818058DF919E
:102A3000CF911F91FF90EF900C942513CB59DD4F50
:102A40008881F5CF123051F480EF0E942513C75FC3
:102A5000DD4FF6CF113091F31230C9F3DF91CF91F2
:102A60001F91FF90EF9008952F923F924F925F92A7
:102A70006F927F928F929F92AF92BF92CF92DF928E
:102A8000EF92FF920F931F93CF93DF93CDB7DEB7F3
:102A90002C970FB6F894DEBF0FBECDBF10923D0647
:102AA00062E081E00E94A40F882309F4D7C025E3E7
:102AB0002A95F1F7000062E081E00E94A40F8823CC
:102AC00009F446C080913C06813079F5809100027E
:102AD00090910102019790930102809300028FE38D
:102AE0009CE90197F1F700C00000809100029091ED
:102AF00001028436910560F58CE291E09093010229
:102B00008093000210923C062A9862E081E00E94C5
:102B1000A40F8823E9F09FEFA4E3BCE09150A0400C
:102B2000B040E1F700C00000F0CF8CE291E090935C
:102B300001028093000281E080933C062A9AEFEF25
:102B4000F4E32CE0E150F0402040E1F700C0000049
:102B500080913D06811165C02AE435E03C832B83DA
:102B6000ADE3CA2EA5E0DA2EB3E9EB2EB5E0FB2EDD
:102B7000712CAB81BC814D90BC83AB83F60151902D
:102B80006F0140E0642D852D0E94D90F40E0642D37
:102B9000852D0E940F0FFAE1FA95F1F700C0E2E6E9
:102BA000AE2EE5E0BE2EF7E58F2EF5E09F2E8701D5
:102BB000612CD5012D905D01F40131904F01622D02
:102BC000832D0E94A40F882309F492C0F5E3FA959F
:102BD000F1F70000622D832D0E94A40FD8018823F5
:102BE00009F470C08C9180FF5DC082608C93B7E067
:102BF000B71528F4E4E040E0E61508F45EC06394FD
:102C00000F5F1F4FBBE06B12D4CF41E0642D852DC9
:102C10000E94D90F7394EDE0EE0EF11CFDE07F12DF
:102C2000A8CF80919205882309F471C043E955E04B
:102C300028E030E090E080E0FA01E80FF91F6081C1
:102C400060FD31E0019685309105B1F72150435F79
:102C50005F4F2111EFCF309392057ACF8091000220
:102C6000909101028C329140B0F4209A28988FEF15
:102C700091EEA4E081509040A040E1F700C0000038
:102C80002098289ABFEFE4E3FCE0B150E040F04028
:102C9000E1F700C000008CE291E090930102809384
:102CA000000256CF81608C93B7E0B71508F0A7CF2C
:102CB000E4E0E61508F0A3CF41E0662D872D0E94E1
:102CC00004019DCF8C9180FF9ACF8C7F84608C9380
:102CD000B7E0B71508F093CFE4E0E61508F08FCF22
:102CE0004FEF662D872D0E940401D8011C9287CFDB
:102CF000F801808180FF83CF8C7F84608083F7E040
:102D0000F71508F07CCF24E0261550F378CF80919A
:102D10009105811105C080919005882309F47DC437
:102D20008091D40582FF10C01092D40580916B066B
:102D300090916C06892B41F460E080EF0E94CD10E9
:102D400060E082E10E94CD108091EF0582FF10C00B
:102D50001092EF0580916B0690916C06892B41F4DF
:102D600060E080EF0E94CD1060E084E10E94CD1011
:102D700043E9442E45E0542E26E834E03C832B837F
:102D8000712C612CDD24D39452E0B52E6BE0962E8D
:102D900075EE272E72E0372EF12CE12C80919105F3
:102DA000882311F40C941520F201EE0DFF1D808193
:102DB00080FD02C00C941520969CC001979C900D3C
:102DC000112482559B4FE80EF91ED7018C91109269
:102DD0009105813311F40C94DB1F08F0F9C08232A5
:102DE00011F40C94381F08F0C7C08D3109F4E0C20B
:102DF000813209F4D6C6853109F078C281E090911C
:102E00004006911180E08093400680916B0690917E
:102E10006C06892B81F480EF0E94251382E10E94C9
:102E200025131092D40580EF0E94251384E10E949F
:102E300025131092EF0580910302823009F056C2EB
:102E4000AFEFB0E7E2E0A150B040E040E1F700C0F2
:102E5000000089E20E942513FFEF20E732E0F150E5
:102E600020403040E1F700C0000080EF0E942513B1
:102E700089E20E9425138FEF90E7A2E081509040F5
:102E8000A040E1F700C0000089E40E942513BFEFD5
:102E9000E0E7F2E0B150E040F040E1F700C00000B0
:102EA00080EF0E94251389E40E942513809140063B
:102EB000882309F44EC202EE12E02FEF30E782E0E1
:102EC000215030408040E1F700C00000D801FD9063
:102ED0008D018F2D0E942513BFEFE0E7F2E0B15086
:102EE000E040F040E1F700C0000080EF0E942513B1
:102EF0008F2D0E9425132FEF30E782E021503040C4
:102F00008040E1F700C0000020163106B1F609EC60
:102F100012E0FFEF20E732E0F15020403040E1F7CF
:102F200000C00000D801FD908D018F2D0E94251357
:102F3000BFEFE0E7F2E0B150E040F040E1F700C061
:102F4000000080EF0E9425138F2D0E9425132FEF84
:102F500030E782E0215030408040E1F700C00000BF
:102F6000A5EDB2E0A017B107A1F66091400688E098
:102F700090E00E941B31BAC18A3209F4ADC68C328E
:102F800009F4F8C0833209F0B1C180916B069091C9
:102F90006C06892B09F02EC381E0909142069111B5
:102FA00080E08093420660E080EF0E94CD1060E0F8
:102FB00082E10E94CD101092D40560E080EF0E9463
:102FC000CD1060E084E10E94CD101092EF058EC11B
:102FD000853311F40C940220A0F5833309F4FFC566
:102FE00008F4D6C780916B0690916C06009769F043
:102FF0009C01245031092230310538F02450310928
:103000002230310510F00F9791F48091030246E4CD
:10301000813009F04EE7812CA12CCC24C394EE24FE
:10302000E39400E020E064E082E00E9428138091B5
:103030006B0690916C06029709F0DCC20E94D011D9
:10304000D9C28C3309F4CBC2843409F406C68B335D
:1030500009F04CC181E090914506911180E0809388
:10306000450680916B0690916C06892B81F480EF68
:103070000E94251382E10E9425131092D40580EF4F
:103080000E94251384E10E9425131092EF05809180
:103090000302823009F02AC1AFEFB0E7E2E0A150AD
:1030A000B040E040E1F700C0000089E20E94251333
:1030B000FFEF20E732E0F15020403040E1F700C060
:1030C000000080EF0E94251389E20E9425138FEFF4
:1030D00090E7A2E081509040A040E1F700C00000DE
:1030E00089E40E942513BFEFE0E7F2E0B150E04031
:1030F000F040E1F700C0000080EF0E94251389E452
:103100000E94251380914506882309F43AC201EFF5
:1031100012E02FEF30E782E0215030408040E1F7AD
:1031200000C00000D801FD908D018F2D0E94251355
:10313000BFEFE0E7F2E0B150E040F040E1F700C05F
:10314000000080EF0E9425138F2D0E9425132FEF82
:1031500030E782E0215030408040E1F700C00000BD
:10316000ACEFB2E0A017B107A1F66091450689E087
:1031700090E0FFCE10923F068091890591E0811189
:1031800090E090938905811102C01092870580918B
:103190006B0690916C06892B81F480EF0E942513B9
:1031A00082E10E9425131092D40580EF0E9425131E
:1031B00084E10E9425131092EF0580910302823072
:1031C00009F094C0BFEFE0E7F2E0B150E040F0401A
:1031D000E1F700C0000089E20E9425132FEF30E7DD
:1031E00082E0215030408040E1F700C0000080EFD5
:1031F0000E94251389E20E9425139FEFA0E7B2E009
:103200009150A040B040E1F700C0000089E40E9466
:103210002513EFEFF0E722E0E150F0402040E1F726
:1032200000C0000080EF0E94251389E40E9425134E
:1032300080918905882309F45EC002EE12E03FEF19
:1032400080E792E0315080409040E1F700C00000FC
:10325000D801FD908D018F2D0E942513BFEFE0E76F
:10326000F2E0B150E040F040E1F700C0000080EF34
:103270000E9425138F2D0E9425132FEF30E782E047
:10328000215030408040E1F700C000002016310698
:10329000B1F601EC12E0EFEFF0E722E0E150F04090
:1032A0002040E1F700C00000D801FD908D018F2D76
:1032B0000E942513BFEFE0E7F2E0B150E040F0409C
:1032C000E1F700C0000080EF0E9425138F2D0E94BF
:1032D00025132FEF30E782E0215030408040E1F7A6
:1032E00000C0000092E0093C1907A9F6D0923D0603
:1032F000D0928F057FC10EED12E09FEFA0E7B2E004
:103300009150A040B040E1F700C00000F801F190FA
:103310008F018F2D0E942513FFEF20E732E0F1503F
:1033200020403040E1F700C0000080EF0E942513EC
:103330008F2D0E9425138FEF90E7A2E081509040DF
:10334000A040E1F700C00000B2E0023E1B07A9F672
:10335000A0CF0EED12E09FEFA0E7B2E09150A040A9
:10336000B040E1F700C00000F801F1908F018F2D0F
:103370000E942513FFEF20E732E0F150204030405B
:10338000E1F700C0000080EF0E9425138F2D0E94FE
:1033900025138FEF90E7A2E081509040A040E1F725
:1033A00000C00000E2EEF2E0E017F107A1F6AFCDB9
:1033B00081E090914106911180E0809341068091D7
:1033C0006B0690916C06892B81F480EF0E94251387
:1033D00082E10E9425131092D40580EF0E942513EC
:1033E00084E10E9425131092EF0580910302823040
:1033F00009F07CCFBFEFE0E7F2E0B150E040F040F1
:10340000E1F700C0000089E20E9425132FEF30E7AA
:1034100082E0215030408040E1F700C0000080EFA2
:103420000E94251389E20E9425139FEFA0E7B2E0D6
:103430009150A040B040E1F700C0000089E40E9434
:103440002513EFEFF0E722E0E150F0402040E1F7F4
:1034500000C0000080EF0E94251389E40E9425131C
:1034600080914106882309F45EC002EE12E03FEF2E
:1034700080E792E0315080409040E1F700C00000CA
:10348000D801FD908D018F2D0E942513BFEFE0E73D
:10349000F2E0B150E040F040E1F700C0000080EF02
:1034A0000E9425138F2D0E9425132FEF30E782E015
:1034B000215030408040E1F700C000002016310666
:1034C000B1F605ED12E0EFEFF0E722E0E150F04059
:1034D0002040E1F700C00000D801FD908D018F2D44
:1034E0000E942513BFEFE0E7F2E0B150E040F0406A
:1034F000E1F700C0000080EF0E9425138F2D0E948D
:1035000025132FEF30E782E0215030408040E1F773
:1035100000C0000092E00E3D1907A9F66091410637
:1035200087E090E026CD0EED12E09FEFA0E7B2E03D
:103530009150A040B040E1F700C00000F801F190C8
:103540008F018F2D0E942513FFEF20E732E0F1500D
:1035500020403040E1F700C0000080EF0E942513BA
:103560008F2D0E9425138FEF90E7A2E081509040AD
:10357000A040E1F700C00000B2E0023E1B07A9F640
:10358000A0CF05EE12E0BFEFE0E7F2E0B150E0407F
:10359000F040E1F700C00000D801FD908D018F2DB3
:1035A0000E942513BFEFE0E7F2E0B150E040F040A9
:1035B000E1F700C0000080EF0E9425138F2D0E94CC
:1035C00025132FEF30E782E0215030408040E1F7B3
:1035D00000C0000092E0013F1907A9F6C6CDD092C5
:1035E0009005AFEFB4E3ECE0A150B040E040E1F76C
:1035F00000C000002FEF621A720A3DE0430E511C1A
:103600008B819C8105969C838B8398E0691671045D
:1036100009F0C2CB81E080933D0680913D06811187
:103620000C94AE248091D40580FD02C00C94AE248D
:103630008091EF0580FD02C00C94AE2480918F052F
:1036400081110C9493238091B00580FF10C081E01C
:103650008093910580933D0680939205AFEFB4E38C
:10366000ECE0A150B040E040E1F700C000008091E4
:10367000D50580FF1CC080916B0690916C06892B4C
:1036800021F480914206882391F080918E0581116A
:1036900001C081E080938E0500E020E040E060E022
:1036A00081E00E94011261E085E00E948F1080910C
:1036B000D70580FF1CC080916B0690916C06892B0A
:1036C00021F480914206882391F080918D0581112B
:1036D00001C081E080938D0500E020E040E061E0E2
:1036E00080E00E94011263E085E00E948F108091CB
:1036F000AD0580FF1CC080916B0690916C06892BF4
:1037000021F480914206882391F080918C058111EB
:1037100001C081E080938C0500E020E041E060E0A2
:1037200080E00E94011260E082E00E948F10809190
:10373000D60580FF1CC080916B0690916C06892B8A
:1037400021F480914206882391F080918B058111AC
:1037500001C081E080938B0501E020E040E060E063
:1037600080E00E94011262E085E00E948F1080914B
:10377000F00580FF1CC080916B0690916C06892B30
:1037800021F480914206882391F080918A0581116D
:1037900001C081E080938A0500E021E040E060E024
:1037A00080E00E94011262E087E00E948F10809109
:1037B000930580FF1FC080916B0690916C06892B4A
:1037C00021F4809142068823A9F080908B05A09077
:1037D0008A05C0908D05E0908E0500918C05809142
:1037E00003024BE3813009F045E020E060E080E037
:1037F0000E9428138091940580FF1FC080916B0662
:1038000090916C06892B21F4809142068823A9F0BF
:1038100080908B05A0908A05C0908D05E0908E0564
:1038200000918C05809103024CE3813009F046E061
:1038300020E061E080E00E9428138091950580FFE0
:103840001FC080916B0690916C06892B21F48091AA
:1038500042068823A9F080908B05A0908A05C0902D
:103860008D05E0908E0500918C05809103024DE35B
:10387000813009F044E020E062E080E00E942813FB
:103880008091960580FF1FC080916B0690916C0619
:10389000892B21F4809142068823A9F080908B0522
:1038A000A0908A05C0908D05E0908E0500918C0552
:1038B000809103024EE3813009F04CE020E063E0A8
:1038C00080E00E9428138091970580FF1FC080919F
:1038D0006B0690916C06892B21F480914206882317
:1038E000A9F080908B05A0908A05C0908D05E0908E
:1038F0008E0500918C05809103024FE3813009F021
:1039000043E020E064E080E00E9428138091BE053F
:1039100080FF1FC080916B0690916C06892B21F46B
:10392000809142068823A9F080908B05A0908A059B
:10393000C0908D05E0908E0500918C05809103026A
:1039400040E4813009F04BE020E064E083E00E9435
:1039500028138091BD0580FF1FC080916B06909158
:103960006C06892B21F4809142068823A9F080906F
:103970008B05A0908A05C0908D05E0908E05009182
:103980008C058091030241E4813009F043E820E096
:1039900063E083E00E9428138091BC0580FF1FC074
:1039A00080916B0690916C06892B21F480914206E0
:1039B0008823A9F080908B05A0908A05C0908D0582
:1039C000E0908E0500918C058091030242E48130E5
:1039D00009F04AE020E062E083E00E942813809131
:1039E000BB05482F417080FF1EC080916B069091EF
:1039F0006C06892B21F4809142068823A1F08090E7
:103A00008B05A0908A05C0908D05E0908E050091F1
:103A10008C0580910302813009F443E420E061E0E9
:103A200083E00E9428138091BA0580FF1FC0809117
:103A30006B0690916C06892B21F4809142068823B5
:103A4000A9F080908B05A0908A05C0908D05E0902C
:103A50008E0500918C058091030244E4813009F0C9
:103A600049E020E060E083E00E9428138091A005F7
:103A700080FF1FC080916B0690916C06892B21F40A
:103A8000809142068823A9F080908B05A0908A053A
:103A9000C0908D05E0908E0500918C058091030209
:103AA00047E5813009F048E720E060E081E00E94CE
:103AB00028138091A10580FF1FC080916B06909113
:103AC0006C06892B21F4809142068823A9F080900E
:103AD0008B05A0908A05C0908D05E0908E05009121
:103AE0008C058091030248E5813009F047E020E031
:103AF00061E081E00E9428138091AE0580FF1FC025
:103B000080916B0690916C06892B21F4809142067E
:103B10008823A9F080908B05A0908A05C0908D0520
:103B2000E0908E0500918C058091030246E581307E
:103B300009F041E620E061E082E00E9428138091D4
:103B4000C90580FF86C380916B0690916C06009733
:103B500029F420914206222309F47BC380908B052F
:103B6000A0908A05C0908D05E0908E0500918C058F
:103B700021E08331910509F020E0309103024AE30E
:103B8000313009F462C38830910509F45DC38E3089
:103B9000910509F459C348E5439709F056C34FE22C
:103BA00054C380916B0690916C068B30910519F08F
:103BB0000397029750F410923F0681E090913E06E1
:103BC000911180E080933E0691CB10923E0681E0F9
:103BD00090913F06911180E080933F0687CB8091C2
:103BE0006B0690916C06049709F004CD8AE00E9460
:103BF0002513FFEF20E732E0F15020403040E1F79D
:103C000000C0000089E00E9425138FEF90E7A2E03A
:103C100081509040A040E1F700C0000080EF0E947A
:103C2000251389E00E942513BFEFE3EDF0E3B150C7
:103C3000E040F040E1F700C0000080EF0E94251353
:103C40008AE00E9425132FEF30E782E021503040B8
:103C50008040E1F700C0000049CB80916B06909155
:103C60006C06059709F5812CA12CC12CE12C00E0F4
:103C700020E047E061E084E00E94281382E10E9496
:103C800025139FEFA3EDB0E39150A040B040E1F7C2
:103C900000C0000080EF0E94251382E10E942513DE
:103CA000D0923D06D0928F0580916B0690916C0664
:103CB000029709F09FCC8091030248E5813009F01A
:103CC00047E0812CA12CCC24C394EE24E39400E0A3
:103CD00020E064E084E06CC180910302823009F04E
:103CE00089CC80916B0690916C06892B81F480EFD2
:103CF0000E94251382E10E9425131092D40580EFC3
:103D00000E94251384E10E9425131092EF0589E299
:103D10000E942513EFEFF0E722E0E150F040204051
:103D2000E1F700C0000080EF0E94251389E20E94A5
:103D3000251336E0E32E33E0F32E10E000E00230EE
:103D4000110519F004301105D9F43FEF80E792E036
:103D5000315080409040E1F700C0000089E40E94AB
:103D60002513AFEFB0E7E2E0A150B040E040E1F74B
:103D700000C0000080EF0E94251389E40E942513F3
:103D8000FFEF20E732E0F15020403040E1F700C083
:103D90000000D701ED917D01F0E0E450FD4FC080BF
:103DA0008C2D0E942513BFEFE0E7F2E0B150E04018
:103DB000F040E1F700C0000080EF0E9425138C2D39
:103DC0000E9425132FEF30E782E0215030408040E1
:103DD000E1F700C000000F5F1F4F0830110509F028
:103DE000AECF89E20E9425139FEFA0E7B2E0915089
:103DF000A040B040E1F700C0000080EF0E94251312
:103E000089E20E9425138DE20E942513EFEFF0E76F
:103E100022E0E150F0402040E1F700C0000080EFD8
:103E20000E9425138DE20E9425133FEF80E792E068
:103E3000315080409040E1F700C000008EE10E94C8
:103E40002513AFEFB0E7E2E0A150B040E040E1F76A
:103E500000C0000080EF0E9425138EE10E94251310
:103E6000FFEF20E732E0F15020403040E1F7F2CEA2
:103E700080916B0690916C06892BA1F460E080EF35
:103E80000E94CD1060E082E10E94CD101092D40516
:103E900060E080EF0E94CD1060E084E10E94CD10D0
:103EA0001092EF0560916B0685E090E00E941B3157
:103EB0006091420686E090E00E941B3180910302EF
:103EC000823009F013CA8FEF90E7A2E08150904052
:103ED000A040E1F700C0000089E20E942513BFEF77
:103EE000E0E7F2E0B150E040F040E1F700C0000050
:103EF00080EF0E94251389E20E9425132FEF30E7FF
:103F000082E0215030408040E1F700C0000089E4A9
:103F10000E9425139FEFA0E7B2E09150A040B0406F
:103F2000E1F700C0000080EF0E94251389E40E94A1
:103F300025130EE013E0EFEFF0E722E0E150F04050
:103F40002040E1F700C00000D801FD908D018F2DC9
:103F50000E942513BFEFE0E7F2E0B150E040F040EF
:103F6000E1F700C0000080EF0E9425138F2D0E9412
:103F700025132FEF30E782E0215030408040E1F7F9
:103F800000C00000A8E1B3E0A017B107A1F6AEC9D8
:103F9000809103024EE0813009F046E6812CA12C8D
:103FA000CC24C394EE24E39400E020E064E087E0B6
:103FB0000E9428131FCB8091030243E5813009F052
:103FC00041E7812CA12CCC24C394EE24E39400E09F
:103FD00021E063E087E00E94281380916B069091B6
:103FE0006C06479709F006CBD0926A0610926606D7
:103FF000109267061092680610926906B2E0B093BC
:104000000302F8CA80916B0690916C06823091058C
:1040100020F00A97049708F0EDCA809103024FE35D
:10402000813009F44ECE43E04CCE80919005882338
:1040300009F489C0F201EE0DFF1D808180FF83C06D
:10404000EB81FC81EE0DFF1D0081002E000C110B99
:10405000A0906B06C0906C0610926A062B98109286
:104060003F0610923E068AEB93E00115110529F0F8
:1040700001301105C1F585EB93E00E946414053011
:104080001105C1F58FE993E00E9464140A3011050F
:10409000C1F58EE793E00E94641401311105C1F56A
:1040A00083E593E00E94641404311105C1F583E3B4
:1040B00093E00E94641409311105C1F5D0926A069B
:1040C00010926606109267061092680610926906B2
:1040D000B092030288E193E00E9464142B9A26C0F8
:1040E0000A2D1C2DC0CF02301105B9F580EB93E0ED
:1040F0000E94641406301105B9F585E993E00E9429
:1041000064140B301105C1F585E793E00E94641437
:104110000C301105C9F58DE493E00E9464148DE222
:1041200093E005311105C1F50E9464140A311105AF
:10413000BCF6D0923D06D0928F0510929005109358
:104140006C0600936B06EFEFEE1AFE0AF5E0EF1631
:10415000F10411F00C94CE164DCA0330110511F57F
:104160008BEA93E00E9464140730110509F045C002
:104170008EE893E00E9464140E30110509F044C0EB
:1041800080E793E00E9464140D30110509F043C0EC
:1041900087E493E00E94641485E293E00631110500
:1041A00019F240C00430110509F069CF84EA93E0A8
:1041B0000E9464140930110509F068CF83E893E088
:1041C0000E9464140031110509F067CF8EE593E079
:1041D0000E9464140331110509F066CF8BE393E06C
:1041E0000E9464140831110509F065CF10926A0627
:1041F000D09203028DE695E097CF08301105D1F6F5
:1042000089E893E00E9464140F301105D9F689E61D
:1042100093E00E94641402311105E1F681E493E019
:104220000E94641407311105E9F6D0926A061092D3
:104230006606109267061092680610926906B092A0
:1042400003028FE193E070CF47E762E084E00E94D1
:1042500028138091C80580FF1FC080916B06909144
:104260006C06892B21F4809142068823A9F0809066
:104270008B05A0908A05C0908D05E0908E05009179
:104280008C05809103024AE1813009F044E520E089
:1042900061E084E00E9428138091C70580FF1FC061
:1042A00080916B0690916C06892B21F480914206D7
:1042B0008823A9F080908B05A0908A05C0908D0579
:1042C000E0908E0500918C05809103024BE18130D6
:1042D00009F04BE520E060E084E00E942813809123
:1042E000A20580FF1FC080916B0690916C06892B00
:1042F00021F4809142068823A9F080908B05A0903C
:104300008A05C0908D05E0908E0500918C05809106
:10431000030247E3813009F04CE720E062E081E0EE
:104320000E9428138091A30580FF1FC080916B0617
:1043300090916C06892B21F4809142068823A9F084
:1043400080908B05A0908A05C0908D05E0908E0529
:1043500000918C05809103024AE4813009F04BE71B
:1043600020E063E081E00E9428138091AF0580FF88
:104370001FC080916B0690916C06892B21F480916F
:1043800042068823A9F080908B05A0908A05C090F2
:104390008D05E0908E0500918C05809103024EE41E
:1043A000813009F049E720E062E082E00E942813B2
:1043B0008091A40580FF15C080916B0690916C06DA
:1043C000892B21F480914206882359F00E94D01154
:1043D00001E021E041E061E081E00E9401121092E1
:1043E000A4058091CB0580FF1FC080916B06909142
:1043F0006C06892B21F4809142068823A9F08090D5
:104400008B05A0908A05C0908D05E0908E050091E7
:104410008C058091030246E4813009F04EE720E0EC
:1044200064E084E00E9428138091CA0580FF3CC0AC
:1044300080916B0690916C06892B21F48091420645
:10444000882391F160E081EE0E94CD1060E084E16C
:104450000E94CD1060E087E70E94CD1060E081EE01
:104460000E94CD1060E080EF0E94CD1060E084E1FA
:104470000E94CD1060E080EF0E94CD1060E087E7E1
:104480000E94CD10FFEF21EE34E0F150204030408B
:10449000E1F700C0000001E021E041E061E081E0DF
:1044A0000E9401121092CA058091B10580FF1FC0C1
:1044B00080916B0690916C06892B21F480914206C5
:1044C0008823A9F080908B05A0908A05C0908D0567
:1044D000E0908E0500918C058091030242E58130C9
:1044E00009F040E721E064E082E00E942813809117
:1044F000E50580FF1FC080916B0690916C06892BAB
:1045000021F4809142068823A9F080908B05A09029
:104510008A05C0908D05E0908E0500918C058091F4
:10452000030247E4813009F04CE621E064E086E0D4
:104530000E9428138091E40580FF1FC080916B06C4
:1045400090916C06892B21F4809142068823A9F072
:1045500080908B05A0908A05C0908D05E0908E0517
:1045600000918C058091030249E4813009F04DE708
:1045700021E063E086E00E9428138091D80580FF47
:104580001FC080916B0690916C06892B21F480915D
:1045900042068823A9F080908B05A0908A05C090E0
:1045A0008D05E0908E0500918C058091030243E516
:1045B000813009F041E721E064E085E00E942813A2
:1045C0008091F20580FF1FC080916B0690916C0670
:1045D000892B21F4809142068823A9F080908B05D5
:1045E000A0908A05C0908D05E0908E0500918C0505
:1045F000809103024FE4813009F049E621E064E054
:1046000087E00E9428138091F10580FF1FC08091F0
:104610006B0690916C06892B21F4809142068823C9
:10462000A9F080908B05A0908A05C0908D05E09040
:104630008E0500918C058091030241E5813009F0DF
:104640004AE721E063E087E00E9428138091E305B8
:1046500080FF1FC080916B0690916C06892B21F41E
:10466000809142068823A9F080908B05A0908A054E
:10467000C0908D05E0908E0500918C05809103021D
:1046800047E2813009F04CE420E062E086E00E94DD
:1046900028138091E20580FF1FC080916B069091E6
:1046A0006C06892B21F4809142068823A9F0809022
:1046B0008B05A0908A05C0908D05E0908E05009135
:1046C0008C058091030248E2813009F042E520E048
:1046D00061E086E00E9428138091E10580FF1FC001
:1046E00080916B0690916C06892B21F48091420693
:1046F0008823A9F080908B05A0908A05C0908D0535
:10470000E0908E0500918C05809103024BE2813090
:1047100009F04DE520E060E086E00E9428138091DA
:104720003D06811102C180918905882309F462C088
:104730008091D4059091880591111BC1882361F067
:104740008091BD0580FF08C065E085E00E946E1085
:104750001092BD05109287058091D405882361F0E1
:104760008091BE0580FF08C067E085E00E946E1062
:104770001092BE05109287058091D405882361F0C0
:104780008091970580FF08C065E084E00E946E106C
:1047900010929705109287058091D405882389F09F
:1047A0008091BC0580FF0DC080918705882309F4A6
:1047B000D8C0109287051092890510928805109232
:1047C000BC058091E10580FF08C065E083E00E94A0
:1047D0006E101092E105109287058091D405882310
:1047E00049F08091930580FF05C01092930581E008
:1047F000809388052091D405922F917040916B068B
:1048000050916C06452B09F0C0C080914206811181
:10481000BCC0992379F021FD0DC082E10E942513CF
:104820008091D40582608093D405809186058F5F46
:10483000809386058091EF0580FF0FC081FD0DC03C
:1048400084E10E9425138091EF0582608093EF053B
:10485000809186058F5F809386058091D40582FFC5
:104860000DC080EF0E94251382E10E942513109253
:10487000D405809186058F5F809386058091EF0532
:1048800082FF0DC080EF0E94251384E10E94251352
:104890001092EF05809186058F5F80938605809149
:1048A0008605882331F08AE18A95F1F700C01092DD
:1048B00086050EEA14E093E9A92E95E0B92E26E0CC
:1048C000822E25E0922E6501F12CE12C3601D601D5
:1048D0008C9180FF08C081FD06C0F801EE0DFF1D20
:1048E00080810E942513BFEFCB1ADB0AF301808180
:1048F00082FF0CC080EF0E942513F801EE0DFF1D12
:1049000080810E942513F60131971082FFEFEF1A84
:10491000FF0A25E0E216F104C9F6055F1F4F3DE0EE
:10492000A30EB11C8016910671F62C960FB6F89462
:10493000DEBF0FBECDBFDF91CF911F910F91FF90D2
:10494000EF90DF90CF90BF90AF909F908F907F902F
:104950006F905F904F903F902F90089510928F0529
:10496000DECE68E083E00E946E1081E080938705D0
:1049700026CF882309F43ECF8091930580FF3ACF5C
:10498000109293051092880535CF4091850541110D
:104990006BC080918405811167C08091830581116E
:1049A00063C0992311F021FF06C09091EF0590FF9D
:1049B00017C091FD15C063E975E030E020E0853057
:1049C00009F043C0211146C02F5F3F4F253031050C
:1049D000B1F78F5F635F7F4F883079F7409385052C
:1049E00083E995E09B878A878EEA282E84E0382E1B
:1049F00010E0512C912C812C34016101EA84FB845C
:104A00001B8295E0591239C0AB81A1113CC0FB81DA
:104A1000FF5FFB832FEFE21AF20A3FEFC31AD30ABC
:104A20008FEF681A780AF53061F75394AA85BB8531
:104A30001D96BB87AA87BBE02B0E311CE5E08E0ECE
:104A4000911CF8E05F12D8CF70CF873019F4213075
:104A500009F4BACFFB01E20FF31F9081592F517077
:104A600090FFB2CF452FB5CF9111BACF8091EF050E
:104A700080FDB6CF10928505B3CFB7E05B1203C0BF
:104A8000EB81E13021F2D7018C9180FF2DC281FDB5
:104A90002BC29091850591110EC09091D40590FF85
:104AA00002C088608C938091EF0580FF04C0F701FD
:104AB000808180618083D7018C9183FF49C084FD10
:104AC00047C020910302F301223019F5E25AFB4F4F
:104AD0000081109262061092610610925E0680912B
:104AE0006B0690916C060630B9F4AC014C5051093C
:104AF0004230510508F467C18A30910509F079C444
:104B000007E2B6E05B120DC0EB81E1110AC00DE0D7
:104B100085C4EA5CFB4FDCCF8A30910591F3469760
:104B200081F3011169C4223009F04FC182E10E9472
:104B3000251382E180935E0680910302823009F0A2
:104B400049C1D601BC908B2D0E942513B0926306FB
:104B5000F701808184FF00C1F82FF870FD8383FD89
:104B6000FBC0A0906B06B0906C0619821092620692
:104B70001092610610925E0600910302013009F066
:104B80002EC1F301E25FFB4F80818A83A114B1043F
:104B900009F469C1A501BE016F5F7F4FCE01029686
:104BA0000E943D028A81882309F4D6C0B7E1AB1682
:104BB000B10409F017C1013009F014C1F301EA5141
:104BC000FC4F80818A83F301E254FC4F9081E92FEE
:104BD000E170EE83F92FF870F887907480E000E0C0
:104BE000412C1C861F8219862A81222309F4B4C015
:104BF0009111B2C0882351F182E10E94251384E50E
:104C00000E9425138FEF99EFA0E081509040A040C3
:104C1000E1F700C0000080EF0E94251384E50E94A8
:104C20002513BFEFE9EFF0E0B150E040F040E1F7CD
:104C300000C0000082E10E9425132FEF39EF80E0D1
:104C4000215030408040E1F700C000009E81992350
:104C500059F080910302823009F0FEC082E10E9487
:104C6000251382E180935E06AD81AA2351F08091E5
:104C70000302823099F484E10E94251384E1809339
:104C80005E06BF81BB2351F080910302823031F474
:104C900081E10E94251381E180935E06E885EE2381
:104CA00061F060E080EE0E94CD10809103028230BE
:104CB00009F0D7C081E10E942513F985FF2359F03F
:104CC00080910302823039F460E080EE0E94CD10C2
:104CD00084E10E9425132C85222321F060E080EEE0
:104CE0000E94CD10442021F182E10E9425138AE523
:104CF0000E9425133FEF81EE94E0315080409040B8
:104D0000E1F700C0000080EF0E9425138AE50E94B1
:104D1000251380EF0E94251382E10E942513AFEF37
:104D2000B1EEE4E0A150B040E040E1F700C0000087
:104D3000002361F08EE00E942513FFEF21EE34E0A6
:104D4000F15020403040E1F700C000008A810E940D
:104D500025138A8180936306F7018081887109F0A9
:104D6000BFC090913F0680910302911105C0209130
:104D70003E06222309F4ECC01092620610926106EE
:104D800010925E06823009F080C0D6011C91143466
:104D900009F473C01D3409F472C0153109F471C0EF
:104DA0001C3109F470C01B3639F0143729F015375F
:104DB00019F0123709F087C0992309F484C080EEF6
:104DC00080935E0680C000E0AACE8AE20E9425138E
:104DD0008AE2B0CEF301E25FFB4FB080B4CED601E1
:104DE0008C91D3CE8981282F21702E8381FB33278C
:104DF00030F93D8382FB992790F99F8383FBAA2793
:104E0000A0F9A88784FBBB27B0F9B98785FBEE27FB
:104E1000E0F9EC8786FB992790F920E0FDE0AF16DA
:104E2000B10421F4282F221F2227221F422E2AE01C
:104E3000A216B10479F4282F221F2227221F022F45
:104E4000881F8827881F35E1A316B10409F4CCCE4A
:104E500080E0CACE20E0F3CF8AE20E9425138AE2E6
:104E600001CF88E328CFD6018C918A8384E10E9408
:104E7000251384E180935E0669CF1BE69DCF14E77E
:104E80009BCF15E799CF12E797CF8130E1F4F3017B
:104E9000E25FFB4F1081183109F452C0193109F457
:104EA00051C0103109F450C01E3109F44FC01B34F9
:104EB00009F485CF1D3409F482CF183409F47FCF6B
:104EC000103509F47CCF1093630680915E06882329
:104ED00019F080EE0E942513809163060E9425132D
:104EE000D7018C9182608C93F701808182FF8FCDF6
:104EF00083FF58C084FD56C020910302F301223085
:104F0000B9F5E25AFB4F00811092630680916B065F
:104F100090916C06063079F5AC014C505109423045
:104F2000510508F401C18A30910509F091C207E2E8
:104F3000F6E05F1225C03B81311122C00DE098C21E
:104F40001BE43DCF1DE43BCF18E439CF10E537CF4C
:104F50001092620610926106F601823019F0F30198
:104F6000E25FFB4F80818093630610925E06B4CFB0
:104F7000EA5CFB4FC8CF8A309105D1F24697C1F267
:104F8000011169C2223009F0D1C080EF0E942513BF
:104F9000D6018C910E94251380EF0E94251382E197
:104FA0000E942513F701808184FF59C1F82FF87002
:104FB0004F2E83FD54C1A0906B06B0906C061982F1
:104FC00010926306D6018C918A83A114B10409F46E
:104FD000ACC1A501BE016F5F7F4FCE0102960E945A
:104FE0003D028A81882309F43AC1B7E1AB16B104C6
:104FF00009F0A8C080910302813009F0A3C0F30139
:10500000EA51FC4F80818A83F301E254FC4F908186
:10501000E92FE170EE83F92FF870F9879074B12CC5
:105020001D8230E040E0188600E01F828A818823DC
:1050300009F415C1209103029111C1C0223009F079
:10504000B8C0332349F02FEF31EE84E021503040D7
:105050008040E1F700C00000442321F060E080EED2
:105060000E94CD1080EF0E9425138A810E94251393
:105070009D81992331F080EF0E9425138EE00E94DC
:105080002513BB2031F080EF0E94251382E10E949E
:105090002513AE81AA2359F080910302823009F0D2
:1050A0008AC080EF0E94251382E10E942513BF81F0
:1050B000BB2351F080910302823099F480EF0E946B
:1050C000251384E10E942513E885EE2351F0809199
:1050D0000302823031F480EF0E94251381E10E94A7
:1050E0002513F985FF2371F080EE0E94251380912E
:1050F0000302823009F061C080EF0E94251381E134
:105100000E942513002309F4AAC080910302823073
:1051100009F0A5C080EE0E94251380EF0E942513A0
:1051200084E10E9425139BC000E028CFF301E25FD9
:10513000FB4F808180580E9425138AEA31CF80E896
:10514000800F2ECF8981282F21702E8381FB33275A
:1051500030F93F8382FB992790F9988783FBAA2730
:10516000A0F9A98784FB002700F985FB442740F9B3
:1051700086FB992790F930E0BDE0AB16B10421F42D
:10518000382F331F3327331F20E0EAE0AE16B10477
:1051900021F4282F221F2227221F2D83F5E1AF168D
:1051A000B10429F4B82EBB1CBB24BB1C3FCFB12CCF
:1051B0003DCF80586CCF8AEA78CF88EBA1CF8E376D
:1051C00009F0A4C0223009F06CC1E4E7AE2EF2E78A
:1051D000BF2E59E6452E80910302823009F03FC070
:1051E000242D2B0D3327331FC9018A0D911D892BC7
:1051F000B1F160E081E10E94CD10442061F060E0F7
:10520000842D0E94CD1060E080EF0E94CD1060E000
:10521000842D0E94CD10BB2061F060E08B2D0E9498
:10522000CD1060E080EF0E94CD1060E08B2D0E94D9
:10523000CD10AA2061F060E08A2D0E94CD1060E0C0
:1052400080EF0E94CD1060E08A2D0E94CD1060E0BA
:1052500080EF0E94CD1060E081E10E94CD10D70167
:105260008C91887109F04FC090913F0680910302A4
:10527000911105C020913E06222309F46BC01092C3
:105280006306823009F5F6011081143409F452C026
:105290001D3409F451C0153109F450C01C3109F412
:1052A0004FC01B3631F0143721F0153711F012378B
:1052B00029F4992319F080EE0E94251380EF0E94B3
:1052C0002513812F0E942513809103028130D9F488
:1052D000F301E25FFB4F10811831A1F11931A1F107
:1052E0001031A1F11E31A1F11B3431F01D3421F038
:1052F000183411F0103519F480EE0E94251380E85F
:10530000810F0E942513F701108281CBA12CB12CB3
:105310008C3909F060CF2230E1F564E7A62E73E7FF
:10532000B72E57CFB0E5BB2E3CC080EF0E942513AF
:105330008A81F1CE1BE6BDCF14E7BBCF15E7B9CF0D
:1053400012E7B7CF1BE4D8CF1DE4D6CF18E4D4CFF3
:1053500010E5D2CF823071F480EF0E942513D60180
:10536000BC908B2D0E94251380916306B8120EC04D
:1053700080E00CC0F301E25FFB4F008180E8800F0A
:105380000E94251380916306081791F380936306AA
:10539000BACF3DE4A32E4CE4B42E213039F50CE411
:1053A000B02E60E088E30E94CD1060E08FE40E94A0
:1053B000CD1060E08FEC0E94CD10BB2049F060E082
:1053C0008B2D0E94CD1060E080E88B0D0E94CD10E7
:1053D00060E08DE40E94CD1060E08DEC0E94CD1065
:1053E00060E088EB0E94CD10ADE4AA2E8FE4482E39
:1053F000F2CE469709F485CB223081F40B3641F08A
:10540000043731F0053721F0023711F0073231F45B
:1054100080EE0E94251380EE80935E068091030249
:10542000813081F40B3441F00D3431F0083421F037
:10543000003511F00C3531F480EE0E94251380EE1A
:1054400080935E06802F0E9425130093630680CB15
:10545000469709F46DCD223059F40B3631F00437FC
:1054600021F0053711F0023719F480EE0E94251360
:1054700080910302813059F40B3431F00D3421F066
:10548000083411F0003519F480EE0E942513809144
:105490000302823009F053CE80EF0E942513802F43
:1054A0007FCD213009F43ECF9DE4A92E20E5B22E18
:1054B0009DCF1F920F920FB60F9211242F933F93FF
:1054C0008F939F93AF93BF938091720690917306D1
:1054D000A0917406B09175063091710623E0230FF8
:1054E0002D3758F50196A11DB11D209371068093AB
:1054F000720690937306A0937406B093750680911C
:105500006D0690916E06A0916F06B091700601969F
:10551000A11DB11D80936D0690936E06A0936F063A
:10552000B0937006BF91AF919F918F913F912F9152
:105530000F900FBE0F901F90189526E8230F02962C
:10554000A11DB11DD2CFCF93DF9300D000D000D0EA
:105550001F92CDB7DEB7789484B5826084BD84B5E0
:10556000816084BD85B5826085BD85B5816085BD5E
:1055700080916E00816080936E0010928100809116
:10558000810082608093810080918100816080939E
:105590008100809180008160809380008091B100C3
:1055A00084608093B1008091B00081608093B000EE
:1055B0008091910082608093910080919100816040
:1055C0008093910080919000816080939000809101
:1055D000A10082608093A1008091A10081608093EE
:1055E000A1008091A00081608093A00080912101A2
:1055F000826080932101809121018160809321014B
:105600008091200181608093200180917A008460E4
:1056100080937A0080917A00826080937A008091F2
:105620007A00816080937A0080917A00806880930C
:105630007A001092C10080E88093610010926100AE
:10564000229A2A982098289A239A2B98279A809110
:105650000B01816080930B018B988A9883E00E94F4
:10566000F90082E00E94F90002E615E077E5A72E36
:1056700075E0B72EF801E1908F01F501F1905F011F
:1056800041E06E2D8F2D0E94D90F41E06E2D8F2DA0
:105690000E940F0FF5E00D361F0761F70AE415E0D1
:1056A0006DE3E62E65E0F62EF80161918F0141E091
:1056B000F70181917F010E94D90FF5E007351F079F
:1056C00099F70AE715E043E7A42E45E0B42E51E828
:1056D000852E55E0952EF801E1908F01F501F190AE
:1056E0005F0141E06E2D8F2D0E94D90F41E06E2D9C
:1056F0008F2D0E940F0F8016910669F740E062E03F
:1057000086E00E94D90F41E065E084E00E94D90F55
:1057100041E065E084E00E940F0F41E065E085E034
:105720000E94D90F41E065E085E00E940F0F41E043
:1057300067E085E00E94D90F41E067E085E00E94C4
:105740000F0F41E065E083E00E94D90F41E065E082
:1057500083E00E940F0F41E068E083E00E94D90FD0
:1057600041E068E083E00E940F0F1092440610921F
:1057700043062198299A85E0E4E0F2E0DE011696DE
:1057800001900D928A95E1F745E050E070E060E00D
:10579000CE0101960E94F930FE013196DE01169687
:1057A000AD0121E0CD0161913D91631320E0E4174B
:1057B000F507C9F7222309F4F4C285E090E00E94BE
:1057C0000931082F10E010926A062B9810923F06BC
:1057D00010923E0681E00115110521F001301105FE
:1057E00059F584E0809302020530110561F584E0EB
:1057F000809302020A30110569F584E08093020269
:105800000131110571F584E0809302020431110524
:1058100079F584E0809302020831110581F584E076
:105820008093020210926A0681E0809303028DE663
:1058300095E00E94641423C00230110509F037C2BC
:1058400084E0809302020630110509F036C284E03C
:10585000809302020B30110509F036C284E0809378
:1058600002020C30110509F036C284E08093020276
:105870000531110509F036C284E0809302021093CD
:105880006C0600936B0686E090E00E94093182303E
:1058900008F080E08093420687E090E00E940931A2
:1058A000823008F080E08093410688E090E00E941A
:1058B0000931823008F080E08093400689E090E072
:1058C0000E940931823008F080E080934506AA24C6
:1058D000A394B12C11E02224239430EA432E36E81D
:1058E000532E66246394712C90E0892E90E0992EBB
:1058F0000E94040F20916B0630916C0627513109EC
:105900008823A1F02330310588F480916A06811143
:1059100064C48091660690916706A0916806B09174
:105920006906892B8A2B8B2B09F057C48091660658
:1059300090916706A0916806B09169060097A1054D
:10594000B10509F074C22330310588F580916306F2
:10595000882369F180916106909162069C012F5F16
:105960003F4F3093620620936106893E934020F4B6
:10597000809103028230D9F480915F069091600695
:105980009C012F5F3F4F3093600620935F0687395D
:10599000910568F080915E0681110E942513809127
:1059A00063060E9425131092600610925F060E9403
:1059B0003415809152068093460680915306809359
:1059C000470680915406809348068091550680933F
:1059D00049068091560680934A0610925606809199
:1059E000570680934B061092570680915806809375
:1059F0004C068091590680934D0680915A068093FB
:105A00004E0610925A0680915B0680934F061092C4
:105A10005B0680915C068093500610925C06809134
:105A20005D068093510610925D068FE39CE9019715
:105A3000F1F700C0000080914506882309F403C2F5
:105A4000809101018F7D809301018091020180622C
:105A50008093020180910101806480930101809113
:105A60000201806480930201249A2C9AEFEBF0E00B
:105A70003197F1F700C00000809102018F7B809385
:105A80000201F0E8FA95F1F798E080E0282F30E085
:105A900035952795822F4091000145FF80682C980D
:105AA00020E82A95F1F72C9AE0E8EA95F1F7915071
:105AB00069F7982F917090935806982F9270909351
:105AC0005906982F947090935606982F987090933B
:105AD0005706982F907190935206982F907290933A
