:100000000C9446000C9465000C9465000C946500FB
:100010000C9465000C9465000C9465000C946500CC
:100020000C9465000C9465000C9465000C946500BC
:100030000C9465000C9465000C9465000C946500AC
:100040000C94F82A0C9465000C9465000C946500DF
:100050000C9465000C9465000C9465000C9465008C
:100060000C9465000C9465000C9465000C9465007C
:100070000C9465000C9465000C9465000C9465006C
:100080000C9465000C9465000C94650011241FBE4F
:10009000CFEFD0E1DEBFCDBF14E0A0E0B1E0E8E5F6
:1000A000F7E500E00BBF02C007900D92AC36B10738
:1000B000D9F725E0ACE6B4E001C01D92A236B20744
:1000C000E1F70E94E92A0C94AA2B0C940000E1E6C7
:1000D000F0E0908121E030E001C0220F8A95EAF73C
:1000E0002095292320830895633091F128F461300D
:1000F00059F06230D9F00895653009F44DC0D0F15F
:10010000673009F45BC0089521E030E0B90102C016
:10011000660F771F8A95E2F7CB019AB3442321F04B
:10012000809589238ABB0895892BFCCF21E030E09C
:10013000B90102C0660F771F8A95E2F7CB0197B32A
:10014000442321F08095892387BB0895892BFCCF18
:1001500021E030E0B90102C0660F771F8A95E2F70F
:10016000CB0194B3442321F08095892384BB089567
:10017000892BFCCF21E030E0B90102C0660F771F68
:100180008A95E2F7CB0191B3442321F0809589232E
:1001900081BB0895892BFCCF21E030E0B90102C07A
:1001A000660F771F8A95E2F7CB0192B1442321F0C5
:1001B0008095892382B90895892BFCCF21E030E016
:1001C000B90102C0660F771F8A95E2F7CB019091C3
:1001D0006400442329F08095892380936400089566
:1001E000892BFBCF282F6330E9F030F4613061F0C8
:1001F0006230B1F080E008956530C1F0A8F067305A
:10020000C9F79091630001C099B3892F90E002C0B3
:10021000959587952A95E2F7809590958170089538
:1002200096B3F3CF93B3F1CF90B3EFCF91B1EDCFBE
:10023000633091F128F4613059F06230D9F00895BB
:10024000653009F44DC0D0F1673009F45BC0089502
:1002500021E030E0B90102C0660F771F8A95E2F70E
:10026000CB019BB3411104C0809589238BBB0895BA
:10027000892BFCCF21E030E0B90102C0660F771F67
:100280008A95E2F7CB0198B3411104C08095892388
:1002900088BB0895892BFCCF21E030E0B90102C072
:1002A000660F771F8A95E2F7CB0195B3411104C021
:1002B0008095892385BB0895892BFCCF21E030E010
:1002C000B90102C0660F771F8A95E2F7CB0192B39E
:1002D000411104C08095892382BB0895892BFCCFEE
:1002E00021E030E0B90102C0660F771F8A95E2F77E
:1002F000CB0193B1411104C08095892383B908953E
:10030000892BFCCF21E030E0B90102C0660F771FD6
:100310008A95E2F7CB0190916500411105C0809567
:100320008923809365000895892BFBCF90917A04EF
:1003300080917B04292F2823D1F081E080937E04D3
:1003400080936D0410927A0410927B0490917C0447
:1003500080917D04292F2823F1F081E080937F0490
:1003600080936C0410927C0410927D040895209177
:100370006D04222321F010927E0410926D0421E07E
:1003800030917204311120E0922390937A048223F9
:1003900080937B04DBCF20916C04222321F0109208
:1003A0007F0410926C0421E030917304311120E03D
:1003B000922390937C04822380937D040895CF93AD
:1003C00041E060912001809127010E9418018AE498
:1003D0008A95F1F700C060911B01809122010E9473
:1003E000F20080937A0460911C01809123010E94A5
:1003F000F20080937B0460911D01809124010E9492
:10040000F20080937C0460911E01809125010E947E
:10041000F20080937D0440E06091200180912701EB
:100420000E9418019AE49A95F1F700C060911D01AD
:10043000809124010E94F200C82F60911E018091DA
:1004400025010E94F2008C2360911F01882309F48A
:10045000C3C0809126010E94F200809380046091C5
:100460002101809128010E94F20080937F0441E0E5
:1004700060912001809127010E9418018AE48A95E9
:10048000F1F700C060911F01809126010E94F200E7
:100490008093810460912101809128010E94F200E3
:1004A0008093820440E060912001809127010E94A6
:1004B00018019AE49A95F1F700C041E0609120019B
:1004C000809127010E9418018AE48A95F1F700C003
:1004D00040E060912001809127010E9418019AE478
:1004E0009A95F1F700C060911B01809122010E9452
:1004F000F200C82F60911C01809123010E94F2003C
:10050000C82360911D01809124010E94F200C8233C
:1005100060911E01809125010E94F2008C2309F454
:1005200048C041E060912001809127010E9418019C
:100530008AE48A95F1F700C060911B018091220145
:100540000E94F2008093850460911C018091230138
:100550000E94F2008093840460911D018091240127
:100560000E94F2008093830460911E018091250116
:100570000E94F20080937E0440E06091200180910F
:1005800027010E9418019AE49A95F1F700C041E012
:1005900060912001809127010E9418018AE48A95C8
:1005A000F1F700C040E060912001809127010E9496
:1005B00018018FE39FE10197F1F700C0000041E0CF
:1005C00060912001809127010E9418019AE49A9578
:1005D000F1F700C0CF910895809126010E94F200AA
:1005E0008093800460912101809128010E94F20093
:1005F00080938104E4CF98E080E061E070E0482FD0
:1006000050E055954795842F21B130E0E0912301CA
:1006100002C035952795EA95E2F720FF806843B13F
:1006200020912501FB0102C0EE0FFF1F2A95E2F782
:100630009F012095242323B9F0E8FA95F1F723B11F
:1006400030912501AB0101C0440F3A95EAF7242B04
:1006500023B920E82A95F1F7915089F608950F9370
:100660001F93CF93DF9382B102E211E0F8019181F1
:10067000C1E0D0E09E0101C0220F9A95EAF7922FC7
:100680009095982392B983B1822B83B992B18281DC
:100690009E0101C0220F8A95EAF7922B92B983B18D
:1006A000822B83B992B183819E0101C0220F8A956A
:1006B000EAF7922B92B983B1822B83B98FEB90E04A
:1006C0000197F1F700C0000023B18281AE0102C0A2
:1006D000440F551F8A95E2F7CA018095822383B99A
:1006E00050E85A95F1F70E94FB02EAE7F4E0982FF0
:1006F00091709683982F92709783982F947094831B
:10070000982F98709583982F90719083982F90725E
:100710009183982F907492838078838382B1F801BB
:1007200092819E0101C0220F9A95EAF7922F90952F
:10073000982392B983B1822B83B992B1838101C08E
:10074000CC0F8A95EAF78C2F8095892382B983B1E3
:10075000C82BC3B9DF91CF911F910F910895E2E6A5
:10076000F0E08081877F808380818B7F808383E03E
:100770000E94670082E00C946700029B07C080B172
:1007800083FB882780F991E08927089581E0089507
:1007900030E020E08217930749F02F5F3F4F039B23
:1007A00007C04AE14A95F1F700C0F4CF80E0089510
:1007B00081E00895882331F095E19A95F1F70000E2
:1007C0008450F8CF08959F92AF92BF92CF92DF925C
:1007D000EF92FF920F931F93CF93DF937C0180B131
:1007E000182F187083FDFBCF029BFECF8091000174
:1007F000880F880F0E94DA038091610084608093E3
:10080000610080910001880F880F880F0E94DA0331
:1008100082E00E94670080910001880F880F0E948B
:10082000DA03D0E0C0E001E0AA24A394B12C99241B
:100830009394039B08C0C5010C2E01C0880F0A9435
:10084000EAF7182B092580910001880F880F0E9474
:10085000DA038091610084608093610080910001DF
:10086000880F880F880F0E94DA0382E00E946700D9
:1008700080910001880F880F0E94DA032196C8300A
:10088000D105B9F680B183FBCC24C0F8D12C8FEF11
:100890009FEF0C151D0409F042C080910001880FE4
:1008A000880F0E94DA038091610084608093610068
:1008B00080910001880F880F880F0E94DA0382E080
:1008C0000E94670080910001880F880F0E94DA0360
:1008D0008091610088608093610080910001880FA1
:1008E000880F0E94DA038091610084608093610028
:1008F00080910001880F880F880F0E94DA0382E040
:100900000E94670083E00E9467008FE891E00197F2
:10091000F1F700C00000F701108390E080E0DF9164
:10092000CF911F910F91FF90EF90DF90CF90BF90EC
:10093000AF909F9008950F931F93CF93DF93C3E4DD
:10094000D1E00EE411E0699141E0F80181918F015D
:100950000E947400DE011197F801319741E06C911B
:1009600080810E941801F1E0CE34DF0761F7C9E20F
:10097000D1E006E311E0699141E0F80181918F0136
:100980000E947400F1E0C633DF07A9F7DF91CF9131
:100990001F910F910895CF93DF93DC01EB0141315B
:1009A000510529F480910301813009F4C4C19C915F
:1009B000992309F4C0C1FA013197E131F10508F03A
:1009C000C8C6EB51FB4F0C94722BF60466053B0630
:1009D0009E0619087608B70818099109FE09670AE2
:1009E000A90B3B06C50719076007FB0A82E09C318B
:1009F00099F0892F8F7E833271F0943461F09A32AE
:100A000051F0892F8B7F8A3131F0813321F09A5355
:100A100081E0933008F480E088839C919E31F1F16D
:100A20009C3209F44FC09D3209F44AC09433D1F18D
:100A30009B32B1F1933281F19B3181F19C31A1F173
:100A4000953371F19C3371F19434A1F19D3461F1CE
:100A50009A3261F1913251F1923251F19A3171F140
:100A6000933331F19B3341F1923421F19B3421F1E5
:100A7000923321F1913321F19A3321F1963251F0E1
:100A8000963341F09D3331F09E3321F0963411F0CE
:100A90009534D1F49C934FC191E6FCCF94E5FACF05
:100AA0009BE5F8CF9DE5F6CF9EE1F4CF9AE4F2CF37
:100AB00095E5F0CF92E5EECF9EE4ECCF9CE4EACF53
:100AC00091E4E8CF99E4E6CF90E0E4CF9D3109F4DA
:100AD000B0C0943209F4ABC0933409F4AAC0963183
:100AE00009F4A7C09E3109F4A0C0963209F49DC054
:100AF000953209F49EC0892F877F863309F499C007
:100B00002BEB290F223008F494C0292F2D7F2C3293
:100B100009F48FC0953309F488C09C3309F485C06B
:100B2000943409F486C09D3409F483C09C3109F4DF
:100B30007CC09B3109F477C0833209F476C09433CA
:100B400009F473C0933309F474C09B3409F471C081
:100B50009A3109F46EC0923209F469C0913209F4F5
:100B600068C081E09A3219F0923309F080E08883FE
:100B70009C91892F877F853109F465C0943209F4EF
:100B800060C0933409F457C0963109F483CF9E3185
:100B900009F480CF963209F47DCF953209F47ACFEB
:100BA0009E3209F477CF963309F474CF9D3309F45C
:100BB00058C09E3309F46ECF963409F46BCF953448
:100BC00009F449C084ED890F8230B8F1953309F4F6
:100BD00040C09C3309F449C0943409F448C09D34A2
:100BE00071F19C31E1F19B3161F1933261F19B3202
:100BF00061F1943361F1933361F19B3361F192348C
:100C0000A1F19B3451F19A3161F0923241F191326C
:100C100041F19A3241F1923341F1913341F19A33EA
:100C200041F599E437CF85E0A2CF88E0A0CF89E0F5
:100C30009ECF81E09CCF95E52DCF91E62BCF9EE115
:100C400029CF96E127CF9EE025CF92E523CF9DE5E2
:100C500021CF94E51FCF9AE41DCF95E41BCF95E2F9
:100C600019CF9EE417CF9DE315CF9BE513CF91E4F9
:100C700011CF90E00FCF84E09534A9F0943491F037
:100C80009A3281F0892F8B7F8A3161F0923451F052
:100C90009B3441F08FEC890F833020F09A5381E030
:100CA000923008F480E088838C91853409F455C231
:100CB0008E3109F452C28D3209F455C28C3209F4D6
:100CC00054C28B3109F4ADC1853309F448C28C3369
:100CD00009F447C2843409F444C28D3409F439C29A
:100CE0008A3209F438C2813209F435C28A3109F4F2
:100CF00036C2833309F429C28B3309F492C182349A
:100D0000C1F08B3409F4F0C1823309F420C28A3374
:100D100009F42BC2813309F426C2863259F0863396
:100D200049F08D3339F08E3329F0863419F080E0A4
:100D300001C089E08C93DF91CF91089584ED890FF4
:100D40008230A0F0892F877F853181F0943471F053
:100D50009A3261F0923451F09B3441F08FEC890F5C
:100D6000823020F09A5381E0923008F480E088834A
:100D70009C919E33F1F19634F1F1953409F44DC014
:100D80009E31D9F19C32D9F19D32D9F19D31D9F101
:100D90009531D9F1933209F442C09B3109F441C035
:100DA000953309F442C09C3309F441C0943499F15D
:100DB0009D3469F19A3269F1913259F19A3159F1C0
:100DC000933389F19B3349F1923449F19B3449F1D2
:100DD000923349F1913349F19A3349F1963209F44A
:100DE00059CE963309F456CE9D3309F453CE90E094
:100DF00051CE96E44FCE95E44DCE9EE34BCE95E595
:100E000049CE9EE447CE97E045CE98E743CE9EE19B
:100E100041CE9AE43FCE9CE43DCE94E53BCE92E5B4
:100E200039CE9BE537CE9DE535CE91E433CE99E4BE
:100E300031CE943459F09B3449F0892F8F7D8A311B
:100E400029F09A3219F081E0913309F480E0888327
:100E50008C91843409F483C18B3409F445C18A31FF
:100E600009F47BC18A3209F476C1813309F47BC16C
:100E70008A3309F47AC18C3209F477C18D3209F4CE
:100E800072C18D3409F465C18B3309F42DC18234EC
:100E900009F465C1813209F45EC1823309F45DC190
:100EA000863209F447CF863309F444CF8E3309F4F0
:100EB00041CF863409F43ECF853409F038CF3ACF9C
:100EC000943461F09B3451F09A3241F0892F8B7F3A
:100ED000813321F09A5381E0943008F480E08883D4
:100EE0009C919633B1F19E33B1F19634B1F19D33BB
:100EF000B1F19534E1F19D3209F443C09C3209F41B
:100F000042C0953371F19C3371F19434A1F19D3459
:100F100031F19B3231F1943331F1933331F19B3321
:100F200031F1923431F19B3421F19A3121F1913236
:100F300021F19A3211F1923311F1913311F19A3377
:100F400011F19E3109F4A6CD963209F4A3CD90E0BB
:100F5000A1CD9DE39FCD96E49DCD95E49BCD92E5FB
:100F600099CD94E597CD9BE595CD96E393CD9EE401
:100F700091CD95E58FCD9CE48DCD9AE48BCD9EE30C
:100F800089CD91E487CD99E485CD892F8F7E8332F9
:100F900081F08CEB890F823060F0892F8B7F8A3152
:100FA00041F09A3231F0813321F09A5381E093304D
:100FB00008F480E088838C918332A9F18333A9F10E
:100FC0008E3109F4C2C0853491F1853309F4C5C06E
:100FD0008C3309F4BCC0843409F4C1C08B3409F4E7
:100FE00083C08A31F1F08A3209F4B5C0813309F443
:100FF000BAC08A3309F4B9C08C3209F4B6C08D3254
:1010000009F4B1C08D3409F4A4C08B3309F46CC069
:10101000823409F4A4C0813209F49DC0823309F0FE
:101020007CCE8EE487CE86E085CE8CE083CE85E0D4
:1010300081CE84EE890F833070F0943461F09A325F
:1010400051F09A3141F0892F8D7F813321F09A53ED
:1010500081E0923008F480E088838C918E31F1F148
:101060008C3209F482C08D3209F47DC0982F977FAD
:101070009531B1F18B31B1F18C3199F2843409F4AD
:101080006EC08D3409F465C08A3209F464C08132BF
:1010900009F461C0823209F458C08A3109F461C090
:1010A000833311F18B3309F450C0823409F457C0F3
:1010B0008B3409F4B6CF823309F453C0813309F479
:1010C00052C08A3309F451C0863209F433CE8633D4
:1010D00009F430CE8D3309F0E9CE2CCE8EE02ACE45
:1010E00087E028CE81E626CE85E524CE933261F0D6
:1010F000943451F09A3241F09A3131F0913321F029
:101100009A5381E0933008F480E088838C918E318B
:10111000D1F08C3251F18D3231F18332B1F085331F
:10112000E1F08C33A1F08434D1F08D3491F08A3227
:1011300091F0813281F0823281F08A3191F08B33EB
:1011400009F0B3CF6ECF85E4F5CD8DE5F3CD8BE51A
:10115000F1CD8EE1EFCD8AE4EDCD84E5EBCD8CE4ED
:10116000E9CD82E5E7CD81E4E5CD89E4E3CD9434B2
:1011700061F09A3251F09B3441F0892F8B7F81339B
:1011800021F09A5381E0943008F480E088839C91A8
:101190009C3209F44BC09D3209F446C0963361F18C
:1011A0009D33A1F19E3351F1963451F19534B1F153
:1011B000953341F19C3341F1943461F19D3431F127
:1011C0009A3231F1913221F19A3121F1933321F1A7
:1011D0009B3321F1923421F19B3411F1923311F1BF
:1011E000913311F19A3311F1963209F453CC9E31B7
:1011F00009F450CC90E04ECC9DE34CCC96E44ACC24
:1012000095E448CC94E546CC9BE544CC92E542CCB1
:101210009AE440CC9CE43ECC96E33CCC9EE43ACCB1
:1012200095E538CC9EE336CC91E434CC99E432CCCD
:101230009333D9F09232C9F082E09534B9F0943406
:1012400091F09A3281F0892F8B7F8A3161F092344C
:1012500051F09B3441F08FEC890F823020F09A538B
:1012600081E0923018F480E001C080E288839C9194
:101270009333D9F19232D9F19332D9F19534D9F12E
:101280009E31C9F19D3209F44AC09C3209F445C02F
:101290009B31D9F19533B9F19C3379F1943469F1EB
:1012A0009D3469F19A3269F1913259F19A3159F1CB
:1012B0009B3359F1923459F19B3459F1923359F1DE
:1012C0009A3359F1913359F1963209F4E3CB9633BD
:1012D00009F4E0CB9D3309F4DDCB9E3309F4DACB7E
:1012E000963409F4D7CB90E0D5CB91E7D3CB90E7F8
:1012F000D1CB9AE3CFCB94E5CDCB92E5CBCB9EE19E
:10130000C9CB9AE4C7CB9CE4C5CB95E5C3CB9EE49F
:10131000C1CB9DE5BFCB9BE5BDCB99E4BBCB91E4B5
:10132000B9CB933271F0943461F09A3251F09B341E
:1013300041F0892F8B7F813321F09A5381E09430E3
:1013400008F480E088839C919C3209F455C09D325A
:1013500009F450C09433F1F19B32D1F1933281F111
:101360009B3171F1963371F19D33B1F19E3361F18F
:10137000963461F1953361F19C3361F1943481F1DC
:101380009D3451F19A3251F1913241F1923261F131
:101390009A3131F1933331F19B3331F1923431F1A0
:1013A0009B3421F1923321F1913321F19A3321F1D0
:1013B000963209F46FCB9E3109F46CCB90E06ACB86
:1013C0009DE568CB9DE366CB96E464CB95E462CB68
:1013D00094E560CB9BE55ECB92E55CCB9AE45ACB7F
:1013E0009CE458CB96E356CB9EE454CB95E552CB88
:1013F0009EE350CB91E44ECB99E44CCB892F8F7E6A
:101400008D3281F0943371F09B3261F09C3151F058
:10141000923241F0923431F0913321F09A5381E0CD
:10142000923008F480E088839C919E31C1F184ED74
:10143000890F823090F1943391F19B3291F19C317C
:1014400091F19D33B1F19534C1F19434E1F19D34C2
:1014500061F19A3261F1913261F1923261F19A3126
:10146000A1F1933341F19B3341F1923451F19B341B
:1014700031F1923331F1913331F19A3331F19632C6
:1014800009F408CB963309F405CB9E3309F402CB5B
:10149000963409F4FFCA90E0FDCA91E6FBCA9DE5C7
:1014A000F9CA92E5F7CA9CE4F5CA9EE1F3CA9DE346
:1014B000F1CA9EE4EFCA94E5EDCA9AE4EBCA95E45A
:1014C000E9CA9BE5E7CA91E4E5CA99E4E3CA9C331B
:1014D00009F19B31F9F09C3109F46FC0943309F4A0
:1014E0006CC09531A9F09E3109F467C0892F8F7EB9
:1014F0008D3271F08EED890F823050F0923441F0D0
:10150000892F8D7F813321F09A5381E0923018F436
:1015100080E001C084E088839C919C3309F465C01D
:101520009B3109F44CC0953109F44BC084ED890F0F
:10153000823008F448C09B3209F44FC0933209F45A
:1015400044C09D3309F447C0953409F44AC095332B
:1015500009F445C0943409F44AC09D34C1F19A326B
:10156000C1F19132C1F19232C1F19A3109F441C015
:101570009333A9F19B33A9F19234B9F19B3499F1DA
:10158000923399F1913399F19A3399F1963209F4A2
:1015900081CA9E3109F47ECA963309F47BCA9E3310
:1015A00009F478CA963409F475CA943309F472CAF6
:1015B0009C3109F46FCA90E06DCA80E1ACCF96E12E
:1015C00069CA9DE567CA91E665CA9EE063CA9EE165
:1015D00061CA9DE35FCA9EE45DCA92E55BCA94E579
:1015E00059CA9AE457CA95E455CA9BE553CA91E48F
:1015F00051CA99E44FCA9C3161F1923251F19E3146
:1016000009F483C0963209F480C0953101F1943217
:10161000F1F09D32E1F09B3109F477C0892F877F8B
:10162000833209F472C0943309F46FC09D3379F0AA
:101630009C3309F46AC0953309F467C0923439F0D9
:1016400086EC890F823018F081E0913319F480E044
:1016500001C080E488839C919C3109F458C0923287
:1016600009F457C0892F877F853109F458C0943217
:1016700009F45DC084ED890F823008F44CC09B31C1
:1016800009F44BC0933209F44AC09B3209F449C0B3
:10169000943309F448C0953409F451C09D3309F4DA
:1016A00048C09D3409F441C0943409F44EC09334C9
:1016B000F1F19C3309F44BC0953309F442C09A31DF
:1016C00009F441C09132A9F19A32A9F19B34A9F1F0
:1016D0009234E9F19B3399F1933399F19A3399F16B
:1016E000913399F1923399F19E3109F4D3C996322D
:1016F00009F4D0C9963309F4CDC99E3309F4CAC997
:10170000963409F4C7C990E0C5C988E0A3CF9EE725
:10171000C1C99CE9BFC991E6BDC996E1BBC99EE0BC
:10172000B9C992E5B7C99DE5B5C99EE1B3C995E5CB
:10173000B1C99EE4AFC99DE3ADC995E4ABC99AE4D4
:10174000A9C994E5A7C999E4A5C991E4A3C99BE5F2
:10175000A1C91C92F0CAEF92FF920F931F93CF93EF
:10176000DF9370E0C82FD0E0FB019BE0899FE00D84
:10177000F11D1124EA57FC4F80818D3009F489C096
:10178000C8F4843009F46FC048F4813009F472C0A1
:1017900090E0A0E0E0E020E030E02EC0853009F4E9
:1017A00058C08C30A9F790919C04940F90939C049E
:1017B00093E055C08235B1F048F48C3449F79091EC
:1017C0009B04940F90939B0491E012C0883509F418
:1017D00059C08237E9F690919C04940F90939C0431
:1017E00094E04EC090919B04940F90939B0490E0E2
:1017F000A4E0E1E027E031E05091AA04552309F488
:1018000050C0863609F453C0863751F490919C0439
:10181000940F90939C0490E0A3E0E0E025E031E099
:101820005091A904552309F467C08B3609F46DC0A3
:1018300008F045C0813409F458C0893409F4BCC0AB
:1018400031116CC0DF91CF911F910F91FF90EF90FC
:10185000089590919C04940F90939C0490E0A0E0D4
:10186000E0E025E0C8CF90919C04940F90939C04F5
:1018700092E0F5CF90919C04940F90939C0491E09A
:10188000A3E0EECF90919C04940F90939C0491E080
:10189000E6CF90919C04940F90939C0491E0A7E074
:1018A000DFCF863609F4B2CF863709F0B9CF9091F1
:1018B0009C04940F90939C0490E0A7E0AECF8437F3
:1018C00069F0853709F0BCCF80919C04840F809328
:1018D0009C0494E0A0E0E0E025E020C080919B041F
:1018E000840F80939B0493E016C080919C04840F26
:1018F00080939C0492E066C08B3631F308F056C0AA
:10190000813461F3893409F09BCF80919B04840F6B
:1019100080939B0492E0A7E0E1E027E0EA2EF12C1F
:10192000892F90E03DE03E9D80013F9D100D1124E8
:1019300002551B4F080F191FD8015C9158713C9F2D
:1019400080013D9F100D112402551B4F060F171FDC
:10195000D8011C914F3F41F440919C0441110DC0AE
:1019600040919B04411109C0329F900111242255DE
:101970003B4FE20FF32FF11D10834DE04E9D900180
:101980004F9D300D112422553B4F820F931F4C9FCA
:1019900090014D9F300D112422553B4F620F731F54
:1019A000FB012081522BDC015C934CCF843709F47E
:1019B0009CCF853709F044CF80919C04840F80939D
:1019C0009C0493E0A3E087CF0F931F93CF93DF9303
:1019D000162FD42FC22F882331F080918C048130B0
:1019E00079F18230D9F1112341F080918B0481305B
:1019F00009F44EC0823009F459C0DD2341F08091D2
:101A00008A04813009F46CC0823009F477C0CC2399
:101A100041F080918804813009F48AC0823009F451
:101A20009DC0002341F080918904813009F4B8C041
:101A3000823009F4CBC0DF91CF911F910F910895AF
:101A40008091030160E0823039F484E10E94080E45
:101A500082E080938C04C7CF8DE1F8CF2FEF84E331
:101A60009CE0215080409040E1F700C00000809150
:101A7000030160E0823051F480EF0E94080E60E0C4
:101A800084E10E94080E10928C04ADCF8DE9F9CF4D
:101A90008091030160E0823039F481E10E94080EF8
:101AA00082E080938B04A9CF88E3F8CF2FEF84E303
:101AB0009CE0215080409040E1F700C00000809100
:101AC000030160E0823051F480EF0E94080E60E074
:101AD00081E10E94080E10928B048FCF88EBF9CF22
:101AE0008091030160E0823039F482E10E94080EA7
:101AF00082E080938A048BCF8AE2F8CF2FEF84E3D1
:101B00009CE0215080409040E1F700C000008091AF
:101B1000030160E0823051F480EF0E94080E60E023
:101B200082E10E94080E10928A0471CF8AEAF9CFEE
:101B30008091030160E0823059F480EE0E94080E2B
:101B400060E081E10E94080E82E08093880469CF02
:101B500080EE0E94080E60E088E3F4CF2FEF84E36C
:101B60009CE0215080409040E1F700C0000080914F
:101B7000030160E0823071F480EE0E94080E60E0A4
:101B800080EF0E94080E60E081E10E94080E109232
:101B9000880447CF80EE0E94080E60E088EBF5CF06
:101BA0008091030160E0823059F480EE0E94080EBB
:101BB00060E08FE10E94080E82E0809389043BCFB1
:101BC00080EE0E94080E60E08BE5F4CF2FEF84E3F7
:101BD0009CE0215080409040E1F700C000008091DF
:101BE000030160E0823071F480EE0E94080E60E034
:101BF00080EF0E94080E60E08FE10E94080E1092B4
:101C0000890419CF80EE0E94080E60E08BEDF5CFBD
:101C1000CF92DF92EF92FF920F931F93CF93DF93B8
:101C2000C82FD62E0E94BD038111FCCF8091610088
:101C300088608093610080910001880F880F0E9466
:101C4000DA038091610084608093610080910001DB
:101C5000880F880F880F0E94DA0382E00E946700D5
:101C600080910001880F880F0E94DA0310E000E0E5
:101C7000D1E0EC2EF12CCC24C394C701002E02C07D
:101C8000959587950A94E2F780FFA6C083E00E94AD
:101C90006700DC2580910001880F880F0E94DA031D
:101CA0008091610084608093610080910001880FC1
:101CB000880F880F0E94DA0382E00E9467008091FB
:101CC0000001880F880F0E94DA030F5F1F4F083052
:101CD000110599F6DD2309F485C083E00E946700B1
:101CE00080910001880F880F0E94DA0380916100C3
:101CF00084608093610080910001880F880F880FB5
:101D00000E94DA0382E00E94670080910001880F40
:101D1000880F0E94DA0383E00E946700809100012F
:101D2000880F880F0E94DA0380916100846080939D
:101D3000610080910001880F880F880F0E94DA03EC
:101D400082E00E94670080910001880F880F0E9446
:101D5000DA0387EC90E00197F1F700C00000DD2086
:101D600091F180918C0490910301923009F047C069
:101D7000882311F0C43139F180918B04882311F04C
:101D8000C13109F180918A04882311F0C231D9F060
:101D900080918804882311F0C131A9F080918904D1
:101DA000882311F0CF3179F080918704882301F1E5
:101DB000C03FF1F001E021E041E061E081E00E94FC
:101DC000E40C10928704DF91CF911F910F91FF9047
:101DD000EF90DF90CF9008958091610088608093AC
:101DE000610058CF8091610088608093610078CF56
:101DF00081E0C03F09F080E080938704E4CF88232E
:101E000011F0CD3901F380918B04882311F0C83B88
:101E1000D1F280918A04882311F0CA3AA1F280910C
:101E20008804882311F0C83B71F2809189048823CB
:101E300011F0CB3D41F2C03E31F2C13820F201E059
:101E400021E041E061E081E00E94E40CBCCF61E070
:101E50000C94080EEF92FF921F93CF93DF93C82F3D
:101E60007B01142F853429F040F48FEF8C0F8A30DA
:101E700030F480EE0E94270F02C08934D1F3CC23C6
:101E800001F1D0E0EF28C9F0113079F4C654DE4FEB
:101E900088818058DF91CF911F91FF90EF900C9433
:101EA000270FC654DE4F8881F5CF123051F480EFF2
:101EB0000E94270FC25ADE4FF6CF113091F3123035
:101EC000C9F3DF91CF911F91FF90EF900895EF92AA
:101ED000FF921F93CF93DF938091A0049091A10470
:101EE000892B91F480EF0E94270F809102010E94BC
:101EF000270F1092EF0480EF0E94270F80910101BD
:101F00000E94270F10920A0589E20E94270F2FEFE7
:101F100080E792E0215080409040E1F700C000004F
:101F200080EF0E94270F89E20E94270F84E6E82EA7
:101F300084E0F82ED0E0C0E0C230D10519F0C43002
:101F4000D105D9F4AFEFB0E722E0A150B040204076
:101F5000E1F700C0000089E40E94270F8FEF90E7AF
:101F6000A2E081509040A040E1F700C0000080EF67
:101F70000E94270F89E40E94270FBFEF20E782E02D
:101F8000B15020408040E1F700C00000D701ED9142
:101F90007D01F0E0E65AFB4F1081812F0E94270F50
:101FA000BFEF20E782E0B15020408040E1F700C061
:101FB000000080EF0E94270F812F0E94270F9FEFC4
:101FC000A0E7B2E09150A040B040E1F700C00000AF
:101FD0002196C830D10509F0AFCF89E20E94270FC2
:101FE0002FEF80E792E0215080409040E1F700C061
:101FF000000080EF0E94270F89E20E94270F8DE2E8
:102000000E94270FAFEFB0E722E0A150B040204080
:10201000E1F700C0000080EF0E94270F8DE20E94D0
:10202000270F8FEF90E7A2E081509040A040E1F7AA
:1020300000C000008EE10E94270FBFEF20E782E082
:10204000B15020408040E1F700C0000080EF0E94C6
:10205000270F8EE10E94270F9FEFA0E7B2E091507B
:10206000A040B040E1F700C0000081E08093A404EC
:102070008093A304DF91CF911F91FF90EF9008957B
:102080001F93CF93DF93182FD62FC42F1092900455
:1020900010928F0410928D0480910301411132C07F
:1020A000823011F582E10E94270F82E180938D0436
:1020B000812F90E06D2F70E0209103012230C9F450
:1020C0002BE0289FF001299FF00D1124EA57FC4FC7
:1020D000E60FF71FC0818C2F0E94270FC0938E043C
:1020E000DF91CF911F9108958AE20E94270F8AE223
:1020F000DDCF25E0289FF001299FF00D1124EA5C37
:10210000FC4FE6CF823071F44B3631F08CE8840F0F
:10211000823010F0423731F480EE0E94270F80EEBB
:1021200080938D04809103018130A9F6CB3431F086
:10213000CD3421F0C83411F0C03569F680EE0E942C
:10214000270F80EE80938D04C6CF0F931F93CF93FC
:10215000DF93C42F10928E0490910301411130C07F
:10216000082F10E0C62FD0E09230D1F480EF0E940B
:10217000270F8BE0809FF001819FF00D1124EA571B
:10218000FC4FEC0FFD1F80810E94270F80EF0E9403
:10219000270F82E1DF91CF911F910F910C94270FB0
:1021A00085E0809FF001819FF00D1124EA5CFC4FD7
:1021B000EC0FFD1F808180580E94270F8AEAEACF2A
:1021C000923059F44B3631F08CE8840F823010F0A5
:1021D000423719F480EE0E94270F8091030181306D
:1021E00059F4CB3431F0CD3421F0C83411F0C0357E
:1021F00019F480EE0E94270F80910301823029F4A8
:1022000080EF0E94270F8C2FC5CF80E88C0FC2CFA4
:102210001F93CF93DF938091A0049091A104892B09
:10222000B1F460E080EF0E94080E60E0809102014E
:102230000E94080E1092EF0460E080EF0E94080EEA
:1022400060E0809101010E94080E10920A056091E1
:10225000A00485E090E00E949D2B6091AB0486E095
:1022600090E00E949D2B80910301823009F061C0B3
:102270002FEF80E792E0215080409040E1F700C0CE
:10228000000089E20E94270F2FEF80E792E02150A3
:1022900080409040E1F700C0000080EF0E94270FCF
:1022A00089E20E94270F2FEF80E792E021508040C3
:1022B0009040E1F700C0000089E40E94270F2FEF53
:1022C00080E792E0215080409040E1F700C000009C
:1022D00080EF0E94270F89E40E94270FC0E5D4E019
:1022E0002FEF80E792E0215080409040E1F700C05E
:1022F00000001991812F0E94270F2FEF80E792E0B5
:10230000215080409040E1F700C0000080EF0E9423
:10231000270F812F0E94270F2FEF80E792E0215097
:1023200080409040E1F700C0000024E0CA35D207A9
:10233000B9F681E08093A4048093A304DF91CF9148
:102340001F9108950F931F93CF93DF93EC0180911A
:10235000A0049091A104892BB1F460E080EF0E9469
:10236000080E60E0809102010E94080E1092EF04B6
:1023700060E080EF0E94080E60E0809101010E9401
:10238000080E10920A052FEF81EE94E02150804054
:102390009040E1F700C0000089E20E94270FEFEFB4
:1023A000F1EE24E0E150F0402040E1F700C00000F1
:1023B00080EF0E94270F89E20E94270F8FEF91EE96
:1023C000E4E081509040E040E1F700C0000089E483
:1023D0000E94270FFFEF21EE84E0F1502040804063
:1023E000E1F700C0000080EF0E94270F89E40E94FF
:1023F000270F8E010F5F1F4F888190E098012C1BE3
:102400003D0B821793074CF19FEFE1EEF4E0915002
:10241000E040F040E1F700C00000F80181918F0139
:102420000E94270FFFEF21EE84E0F1502040804012
:10243000E1F700C0000080EF0E94270FF8013197FC
:1024400080810E94270F9FEFE1EEF4E09150E04081
:10245000F040E1F700C00000CFCFC80FD91F89813D
:1024600080930001DF91CF911F910F910895CF9339
:10247000DF93EC0110929704809162008D7F80932E
:1024800062001092AD041092AC0481E0209721F01C
:10249000C130D105C9F484E080930001C530D10575
:1024A000C9F484E080930001CA30D105C9F484E006
:1024B00080930001CF30D105C9F484E080930001FE
:1024C000CE01DF91CF910895C230D10599F484E017
:1024D00080930001C630D10599F484E08093000117
:1024E000CB30D105A1F484E080930001C031D10547
:1024F00021F314C0C330D10539F584E08093000185
:10250000C730D10509F046C084E080930001CC308B
:10251000D10509F045C084E080930001C131D105A7
:1025200009F044C084E08093000181E08093970427
:1025300010929304109294041092950410929604B1
:1025400082E080930301BCCFC430D10509F0A6CF4F
:1025500084E080930001C930D10509F0A5CF84E063
:1025600080930001CE30D10509F0A4CF86E080939E
:102570000001C231D10509F0A3CF84E080930001AE
:102580001092970481E0809303018DE192E00E9414
:10259000A21196CFC830D105F1F684E080930001F6
:1025A000CD30D105F9F684E080930001C331D10527
:1025B00001F784E08093000181E0809397041092FA
:1025C000930410929404109295041092960482E061
:1025D000809303018091620082608093620070CFDB
:1025E000EF92FF920F931F93CF93DF93F090A0048D
:1025F000E090A10410929704209162002D7F209317
:1026000062001092AD041092AC04EC0111E002E003
:1026100082E992E0209729F0C130D10571F58DE86B
:1026200092E00E94A211C530D10571F58BE692E0CF
:102630000E94A211CA30D10571F584E592E00E9492
:10264000A2118EE292E0CF30D10561F50E94A21175
:10265000C431D1057CF481E08093A4048093A30469
:1026600010929F04CE01DF91CF911F910F91FF90A7
:10267000EF900895CF2DDE2DCBCFC230D105C1F420
:1026800088E892E00E94A211C630D105C1F484E628
:1026900092E00E94A211CB30D105C9F48BE492E004
:1026A0000E94A21183E292E0C031D10579F217C0F5
:1026B000C330D10539F583E892E00E94A211C730FA
:1026C000D10509F051C084E492E00E94A211CC30FF
:1026D000D10509F050C089E392E00E94A211C131F6
:1026E000D10509F04FC010939704109293041092F3
:1026F00094041092950410929604009303018EE3C3
:1027000092E0A4CFC430D10509F08DCF80E792E0EC
:102710000E94A211C930D10509F08CCF89E592E061
:102720000E94A211CE30D10509F08BCF87E792E04D
:102730000E94A211C331D10509F08ACF10939704EA
:10274000109293041092940410929504109296049F
:102750000093030186E192E00E94A2118091620041
:1027600082608093620074CFC830D10599F68FE5FE
:1027700092E00E94A211CD30D105A1F68EE792E041
:102780000E94A211C231D105A9F6109297041093AC
:1027900003018DE192E05ACF60E081EE0E94080EC5
:1027A00060E084E10E94080E60E087E70E94080E66
:1027B00060E081EE0E94080E60E080EF0E94080E4B
:1027C00060E084E10E94080E60E080EF0E94080E45
:1027D00060E087E70E94080E2FEF81EE94E0215021
:1027E00080409040E1F700C00000089560E080EE76
:1027F0000E94080E60E082E10E94080E60E080EE18
:102800000E94080E60E08CE70E94080E2FEF81EE18
:1028100094E0215080409040E1F700C0000060E06B
:1028200080EE0E94080E60E080EF0E94080E60E0DB
:1028300082E10E94080E60E080EE0E94080E60E0D7
:1028400080EF0E94080E60E08CE70C94080E1F9346
:10285000CF93DF93E82FE60FFF27FF1F9F01240F81
:10286000311D232B79F1C42FD62F182F60E088E378
:102870000E94080E112349F060E0812F0E94080E8B
:1028800060E080E8810F0E94080EDD2349F060E0DF
:102890008D2F0E94080E60E080E88D0F0E94080EC8
:1028A000CC2349F060E08C2F0E94080E60E080E8A5
:1028B0008C0F0E94080E60E088EBDF91CF911F9192
:1028C0000C94080EDF91CF911F9108951F93CF9321
:1028D000DF93E82FE60FFF27FF1F9F01240F311D15
:1028E000232BE1F1C42FD62F182F60E081E10E9445
:1028F000080E112361F060E0812F0E94080E60E055
:1029000080EF0E94080E60E0812F0E94080EDD23F8
:1029100061F060E08D2F0E94080E60E080EF0E9461
:10292000080E60E08D2F0E94080ECC2361F060E05D
:102930008C2F0E94080E60E080EF0E94080E60E07D
:102940008C2F0E94080E60E080EF0E94080E60E06D
:1029500081E1DF91CF911F910C94080EDF91CF910F
:102960001F910895CF92DF92EF92FF920F931F93E2
:10297000CF93DF9300D0CDB7DEB76A0119821092F2
:10298000900410928F0410928D04E82EF12C062FE3
:1029900010E080910301813009F0A3C085E08E9D95
:1029A000F0018F9DF00D1124EA5CFC4FE00FF11F48
:1029B00080818A838091A0049091A104892B09F4DD
:1029C000B6C0A601BE016F5F7F4FCE0102960E9486
:1029D000CB048A81882309F479C021E1C216D1048D
:1029E00009F088C080910301813009F083C085E03F
:1029F0008E9DB0018F9D700D1124FB01EA51FD4F9A
:102A0000E00FF11F80818A8362547D4F060F171FEC
:102A1000F8018081982F9170F82FF870FF2E807444
:102A200010E0E12C00E0D12C2A81222309F44EC0D1
:102A300081114CC0992359F080910301823009F033
:102A40006FC082E10E94270F82E180938D04DD2018
:102A500051F080910301823091F484E10E94270FAC
:102A600084E180938D04EE2051F080910301823047
:102A700031F481E10E94270F81E180938D04FF20D2
:102A800061F060E080EE0E94080E809103018230C8
:102A900009F04BC081E10E94270F002359F080917B
:102AA0000301823039F460E080EE0E94080E84E178
:102AB0000E94270F112321F060E080EE0E94080E93
:102AC0008A810E94270F8A8180938E040F900F9035
:102AD000DF91CF911F910F91FF90EF90DF90CF90FA
:102AE00008958BE08E9DF0018F9DF00D1124EA5723
:102AF000FC4F5CCF8981982F917081FBDD24D0F849
:102B000082FBEE24E0F883FBFF24F0F884FB00272F
:102B100000F985FB112710F986FB882780F984CFFF
:102B20008AE20E94270F8AE290CF88E3B4CF8BE03D
:102B30008E9DB0018F9D700D11246A577C4F060F3A
:102B4000171FF80180818A8384E10E94270F84E1A6
:102B500080938D04B5CFCF92DF92EF92FF920F93C7
:102B60001F93CF93DF9300D0CDB7DEB76A011982F0
:102B700010928E04062F10E0E82EF12CF8019BE055
:102B8000899FE00DF11D1124EA57FC4F80818A8353
:102B90008091A0049091A104892B09F4DEC0BE01AC
:102BA0006F5F7F4FCE0102960E94CB048A818823FB
:102BB00009F4C8C081E1C816D10409F080C0809131
:102BC0000301813009F07BC025E02E9DC0012F9DBF
:102BD000900D1124FC01EA51FD4FE00FF11F2081FF
:102BE0002A8382549D4FFC01E00FF11F8081982FB2
:102BF0009170D92E082F0870807430E0F12C10E00D
:102C0000E12C2A81222309F49DC0909103018111B6
:102C100071C080E8820F923051F4332321F060E0DC
:102C200080EE0E94080E80EF0E94270F8A810E948A
:102C3000270FDD2059F080910301823009F056C042
:102C400080EF0E94270F82E10E94270FEE2051F0B3
:102C500080910301823091F480EF0E94270F84E17C
:102C60000E94270FFF2051F080910301823031F440
:102C700080EF0E94270F81E10E94270F002369F057
:102C800080EE0E94270F80910301823089F580EF4A
:102C90000E94270F81E10E94270F112309F452C0DF
:102CA00080910301823009F04DC080EE0E94270F11
:102CB00080EF0E94270F84E10E94270F43C0898183
:102CC000982F9170D92E81FBEE24E0F882FBFF242F
:102CD000F0F883FB002700F984FB112710F985FB2E
:102CE000332730F986FB882780F98BCF8AEAACCF6F
:102CF00088EBD1CF2E3759F43DE4F32E00E51FE4E5
:102D0000923081F494E7F92E02E719E612C02C39CB
:102D100031F4923039F584E7F82E03E7F6CFF12C41
:102D200000E010E0913029F44F2D602F812F0E9498
:102D3000271480910301823029F44F2D602F812FB9
:102D40000E9466140F900F90DF91CF911F910F9109
:102D5000FF90EF90DF90CF90089580EF0E94270FB3
:102D60008A81A4CF913071F72DE4F22E0CE41FE498
:102D7000DBCF0F93CF93DF93C82FD62F01E021E055
:102D800041E061E081E00E94E40C8DE0C89FB00169
:102D9000112462557B4F6D0F711DFB011082DF9175
:102DA000CF910F9108954F925F926F927F928F9281
:102DB000AF92CF92EF92FF920F931F93CF93DF9337
:102DC000CDB7DEB7F82E662E142F722E8091A50493
:102DD000882331F02AE12A95F1F700C01092A5046A
:102DE000002369F080910301823009F0F0C082E194
:102DF0000E94270F8091A5048F5F8093A504EE2089
:102E000069F080910301823009F0E3C084E10E94FF
:102E1000270F8091A5048F5F8093A504CC2069F0D3
:102E200080910301823009F0D6C081E10E94270F12
:102E30008091A5048F5F8093A504AA2081F08091E2
:102E40000301823009F0C9C080EE0E94270F81E1A2
:102E50000E94270F8091A5048F5F8093A50488208E
:102E600081F080910301823009F0BCC080EE0E94A5
:102E7000270F8FE10E94270F8091A5048F5F809319
:102E8000A5048091A504882331F08AE18A95F1F7A1
:102E900000C01092A504772019F080EE0E94270F41
:102EA000812F0E94270F9FEF21EE84E09150204058
:102EB0008040E1F700C00000772019F080EE0E940A
:102EC000270F80910301823019F480EF0E94270FB1
:102ED00080910301823009F08AC0812F0E94270F60
:102EE000712C4F2C512CF3019DE0F99EE00DF11D4A
:102EF0001124E255FB4F1082002359F08091030109
:102F0000823009F077C080EF0E94270F82E10E9493
:102F1000270FEE2059F080910301823009F06CC038
:102F200080EF0E94270F84E10E94270FCC2059F0E8
:102F300080910301823009F061C080EF0E94270F69
:102F400081E10E94270FAA2071F080910301823055
:102F500009F056C080EE0E94270F80EF0E94270FD5
:102F600081E10E94270F882071F080910301823057
:102F700009F04BC080EE0E94270F80EF0E94270FC0
:102F800081E10E94270F2AE12A95F1F700C001E0B4
:102F900021E041E061E081E00E94E40C8DE0849D4D
:102FA000F001859DF00D1124E255FB4FE60DF71D54
:102FB0001082DF91CF911F910F91FF90EF90CF90F2
:102FC000AF908F907F906F905F904F9008958AE2BE
:102FD0000FCF8DE11CCF88E329CF80EE0E94270F11
:102FE00088E336CF80EE0E94270F8BE543CF80E841
:102FF000810F74CF8AEA8BCF8DE996CF88EBA1CF72
:1030000080EE0E94270F88EBACCF80EE0E94270F46
:1030100088EBB7CFCF92DF92EF92FF920F931F937F
:10302000CF93DF93062FC82FD0E0CE01875D9E4F50
:103030007C01CA5CDE4F40E0FC01608188810E9417
:10304000740040E0F701608188810E941801FAE174
:10305000FA95F1F700C010E0C8018D5B9E4F6C013E
:10306000025B1E4FF6016081F80180810E94F20030
:103070008111F8CF41E0F70160818881DF91CF9124
:103080001F910F91FF90EF90DF90CF900C94740000
:1030900080917A0480936E0480917B0480936F0406
:1030A00080917C048093700480917D0480937104EE
:1030B00080917E048093720410927E0480917F043C
:1030C0008093730410927F04809180048093740431
:1030D00080918104809375048091820480937604AA
:1030E0001092820480918304809377041092830469
:1030F00080918404809378041092840480918504E4
:1031000080937904109285048FE39CE90197F1F78D
:1031100000C0000080918604882309F4DAC00E9470
:103120002F0380917A0490916E04891761F061E019
:1031300070E0882311F070E060E04091030180911D
:1031400006010E942A0F80917B0490916F048917D9
:1031500061F061E070E0882311F070E060E0409180
:103160000301809107010E942A0F80917C049091B5
:103170007004891761F061E070E0882311F070E05D
:1031800060E040910301809108010E942A0F809124
:103190007D0490917104891761F061E070E08823EB
:1031A00011F070E060E040910301809109010E94FC
:1031B0002A0F80917E0490917204891761F061E07A
:1031C00070E0882311F070E060E04091030180918D
:1031D0000A010E942A0F80917F049091730489173D
:1031E00061F061E070E0882311F070E060E04091F0
:1031F000030180910B010E942A0F8091800490911D
:103200007404891761F061E070E0882311F070E0C8
:1032100060E04091030180910C010E942A0F80918F
:10322000810490917504891761F061E070E0882352
:1032300011F070E060E04091030180910D010E9467
:103240002A0F8091820490917604891761F061E0E1
:1032500070E0882311F070E060E0409103018091FC
:103260000E010E942A0F80918304909177048917A0
:1032700061F061E070E0882311F070E060E040915F
:10328000030180910F010E942A0F80918404909184
:103290007804891761F061E070E0882311F070E034
:1032A00060E040910301809110010E942A0F8091FB
:1032B000850490917904891789F061E070E0882392
:1032C00011F070E060E040910301809111010C94D5
:1032D0002A0F0E94DF010E94960123CF0895EF92EA
:1032E000FF921F93CF93DF931092AD048091A804B7
:1032F00091E0811190E09093A804811102C0109296
:10330000A7048091A0049091A104892B91F480EFEF
:103310000E94270F809102010E94270F1092EF0454
:1033200080EF0E94270F809101010E94270F1092C9
:103330000A0580910301823009F094C02FEF80E7E5
:1033400092E0215080409040E1F700C0000089E207
:103350000E94270F2FEF80E792E02150804090409D
:10336000E1F700C0000080EF0E94270F89E20E9471
:10337000270F2FEF80E792E0215080409040E1F747
:1033800000C0000089E40E94270F2FEF80E792E041
:10339000215080409040E1F700C0000080EF0E9483
:1033A000270F89E40E94270F8091A804882309F43D
:1033B00064C0CDE4D4E02FEF80E792E0215080405C
:1033C0009040E1F700C000001991812F0E94270F63
:1033D0002FEF80E792E0215080409040E1F700C05D
:1033E000000080EF0E94270F812F0E94270F2FEFF0
:1033F00080E792E0215080409040E1F700C000005B
:1034000024E0C035D207B9F6CCE2D4E084E3E82E5C
:1034100084E0F82E9FEF20E782E09150204080402A
:10342000E1F700C000001991812F0E94270F9FEF44
:1034300020E782E0915020408040E1F700C000008A
:1034400080EF0E94270F812F0E94270F9FEF20E718
:1034500082E0915020408040E1F700C00000EC166F
:10346000FD06C1F681E08093A4048093A304DF915C
:10347000CF911F91FF90EF900895C9E4D4E08FEFB2
:1034800090E722E0815090402040E1F700C000002A
:103490001991812F0E94270F8FEF90E722E0815032
:1034A00090402040E1F700C0000080EF0E94270F0D
:1034B000812F0E94270F8FEF90E722E081509040EC
:1034C0002040E1F700C0000084E0CD34D807B9F611
:1034D0009BCFEF92FF921F93CF93DF9381E0909168
:1034E0008604911180E0809386048091A0049091DD
:1034F000A104892B91F480EF0E94270F8091020193
:103500000E94270F1092EF0480EF0E94270F8091F6
:1035100001010E94270F10920A0580910301823059
:1035200009F06FC02FEF80E792E02150804090407B
:10353000E1F700C0000089E20E94270F2FEF80E72B
:1035400092E0215080409040E1F700C0000080EF01
:103550000E94270F89E20E94270F2FEF80E792E059
:10356000215080409040E1F700C0000089E40E94B3
:10357000270F2FEF80E792E0215080409040E1F745
:1035800000C0000080EF0E94270F89E40E94270FEF
:1035900080918604882309F43FC0C5E1D4E080E22D
:1035A000E82E84E0F82E2FEF80E792E02150804053
:1035B0009040E1F700C000001991812F0E94270F71
:1035C0002FEF80E792E0215080409040E1F700C06B
:1035D000000080EF0E94270F812F0E94270F2FEFFE
:1035E00080E792E0215080409040E1F700C0000069
:1035F000EC16FD06C1F66091860489E090E00E9419
:103600009D2B81E08093A4048093A304DF91CF914C
:103610001F91FF90EF900895C0E2D4E02FEF80E774
:1036200092E0215080409040E1F700C000001991E5
:10363000812F0E94270F2FEF80E792E021508040DA
:103640009040E1F700C0000080EF0E94270F812F1B
:103650000E94270F2FEF80E792E02150804090409A
:10366000E1F700C0000024E0CC32D207B9F6C3CFA6
:10367000EF92FF921F93CF93DF9381E09091AA0482
:10368000911180E08093AA048091A0049091A104FC
:10369000892B91F480EF0E94270F809102010E94F4
:1036A000270F1092EF0480EF0E94270F80910101F5
:1036B0000E94270F10920A0580910301823009F0C1
:1036C0009AC02FEF80E792E0215080409040E1F7D0
:1036D00000C0000089E20E94270F2FEF80E792E0F0
:1036E000215080409040E1F700C0000080EF0E9430
:1036F000270F89E20E94270F2FEF80E792E02150E9
:1037000080409040E1F700C0000089E40E94270F4C
:103710002FEF80E792E0215080409040E1F700C019
:10372000000080EF0E94270F89E40E94270F8091FC
:10373000AA04882309F46AC0CDE4D4E02FEF80E71F
:1037400092E0215080409040E1F700C000001991C4
:10375000812F0E94270F2FEF80E792E021508040B9
:103760009040E1F700C0000080EF0E94270F812FFA
:103770000E94270F2FEF80E792E021508040904079
:10378000E1F700C0000024E0C035D207B9F6C0E47C
:10379000D4E089E4E82E84E0F82E9FEF20E782E071
:1037A000915020408040E1F700C000001991812F26
:1037B0000E94270F9FEF20E782E091502040804039
:1037C000E1F700C0000080EF0E94270F812F0E94C8
:1037D000270F9FEF20E782E0915020408040E1F7E3
:1037E00000C00000EC16FD06C1F66091AA0487E057
:1037F00090E00E949D2B81E08093A4048093A30419
:10380000DF91CF911F91FF90EF900895C9E4D4E02C
:103810008FEF90E722E0815090402040E1F700C018
:1038200000001991812F0E94270F8FEF90E722E06F
:10383000815090402040E1F700C0000080EF0E94DE
:10384000270F812F0E94270F8FEF90E722E08150F2
:1038500090402040E1F700C0000084E0CD34D8075C
:10386000B9F695CFEF92FF921F93CF93DF9381E04C
:103870009091A904911180E08093A9048091A00403
:103880009091A104892B91F480EF0E94270F8091E1
:1038900002010E94270F1092EF0480EF0E94270F71
:1038A000809101010E94270F10920A058091030167
:1038B000823009F09AC02FEF80E792E021508040DB
:1038C0009040E1F700C0000089E20E94270F2FEF2F
:1038D00080E792E0215080409040E1F700C0000076
:1038E00080EF0E94270F89E20E94270F2FEF80E7C9
:1038F00092E0215080409040E1F700C0000089E450
:103900000E94270F2FEF80E792E0215080409040E7
:10391000E1F700C0000080EF0E94270F89E40E94B9
:10392000270F8091A904882309F46AC0CDE4D4E06C
:103930002FEF80E792E0215080409040E1F700C0F7
:1039400000001991812F0E94270F2FEF80E792E04E
:10395000215080409040E1F700C0000080EF0E94BD
:10396000270F812F0E94270F2FEF80E792E0215031
:1039700080409040E1F700C0000024E0C035D2074D
:10398000B9F6C4E3D4E080E4E82E84E0F82E9FEF9B
:1039900020E782E0915020408040E1F700C0000025
:1039A0001991812F0E94270F9FEF20E782E091500D
:1039B00020408040E1F700C0000080EF0E94270F08
:1039C000812F0E94270F9FEF20E782E09150204037
:1039D0008040E1F700C00000EC16FD06C1F66091E2
:1039E000A90488E090E00E949D2B81E08093A404CC
:1039F0008093A304DF91CF911F91FF90EF900895E2
:103A0000C9E4D4E08FEF90E722E08150904020405D
:103A1000E1F700C000001991812F0E94270F8FEF5E
:103A200090E722E0815090402040E1F700C0000084
:103A300080EF0E94270F812F0E94270F8FEF90E7C2
:103A400022E0815090402040E1F700C0000084E077
:103A5000CD34D807B9F695CF8F92AF92CF92EF922F
:103A60000F9310929E04813309F476C108F042C08E
:103A7000823209F457C180F48D3109F48EC081324D
:103A800009F4A4C0853109F0B4C00F91EF90CF9034
:103A9000AF908F900C94321C8A3209F437C18C326B
:103AA00009F474C0833209F0A4C08091A0049091FD
:103AB000A104892B09F084C081E09091AB0491119D
:103AC00080E08093AB0460E080EF0E94080E60E02D
:103AD000809102010E94080E1092EF0460E080EFD6
:103AE0000E94080E60E0809101010E94080E109271
:103AF0000A057FC0853309F457C1D0F5833309F433
:103B000088C008F416C18091A0049091A104009788
:103B100071F09C01245031092230310540F02450CD
:103B200031092230310518F08D7F0C9791F4809186
:103B300003014EE7813009F446E4812CA12CCC240A
:103B4000C394EE24E39400E020E064E082E00E946D
:103B5000D3168091A0049091A104029789F564E0A6
:103B600082E00F91EF90CF90AF908F900C94F6136E
:103B70008C33D1F0843409F489C08B33D1F50F91A3
:103B8000EF90CF90AF908F900C94691A0F91EF90B7
:103B9000CF90AF908F900C946F190F91EF90CF90C2
:103BA000AF908F900C94381B81E080939F042FEF8F
:103BB00084E39CE0215080409040E1F700C0000089
:103BC0000F91EF90CF90AF908F9008958091A004C7
:103BD0009091A1048B30910519F00397029778F426
:103BE0001092AD0481E09091AC04911180E080933B
:103BF000AC0481E08093A4048093A304E1CF1092ED
:103C0000AC0481E09091AD04911180E08093AD040B
:103C1000F0CF8091A0049091A104049789F68AE0E6
:103C20000E94270F2FEF80E792E0215080409040C4
:103C3000E1F700C0000089E00E94270F2FEF80E726
:103C400092E0215080409040E1F700C0000080EFFA
:103C50000E94270F89E00E94270F2FEF83ED90E34A
:103C6000215080409040E1F700C0000080EF0E94AA
:103C7000270F8AE00E94270F2FEF80E792E0215064
:103C800080409040E1F700C00000B3CF8091A004D5
:103C90009091A104059711F5812CA12CC12CE12C48
:103CA00000E020E047E061E084E00E94D31682E17A
:103CB0000E94270F2FEF83ED90E32150804090402A
:103CC000E1F700C0000080EF0E94270F82E10E9410
:103CD000270F81E08093A4048093A3048091A00423
:103CE0009091A104029709F06BCF8091030147E006
:103CF000813009F448E5812CA12CCC24C394EE2416
:103D0000E39400E020E064E084E023C080910301BC
:103D1000823009F055CF0F91EF90CF90AF908F90F8
:103D20000C94670F0F91EF90CF90AF908F900C9401
:103D300008118091030146E6813009F44EE0812CA0
:103D4000A12CCC24C394EE24E39400E020E064E0B2
:103D500087E00E94D31634CF8091030141E7813080
:103D600009F443E5812CA12CCC24C394EE24E394E4
:103D700000E021E063E087E00E94D3168091A00478
:103D80009091A104419709F01BCF81E080939704A3
:103D90001092930410929404109295041092960439
:103DA00082E0809303010CCF8091A0049091A10444
:103DB0008230910520F00A97029708F001CF809198
:103DC000030143E0813009F096CF4FE394CF0F9386
:103DD0001F93CF93DF93CBE1D1E002E211E0699131
:103DE00041E0F80181918F010E947400DE0111977A
:103DF000F801319741E06C9180810E941801F1E057
:103E0000C232DF0761F740E0609120018091270115
:103E1000DF91CF911F910F910C947400CF93DF939A
:103E2000C82FD62F40E00E94180140E06D2F8C2F44
:103E30000E9474002FEF84E39CE02150804090406A
:103E4000E1F700C0000041E06D2F8C2F0E9474004C
:103E500041E06D2F8C2FDF91CF910C9418016F9260
:103E60007F928F929F92AF92BF92CF92DF92EF920A
:103E7000FF920F931F93CF93DF931092A40461E0FE
:103E800086E00E94F200882309F4D8C025E32A9531
:103E9000F1F7000061E086E00E94F200882309F457
:103EA00046C08091A204813079F5809104019091FF
:103EB0000501019790930501809304018FE39CE92C
:103EC0000197F1F700C00000809104019091050175
:103ED0008436910560F58CE291E090930501809322
:103EE00004011092A204DF9861E086E00E94F200D3
:103EF0008823E9F09FEFE4E3FCE09150E040F040DC
:103F0000E1F700C00000F0CF8CE291E09093050152
:103F10008093040181E08093A204DF9A2FEF84E371
:103F20009CE0215080409040E1F700C0000080916B
:103F3000A404811166C0F9E2EF2EF1E0FF2E06E342
:103F400011E0AEEA8A2EA4E09A2E712C6701E801F6
:103F500040E0F70161917F01F80181918F010E949A
:103F6000740040E0F601608188810E941801FAE146
:103F7000FA95F1F700C073E4A72E71E0B72EEEE4D6
:103F8000CE2EE1E0DE2EE401612CF50161915F01AE
:103F9000F60181916F010E94F200882309F497C015
:103FA000F5E3FA95F1F70000F50131976081F6012C
:103FB000319780810E94F200882309F473C08881C0
:103FC00080FF60C08260888327E0271528F484E0A2
:103FD00040E0861508F461C063942196EBE06E1210
:103FE000D4CF41E0F70131976081F80131978081AA
:103FF0000E9474007394FDE08F0E911C2DE07212EC
:10400000A5CF80919D04882309F46FC04EEA54E047
:1040100028E030E090E080E0FA01E80FF91F6081CD
:1040200060FD31E0019685309105B1F72150435F85
:104030005F4F2111EFCF30939D0479CF8091040120
:10404000909105018C329140B0F4D59ADD98FFEF44
:1040500021EE84E0F15020408040E1F700C00000F4
:10406000D598DD9A9FEFE4E3FCE09150E040F0400A
:10407000E1F700C000008CE291E09093050180938D
:10408000040155CF8160888397E0971508F0A4CF8D
:10409000E4E0E61508F0A0CF41E0662D872D0E94F0
:1040A000AB0B9ACF888180FF97CF8C7F8460888309
:1040B000F7E0F71508F090CF24E0261508F08CCF34
:1040C0004FEF662D872D0E94AB0B188285CF88811C
:1040D00080FF82CF8C7F8460888387E0871508F01B
:1040E0007BCF94E0961560F377CF80919E04811189
:1040F00005C080919F04882309F45DC08091EF047E
:1041000082FF11C01092EF048091A0049091A1044D
:10411000892B49F460E080EF0E94080E60E08091F6
:1041200002010E94080E80910A0582FF11C01092C0
:104130000A058091A0049091A104892B49F460E0C4
:1041400080EF0E94080E60E0809101010E94080E3D
:104150004EEAE42E44E0F42E56E9C52E52E0D52E68
:1041600010E000E06BE0B62ED0E0C0E080919E044D
:10417000882309F426C6F701EC0FFD1F808180FF1C
:1041800020C6B09EC001B19E900D11248A579C4F4D
:10419000C80FD91F88810E942C1D0F5F1F4F8DE013
:1041A000E80EF11C95E0C90ED11C08301105E1F6AE
:1041B00081E08093A4048091A40481111DC68091A4
:1041C000EF0480FF19C680910A0580FF15C6809113
:1041D000A3048111DCC48091CB0480FF10C081E076
:1041E00080939E048093A40480939D04EFEFF4E3F6
:1041F0002CE0E150F0402040E1F700C00000809149
:10420000F00480FF1CC08091A0049091A104892B30
:1042100021F48091AB04882391F080918C0481116A
:1042200001C081E080938C0400E020E040E060E089
:1042300081E00E94E40C61E085E00E940A18809110
:10424000F20480FF1CC08091A0049091A104892BEE
:1042500021F48091AB04882391F080918B0481112B
:1042600001C081E080938B0400E020E040E061E049
:1042700080E00E94E40C63E085E00E940A188091CF
:10428000C80480FF1CC08091A0049091A104892BD8
:1042900021F48091AB04882391F080918A048111EC
:1042A00001C081E080938A0400E020E041E060E00A
:1042B00080E00E94E40C60E082E00E940A18809195
:1042C000F10480FF1CC08091A0049091A104892B6F
:1042D00021F48091AB04882391F0809189048111AD
:1042E00001C081E08093890401E020E040E060E0CB
:1042F00080E00E94E40C62E085E00E940A18809150
:104300000B0580FF1CC08091A0049091A104892B13
:1043100021F48091AB04882391F08091880481116D
:1043200001C081E08093880400E021E040E060E08B
:1043300080E00E94E40C62E087E00E940A1880910D
:10434000AE0480FF1FC08091A0049091A104892B2E
:1043500021F48091AB048823A9F080908904A09077
:104360008804C0908B04E0908C0400918A048091B2
:1043700003014BE3813009F045E020E060E080E09C
:104380000E94D3168091AF0480FF1FC08091A004CB
:104390009091A104892B21F48091AB048823A9F08A
:1043A00080908904A0908804C0908B04E0908C04D5
:1043B00000918A04809103014CE3813009F046E0CA
:1043C00020E061E080E00E94D3168091B00480FF7D
:1043D0001FC08091A0049091A104892B21F48091A9
:1043E000AB048823A9F080908904A0908804C09031
:1043F0008B04E0908C0400918A04809103014DE3CA
:10440000813009F044E020E062E080E00E94D316B1
:104410008091B10480FF1FC08091A0049091A104FD
:10442000892B21F48091AB048823A9F08090890422
:10443000A0908804C0908B04E0908C0400918A04C2
:10444000809103014EE3813009F04CE020E063E00D
:1044500080E00E94D3168091B20480FF1FC080913B
:10446000A0049091A104892B21F48091AB048823AE
:10447000A9F080908904A0908804C0908B04E090FB
:104480008C0400918A04809103014FE3813009F08C
:1044900043E020E064E080E00E94D3168091D904DC
:1044A00080FF1FC08091A0049091A104892B21F46A
:1044B0008091AB048823A9F080908904A09088049F
:1044C000C0908B04E0908C0400918A0480910301D9
:1044D00040E4813009F04BE020E064E083E00E949A
:1044E000D3168091D80480FF1FC08091A0049091C2
:1044F000A104892B21F48091AB048823A9F080903A
:104500008904A0908804C0908B04E0908C040091F2
:104510008A048091030141E4813009F043E820E0FE
:1045200063E083E00E94D3168091D70480FF1FC010
:104530008091A0049091A104892B21F48091AB0477
:104540008823A9F080908904A0908804C0908B04EF
:10455000E0908C0400918A048091030142E4813050
:1045600009F04AE020E062E083E00E94D3168091E7
:10457000D604482F417080FF1EC08091A004909106
:10458000A104892B21F48091AB048823A1F08090B1
:104590008904A0908804C0908B04E0908C04009162
:1045A0008A0480910301813009F443E420E061E052
:1045B00083E00E94D3168091D50480FF1FC08091B4
:1045C000A0049091A104892B21F48091AB0488234D
:1045D000A9F080908904A0908804C0908B04E0909A
:1045E0008C0400918A048091030144E4813009F035
:1045F00049E020E060E083E00E94D3168091BB0494
:1046000080FF1FC08091A0049091A104892B21F408
:104610008091AB048823A9F080908904A09088043D
:10462000C0908B04E0908C0400918A048091030177
:1046300047E5813009F048E720E060E081E00E9432
:10464000D3168091BC0480FF1FC08091A00490917C
:10465000A104892B21F48091AB048823A9F08090D8
:104660008904A0908804C0908B04E0908C04009191
:104670008A048091030148E5813009F047E020E099
:1046800061E081E00E94D3168091C90480FF1FC0C1
:104690008091A0049091A104892B21F48091AB0416
:1046A0008823A9F080908904A0908804C0908B048E
:1046B000E0908C0400918A048091030146E58130EA
:1046C00009F041E620E061E082E00E94D31680918B
:1046D000E40480FF1FC08091A0049091A104892B65
:1046E00021F48091AB048823A9F080908904A090E4
:1046F0008804C0908B04E0908C0400918A0480911F
:10470000030145E4813009F047E720E062E084E0FE
:104710000E94D3168091E30480FF1FC08091A00403
:104720009091A104892B21F48091AB048823A9F0F6
:1047300080908904A0908804C0908B04E0908C0441
:1047400000918A04809103014AE1813009F044E537
:1047500020E061E084E00E94D3168091E20480FFB3
:104760001FC08091A0049091A104892B21F4809115
:10477000AB048823A9F080908904A0908804C0909D
:104780008B04E0908C0400918A04809103014BE13A
:10479000813009F04BE520E060E084E00E94D31610
:1047A0008091BD0480FF1FC08091A0049091A1045E
:1047B000892B21F48091AB048823A9F0809089048F
:1047C000A0908804C0908B04E0908C0400918A042F
:1047D0008091030147E3813009F04CE720E062E07B
:1047E00081E00E94D3168091BE0480FF1FC080919B
:1047F000A0049091A104892B21F48091AB0488231B
:10480000A9F080908904A0908804C0908B04E09067
:104810008C0400918A04809103014AE4813009F0FC
:104820004BE720E063E081E00E94D3168091CA0448
:1048300080FF1FC08091A0049091A104892B21F4D6
:104840008091AB048823A9F080908904A09088040B
:10485000C0908B04E0908C0400918A048091030145
:104860004EE4813009F049E720E062E082E00E94F6
:10487000D3168091BF0480FF12C08091A004909154
:10488000A104892B21F48091AB04882341F064E0DA
:1048900081E00E94F61364E081E00E94B9168091E5
:1048A000E60480FF1FC08091A0049091A104892B91
:1048B00021F48091AB048823A9F080908904A09012
:1048C0008804C0908B04E0908C0400918A0480914D
:1048D000030146E4813009F04EE720E064E084E023
:1048E0000E94D3168091E50480FF12C08091A0043D
:1048F0009091A104892B21F48091AB04882341F08D
:1049000063E084E00E94CC1363E084E00E94B91667
:104910008091CC0480FF1FC08091A0049091A104DD
:10492000892B21F48091AB048823A9F0809089041D
:10493000A0908804C0908B04E0908C0400918A04BD
:104940008091030142E5813009F040E721E064E015
:1049500082E00E94D3168091000580FF1FC08091E5
:10496000A0049091A104892B21F48091AB048823A9
:10497000A9F080908904A0908804C0908B04E090F6
:104980008C0400918A048091030147E4813009F08E
:104990004CE621E064E086E00E94D3168091FF049B
:1049A00080FF1FC08091A0049091A104892B21F465
:1049B0008091AB048823A9F080908904A09088049A
:1049C000C0908B04E0908C0400918A0480910301D4
:1049D00049E4813009F04DE721E063E086E00E9480
:1049E000D3168091F30480FF1FC08091A0049091A2
:1049F000A104892B21F48091AB048823A9F0809035
:104A00008904A0908804C0908B04E0908C040091ED
:104A10008A048091030143E5813009F041E721E0F8
:104A200064E085E00E94D31680910D0580FF1FC0D1
:104A30008091A0049091A104892B21F48091AB0472
:104A40008823A9F080908904A0908804C0908B04EA
:104A5000E0908C0400918A04809103014FE481303E
:104A600009F049E621E064E087E00E94D3168091D6
:104A70000C0580FF1FC08091A0049091A104892B98
:104A800021F48091AB048823A9F080908904A09040
:104A90008804C0908B04E0908C0400918A0480917B
:104AA000030141E5813009F04AE721E063E087E056
:104AB0000E94D3168091FE0480FF1FC08091A00445
:104AC0009091A104892B21F48091AB048823A9F053
:104AD00080908904A0908804C0908B04E0908C049E
:104AE00000918A048091030147E2813009F04CE48F
:104AF00020E062E086E00E94D3168091FD0480FFF2
:104B00001FC08091A0049091A104892B21F4809171
:104B1000AB048823A9F080908904A0908804C090F9
:104B20008B04E0908C0400918A048091030148E298
:104B3000813009F042E520E061E086E00E94D31672
:104B40008091FC0480FF1FC08091A0049091A1047B
:104B5000892B21F48091AB048823A9F080908904EB
:104B6000A0908804C0908B04E0908C0400918A048B
:104B7000809103014BE2813009F04DE520E060E0D7
:104B800086E00E94D3168091A40481110BC180910C
:104B9000A804882309F46AC08091EF049091A604C8
:104BA000911137C1882371F08091D80480FF0AC029
:104BB00060911701809118010E940E1F1092D80475
:104BC0001092A7048091EF04882371F08091D9049A
:104BD00080FF0AC060911601809158050E940E1F47
:104BE0001092D9041092A7048091EF04882371F0E9
:104BF0008091B20480FF0AC06091190180911A016E
:104C00000E940E1F1092B2041092A7048091EF042C
:104C1000882389F08091D70480FF0DC08091A7047C
:104C2000882309F4ECC01092A7041092A8041092F3
:104C3000A6041092D7048091FC0480FF0AC0609102
:104C40001401809115010E940E1F1092FC04109215
:104C5000A7048091EF04882349F08091AE0480FF7F
:104C600005C01092AE0481E08093A6042091EF0469
:104C7000922F91704091A0045091A104452B09F00E
:104C8000D4C08091AB048111D0C0992381F021FD63
:104C90000EC0809102010E94270F8091EF04826074
:104CA0008093EF048091A5048F5F8093A504809189
:104CB0000A0580FF10C081FD0EC0809101010E9495
:104CC000270F80910A05826080930A058091A504D0
:104CD0008F5F8093A5048091EF0482FF0EC080EF68
:104CE0000E94270F809102010E94270F1092EF046B
:104CF0008091A5048F5F8093A50480910A0582FFAF
:104D00000EC080EF0E94270F809101010E94270FA3
:104D100010920A058091A5048F5F8093A50480916D
:104D2000A504882331F08AE18A95F1F700C010923A
:104D3000A504C6E8D3E02EEAE22E24E0F22E3EEDF2
:104D4000C32E33E0D32E470110E000E05401F401FC
:104D5000808180FF08C081FD06C0FE01E00FF11FC9
:104D600080810E94270FFFEF8F1A9F0AF501808133
:104D700082FF0CC080EF0E94270FFE01E00FF11FA1
:104D800080810E94270FF401319710820F5F1F4F1F
:104D900005301105D9F62B96FDE0EF0EF11CCC166F
:104DA000DD0689F6DF91CF911F910F91FF90EF9073
:104DB000DF90CF90BF90AF909F908F907F906F903B
:104DC000089580919F04882389F0F701EC0FFD1F5F
:104DD000808180FF0BC0F601EC0FFD1F808190E009
:104DE0000E94F0129093A1048093A0042196C530F4
:104DF000D10509F0BBC9D1C91092A304C4CE6091FA
:104E00001201809113010E940E1F81E08093A7047C
:104E100010CF882309F42ACF8091AE0480FF26CFDB
:104E20001092AE041092A60421CF40919804411133
:104E30005DC080919C04811159C080919B048111B7
:104E400055C0992311F021FF06C090910A0590FFEB
:104E500016C091FD14C06EEA74E030E020E08530A9
:104E6000B9F5211139C02F5F3F4F25303105B9F712
:104E70008F5F635F7F4F883081F74093980486E8A7
:104E8000C82E83E0D82E9EEA892E94E0992EC0E0A9
:104E9000D0E0B12CA12C75018401712CD53079F5AD
:104EA000711032C073940F5F1F4FFFEFEF1AFF0AAC
:104EB00025E07212F3CFDF5F86E0C80ED11C9DE0C3
:104EC000890E911CE5E0AE0EB11CD83021F76ACFF7
:104ED000873011F4213039F2FB01E20FF31F90818A
:104EE000592F517090FFBFCF452FC2CF9111C7CF1F
:104EF00080910A0580FDC3CF10929804C0CFD730AF
:104F000019F421E0721671F2F801808180FF8DC0E2
:104F100081FD8BC09091980491110EC09091EF0487
:104F200090FF02C08860808380910A0580FF04C0E2
:104F3000F801808180618083F801808183FF0FC048
:104F400084FD0DC080910301F701823009F04CC04F
:104F5000E25AFC4F4081672D8D2F0E944010F801CE
:104F6000808184FF0AC083FD08C04091A004509155
:104F7000A104672D8D2F0E94B214F80180818871E1
:104F800009F04FC08091AD0490910301811105C0DB
:104F90002091AC04222309F4DCC0109290041092FA
:104FA0008F0410928D04923009F0ABC0F601EE0D23
:104FB000FF1DC081C434D9F0CD34D9F0C531D9F04A
:104FC000CC31D9F090915705992309F48AC0CA339E
:104FD000B1F4811107C08091A0049091A104C0E7B1
:104FE0000B9791F4C9E210C0E25FFC4FB3CFCBE660
:104FF000E9CFC4E7E7CFC5E7E5CFC2E7E3CFC932E2
:1050000009F06FC08111CAE3C0938E0480918D04B2
:10501000882319F080EE0E94270F80918E040E9451
:10502000270FF801808182608083F801808182FFF0
:1050300039CF83FF0FC084FD0DC080910301F701BC
:10504000823009F098C0E25AFC4F4081672D8D2FC5
:105050000E94A510F801808184FF0AC083FD08C06A
:105060004091A0045091A104672D8D2F0E94AB1593
:10507000F8018081887109F0B8C08091AD049091E9
:105080000301811105C02091AC04222309F4C8C09A
:1050900010928E04923009F083C0F601EE0DFF1DD0
:1050A000C081C43409F46AC0CD3409F469C0C53183
:1050B00009F468C0CC3109F467C090915705992371
:1050C00009F496C0CA3309F061C0811108C080910B
:1050D000A0049091A104C0E70B9709F05BC0C9E25E
:1050E00059C0CB3639F0C43729F0C53719F0C2376B
:1050F00009F08ACF882309F487CF80EE80938D044E
:1051000083CF913009F080CFF701EA5CFC4FC0817A
:10511000C831A9F0C931A9F0C031A9F0CE31A9F048
:1051200080915705882311F0C23389F0CB3429F3DD
:10513000CD3419F3C83409F3C035F9F265CFCBE4A7
:10514000EFCFCDE4EDCFC8E4EBCFC0E5E9CFC9E3C5
:105150005BCF1092900410928F04F601EE0DFF1DAC
:10516000923019F0F701EA5CFC4F808180938E0445
:1051700010928D0452CFE25FFC4F67CFCBE69DCFFC
:10518000C4E79BCFC5E799CFC2E797CFC93281F576
:105190008111CAE380EF0E94270F8C2F0E94270FF6
:1051A00080910301813009F5F701EA5CFC4FC08171
:1051B000C83161F1C93161F1C03161F1CE3161F1C4
:1051C00080915705882311F0C23341F1CB3431F07F
:1051D000CD3421F0C83411F0C03519F480EE0E94AE
:1051E000270F80E88C0F0E94270FF80110825ACEFB
:1051F000CB3631F0C43721F0C53711F0C23751F644
:10520000882341F280EE0E94270FC4CFCBE4D8CF91
:10521000CDE4D6CFC8E4D4CFC0E5D2CFC9E3E1CF47
:10522000923091F480EF0E94270FF601EE0DFF1DE2
:105230006080862D0E94270F80918E04681201C025
:1052400080E080938E04D1CFF701EA5CFC4F608050
:1052500080E8860DEFCFCF92DF92EF92FF92CF934F
:105260000E94BD032091A0043091A1048823A9F0DD
:10527000C9014197039788F480919704811159C01F
:105280008091930490919404A0919504B091960418
:10529000892B8A2B8B2B09F04CC080919304909121
:1052A0009404A0919504B09196040097A105B105CE
:1052B00009F095C0215131092330310588F58091DD
:1052C0008E04882369F180918F04909190049C0151
:1052D0002F5F3F4F3093900420938F04893E93407B
:1052E00020F4809103018230D9F48091910490914F
:1052F00092049C012F5F3F4F3093920420939104BE
:105300008739910568F080918D0481110E94270FE3
:1053100080918E040E94270F1092920410929104A3
:105320000E942F1FCF91FF90EF90DF90CF900C94B1
:10533000481880EAC82E86E8D82EEE24E394F12C93
:10534000C1E088EE93E00E94C803882309F453C0AB
:1053500080919A04809399048AE994E00E94E3037F
:10536000892B79F7C0929304D0929404E09295042B
:10537000F092960480919A048E3EA1F40E94270F29
:10538000C093970480919A04823029F078F488239E
:10539000B9F08130B1F690919904903F91F68093E5
:1053A0000301CFCF8AEF0E94270FECCF823F91F00D
:1053B0008F3F39F68AEA0E94270F10929704C1CFD7
:1053C00080919904803F09F0BCCF809103010E9435
:1053D000270FB7CF8BEA0E94270F83E8F8CF0197FA
:1053E000A109B1098093930490939404A093950428
:1053F000B09396045FCFCF91FF90EF90DF90CF9066
:10540000089541E06091190180911A010E94740091
:1054100041E06091190180911A010E94180141E058
:1054200060911701809118010E94740041E0609121
:105430001701809118010E94180141E06091160146
:10544000809158050E94740041E06091160180919E
:1054500058050E94180141E06091140180911501E6
:105460000E94740041E060911401809115010E9436
:10547000180141E060911201809113010E947400B3
:1054800041E060911201809113010C941801CF93B7
:10549000DF93CDB7DEB72A970FB6F894DEBF0FBE05
:1054A000CDBFD79ADF98D598DD9A80916100826050
:1054B00080936100809162008D7F80936200D49A16
:1054C000DC9A0E94AF030E949B040E94E71E0E9488
:1054D000012A10926D0410926C04D698DE9A85E031
:1054E000E9E5F1E0DE01169601900D928A95E1F76B
:1054F00045E050E070E060E0CE0101960E947B2B19
:10550000FE013196DE011696AD0121E0CD016191DB
:105510003D91631320E0E417F507C9F72223C1F199
:1055200085E090E00E948B2B90E00E9437129093D0
:10553000A1048093A00486E090E00E948B2B82302F
:1055400008F080E08093AB0487E090E00E948B2B12
:10555000823008F080E08093AA0488E090E00E9406
:105560008B2B823008F080E08093A90489E090E0E2
:105570000E948B2B823008F080E0809386042A966C
:105580000FB6F894DEBF0FBECDBFDF91CF91089567
:1055900045E050E070E060E00E94932B60E085E021
:1055A00090E00E949D2B61E086E090E00E949D2BA0
:1055B00060E087E090E00E949D2B60E088E090E052
:1055C0000E949D2B60E089E090E00E949D2BD7CF48
:1055D00008950E94422B0E94E82A0E94472AC0E0B8
:1055E000D0E00E942B292097E1F30E940000F9CF20
:1055F0001F920F920FB60F9211242F933F938F9308
:105600009F93AF93BF9380915A0590915B05A091B2
:105610005C05B0915D053091590523E0230F2D37CE
:1056200058F50196A11DB11D2093590580935A0587
:1056300090935B05A0935C05B0935D0580915E053A
:1056400090915F05A0916005B09161050196A11D43
:10565000B11D80935E0590935F05A0936005B093A4
:105660006105BF91AF919F918F913F912F910F90C5
:105670000FBE0F901F90189526E8230F0296A11DCC
:10568000B11DD2CF789483B7806483BF83B788601D
:1056900083BF83B7846083BF87B7816087BF1EBC29
:1056A0008EB582608EBD8EB581608EBD8FB58160F6
:1056B0008FBD85B5846085BD85B5806485BDEAE80C
:1056C000F0E0808182608083808181608083EBE86C
:1056D000F0E0808181608083329A319A309A379AE3
:1056E0001AB80895EE0FFF1F0024001C0BBE079090
:1056F000F691E02D0994DC01CB01FC01E199FECF8C
:1057000006C0FFBBEEBBE09A31960DB20D92415040
:105710005040B8F70895E199FECF9FBB8EBBE09A49
:1057200099278DB30895DC01CB0103C02D910E9410
:105730009E2B41505040D0F70895262FE199FECF7F
:105740009FBB8EBB2DBB0FB6F894E29AE19A0FBEB9
:0857500001960895F894FFCFC3
:10575800011412022C011B0B191A29255322170EAA
:10576800100D0506050702020102020505050505DB
:1057780003000504030201000502020704040404EF
:1057880007030303030304060300020406000002E0
:1057980004060703030704040404070202020301C2
:1057A80001070503010407050353554741520075D6
:1057B800726B74706C7D71697A1C322123242B34CE
:1057C80033433B424B3A31444D152D1B2C3C2A1D8B
:1057D80022351A161E26252E363D3E464505060458
:1057E8000C030B830A0109780769727A6B73746C6E
:1057F800757D704A7C7B795A717776664914117E7B
:105808005A291259580E0D55414C0048504B4D52CB
:1058180047494B4F511E302E201221222317242591
:10582800263231181910131F14162F112D152C029A
:10583800030405060708090A0B3B3C3D3E3F40416F
:1058480042434457584F50514B4C4D4748495235A5
:10585800374A4E1C5345010E341D38461C392A362A
:105868003A290F0D332705423224222C04044D21F6
:10587800222C04093A3C4B2C4321443A4D04093468
:105888001C4B1C421B433B1C04031B3A1B04044DCA
:1058980021222C04051C4D4D4B2404073B3C4D4351
:1058A8002C242D04031B1C3A0404442D4321040317
:1058B8002A432104051C21442D31040332322104DA
:1058C800051C2C1C2D4304052C2D1B3E45060321CD
:1058D8001636040321362504033A1B220403214DFE
:1058E8002104021A22010102030405FFFF0DFFFF34
:1058F80009FF0C0E0F0011080706FFFF12FFFFFF3C
:10590800FFFF0BFFFFFFFF1310FFFFFFFF0A010858
:105918000801010001000001400808080801010110
:105928000001010101080800014001010001000017
:10593800010000000001020304050629290D56563E
:105948007E0229282B350A090C0703330D1B1A0080
:10595800349C0C08000B1B351A000034331B3C3AEE
:1059680000004B000000000000000000000E004D89
:105978004850000000000000000000000F00000078
:1059880000010000000002030405061011121314A0
:105998001E1F2021220B0A090807191817161500BF
:1059A8002C2D2E2F1C262524233900323130065861
:1059B80000006B000000000000000000006600749A
:1059C8007572000000000000000000000D000000DB
:1059D800007600000000161E26252E00000000009C
:1059E80000151D242D2C0000000000001C1B232B7B
:1059F8003400000000000045463E3D36000000002F
:105A080000004D44433C35000000000000001A220D
:105A1800212A0000000000005A4B423B33000000DE
:105A280000000029003A31320000000000000000A8
:105A380000000000000000524C0000000000494136
:105A4800000000000000000000040C0558006B0076
:105A5800000000007475660100720000000000007C
:105A680000760D00003B4435292B1C3A4321443A6B
:105A78003B4435291C2C1C2D431B3A232C1A22236A
:105A88003C433144213C2D1B442D1B2942324D21DE
:105A980023244B29322D241C42442B2B2944312901
:105AA800212B342B4B1C1B33242345161E26252E55
:0C5AB800363D3E460206000902000200D6
:00000001FF
